{"contracts/MockMusicRegistry.sol":{"MockMusicRegistry":{"abi":[{"anonymous":false,"inputs":[{"indexed":true,"internalType":"address","name":"licensee","type":"address"},{"indexed":false,"internalType":"string","name":"songId","type":"string"},{"indexed":false,"internalType":"string","name":"licenseId","type":"string"}],"name":"LicenseGranted","type":"event"},{"anonymous":false,"inputs":[{"indexed":true,"internalType":"address","name":"artist","type":"address"},{"indexed":false,"internalType":"string","name":"songId","type":"string"},{"indexed":false,"internalType":"string","name":"metadataURI","type":"string"}],"name":"SongRegistered","type":"event"},{"inputs":[{"internalType":"string","name":"songId","type":"string"},{"internalType":"string","name":"licenseId","type":"string"}],"name":"grantLicense","outputs":[],"stateMutability":"nonpayable","type":"function"},{"inputs":[{"internalType":"string","name":"songId","type":"string"},{"internalType":"string","name":"metadataURI","type":"string"}],"name":"registerSong","outputs":[],"stateMutability":"nonpayable","type":"function"}],"evm":{"bytecode":{"linkReferences":{},"object":"6080604052348015600f57600080fd5b506103d98061001f6000396000f3fe608060405234801561001057600080fd5b50600436106100365760003560e01c80639024a2281461003b578063c38fae9714610057575b600080fd5b61005560048036038101906100509190610275565b610073565b005b610071600480360381019061006c9190610275565b6100c7565b005b3373ffffffffffffffffffffffffffffffffffffffff167f73d7e903e272ac5e1272400291ff9fc55b93b047ad93d562fdddd3f37666b77b83836040516100bb92919061036c565b60405180910390a25050565b3373ffffffffffffffffffffffffffffffffffffffff167f32634a1937a85dcc9c45e5e767839999f8fd9bfe47544bffe27f2448861766b0838360405161010f92919061036c565b60405180910390a25050565b6000604051905090565b600080fd5b600080fd5b600080fd5b600080fd5b6000601f19601f8301169050919050565b7f4e487b7100000000000000000000000000000000000000000000000000000000600052604160045260246000fd5b61018282610139565b810181811067ffffffffffffffff821117156101a1576101a061014a565b5b80604052505050565b60006101b461011b565b90506101c08282610179565b919050565b600067ffffffffffffffff8211156101e0576101df61014a565b5b6101e982610139565b9050602081019050919050565b82818337600083830152505050565b6000610218610213846101c5565b6101aa565b90508281526020810184848401111561023457610233610134565b5b61023f8482856101f6565b509392505050565b600082601f83011261025c5761025b61012f565b5b813561026c848260208601610205565b91505092915050565b6000806040838503121561028c5761028b610125565b5b600083013567ffffffffffffffff8111156102aa576102a961012a565b5b6102b685828601610247565b925050602083013567ffffffffffffffff8111156102d7576102d661012a565b5b6102e385828601610247565b9150509250929050565b600081519050919050565b600082825260208201905092915050565b60005b8381101561032757808201518184015260208101905061030c565b60008484015250505050565b600061033e826102ed565b61034881856102f8565b9350610358818560208601610309565b61036181610139565b840191505092915050565b600060408201905081810360008301526103868185610333565b9050818103602083015261039a8184610333565b9050939250505056fea26469706673582212202f9f8761ca75ed24741b6b02bf734c75a822bd4d108a28ddbe3e6765b795f6df64736f6c634300081c0033","opcodes":"PUSH1 0x80 PUSH1 0x40 MSTORE CALLVALUE DUP1 ISZERO PUSH1 0xF JUMPI PUSH1 0x0 DUP1 REVERT JUMPDEST POP PUSH2 0x3D9 DUP1 PUSH2 0x1F PUSH1 0x0 CODECOPY PUSH1 0x0 RETURN INVALID PUSH1 0x80 PUSH1 0x40 MSTORE CALLVALUE DUP1 ISZERO PUSH2 0x10 JUMPI PUSH1 0x0 DUP1 REVERT JUMPDEST POP PUSH1 0x4 CALLDATASIZE LT PUSH2 0x36 JUMPI PUSH1 0x0 CALLDATALOAD PUSH1 0xE0 SHR DUP1 PUSH4 0x9024A228 EQ PUSH2 0x3B JUMPI DUP1 PUSH4 0xC38FAE97 EQ PUSH2 0x57 JUMPI JUMPDEST PUSH1 0x0 DUP1 REVERT JUMPDEST PUSH2 0x55 PUSH1 0x4 DUP1 CALLDATASIZE SUB DUP2 ADD SWAP1 PUSH2 0x50 SWAP2 SWAP1 PUSH2 0x275 JUMP JUMPDEST PUSH2 0x73 JUMP JUMPDEST STOP JUMPDEST PUSH2 0x71 PUSH1 0x4 DUP1 CALLDATASIZE SUB DUP2 ADD SWAP1 PUSH2 0x6C SWAP2 SWAP1 PUSH2 0x275 JUMP JUMPDEST PUSH2 0xC7 JUMP JUMPDEST STOP JUMPDEST CALLER PUSH20 0xFFFFFFFFFFFFFFFFFFFFFFFFFFFFFFFFFFFFFFFF AND PUSH32 0x73D7E903E272AC5E1272400291FF9FC55B93B047AD93D562FDDDD3F37666B77B DUP4 DUP4 PUSH1 0x40 MLOAD PUSH2 0xBB SWAP3 SWAP2 SWAP1 PUSH2 0x36C JUMP JUMPDEST PUSH1 0x40 MLOAD DUP1 SWAP2 SUB SWAP1 LOG2 POP POP JUMP JUMPDEST CALLER PUSH20 0xFFFFFFFFFFFFFFFFFFFFFFFFFFFFFFFFFFFFFFFF AND PUSH32 0x32634A1937A85DCC9C45E5E767839999F8FD9BFE47544BFFE27F2448861766B0 DUP4 DUP4 PUSH1 0x40 MLOAD PUSH2 0x10F SWAP3 SWAP2 SWAP1 PUSH2 0x36C JUMP JUMPDEST PUSH1 0x40 MLOAD DUP1 SWAP2 SUB SWAP1 LOG2 POP POP JUMP JUMPDEST PUSH1 0x0 PUSH1 0x40 MLOAD SWAP1 POP SWAP1 JUMP JUMPDEST PUSH1 0x0 DUP1 REVERT JUMPDEST PUSH1 0x0 DUP1 REVERT JUMPDEST PUSH1 0x0 DUP1 REVERT JUMPDEST PUSH1 0x0 DUP1 REVERT JUMPDEST PUSH1 0x0 PUSH1 0x1F NOT PUSH1 0x1F DUP4 ADD AND SWAP1 POP SWAP2 SWAP1 POP JUMP JUMPDEST PUSH32 0x4E487B7100000000000000000000000000000000000000000000000000000000 PUSH1 0x0 MSTORE PUSH1 0x41 PUSH1 0x4 MSTORE PUSH1 0x24 PUSH1 0x0 REVERT JUMPDEST PUSH2 0x182 DUP3 PUSH2 0x139 JUMP JUMPDEST DUP2 ADD DUP2 DUP2 LT PUSH8 0xFFFFFFFFFFFFFFFF DUP3 GT OR ISZERO PUSH2 0x1A1 JUMPI PUSH2 0x1A0 PUSH2 0x14A JUMP JUMPDEST JUMPDEST DUP1 PUSH1 0x40 MSTORE POP POP POP JUMP JUMPDEST PUSH1 0x0 PUSH2 0x1B4 PUSH2 0x11B JUMP JUMPDEST SWAP1 POP PUSH2 0x1C0 DUP3 DUP3 PUSH2 0x179 JUMP JUMPDEST SWAP2 SWAP1 POP JUMP JUMPDEST PUSH1 0x0 PUSH8 0xFFFFFFFFFFFFFFFF DUP3 GT ISZERO PUSH2 0x1E0 JUMPI PUSH2 0x1DF PUSH2 0x14A JUMP JUMPDEST JUMPDEST PUSH2 0x1E9 DUP3 PUSH2 0x139 JUMP JUMPDEST SWAP1 POP PUSH1 0x20 DUP2 ADD SWAP1 POP SWAP2 SWAP1 POP JUMP JUMPDEST DUP3 DUP2 DUP4 CALLDATACOPY PUSH1 0x0 DUP4 DUP4 ADD MSTORE POP POP POP JUMP JUMPDEST PUSH1 0x0 PUSH2 0x218 PUSH2 0x213 DUP5 PUSH2 0x1C5 JUMP JUMPDEST PUSH2 0x1AA JUMP JUMPDEST SWAP1 POP DUP3 DUP2 MSTORE PUSH1 0x20 DUP2 ADD DUP5 DUP5 DUP5 ADD GT ISZERO PUSH2 0x234 JUMPI PUSH2 0x233 PUSH2 0x134 JUMP JUMPDEST JUMPDEST PUSH2 0x23F DUP5 DUP3 DUP6 PUSH2 0x1F6 JUMP JUMPDEST POP SWAP4 SWAP3 POP POP POP JUMP JUMPDEST PUSH1 0x0 DUP3 PUSH1 0x1F DUP4 ADD SLT PUSH2 0x25C JUMPI PUSH2 0x25B PUSH2 0x12F JUMP JUMPDEST JUMPDEST DUP2 CALLDATALOAD PUSH2 0x26C DUP5 DUP3 PUSH1 0x20 DUP7 ADD PUSH2 0x205 JUMP JUMPDEST SWAP2 POP POP SWAP3 SWAP2 POP POP JUMP JUMPDEST PUSH1 0x0 DUP1 PUSH1 0x40 DUP4 DUP6 SUB SLT ISZERO PUSH2 0x28C JUMPI PUSH2 0x28B PUSH2 0x125 JUMP JUMPDEST JUMPDEST PUSH1 0x0 DUP4 ADD CALLDATALOAD PUSH8 0xFFFFFFFFFFFFFFFF DUP2 GT ISZERO PUSH2 0x2AA JUMPI PUSH2 0x2A9 PUSH2 0x12A JUMP JUMPDEST JUMPDEST PUSH2 0x2B6 DUP6 DUP3 DUP7 ADD PUSH2 0x247 JUMP JUMPDEST SWAP3 POP POP PUSH1 0x20 DUP4 ADD CALLDATALOAD PUSH8 0xFFFFFFFFFFFFFFFF DUP2 GT ISZERO PUSH2 0x2D7 JUMPI PUSH2 0x2D6 PUSH2 0x12A JUMP JUMPDEST JUMPDEST PUSH2 0x2E3 DUP6 DUP3 DUP7 ADD PUSH2 0x247 JUMP JUMPDEST SWAP2 POP POP SWAP3 POP SWAP3 SWAP1 POP JUMP JUMPDEST PUSH1 0x0 DUP2 MLOAD SWAP1 POP SWAP2 SWAP1 POP JUMP JUMPDEST PUSH1 0x0 DUP3 DUP3 MSTORE PUSH1 0x20 DUP3 ADD SWAP1 POP SWAP3 SWAP2 POP POP JUMP JUMPDEST PUSH1 0x0 JUMPDEST DUP4 DUP2 LT ISZERO PUSH2 0x327 JUMPI DUP1 DUP3 ADD MLOAD DUP2 DUP5 ADD MSTORE PUSH1 0x20 DUP2 ADD SWAP1 POP PUSH2 0x30C JUMP JUMPDEST PUSH1 0x0 DUP5 DUP5 ADD MSTORE POP POP POP POP JUMP JUMPDEST PUSH1 0x0 PUSH2 0x33E DUP3 PUSH2 0x2ED JUMP JUMPDEST PUSH2 0x348 DUP2 DUP6 PUSH2 0x2F8 JUMP JUMPDEST SWAP4 POP PUSH2 0x358 DUP2 DUP6 PUSH1 0x20 DUP7 ADD PUSH2 0x309 JUMP JUMPDEST PUSH2 0x361 DUP2 PUSH2 0x139 JUMP JUMPDEST DUP5 ADD SWAP2 POP POP SWAP3 SWAP2 POP POP JUMP JUMPDEST PUSH1 0x0 PUSH1 0x40 DUP3 ADD SWAP1 POP DUP2 DUP2 SUB PUSH1 0x0 DUP4 ADD MSTORE PUSH2 0x386 DUP2 DUP6 PUSH2 0x333 JUMP JUMPDEST SWAP1 POP DUP2 DUP2 SUB PUSH1 0x20 DUP4 ADD MSTORE PUSH2 0x39A DUP2 DUP5 PUSH2 0x333 JUMP JUMPDEST SWAP1 POP SWAP4 SWAP3 POP POP POP JUMP INVALID LOG2 PUSH5 0x6970667358 0x22 SLT KECCAK256 0x2F SWAP16 DUP8 PUSH2 0xCA75 0xED 0x24 PUSH21 0x1B6B02BF734C75A822BD4D108A28DDBE3E6765B795 0xF6 0xDF PUSH5 0x736F6C6343 STOP ADDMOD SHR STOP CALLER "},"methodIdentifiers":{"grantLicense(string,string)":"9024a228","registerSong(string,string)":"c38fae97"}}}}}