{
  "_format": "hh-sol-artifact-1",
  "contractName": "MockMusicRegistry",
  "sourceName": "contracts/MockMusicRegistry.sol",
  "abi": [
    {
      "anonymous": false,
      "inputs": [
        {
          "indexed": true,
          "internalType": "address",
          "name": "licensee",
          "type": "address"
        },
        {
          "indexed": false,
          "internalType": "string",
          "name": "songId",
          "type": "string"
        },
        {
          "indexed": false,
          "internalType": "string",
          "name": "licenseId",
          "type": "string"
        }
      ],
      "name": "LicenseGranted",
      "type": "event"
    },
    {
      "anonymous": false,
      "inputs": [
        {
          "indexed": true,
          "internalType": "address",
          "name": "artist",
          "type": "address"
        },
        {
          "indexed": false,
          "internalType": "string",
          "name": "songId",
          "type": "string"
        },
        {
          "indexed": false,
          "internalType": "string",
          "name": "metadataURI",
          "type": "string"
        }
      ],
      "name": "SongRegistered",
      "type": "event"
    },
    {
      "inputs": [
        {
          "internalType": "string",
          "name": "songId",
          "type": "string"
        },
        {
          "internalType": "string",
          "name": "licenseId",
          "type": "string"
        }
      ],
      "name": "grantLicense",
      "outputs": [],
      "stateMutability": "nonpayable",
      "type": "function"
    },
    {
      "inputs": [
        {
          "internalType": "string",
          "name": "songId",
          "type": "string"
        },
        {
          "internalType": "string",
          "name": "metadataURI",
          "type": "string"
        }
      ],
      "name": "registerSong",
      "outputs": [],
      "stateMutability": "nonpayable",
      "type": "function"
    }
  ],
  "bytecode": "0x6080604052348015600f57600080fd5b506103d98061001f6000396000f3fe608060405234801561001057600080fd5b50600436106100365760003560e01c80639024a2281461003b578063c38fae9714610057575b600080fd5b61005560048036038101906100509190610275565b610073565b005b610071600480360381019061006c9190610275565b6100c7565b005b3373ffffffffffffffffffffffffffffffffffffffff167f73d7e903e272ac5e1272400291ff9fc55b93b047ad93d562fdddd3f37666b77b83836040516100bb92919061036c565b60405180910390a25050565b3373ffffffffffffffffffffffffffffffffffffffff167f32634a1937a85dcc9c45e5e767839999f8fd9bfe47544bffe27f2448861766b0838360405161010f92919061036c565b60405180910390a25050565b6000604051905090565b600080fd5b600080fd5b600080fd5b600080fd5b6000601f19601f8301169050919050565b7f4e487b7100000000000000000000000000000000000000000000000000000000600052604160045260246000fd5b61018282610139565b810181811067ffffffffffffffff821117156101a1576101a061014a565b5b80604052505050565b60006101b461011b565b90506101c08282610179565b919050565b600067ffffffffffffffff8211156101e0576101df61014a565b5b6101e982610139565b9050602081019050919050565b82818337600083830152505050565b6000610218610213846101c5565b6101aa565b90508281526020810184848401111561023457610233610134565b5b61023f8482856101f6565b509392505050565b600082601f83011261025c5761025b61012f565b5b813561026c848260208601610205565b91505092915050565b6000806040838503121561028c5761028b610125565b5b600083013567ffffffffffffffff8111156102aa576102a961012a565b5b6102b685828601610247565b925050602083013567ffffffffffffffff8111156102d7576102d661012a565b5b6102e385828601610247565b9150509250929050565b600081519050919050565b600082825260208201905092915050565b60005b8381101561032757808201518184015260208101905061030c565b60008484015250505050565b600061033e826102ed565b61034881856102f8565b9350610358818560208601610309565b61036181610139565b840191505092915050565b600060408201905081810360008301526103868185610333565b9050818103602083015261039a8184610333565b9050939250505056fea26469706673582212202f9f8761ca75ed24741b6b02bf734c75a822bd4d108a28ddbe3e6765b795f6df64736f6c634300081c0033",
  "linkReferences": {},
  "deployedLinkReferences": {}
}