{
  "_format": "hh-sol-artifact-1",
  "contractName": "OysterVault",
  "sourceName": "contracts/OysterVault.sol",
  "abi": [
    {
      "inputs": [
        {
          "internalType": "contract IERC20",
          "name": "_oysterToken",
          "type": "address"
        },
        {
          "internalType": "address",
          "name": "initialOwner",
          "type": "address"
        }
      ],
      "stateMutability": "nonpayable",
      "type": "constructor"
    },
    {
      "inputs": [
        {
          "internalType": "address",
          "name": "owner",
          "type": "address"
        }
      ],
      "name": "OwnableInvalidOwner",
      "type": "error"
    },
    {
      "inputs": [
        {
          "internalType": "address",
          "name": "account",
          "type": "address"
        }
      ],
      "name": "OwnableUnauthorizedAccount",
      "type": "error"
    },
    {
      "anonymous": false,
      "inputs": [
        {
          "indexed": true,
          "internalType": "address",
          "name": "contractAddress",
          "type": "address"
        },
        {
          "indexed": false,
          "internalType": "bool",
          "name": "authorized",
          "type": "bool"
        }
      ],
      "name": "ContractAuthorized",
      "type": "event"
    },
    {
      "anonymous": false,
      "inputs": [
        {
          "indexed": false,
          "internalType": "string",
          "name": "message",
          "type": "string"
        }
      ],
      "name": "Log",
      "type": "event"
    },
    {
      "anonymous": false,
      "inputs": [
        {
          "indexed": false,
          "internalType": "string",
          "name": "message",
          "type": "string"
        },
        {
          "indexed": false,
          "internalType": "address",
          "name": "addr",
          "type": "address"
        }
      ],
      "name": "LogAddress",
      "type": "event"
    },
    {
      "anonymous": false,
      "inputs": [
        {
          "indexed": false,
          "internalType": "string",
          "name": "message",
          "type": "string"
        },
        {
          "indexed": false,
          "internalType": "uint256",
          "name": "value",
          "type": "uint256"
        }
      ],
      "name": "LogUint",
      "type": "event"
    },
    {
      "anonymous": false,
      "inputs": [
        {
          "indexed": true,
          "internalType": "address",
          "name": "previousOwner",
          "type": "address"
        },
        {
          "indexed": true,
          "internalType": "address",
          "name": "newOwner",
          "type": "address"
        }
      ],
      "name": "OwnershipTransferred",
      "type": "event"
    },
    {
      "anonymous": false,
      "inputs": [
        {
          "indexed": true,
          "internalType": "address",
          "name": "holder",
          "type": "address"
        },
        {
          "indexed": false,
          "internalType": "uint256",
          "name": "amount",
          "type": "uint256"
        }
      ],
      "name": "ReceiveTokens",
      "type": "event"
    },
    {
      "anonymous": false,
      "inputs": [
        {
          "indexed": true,
          "internalType": "address",
          "name": "_to",
          "type": "address"
        },
        {
          "indexed": false,
          "internalType": "uint256",
          "name": "amount",
          "type": "uint256"
        }
      ],
      "name": "SendToken",
      "type": "event"
    },
    {
      "anonymous": false,
      "inputs": [
        {
          "indexed": true,
          "internalType": "address",
          "name": "to",
          "type": "address"
        },
        {
          "indexed": false,
          "internalType": "uint256",
          "name": "amount",
          "type": "uint256"
        }
      ],
      "name": "TokensDistributed",
      "type": "event"
    },
    {
      "anonymous": false,
      "inputs": [
        {
          "indexed": true,
          "internalType": "address",
          "name": "from",
          "type": "address"
        },
        {
          "indexed": false,
          "internalType": "uint256",
          "name": "amount",
          "type": "uint256"
        }
      ],
      "name": "TokensRecieved",
      "type": "event"
    },
    {
      "anonymous": false,
      "inputs": [
        {
          "indexed": true,
          "internalType": "address",
          "name": "to",
          "type": "address"
        },
        {
          "indexed": false,
          "internalType": "uint256",
          "name": "weiAmount",
          "type": "uint256"
        }
      ],
      "name": "WeiRefunded",
      "type": "event"
    },
    {
      "inputs": [
        {
          "internalType": "address",
          "name": "contractAddress",
          "type": "address"
        },
        {
          "internalType": "bool",
          "name": "authorize",
          "type": "bool"
        }
      ],
      "name": "authorizeContract",
      "outputs": [],
      "stateMutability": "nonpayable",
      "type": "function"
    },
    {
      "inputs": [
        {
          "internalType": "address",
          "name": "",
          "type": "address"
        }
      ],
      "name": "authorizedContracts",
      "outputs": [
        {
          "internalType": "bool",
          "name": "",
          "type": "bool"
        }
      ],
      "stateMutability": "view",
      "type": "function"
    },
    {
      "inputs": [],
      "name": "owner",
      "outputs": [
        {
          "internalType": "address",
          "name": "",
          "type": "address"
        }
      ],
      "stateMutability": "view",
      "type": "function"
    },
    {
      "inputs": [],
      "name": "oysterToken",
      "outputs": [
        {
          "internalType": "contract IERC20",
          "name": "",
          "type": "address"
        }
      ],
      "stateMutability": "view",
      "type": "function"
    },
    {
      "inputs": [
        {
          "internalType": "address",
          "name": "holder",
          "type": "address"
        },
        {
          "internalType": "uint256",
          "name": "amount",
          "type": "uint256"
        }
      ],
      "name": "receiveTokens",
      "outputs": [
        {
          "internalType": "bool",
          "name": "",
          "type": "bool"
        }
      ],
      "stateMutability": "nonpayable",
      "type": "function"
    },
    {
      "inputs": [],
      "name": "renounceOwnership",
      "outputs": [],
      "stateMutability": "nonpayable",
      "type": "function"
    },
    {
      "inputs": [
        {
          "internalType": "address",
          "name": "_to",
          "type": "address"
        },
        {
          "internalType": "uint256",
          "name": "amount",
          "type": "uint256"
        }
      ],
      "name": "sendToken",
      "outputs": [
        {
          "internalType": "bool",
          "name": "",
          "type": "bool"
        }
      ],
      "stateMutability": "nonpayable",
      "type": "function"
    },
    {
      "inputs": [
        {
          "internalType": "address",
          "name": "newOwner",
          "type": "address"
        }
      ],
      "name": "transferOwnership",
      "outputs": [],
      "stateMutability": "nonpayable",
      "type": "function"
    },
    {
      "inputs": [],
      "name": "viewTokensVault",
      "outputs": [
        {
          "internalType": "uint256",
          "name": "",
          "type": "uint256"
        }
      ],
      "stateMutability": "view",
      "type": "function"
    }
  ],
  "bytecode": "0x608060405234801561001057600080fd5b50604051610cd7380380610cd783398101604081905261002f916100f6565b806001600160a01b03811661005e57604051631e4fbdf760e01b81526000600482015260240160405180910390fd5b6100678161008e565b5050600180546001600160a01b0319166001600160a01b0392909216919091179055610130565b600080546001600160a01b038381166001600160a01b0319831681178455604051919092169283917f8be0079c531659141344cd1fd0a4f28419497f9722a3daafe3b4186f6b6457e09190a35050565b6001600160a01b03811681146100f357600080fd5b50565b6000806040838503121561010957600080fd5b8251610114816100de565b6020840151909250610125816100de565b809150509250929050565b610b988061013f6000396000f3fe608060405234801561001057600080fd5b50600436106100935760003560e01c8063715018a611610066578063715018a6146100fe5780638da5cb5b14610106578063d5b9221b1461012b578063f2fde38b1461014e578063fd994c161461016157600080fd5b80631f4aad2a1461009857806335729130146100b3578063412664ae146100d65780635cbeb13f146100e9575b600080fd5b6100a0610174565b6040519081526020015b60405180910390f35b6100c66100c1366004610a2e565b6101e6565b60405190151581526020016100aa565b6100c66100e4366004610a2e565b610511565b6100fc6100f7366004610a66565b6108dc565b005b6100fc610943565b6000546001600160a01b03165b6040516001600160a01b0390911681526020016100aa565b6100c6610139366004610a9d565b60026020526000908152604090205460ff1681565b6100fc61015c366004610a9d565b610957565b600154610113906001600160a01b031681565b6001546040516370a0823160e01b81523060048201526000916001600160a01b0316906370a0823190602401602060405180830381865afa1580156101bd573d6000803e3d6000fd5b505050506040513d601f19601f820116820180604052508101906101e19190610abf565b905090565b3360009081526002602052604081205460ff166102425760405162461bcd60e51b8152602060048201526015602482015274155b985d5d1a1bdc9a5e99590818dbdb9d1c9858dd605a1b60448201526064015b60405180910390fd5b600080516020610b238339815191526040516102999060208082526021908201527f4f79737465725661756c743a2072656365697665546f6b656e732063616c6c656040820152601960fa1b606082015260800190565b60405180910390a1600080516020610b43833981519152336040516102be9190610ad8565b60405180910390a160408051818152600681830152653437b63232b960d11b60608201526001600160a01b03851660208201529051600080516020610b438339815191529181900360800190a16040805181815260068183015265185b5bdd5b9d60d21b60608201526020810184905290517f941296a39ea107bde685522318a4b6c2b544904a5dd82a512748ca2cf839bef79181900360800190a1826001600160a01b03167f8a9ec8a2d659e0ab4970a2d10018141e8b8779d78c4b5883d55382bd1144eff88360405161039591815260200190565b60405180910390a26001546040516323b872dd60e01b81526001600160a01b03858116600483015230602483015260448201859052909116906323b872dd906064016020604051808303816000875af11580156103f6573d6000803e3d6000fd5b505050506040513d601f19601f8201168201806040525081019061041a9190610b05565b61045e5760405162461bcd60e51b8152602060048201526015602482015274151bdad95b881d1c985b9cd9995c8819985a5b1959605a1b6044820152606401610239565b826001600160a01b03167f656c83d0d1a4a41c0e34ea8b02d211385e09a2cf0c0922435884dc1a64cd9ce08360405161049991815260200190565b60405180910390a2600080516020610b238339815191526040516105009060208082526029908201527f4f79737465725661756c743a20546f6b656e735265636965766564206576656e6040820152681d08195b5a5d1d195960ba1b606082015260800190565b60405180910390a150600192915050565b600061051b610995565b600080516020610b23833981519152604051610568906020808252601d908201527f4f79737465725661756c743a2073656e64546f6b656e2063616c6c6564000000604082015260600190565b60405180910390a1600080516020610b438339815191523360405161058d9190610ad8565b60405180910390a16040805181815260028183015261746f60f01b60608201526001600160a01b03851660208201529051600080516020610b438339815191529181900360800190a16040805181815260068183015265185b5bdd5b9d60d21b60608201526020810184905290517f941296a39ea107bde685522318a4b6c2b544904a5dd82a512748ca2cf839bef79181900360800190a1826001600160a01b03167f916800025d85907d1e91e112659a8e7e77a17ea4de231b05f15bb381d3bfde618360405161066091815260200190565b60405180910390a2600082116106b85760405162461bcd60e51b815260206004820181905260248201527f416d6f756e74206d7573742062652067726561746572207468616e207a65726f6044820152606401610239565b6001546040516370a0823160e01b815230600482015283916001600160a01b0316906370a0823190602401602060405180830381865afa158015610700573d6000803e3d6000fd5b505050506040513d601f19601f820116820180604052508101906107249190610abf565b101561077c5760405162461bcd60e51b815260206004820152602160248201527f5661756c7420646f6573206e6f74206861766520656e6f75676820746f6b656e6044820152607360f81b6064820152608401610239565b60015460405163a9059cbb60e01b81526001600160a01b038581166004830152602482018590529091169063a9059cbb906044016020604051808303816000875af11580156107cf573d6000803e3d6000fd5b505050506040513d601f19601f820116820180604052508101906107f39190610b05565b6108375760405162461bcd60e51b8152602060048201526015602482015274151bdad95b881d1c985b9cd9995c8819985a5b1959605a1b6044820152606401610239565b826001600160a01b03167f16b0da2ffcb90c6723317bd637d9aad7f04711f42bbe0ac0918ebe10f1f9001c8360405161087291815260200190565b60405180910390a2600080516020610b23833981519152604051610500906020808252602c908201527f4f79737465725661756c743a20546f6b656e734469737472696275746564206560408201526b1d995b9d08195b5a5d1d195960a21b606082015260800190565b6108e4610995565b6001600160a01b038216600081815260026020908152604091829020805460ff191685151590811790915591519182527f3213ab8ec2ed122402f038736b41878b69ae9f61f49a7edd0666bce891d29fc9910160405180910390a25050565b61094b610995565b61095560006109c2565b565b61095f610995565b6001600160a01b03811661098957604051631e4fbdf760e01b815260006004820152602401610239565b610992816109c2565b50565b6000546001600160a01b031633146109555760405163118cdaa760e01b8152336004820152602401610239565b600080546001600160a01b038381166001600160a01b0319831681178455604051919092169283917f8be0079c531659141344cd1fd0a4f28419497f9722a3daafe3b4186f6b6457e09190a35050565b80356001600160a01b0381168114610a2957600080fd5b919050565b60008060408385031215610a4157600080fd5b610a4a83610a12565b946020939093013593505050565b801515811461099257600080fd5b60008060408385031215610a7957600080fd5b610a8283610a12565b91506020830135610a9281610a58565b809150509250929050565b600060208284031215610aaf57600080fd5b610ab882610a12565b9392505050565b600060208284031215610ad157600080fd5b5051919050565b604080825260029082015261627960f01b60608201526001600160a01b0391909116602082015260800190565b600060208284031215610b1757600080fd5b8151610ab881610a5856fecf34ef537ac33ee1ac626ca1587a0a7e8e51561e5514f8cb36afa1c5102b3bab62ddffe5b5108385f7a590f100e1ee414ad9551a31f089e64e82998440785e1ea2646970667358221220927aedf748dcf7ca43809efa39769d41a654e57038853607a189b2a29ca0825164736f6c634300081c0033",
  "linkReferences": {},
  "deployedLinkReferences": {}
}