{
  "_format": "hh-sol-artifact-1",
  "contractName": "OysterVault",
  "sourceName": "contracts/OysterVault.sol",
  "abi": [
    {
      "inputs": [
        {
          "internalType": "contract OysterToken",
          "name": "_oysterToken",
          "type": "address"
        },
        {
          "internalType": "address",
          "name": "initialOwner",
          "type": "address"
        }
      ],
      "stateMutability": "nonpayable",
      "type": "constructor"
    },
    {
      "inputs": [
        {
          "internalType": "address",
          "name": "owner",
          "type": "address"
        }
      ],
      "name": "OwnableInvalidOwner",
      "type": "error"
    },
    {
      "inputs": [
        {
          "internalType": "address",
          "name": "account",
          "type": "address"
        }
      ],
      "name": "OwnableUnauthorizedAccount",
      "type": "error"
    },
    {
      "anonymous": false,
      "inputs": [
        {
          "indexed": true,
          "internalType": "address",
          "name": "previousOwner",
          "type": "address"
        },
        {
          "indexed": true,
          "internalType": "address",
          "name": "newOwner",
          "type": "address"
        }
      ],
      "name": "OwnershipTransferred",
      "type": "event"
    },
    {
      "anonymous": false,
      "inputs": [
        {
          "indexed": true,
          "internalType": "address",
          "name": "to",
          "type": "address"
        },
        {
          "indexed": false,
          "internalType": "uint256",
          "name": "amount",
          "type": "uint256"
        }
      ],
      "name": "TokensDistributed",
      "type": "event"
    },
    {
      "inputs": [],
      "name": "owner",
      "outputs": [
        {
          "internalType": "address",
          "name": "",
          "type": "address"
        }
      ],
      "stateMutability": "view",
      "type": "function"
    },
    {
      "inputs": [],
      "name": "oysterToken",
      "outputs": [
        {
          "internalType": "contract OysterToken",
          "name": "",
          "type": "address"
        }
      ],
      "stateMutability": "view",
      "type": "function"
    },
    {
      "inputs": [],
      "name": "renounceOwnership",
      "outputs": [],
      "stateMutability": "nonpayable",
      "type": "function"
    },
    {
      "inputs": [
        {
          "internalType": "address",
          "name": "to",
          "type": "address"
        },
        {
          "internalType": "uint256",
          "name": "amount",
          "type": "uint256"
        }
      ],
      "name": "sendToken",
      "outputs": [
        {
          "internalType": "bool",
          "name": "",
          "type": "bool"
        }
      ],
      "stateMutability": "nonpayable",
      "type": "function"
    },
    {
      "inputs": [
        {
          "internalType": "address",
          "name": "newOwner",
          "type": "address"
        }
      ],
      "name": "transferOwnership",
      "outputs": [],
      "stateMutability": "nonpayable",
      "type": "function"
    },
    {
      "inputs": [],
      "name": "viewTokensVault",
      "outputs": [
        {
          "internalType": "uint256",
          "name": "",
          "type": "uint256"
        }
      ],
      "stateMutability": "view",
      "type": "function"
    }
  ],
  "bytecode": "0x608060405234801561001057600080fd5b50604051610ecc380380610ecc83398181016040528101906100329190610262565b80600073ffffffffffffffffffffffffffffffffffffffff168173ffffffffffffffffffffffffffffffffffffffff16036100a55760006040517f1e4fbdf700000000000000000000000000000000000000000000000000000000815260040161009c91906102b1565b60405180910390fd5b6100b4816100fd60201b60201c565b5081600160006101000a81548173ffffffffffffffffffffffffffffffffffffffff021916908373ffffffffffffffffffffffffffffffffffffffff16021790555050506102cc565b60008060009054906101000a900473ffffffffffffffffffffffffffffffffffffffff169050816000806101000a81548173ffffffffffffffffffffffffffffffffffffffff021916908373ffffffffffffffffffffffffffffffffffffffff1602179055508173ffffffffffffffffffffffffffffffffffffffff168173ffffffffffffffffffffffffffffffffffffffff167f8be0079c531659141344cd1fd0a4f28419497f9722a3daafe3b4186f6b6457e060405160405180910390a35050565b600080fd5b600073ffffffffffffffffffffffffffffffffffffffff82169050919050565b60006101f1826101c6565b9050919050565b6000610203826101e6565b9050919050565b610213816101f8565b811461021e57600080fd5b50565b6000815190506102308161020a565b92915050565b61023f816101e6565b811461024a57600080fd5b50565b60008151905061025c81610236565b92915050565b60008060408385031215610279576102786101c1565b5b600061028785828601610221565b92505060206102988582860161024d565b9150509250929050565b6102ab816101e6565b82525050565b60006020820190506102c660008301846102a2565b92915050565b610bf1806102db6000396000f3fe608060405234801561001057600080fd5b50600436106100625760003560e01c80631f4aad2a14610067578063412664ae14610085578063715018a6146100b55780638da5cb5b146100bf578063f2fde38b146100dd578063fd994c16146100f9575b600080fd5b61006f610117565b60405161007c91906106f9565b60405180910390f35b61009f600480360381019061009a91906107a3565b6101ba565b6040516100ac91906107fe565b60405180910390f35b6100bd6104a4565b005b6100c76104b8565b6040516100d49190610828565b60405180910390f35b6100f760048036038101906100f29190610843565b6104e1565b005b610101610567565b60405161010e91906108cf565b60405180910390f35b6000600160009054906101000a900473ffffffffffffffffffffffffffffffffffffffff1673ffffffffffffffffffffffffffffffffffffffff166370a08231306040518263ffffffff1660e01b81526004016101749190610828565b602060405180830381865afa158015610191573d6000803e3d6000fd5b505050506040513d601f19601f820116820180604052508101906101b591906108ff565b905090565b6000600160009054906101000a900473ffffffffffffffffffffffffffffffffffffffff1673ffffffffffffffffffffffffffffffffffffffff163373ffffffffffffffffffffffffffffffffffffffff161461024c576040517f08c379a0000000000000000000000000000000000000000000000000000000008152600401610243906109af565b60405180910390fd5b6000821161028f576040517f08c379a000000000000000000000000000000000000000000000000000000000815260040161028690610a1b565b60405180910390fd5b81600160009054906101000a900473ffffffffffffffffffffffffffffffffffffffff1673ffffffffffffffffffffffffffffffffffffffff166370a08231306040518263ffffffff1660e01b81526004016102eb9190610828565b602060405180830381865afa158015610308573d6000803e3d6000fd5b505050506040513d601f19601f8201168201806040525081019061032c91906108ff565b101561036d576040517f08c379a000000000000000000000000000000000000000000000000000000000815260040161036490610aad565b60405180910390fd5b600160009054906101000a900473ffffffffffffffffffffffffffffffffffffffff1673ffffffffffffffffffffffffffffffffffffffff1663a9059cbb84846040518363ffffffff1660e01b81526004016103ca929190610acd565b6020604051808303816000875af11580156103e9573d6000803e3d6000fd5b505050506040513d601f19601f8201168201806040525081019061040d9190610b22565b61044c576040517f08c379a000000000000000000000000000000000000000000000000000000000815260040161044390610b9b565b60405180910390fd5b8273ffffffffffffffffffffffffffffffffffffffff167f16b0da2ffcb90c6723317bd637d9aad7f04711f42bbe0ac0918ebe10f1f9001c8360405161049291906106f9565b60405180910390a26001905092915050565b6104ac61058d565b6104b66000610614565b565b60008060009054906101000a900473ffffffffffffffffffffffffffffffffffffffff16905090565b6104e961058d565b600073ffffffffffffffffffffffffffffffffffffffff168173ffffffffffffffffffffffffffffffffffffffff160361055b5760006040517f1e4fbdf70000000000000000000000000000000000000000000000000000000081526004016105529190610828565b60405180910390fd5b61056481610614565b50565b600160009054906101000a900473ffffffffffffffffffffffffffffffffffffffff1681565b6105956106d8565b73ffffffffffffffffffffffffffffffffffffffff166105b36104b8565b73ffffffffffffffffffffffffffffffffffffffff1614610612576105d66106d8565b6040517f118cdaa70000000000000000000000000000000000000000000000000000000081526004016106099190610828565b60405180910390fd5b565b60008060009054906101000a900473ffffffffffffffffffffffffffffffffffffffff169050816000806101000a81548173ffffffffffffffffffffffffffffffffffffffff021916908373ffffffffffffffffffffffffffffffffffffffff1602179055508173ffffffffffffffffffffffffffffffffffffffff168173ffffffffffffffffffffffffffffffffffffffff167f8be0079c531659141344cd1fd0a4f28419497f9722a3daafe3b4186f6b6457e060405160405180910390a35050565b600033905090565b6000819050919050565b6106f3816106e0565b82525050565b600060208201905061070e60008301846106ea565b92915050565b600080fd5b600073ffffffffffffffffffffffffffffffffffffffff82169050919050565b600061074482610719565b9050919050565b61075481610739565b811461075f57600080fd5b50565b6000813590506107718161074b565b92915050565b610780816106e0565b811461078b57600080fd5b50565b60008135905061079d81610777565b92915050565b600080604083850312156107ba576107b9610714565b5b60006107c885828601610762565b92505060206107d98582860161078e565b9150509250929050565b60008115159050919050565b6107f8816107e3565b82525050565b600060208201905061081360008301846107ef565b92915050565b61082281610739565b82525050565b600060208201905061083d6000830184610819565b92915050565b60006020828403121561085957610858610714565b5b600061086784828501610762565b91505092915050565b6000819050919050565b600061089561089061088b84610719565b610870565b610719565b9050919050565b60006108a78261087a565b9050919050565b60006108b98261089c565b9050919050565b6108c9816108ae565b82525050565b60006020820190506108e460008301846108c0565b92915050565b6000815190506108f981610777565b92915050565b60006020828403121561091557610914610714565b5b6000610923848285016108ea565b91505092915050565b600082825260208201905092915050565b7f546869732066756e6374696f6e2063616e206f6e6c792062652063616c6c656460008201527f20627920746865204f7973746572546f6b656e20616464726573730000000000602082015250565b6000610999603b8361092c565b91506109a48261093d565b604082019050919050565b600060208201905081810360008301526109c88161098c565b9050919050565b7f416d6f756e74206d7573742062652067726561746572207468616e207a65726f600082015250565b6000610a0560208361092c565b9150610a10826109cf565b602082019050919050565b60006020820190508181036000830152610a34816109f8565b9050919050565b7f5661756c7420646f6573206e6f74206861766520656e6f75676820746f6b656e60008201527f7300000000000000000000000000000000000000000000000000000000000000602082015250565b6000610a9760218361092c565b9150610aa282610a3b565b604082019050919050565b60006020820190508181036000830152610ac681610a8a565b9050919050565b6000604082019050610ae26000830185610819565b610aef60208301846106ea565b9392505050565b610aff816107e3565b8114610b0a57600080fd5b50565b600081519050610b1c81610af6565b92915050565b600060208284031215610b3857610b37610714565b5b6000610b4684828501610b0d565b91505092915050565b7f546f6b656e207472616e73666572206661696c65640000000000000000000000600082015250565b6000610b8560158361092c565b9150610b9082610b4f565b602082019050919050565b60006020820190508181036000830152610bb481610b78565b905091905056fea2646970667358221220fa5c7606cfdba04fc8a6f033647afeebba38d3465c77769de38d77a9bd06e9a664736f6c634300081c0033",
  "linkReferences": {},
  "deployedLinkReferences": {}
}