{
  "_format": "hh-sol-artifact-1",
  "contractName": "OysterVault",
  "sourceName": "contracts/OysterVault.sol",
  "abi": [
    {
      "inputs": [
        {
          "internalType": "address",
          "name": "_oysterToken",
          "type": "address"
        },
        {
          "internalType": "address",
          "name": "initialOwner",
          "type": "address"
        }
      ],
      "stateMutability": "nonpayable",
      "type": "constructor"
    },
    {
      "inputs": [
        {
          "internalType": "address",
          "name": "owner",
          "type": "address"
        }
      ],
      "name": "OwnableInvalidOwner",
      "type": "error"
    },
    {
      "inputs": [
        {
          "internalType": "address",
          "name": "account",
          "type": "address"
        }
      ],
      "name": "OwnableUnauthorizedAccount",
      "type": "error"
    },
    {
      "anonymous": false,
      "inputs": [
        {
          "indexed": true,
          "internalType": "address",
          "name": "spender",
          "type": "address"
        },
        {
          "indexed": false,
          "internalType": "uint256",
          "name": "amount",
          "type": "uint256"
        }
      ],
      "name": "ApproveTokenSpending",
      "type": "event"
    },
    {
      "anonymous": false,
      "inputs": [
        {
          "indexed": true,
          "internalType": "address",
          "name": "previousOwner",
          "type": "address"
        },
        {
          "indexed": true,
          "internalType": "address",
          "name": "newOwner",
          "type": "address"
        }
      ],
      "name": "OwnershipTransferred",
      "type": "event"
    },
    {
      "anonymous": false,
      "inputs": [
        {
          "indexed": true,
          "internalType": "address",
          "name": "oysterToken",
          "type": "address"
        }
      ],
      "name": "OysterTokenSet",
      "type": "event"
    },
    {
      "inputs": [
        {
          "internalType": "address",
          "name": "spender",
          "type": "address"
        },
        {
          "internalType": "uint256",
          "name": "amount",
          "type": "uint256"
        }
      ],
      "name": "approveTokenSpending",
      "outputs": [],
      "stateMutability": "nonpayable",
      "type": "function"
    },
    {
      "inputs": [],
      "name": "owner",
      "outputs": [
        {
          "internalType": "address",
          "name": "",
          "type": "address"
        }
      ],
      "stateMutability": "view",
      "type": "function"
    },
    {
      "inputs": [],
      "name": "oysterToken",
      "outputs": [
        {
          "internalType": "contract IERC20",
          "name": "",
          "type": "address"
        }
      ],
      "stateMutability": "view",
      "type": "function"
    },
    {
      "inputs": [],
      "name": "renounceOwnership",
      "outputs": [],
      "stateMutability": "nonpayable",
      "type": "function"
    },
    {
      "inputs": [
        {
          "internalType": "address",
          "name": "_oysterToken",
          "type": "address"
        }
      ],
      "name": "setOysterToken",
      "outputs": [],
      "stateMutability": "nonpayable",
      "type": "function"
    },
    {
      "inputs": [
        {
          "internalType": "address",
          "name": "from",
          "type": "address"
        },
        {
          "internalType": "address",
          "name": "to",
          "type": "address"
        },
        {
          "internalType": "uint256",
          "name": "amount",
          "type": "uint256"
        }
      ],
      "name": "transferFrom",
      "outputs": [],
      "stateMutability": "nonpayable",
      "type": "function"
    },
    {
      "inputs": [
        {
          "internalType": "address",
          "name": "newOwner",
          "type": "address"
        }
      ],
      "name": "transferOwnership",
      "outputs": [],
      "stateMutability": "nonpayable",
      "type": "function"
    }
  ],
  "bytecode": "0x608060405234801561001057600080fd5b506040516106e63803806106e683398101604081905261002f916100fa565b806001600160a01b03811661005e57604051631e4fbdf760e01b81526000600482015260240160405180910390fd5b6100678161008e565b5050600180546001600160a01b0319166001600160a01b039290921691909117905561012d565b600080546001600160a01b038381166001600160a01b0319831681178455604051919092169283917f8be0079c531659141344cd1fd0a4f28419497f9722a3daafe3b4186f6b6457e09190a35050565b80516001600160a01b03811681146100f557600080fd5b919050565b6000806040838503121561010d57600080fd5b610116836100de565b9150610124602084016100de565b90509250929050565b6105aa8061013c6000396000f3fe608060405234801561001057600080fd5b506004361061007d5760003560e01c8063f2fde38b1161005b578063f2fde38b146100c8578063fd994c16146100db578063fe266d78146100ee578063ff87fdf01461010157600080fd5b806323b872dd14610082578063715018a6146100975780638da5cb5b1461009f575b600080fd5b6100956100903660046104c9565b610114565b005b610095610254565b6000546001600160a01b03165b6040516001600160a01b03909116815260200160405180910390f35b6100956100d6366004610506565b610268565b6001546100ac906001600160a01b031681565b6100956100fc366004610528565b6102a6565b61009561010f366004610506565b610406565b61011c610430565b6001546001600160a01b031661016f5760405162461bcd60e51b815260206004820152601360248201527213de5cdd195c951bdad95b881b9bdd081cd95d606a1b60448201526064015b60405180910390fd5b6001546040516323b872dd60e01b81526001600160a01b038581166004830152848116602483015260448201849052909116906323b872dd906064016020604051808303816000875af11580156101ca573d6000803e3d6000fd5b505050506040513d601f19601f820116820180604052508101906101ee9190610552565b61024f5760405162461bcd60e51b815260206004820152602c60248201527f4f79737465725661756c743a204f7973746572546f6b656e207472616e73666560448201526b1c919c9bdb4819985a5b195960a21b6064820152608401610166565b505050565b61025c610430565b610266600061045d565b565b610270610430565b6001600160a01b03811661029a57604051631e4fbdf760e01b815260006004820152602401610166565b6102a38161045d565b50565b6102ae610430565b6001546001600160a01b03166102fc5760405162461bcd60e51b815260206004820152601360248201527213de5cdd195c951bdad95b881b9bdd081cd95d606a1b6044820152606401610166565b60015460405163095ea7b360e01b81526001600160a01b038481166004830152602482018490529091169063095ea7b3906044016020604051808303816000875af115801561034f573d6000803e3d6000fd5b505050506040513d601f19601f820116820180604052508101906103739190610552565b6103bf5760405162461bcd60e51b815260206004820152601b60248201527f4f79737465725661756c743a20417070726f7665206661696c656400000000006044820152606401610166565b816001600160a01b03167fe73d0cccf1bd9c19590d0258958e3f6836e8cbc7e4c9ab03020cd2da1d2196ce826040516103fa91815260200190565b60405180910390a25050565b61040e610430565b600180546001600160a01b0319166001600160a01b0392909216919091179055565b6000546001600160a01b031633146102665760405163118cdaa760e01b8152336004820152602401610166565b600080546001600160a01b038381166001600160a01b0319831681178455604051919092169283917f8be0079c531659141344cd1fd0a4f28419497f9722a3daafe3b4186f6b6457e09190a35050565b80356001600160a01b03811681146104c457600080fd5b919050565b6000806000606084860312156104de57600080fd5b6104e7846104ad565b92506104f5602085016104ad565b929592945050506040919091013590565b60006020828403121561051857600080fd5b610521826104ad565b9392505050565b6000806040838503121561053b57600080fd5b610544836104ad565b946020939093013593505050565b60006020828403121561056457600080fd5b8151801515811461052157600080fdfea264697066735822122014d49a3897629ebc812f3eb68a0637ba9433cf2af0d2b0ae6098d99d672aef4964736f6c634300081c0033",
  "linkReferences": {},
  "deployedLinkReferences": {}
}