{
  "_format": "hh-sol-artifact-1",
  "contractName": "SimpleEvent",
  "sourceName": "contracts/SimpleEvent.sol",
  "abi": [
    {
      "anonymous": false,
      "inputs": [
        {
          "indexed": true,
          "internalType": "uint256",
          "name": "value",
          "type": "uint256"
        }
      ],
      "name": "SimpleEventEmitted",
      "type": "event"
    },
    {
      "inputs": [
        {
          "internalType": "uint256",
          "name": "value",
          "type": "uint256"
        }
      ],
      "name": "emitEvent",
      "outputs": [],
      "stateMutability": "nonpayable",
      "type": "function"
    }
  ],
  "bytecode": "0x6080604052348015600f57600080fd5b506101098061001f6000396000f3fe6080604052348015600f57600080fd5b506004361060285760003560e01c80634d43bec914602d575b600080fd5b60436004803603810190603f919060ab565b6045565b005b807fdfa7e0ebac2a9c8b8a95749fb707dc40b1367bc75e5c7ef793d5ead043cea02360405160405180910390a250565b600080fd5b6000819050919050565b608b81607a565b8114609557600080fd5b50565b60008135905060a5816084565b92915050565b60006020828403121560be5760bd6075565b5b600060ca848285016098565b9150509291505056fea264697066735822122067c2db7b8953546fe3dbbc6647c9802854d664805de26a7e1ea13d4cf629e1cd64736f6c634300081c0033",
  "linkReferences": {},
  "deployedLinkReferences": {}
}