{"contracts/SimpleEvent.sol":{"SimpleEvent":{"abi":[{"anonymous":false,"inputs":[{"indexed":true,"internalType":"uint256","name":"value","type":"uint256"}],"name":"SimpleEventEmitted","type":"event"},{"inputs":[{"internalType":"uint256","name":"value","type":"uint256"}],"name":"emitEvent","outputs":[],"stateMutability":"nonpayable","type":"function"}],"evm":{"bytecode":{"linkReferences":{},"object":"6080604052348015600f57600080fd5b506101098061001f6000396000f3fe6080604052348015600f57600080fd5b506004361060285760003560e01c80634d43bec914602d575b600080fd5b60436004803603810190603f919060ab565b6045565b005b807fdfa7e0ebac2a9c8b8a95749fb707dc40b1367bc75e5c7ef793d5ead043cea02360405160405180910390a250565b600080fd5b6000819050919050565b608b81607a565b8114609557600080fd5b50565b60008135905060a5816084565b92915050565b60006020828403121560be5760bd6075565b5b600060ca848285016098565b9150509291505056fea264697066735822122067c2db7b8953546fe3dbbc6647c9802854d664805de26a7e1ea13d4cf629e1cd64736f6c634300081c0033","opcodes":"PUSH1 0x80 PUSH1 0x40 MSTORE CALLVALUE DUP1 ISZERO PUSH1 0xF JUMPI PUSH1 0x0 DUP1 REVERT JUMPDEST POP PUSH2 0x109 DUP1 PUSH2 0x1F PUSH1 0x0 CODECOPY PUSH1 0x0 RETURN INVALID PUSH1 0x80 PUSH1 0x40 MSTORE CALLVALUE DUP1 ISZERO PUSH1 0xF JUMPI PUSH1 0x0 DUP1 REVERT JUMPDEST POP PUSH1 0x4 CALLDATASIZE LT PUSH1 0x28 JUMPI PUSH1 0x0 CALLDATALOAD PUSH1 0xE0 SHR DUP1 PUSH4 0x4D43BEC9 EQ PUSH1 0x2D JUMPI JUMPDEST PUSH1 0x0 DUP1 REVERT JUMPDEST PUSH1 0x43 PUSH1 0x4 DUP1 CALLDATASIZE SUB DUP2 ADD SWAP1 PUSH1 0x3F SWAP2 SWAP1 PUSH1 0xAB JUMP JUMPDEST PUSH1 0x45 JUMP JUMPDEST STOP JUMPDEST DUP1 PUSH32 0xDFA7E0EBAC2A9C8B8A95749FB707DC40B1367BC75E5C7EF793D5EAD043CEA023 PUSH1 0x40 MLOAD PUSH1 0x40 MLOAD DUP1 SWAP2 SUB SWAP1 LOG2 POP JUMP JUMPDEST PUSH1 0x0 DUP1 REVERT JUMPDEST PUSH1 0x0 DUP2 SWAP1 POP SWAP2 SWAP1 POP JUMP JUMPDEST PUSH1 0x8B DUP2 PUSH1 0x7A JUMP JUMPDEST DUP2 EQ PUSH1 0x95 JUMPI PUSH1 0x0 DUP1 REVERT JUMPDEST POP JUMP JUMPDEST PUSH1 0x0 DUP2 CALLDATALOAD SWAP1 POP PUSH1 0xA5 DUP2 PUSH1 0x84 JUMP JUMPDEST SWAP3 SWAP2 POP POP JUMP JUMPDEST PUSH1 0x0 PUSH1 0x20 DUP3 DUP5 SUB SLT ISZERO PUSH1 0xBE JUMPI PUSH1 0xBD PUSH1 0x75 JUMP JUMPDEST JUMPDEST PUSH1 0x0 PUSH1 0xCA DUP5 DUP3 DUP6 ADD PUSH1 0x98 JUMP JUMPDEST SWAP2 POP POP SWAP3 SWAP2 POP POP JUMP INVALID LOG2 PUSH5 0x6970667358 0x22 SLT KECCAK256 PUSH8 0xC2DB7B8953546FE3 0xDB 0xBC PUSH7 0x47C9802854D664 DUP1 TSTORE 0xE2 PUSH11 0x7E1EA13D4CF629E1CD6473 PUSH16 0x6C634300081C00330000000000000000 "},"methodIdentifiers":{"emitEvent(uint256)":"4d43bec9"}}}}}