{"contracts/MusicContract.sol":{"MusicContract":{"abi":[{"inputs":[{"internalType":"contract OysterToken","name":"_oysterTokenContract","type":"address"},{"internalType":"contract OysterVault","name":"_oysterVaultContract","type":"address"},{"internalType":"uint256","name":"_rightPurchaseValue","type":"uint256"},{"internalType":"uint256","name":"_valueForListening","type":"uint256"}],"stateMutability":"nonpayable","type":"constructor"},{"anonymous":false,"inputs":[{"indexed":true,"internalType":"address","name":"addressRight","type":"address"},{"indexed":true,"internalType":"address","name":"addressThisMusicContract","type":"address"},{"indexed":false,"internalType":"uint8","name":"percentageOfRights","type":"uint8"}],"name":"assignedRight","type":"event"},{"anonymous":false,"inputs":[{"indexed":true,"internalType":"address","name":"hearAddress","type":"address"},{"indexed":false,"internalType":"bool","name":"confirm","type":"bool"}],"name":"musicHeard","type":"event"},{"anonymous":false,"inputs":[{"indexed":true,"internalType":"address","name":"addressThisMusicContract","type":"address"},{"indexed":false,"internalType":"bool","name":"musicContactIsSealed","type":"bool"}],"name":"musicWithSealedRights","type":"event"},{"anonymous":false,"inputs":[{"indexed":true,"internalType":"address","name":"purchaseAddress","type":"address"},{"indexed":false,"internalType":"bool","name":"activated","type":"bool"}],"name":"purchaseMade","type":"event"},{"anonymous":false,"inputs":[{"indexed":true,"internalType":"address","name":"addressHolderToken","type":"address"},{"indexed":false,"internalType":"uint256","name":"amountToken","type":"uint256"}],"name":"tokenAssigned","type":"event"},{"anonymous":false,"inputs":[{"indexed":true,"internalType":"address","name":"addressRight","type":"address"},{"indexed":true,"internalType":"address","name":"addressThisMusicContract","type":"address"},{"indexed":false,"internalType":"uint8","name":"percentageOfRights","type":"uint8"}],"name":"withdrawalRight","type":"event"},{"inputs":[{"internalType":"address","name":"addressRight","type":"address"},{"internalType":"uint8","name":"percentageOfRights","type":"uint8"}],"name":"assignRights","outputs":[{"internalType":"bool","name":"","type":"bool"}],"stateMutability":"nonpayable","type":"function"},{"inputs":[],"name":"balanceTokens","outputs":[{"internalType":"uint256","name":"","type":"uint256"}],"stateMutability":"view","type":"function"},{"inputs":[],"name":"buy100OysterToken","outputs":[{"internalType":"bool","name":"","type":"bool"}],"stateMutability":"payable","type":"function"},{"inputs":[],"name":"buyRightsMusic","outputs":[{"internalType":"bool","name":"","type":"bool"}],"stateMutability":"payable","type":"function"},{"inputs":[{"internalType":"address","name":"","type":"address"}],"name":"divisionOfRights","outputs":[{"internalType":"uint8","name":"","type":"uint8"}],"stateMutability":"view","type":"function"},{"inputs":[],"name":"listenMusic","outputs":[{"internalType":"bool","name":"","type":"bool"}],"stateMutability":"payable","type":"function"},{"inputs":[],"name":"musicContactIsSealed","outputs":[{"internalType":"bool","name":"","type":"bool"}],"stateMutability":"view","type":"function"},{"inputs":[],"name":"owner","outputs":[{"internalType":"address","name":"","type":"address"}],"stateMutability":"view","type":"function"},{"inputs":[],"name":"remainingRightsDivision","outputs":[{"internalType":"uint8","name":"","type":"uint8"}],"stateMutability":"view","type":"function"},{"inputs":[{"internalType":"uint256","name":"","type":"uint256"}],"name":"rightHolders","outputs":[{"internalType":"address","name":"","type":"address"}],"stateMutability":"view","type":"function"},{"inputs":[],"name":"rightPurchaseValueInGwei","outputs":[{"internalType":"uint256","name":"","type":"uint256"}],"stateMutability":"view","type":"function"},{"inputs":[],"name":"sealRights","outputs":[{"internalType":"bool","name":"","type":"bool"}],"stateMutability":"nonpayable","type":"function"},{"inputs":[{"internalType":"uint256","name":"amount","type":"uint256"}],"name":"sellOysterToken","outputs":[{"internalType":"bool","name":"","type":"bool"}],"stateMutability":"nonpayable","type":"function"},{"inputs":[{"internalType":"address","name":"","type":"address"}],"name":"tokensPerAddress","outputs":[{"internalType":"uint256","name":"","type":"uint256"}],"stateMutability":"view","type":"function"},{"inputs":[],"name":"valueForListeningInGwei","outputs":[{"internalType":"uint256","name":"","type":"uint256"}],"stateMutability":"view","type":"function"},{"inputs":[],"name":"viewBalance","outputs":[{"internalType":"uint256","name":"","type":"uint256"}],"stateMutability":"view","type":"function"},{"inputs":[{"internalType":"address","name":"addressRight","type":"address"},{"internalType":"uint8","name":"percentageOfRights","type":"uint8"}],"name":"withdrawRights","outputs":[{"internalType":"bool","name":"","type":"bool"}],"stateMutability":"nonpayable","type":"function"},{"stateMutability":"payable","type":"receive"}],"evm":{"bytecode":{"linkReferences":{},"object":"6080604052348015600f57600080fd5b5060405161159e38038061159e833981016040819052602c916099565b6006805460ff19166064179055600080546001600160a01b039586166001600160a01b031991821617909155600180549490951693811693909317909355600255600391909155600480549091163317905560dc565b6001600160a01b0381168114609657600080fd5b50565b6000806000806080858703121560ae57600080fd5b845160b7816082565b602086015190945060c6816082565b6040860151606090960151949790965092505050565b6114b3806100eb6000396000f3fe6080604052600436106101025760003560e01c80638e6b3ac411610095578063bee4f73311610064578063bee4f73314610268578063e4494a0f146102aa578063ebc1945b146102c0578063eff13431146102da578063f7173526146102f057600080fd5b80638e6b3ac41461022d5780639650f28914610235578063982084841461024b578063b145fcd41461026057600080fd5b80635e1b6191116100d15780635e1b6191146101c55780636ba5d079146101e557806376866222146101ed5780638da5cb5b1461020d57600080fd5b80633ff1e05b1461010e578063425432b1146101305780634b946cc91461015d5780635d0fab841461018d57600080fd5b3661010957005b600080fd5b34801561011a57600080fd5b50475b6040519081526020015b60405180910390f35b34801561013c57600080fd5b5061011d61014b366004611185565b600a6020526000908152604090205481565b34801561016957600080fd5b5061017d6101783660046111a7565b61030a565b6040519015158152602001610127565b34801561019957600080fd5b506101ad6101a83660046111e4565b61056c565b6040516001600160a01b039091168152602001610127565b3480156101d157600080fd5b5061017d6101e03660046111e4565b610596565b61017d61077e565b3480156101f957600080fd5b5061017d6102083660046111a7565b61089c565b34801561021957600080fd5b506004546101ad906001600160a01b031681565b61017d610b14565b34801561024157600080fd5b5061011d60035481565b34801561025757600080fd5b5061017d610bf9565b61017d610cf4565b34801561027457600080fd5b50610298610283366004611185565b60056020526000908152604090205460ff1681565b60405160ff9091168152602001610127565b3480156102b657600080fd5b5061011d60095481565b3480156102cc57600080fd5b5060085461017d9060ff1681565b3480156102e657600080fd5b5061011d60025481565b3480156102fc57600080fd5b506006546102989060ff1681565b6004546000906001600160a01b031633146103405760405162461bcd60e51b8152600401610337906111fd565b60405180910390fd5b60085460ff16156103635760405162461bcd60e51b815260040161033790611252565b6001600160a01b03831660009081526005602052604081205460ff1690036103e25760405162461bcd60e51b815260206004820152602c60248201527f4e6f207269676874732068617665206265656e20646566696e656420666f722060448201526b74686973206164647265737360a01b6064820152608401610337565b6001600160a01b03831660009081526005602052604090205460ff808416911610156104765760405162461bcd60e51b815260206004820152603e60248201527f4974206973206e6f7420706f737369626c6520746f2072656d6f7665206d6f7260448201527f6520726967687473207468616e207468697320616464726573732068617300006064820152608401610337565b6001600160a01b038316600090815260056020526040812080548492906104a190849060ff166112d3565b92506101000a81548160ff021916908360ff16021790555081600660008282829054906101000a900460ff166104d791906112ec565b82546101009290920a60ff8181021990931691831602179091556001600160a01b0385166000908152600560205260408120549091169003905061051e5761051e83610e83565b60405160ff8316815230906001600160a01b038516907fe5c90d1f4d58fd7bc5c546521e874b223125d83f37bf4b35ade1532e08a0fff5906020015b60405180910390a35060015b92915050565b6007818154811061057c57600080fd5b6000918252602090912001546001600160a01b0316905081565b60085460009060ff166105bb5760405162461bcd60e51b815260040161033790611305565b3360009081526005602052604081205460ff1690036105ec5760405162461bcd60e51b81526004016103379061137f565b600082116106625760405162461bcd60e51b815260206004820152603e60248201527f4e756d626572206f6620746f6b656e7320666f7220726571756573746564207460448201527f72616e73666572206d7573742062652067726561746572207468616e203000006064820152608401610337565b336000908152600a60205260409020548211156106c15760405162461bcd60e51b815260206004820152601c60248201527f4e756d626572206f6620746f6b656e7320756e617661696c61626c65000000006044820152606401610337565b600054604051630a3871eb60e01b8152336004820152602481018490526001600160a01b0390911690630a3871eb906044016020604051808303816000875af1158015610712573d6000803e3d6000fd5b505050506040513d601f19601f8201168201806040525081019061073691906113f2565b50336000908152600a602052604081208054849290610756908490611414565b92505081905550816009600082825461076f9190611414565b9091555060019150505b919050565b60085460009060ff166107a35760405162461bcd60e51b815260040161033790611305565b6000600354633b9aca006107b79190611427565b90508034101561081f5760405162461bcd60e51b815260206004820152602d60248201527f696e73756666696369656e742076616c756520746f206c697374656e2074686560448201526c206d757369632072696768747360981b6064820152608401610337565b600061082b8234611414565b6040516001815290915033907f53f8fd6b05226233de7ac193299b5cb02358fe734840d24f2631a5a07643ced5906020015b60405180910390a2604051339082156108fc029083906000818181858888f19350505050158015610892573d6000803e3d6000fd5b5060019250505090565b6004546000906001600160a01b031633146108c95760405162461bcd60e51b8152600401610337906111fd565b60085460ff16156108ec5760405162461bcd60e51b815260040161033790611252565b60008260ff16116109535760405162461bcd60e51b815260206004820152602b60248201527f50657263656e74616765206f6620726967687473206d7573742062652067726560448201526a061746572207468616e20360ac1b6064820152608401610337565b60065460ff90811690831611156109e15760405162461bcd60e51b815260206004820152604660248201527f70657263656e74616765206f6620656e7469746c656d656e74732072656d616960448201527f6e696e67206973206c657373207468616e207468652072657175657374656420606482015265185b5bdd5b9d60d21b608482015260a401610337565b6001600160a01b03831660009081526005602052604081205460ff169003610a4f57600780546001810182556000919091527fa66cc928b5edb82af9bd49922954155ab7b0942694bea4ce44661d9a8736c6880180546001600160a01b0319166001600160a01b0385161790555b6001600160a01b03831660009081526005602052604081208054849290610a7a90849060ff166112ec565b92506101000a81548160ff021916908360ff16021790555081600660008282829054906101000a900460ff16610ab091906112d3565b92506101000a81548160ff021916908360ff160217905550306001600160a01b0316836001600160a01b03167f03df476b3b37a3360a1b466487c0a06214a4e1d899e5c66a7ad379e503c2ea9e8460405161055a919060ff91909116815260200190565b60085460009060ff16610b395760405162461bcd60e51b815260040161033790611305565b6000600254633b9aca00610b4d9190611427565b905080341015610bb75760405162461bcd60e51b815260206004820152602f60248201527f696e73756666696369656e742076616c756520746f207075726368617365207460448201526e6865206d757369632072696768747360881b6064820152608401610337565b6000610bc38234611414565b6040516001815290915033907f4429633ab0a9f77b1bc61e2ed0e484b81b41823661c29dd1ba47c1b06882459d9060200161085d565b6004546000906001600160a01b03163314610c265760405162461bcd60e51b8152600401610337906111fd565b60065460ff1615610ca95760405162461bcd60e51b815260206004820152604160248201527f5468652072656d61696e696e67206469766973696f6e73206f6620726967687460448201527f73206d757374206265203020746f207365616c207468697320636f6e747261636064820152601d60fa1b608482015260a401610337565b6008805460ff1916600190811790915560405190815230907f2bd58c1c32e360804cf66bb5628995e5689d64524f0203fdd547f47e1e4e6d719060200160405180910390a250600190565b60085460009060ff16610d195760405162461bcd60e51b815260040161033790611305565b3360009081526005602052604081205460ff169003610d4a5760405162461bcd60e51b81526004016103379061137f565b6612d452694f4000471015610dd65760405162461bcd60e51b815260206004820152604660248201527f496e73756666696369656e742045746865722073656e7420746f20627579207460448201527f6f6b656e732e204d7573742068617665206174206c6561737420302e303035336064820152651022ba3432b960d11b608482015260a401610337565b60008054906101000a90046001600160a01b03166001600160a01b031663917b1bf5476040518263ffffffff1660e01b815260040160206040518083038185885af1158015610e29573d6000803e3d6000fd5b50505050506040513d601f19601f82011682018060405250810190610e4e91906113f2565b50606460096000828254610e62919061143e565b90915550610e7290506064610f43565b50610e7b610fc6565b506001905090565b6000610e8e82611111565b6007805491925090610ea290600190611414565b81548110610eb257610eb2611451565b600091825260209091200154600780546001600160a01b039092169183908110610ede57610ede611451565b9060005260206000200160006101000a8154816001600160a01b0302191690836001600160a01b031602179055506007805480610f1d57610f1d611467565b600082815260209020810160001990810180546001600160a01b03191690550190555050565b6000805460015460405163095ea7b360e01b81526001600160a01b0391821660048201526024810185905291169063095ea7b3906044016020604051808303816000875af1158015610f99573d6000803e3d6000fd5b505050506040513d601f19601f82011682018060405250810190610fbd91906113f2565b50600192915050565b6000805b600754811015610e7b576005600060078381548110610feb57610feb611451565b60009182526020808320909101546001600160a01b031683528201929092526040018120546007805460ff90921692600a929091908590811061103057611030611451565b60009182526020808320909101546001600160a01b031683528201929092526040018120805490919061106490849061143e565b9091555050600780548290811061107d5761107d611451565b6000918252602082200154600780546001600160a01b03909216927f0f18c582fb18bab8a0efe761e8fdd548eaef7b331b99e27696a6381ed38c451e9260059290869081106110ce576110ce611451565b6000918252602080832091909101546001600160a01b03168352828101939093526040918201902054905160ff90911681520160405180910390a2600101610fca565b6000805b60075481101561116457826001600160a01b03166007828154811061113c5761113c611451565b6000918252602090912001546001600160a01b03160361115c5792915050565b600101611115565b5050600754919050565b80356001600160a01b038116811461077957600080fd5b60006020828403121561119757600080fd5b6111a08261116e565b9392505050565b600080604083850312156111ba57600080fd5b6111c38361116e565b9150602083013560ff811681146111d957600080fd5b809150509250929050565b6000602082840312156111f657600080fd5b5035919050565b60208082526035908201527f546869732066756e6374696f6e2063616e206f6e6c792062652063616c6c656460408201527420627920746865206f776e6572206164647265737360581b606082015260800190565b60208082526045908201527f54686520636f6e747261637420697320616c7265616479207365616c65642c2060408201527f6e6f206d6f64696669636174696f6e206f66207269676874732063616e206265606082015264206d61646560d81b608082015260a00190565b634e487b7160e01b600052601160045260246000fd5b60ff8281168282160390811115610566576105666112bd565b60ff8181168382160190811115610566576105666112bd565b60208082526054908201527f54686520636f6e7472616374206973206e6f74207365616c65642e205468697360408201527f207472616e73616374696f6e2063616e206f6e6c7920626520646f6e652077696060820152731d1a0818481cd9585b19590818dbdb9d1c9858dd60621b608082015260a00190565b6020808252604d908201527f546869732066756e6374696f6e2063616e6e6f742062652063616c6c6564206260408201527f7920616e796f6e652077686f20646f6573206e6f74206861766520726967687460608201526c7320746f2074686520736f6e6760981b608082015260a00190565b60006020828403121561140457600080fd5b815180151581146111a057600080fd5b81810381811115610566576105666112bd565b8082028115828204841417610566576105666112bd565b80820180821115610566576105666112bd565b634e487b7160e01b600052603260045260246000fd5b634e487b7160e01b600052603160045260246000fdfea26469706673582212207a7deb8f38ca1ad219986680cf06dd23ba024d43df5e73b7dbc4f069f010bec064736f6c634300081c0033","opcodes":"PUSH1 0x80 PUSH1 0x40 MSTORE CALLVALUE DUP1 ISZERO PUSH1 0xF JUMPI PUSH1 0x0 DUP1 REVERT JUMPDEST POP PUSH1 0x40 MLOAD PUSH2 0x159E CODESIZE SUB DUP1 PUSH2 0x159E DUP4 CODECOPY DUP2 ADD PUSH1 0x40 DUP2 SWAP1 MSTORE PUSH1 0x2C SWAP2 PUSH1 0x99 JUMP JUMPDEST PUSH1 0x6 DUP1 SLOAD PUSH1 0xFF NOT AND PUSH1 0x64 OR SWAP1 SSTORE PUSH1 0x0 DUP1 SLOAD PUSH1 0x1 PUSH1 0x1 PUSH1 0xA0 SHL SUB SWAP6 DUP7 AND PUSH1 0x1 PUSH1 0x1 PUSH1 0xA0 SHL SUB NOT SWAP2 DUP3 AND OR SWAP1 SWAP2 SSTORE PUSH1 0x1 DUP1 SLOAD SWAP5 SWAP1 SWAP6 AND SWAP4 DUP2 AND SWAP4 SWAP1 SWAP4 OR SWAP1 SWAP4 SSTORE PUSH1 0x2 SSTORE PUSH1 0x3 SWAP2 SWAP1 SWAP2 SSTORE PUSH1 0x4 DUP1 SLOAD SWAP1 SWAP2 AND CALLER OR SWAP1 SSTORE PUSH1 0xDC JUMP JUMPDEST PUSH1 0x1 PUSH1 0x1 PUSH1 0xA0 SHL SUB DUP2 AND DUP2 EQ PUSH1 0x96 JUMPI PUSH1 0x0 DUP1 REVERT JUMPDEST POP JUMP JUMPDEST PUSH1 0x0 DUP1 PUSH1 0x0 DUP1 PUSH1 0x80 DUP6 DUP8 SUB SLT ISZERO PUSH1 0xAE JUMPI PUSH1 0x0 DUP1 REVERT JUMPDEST DUP5 MLOAD PUSH1 0xB7 DUP2 PUSH1 0x82 JUMP JUMPDEST PUSH1 0x20 DUP7 ADD MLOAD SWAP1 SWAP5 POP PUSH1 0xC6 DUP2 PUSH1 0x82 JUMP JUMPDEST PUSH1 0x40 DUP7 ADD MLOAD PUSH1 0x60 SWAP1 SWAP7 ADD MLOAD SWAP5 SWAP8 SWAP1 SWAP7 POP SWAP3 POP POP POP JUMP JUMPDEST PUSH2 0x14B3 DUP1 PUSH2 0xEB PUSH1 0x0 CODECOPY PUSH1 0x0 RETURN INVALID PUSH1 0x80 PUSH1 0x40 MSTORE PUSH1 0x4 CALLDATASIZE LT PUSH2 0x102 JUMPI PUSH1 0x0 CALLDATALOAD PUSH1 0xE0 SHR DUP1 PUSH4 0x8E6B3AC4 GT PUSH2 0x95 JUMPI DUP1 PUSH4 0xBEE4F733 GT PUSH2 0x64 JUMPI DUP1 PUSH4 0xBEE4F733 EQ PUSH2 0x268 JUMPI DUP1 PUSH4 0xE4494A0F EQ PUSH2 0x2AA JUMPI DUP1 PUSH4 0xEBC1945B EQ PUSH2 0x2C0 JUMPI DUP1 PUSH4 0xEFF13431 EQ PUSH2 0x2DA JUMPI DUP1 PUSH4 0xF7173526 EQ PUSH2 0x2F0 JUMPI PUSH1 0x0 DUP1 REVERT JUMPDEST DUP1 PUSH4 0x8E6B3AC4 EQ PUSH2 0x22D JUMPI DUP1 PUSH4 0x9650F289 EQ PUSH2 0x235 JUMPI DUP1 PUSH4 0x98208484 EQ PUSH2 0x24B JUMPI DUP1 PUSH4 0xB145FCD4 EQ PUSH2 0x260 JUMPI PUSH1 0x0 DUP1 REVERT JUMPDEST DUP1 PUSH4 0x5E1B6191 GT PUSH2 0xD1 JUMPI DUP1 PUSH4 0x5E1B6191 EQ PUSH2 0x1C5 JUMPI DUP1 PUSH4 0x6BA5D079 EQ PUSH2 0x1E5 JUMPI DUP1 PUSH4 0x76866222 EQ PUSH2 0x1ED JUMPI DUP1 PUSH4 0x8DA5CB5B EQ PUSH2 0x20D JUMPI PUSH1 0x0 DUP1 REVERT JUMPDEST DUP1 PUSH4 0x3FF1E05B EQ PUSH2 0x10E JUMPI DUP1 PUSH4 0x425432B1 EQ PUSH2 0x130 JUMPI DUP1 PUSH4 0x4B946CC9 EQ PUSH2 0x15D JUMPI DUP1 PUSH4 0x5D0FAB84 EQ PUSH2 0x18D JUMPI PUSH1 0x0 DUP1 REVERT JUMPDEST CALLDATASIZE PUSH2 0x109 JUMPI STOP JUMPDEST PUSH1 0x0 DUP1 REVERT JUMPDEST CALLVALUE DUP1 ISZERO PUSH2 0x11A JUMPI PUSH1 0x0 DUP1 REVERT JUMPDEST POP SELFBALANCE JUMPDEST PUSH1 0x40 MLOAD SWAP1 DUP2 MSTORE PUSH1 0x20 ADD JUMPDEST PUSH1 0x40 MLOAD DUP1 SWAP2 SUB SWAP1 RETURN JUMPDEST CALLVALUE DUP1 ISZERO PUSH2 0x13C JUMPI PUSH1 0x0 DUP1 REVERT JUMPDEST POP PUSH2 0x11D PUSH2 0x14B CALLDATASIZE PUSH1 0x4 PUSH2 0x1185 JUMP JUMPDEST PUSH1 0xA PUSH1 0x20 MSTORE PUSH1 0x0 SWAP1 DUP2 MSTORE PUSH1 0x40 SWAP1 KECCAK256 SLOAD DUP2 JUMP JUMPDEST CALLVALUE DUP1 ISZERO PUSH2 0x169 JUMPI PUSH1 0x0 DUP1 REVERT JUMPDEST POP PUSH2 0x17D PUSH2 0x178 CALLDATASIZE PUSH1 0x4 PUSH2 0x11A7 JUMP JUMPDEST PUSH2 0x30A JUMP JUMPDEST PUSH1 0x40 MLOAD SWAP1 ISZERO ISZERO DUP2 MSTORE PUSH1 0x20 ADD PUSH2 0x127 JUMP JUMPDEST CALLVALUE DUP1 ISZERO PUSH2 0x199 JUMPI PUSH1 0x0 DUP1 REVERT JUMPDEST POP PUSH2 0x1AD PUSH2 0x1A8 CALLDATASIZE PUSH1 0x4 PUSH2 0x11E4 JUMP JUMPDEST PUSH2 0x56C JUMP JUMPDEST PUSH1 0x40 MLOAD PUSH1 0x1 PUSH1 0x1 PUSH1 0xA0 SHL SUB SWAP1 SWAP2 AND DUP2 MSTORE PUSH1 0x20 ADD PUSH2 0x127 JUMP JUMPDEST CALLVALUE DUP1 ISZERO PUSH2 0x1D1 JUMPI PUSH1 0x0 DUP1 REVERT JUMPDEST POP PUSH2 0x17D PUSH2 0x1E0 CALLDATASIZE PUSH1 0x4 PUSH2 0x11E4 JUMP JUMPDEST PUSH2 0x596 JUMP JUMPDEST PUSH2 0x17D PUSH2 0x77E JUMP JUMPDEST CALLVALUE DUP1 ISZERO PUSH2 0x1F9 JUMPI PUSH1 0x0 DUP1 REVERT JUMPDEST POP PUSH2 0x17D PUSH2 0x208 CALLDATASIZE PUSH1 0x4 PUSH2 0x11A7 JUMP JUMPDEST PUSH2 0x89C JUMP JUMPDEST CALLVALUE DUP1 ISZERO PUSH2 0x219 JUMPI PUSH1 0x0 DUP1 REVERT JUMPDEST POP PUSH1 0x4 SLOAD PUSH2 0x1AD SWAP1 PUSH1 0x1 PUSH1 0x1 PUSH1 0xA0 SHL SUB AND DUP2 JUMP JUMPDEST PUSH2 0x17D PUSH2 0xB14 JUMP JUMPDEST CALLVALUE DUP1 ISZERO PUSH2 0x241 JUMPI PUSH1 0x0 DUP1 REVERT JUMPDEST POP PUSH2 0x11D PUSH1 0x3 SLOAD DUP2 JUMP JUMPDEST CALLVALUE DUP1 ISZERO PUSH2 0x257 JUMPI PUSH1 0x0 DUP1 REVERT JUMPDEST POP PUSH2 0x17D PUSH2 0xBF9 JUMP JUMPDEST PUSH2 0x17D PUSH2 0xCF4 JUMP JUMPDEST CALLVALUE DUP1 ISZERO PUSH2 0x274 JUMPI PUSH1 0x0 DUP1 REVERT JUMPDEST POP PUSH2 0x298 PUSH2 0x283 CALLDATASIZE PUSH1 0x4 PUSH2 0x1185 JUMP JUMPDEST PUSH1 0x5 PUSH1 0x20 MSTORE PUSH1 0x0 SWAP1 DUP2 MSTORE PUSH1 0x40 SWAP1 KECCAK256 SLOAD PUSH1 0xFF AND DUP2 JUMP JUMPDEST PUSH1 0x40 MLOAD PUSH1 0xFF SWAP1 SWAP2 AND DUP2 MSTORE PUSH1 0x20 ADD PUSH2 0x127 JUMP JUMPDEST CALLVALUE DUP1 ISZERO PUSH2 0x2B6 JUMPI PUSH1 0x0 DUP1 REVERT JUMPDEST POP PUSH2 0x11D PUSH1 0x9 SLOAD DUP2 JUMP JUMPDEST CALLVALUE DUP1 ISZERO PUSH2 0x2CC JUMPI PUSH1 0x0 DUP1 REVERT JUMPDEST POP PUSH1 0x8 SLOAD PUSH2 0x17D SWAP1 PUSH1 0xFF AND DUP2 JUMP JUMPDEST CALLVALUE DUP1 ISZERO PUSH2 0x2E6 JUMPI PUSH1 0x0 DUP1 REVERT JUMPDEST POP PUSH2 0x11D PUSH1 0x2 SLOAD DUP2 JUMP JUMPDEST CALLVALUE DUP1 ISZERO PUSH2 0x2FC JUMPI PUSH1 0x0 DUP1 REVERT JUMPDEST POP PUSH1 0x6 SLOAD PUSH2 0x298 SWAP1 PUSH1 0xFF AND DUP2 JUMP JUMPDEST PUSH1 0x4 SLOAD PUSH1 0x0 SWAP1 PUSH1 0x1 PUSH1 0x1 PUSH1 0xA0 SHL SUB AND CALLER EQ PUSH2 0x340 JUMPI PUSH1 0x40 MLOAD PUSH3 0x461BCD PUSH1 0xE5 SHL DUP2 MSTORE PUSH1 0x4 ADD PUSH2 0x337 SWAP1 PUSH2 0x11FD JUMP JUMPDEST PUSH1 0x40 MLOAD DUP1 SWAP2 SUB SWAP1 REVERT JUMPDEST PUSH1 0x8 SLOAD PUSH1 0xFF AND ISZERO PUSH2 0x363 JUMPI PUSH1 0x40 MLOAD PUSH3 0x461BCD PUSH1 0xE5 SHL DUP2 MSTORE PUSH1 0x4 ADD PUSH2 0x337 SWAP1 PUSH2 0x1252 JUMP JUMPDEST PUSH1 0x1 PUSH1 0x1 PUSH1 0xA0 SHL SUB DUP4 AND PUSH1 0x0 SWAP1 DUP2 MSTORE PUSH1 0x5 PUSH1 0x20 MSTORE PUSH1 0x40 DUP2 KECCAK256 SLOAD PUSH1 0xFF AND SWAP1 SUB PUSH2 0x3E2 JUMPI PUSH1 0x40 MLOAD PUSH3 0x461BCD PUSH1 0xE5 SHL DUP2 MSTORE PUSH1 0x20 PUSH1 0x4 DUP3 ADD MSTORE PUSH1 0x2C PUSH1 0x24 DUP3 ADD MSTORE PUSH32 0x4E6F207269676874732068617665206265656E20646566696E656420666F7220 PUSH1 0x44 DUP3 ADD MSTORE PUSH12 0x746869732061646472657373 PUSH1 0xA0 SHL PUSH1 0x64 DUP3 ADD MSTORE PUSH1 0x84 ADD PUSH2 0x337 JUMP JUMPDEST PUSH1 0x1 PUSH1 0x1 PUSH1 0xA0 SHL SUB DUP4 AND PUSH1 0x0 SWAP1 DUP2 MSTORE PUSH1 0x5 PUSH1 0x20 MSTORE PUSH1 0x40 SWAP1 KECCAK256 SLOAD PUSH1 0xFF DUP1 DUP5 AND SWAP2 AND LT ISZERO PUSH2 0x476 JUMPI PUSH1 0x40 MLOAD PUSH3 0x461BCD PUSH1 0xE5 SHL DUP2 MSTORE PUSH1 0x20 PUSH1 0x4 DUP3 ADD MSTORE PUSH1 0x3E PUSH1 0x24 DUP3 ADD MSTORE PUSH32 0x4974206973206E6F7420706F737369626C6520746F2072656D6F7665206D6F72 PUSH1 0x44 DUP3 ADD MSTORE PUSH32 0x6520726967687473207468616E20746869732061646472657373206861730000 PUSH1 0x64 DUP3 ADD MSTORE PUSH1 0x84 ADD PUSH2 0x337 JUMP JUMPDEST PUSH1 0x1 PUSH1 0x1 PUSH1 0xA0 SHL SUB DUP4 AND PUSH1 0x0 SWAP1 DUP2 MSTORE PUSH1 0x5 PUSH1 0x20 MSTORE PUSH1 0x40 DUP2 KECCAK256 DUP1 SLOAD DUP5 SWAP3 SWAP1 PUSH2 0x4A1 SWAP1 DUP5 SWAP1 PUSH1 0xFF AND PUSH2 0x12D3 JUMP JUMPDEST SWAP3 POP PUSH2 0x100 EXP DUP2 SLOAD DUP2 PUSH1 0xFF MUL NOT AND SWAP1 DUP4 PUSH1 0xFF AND MUL OR SWAP1 SSTORE POP DUP2 PUSH1 0x6 PUSH1 0x0 DUP3 DUP3 DUP3 SWAP1 SLOAD SWAP1 PUSH2 0x100 EXP SWAP1 DIV PUSH1 0xFF AND PUSH2 0x4D7 SWAP2 SWAP1 PUSH2 0x12EC JUMP JUMPDEST DUP3 SLOAD PUSH2 0x100 SWAP3 SWAP1 SWAP3 EXP PUSH1 0xFF DUP2 DUP2 MUL NOT SWAP1 SWAP4 AND SWAP2 DUP4 AND MUL OR SWAP1 SWAP2 SSTORE PUSH1 0x1 PUSH1 0x1 PUSH1 0xA0 SHL SUB DUP6 AND PUSH1 0x0 SWAP1 DUP2 MSTORE PUSH1 0x5 PUSH1 0x20 MSTORE PUSH1 0x40 DUP2 KECCAK256 SLOAD SWAP1 SWAP2 AND SWAP1 SUB SWAP1 POP PUSH2 0x51E JUMPI PUSH2 0x51E DUP4 PUSH2 0xE83 JUMP JUMPDEST PUSH1 0x40 MLOAD PUSH1 0xFF DUP4 AND DUP2 MSTORE ADDRESS SWAP1 PUSH1 0x1 PUSH1 0x1 PUSH1 0xA0 SHL SUB DUP6 AND SWAP1 PUSH32 0xE5C90D1F4D58FD7BC5C546521E874B223125D83F37BF4B35ADE1532E08A0FFF5 SWAP1 PUSH1 0x20 ADD JUMPDEST PUSH1 0x40 MLOAD DUP1 SWAP2 SUB SWAP1 LOG3 POP PUSH1 0x1 JUMPDEST SWAP3 SWAP2 POP POP JUMP JUMPDEST PUSH1 0x7 DUP2 DUP2 SLOAD DUP2 LT PUSH2 0x57C JUMPI PUSH1 0x0 DUP1 REVERT JUMPDEST PUSH1 0x0 SWAP2 DUP3 MSTORE PUSH1 0x20 SWAP1 SWAP2 KECCAK256 ADD SLOAD PUSH1 0x1 PUSH1 0x1 PUSH1 0xA0 SHL SUB AND SWAP1 POP DUP2 JUMP JUMPDEST PUSH1 0x8 SLOAD PUSH1 0x0 SWAP1 PUSH1 0xFF AND PUSH2 0x5BB JUMPI PUSH1 0x40 MLOAD PUSH3 0x461BCD PUSH1 0xE5 SHL DUP2 MSTORE PUSH1 0x4 ADD PUSH2 0x337 SWAP1 PUSH2 0x1305 JUMP JUMPDEST CALLER PUSH1 0x0 SWAP1 DUP2 MSTORE PUSH1 0x5 PUSH1 0x20 MSTORE PUSH1 0x40 DUP2 KECCAK256 SLOAD PUSH1 0xFF AND SWAP1 SUB PUSH2 0x5EC JUMPI PUSH1 0x40 MLOAD PUSH3 0x461BCD PUSH1 0xE5 SHL DUP2 MSTORE PUSH1 0x4 ADD PUSH2 0x337 SWAP1 PUSH2 0x137F JUMP JUMPDEST PUSH1 0x0 DUP3 GT PUSH2 0x662 JUMPI PUSH1 0x40 MLOAD PUSH3 0x461BCD PUSH1 0xE5 SHL DUP2 MSTORE PUSH1 0x20 PUSH1 0x4 DUP3 ADD MSTORE PUSH1 0x3E PUSH1 0x24 DUP3 ADD MSTORE PUSH32 0x4E756D626572206F6620746F6B656E7320666F72207265717565737465642074 PUSH1 0x44 DUP3 ADD MSTORE PUSH32 0x72616E73666572206D7573742062652067726561746572207468616E20300000 PUSH1 0x64 DUP3 ADD MSTORE PUSH1 0x84 ADD PUSH2 0x337 JUMP JUMPDEST CALLER PUSH1 0x0 SWAP1 DUP2 MSTORE PUSH1 0xA PUSH1 0x20 MSTORE PUSH1 0x40 SWAP1 KECCAK256 SLOAD DUP3 GT ISZERO PUSH2 0x6C1 JUMPI PUSH1 0x40 MLOAD PUSH3 0x461BCD PUSH1 0xE5 SHL DUP2 MSTORE PUSH1 0x20 PUSH1 0x4 DUP3 ADD MSTORE PUSH1 0x1C PUSH1 0x24 DUP3 ADD MSTORE PUSH32 0x4E756D626572206F6620746F6B656E7320756E617661696C61626C6500000000 PUSH1 0x44 DUP3 ADD MSTORE PUSH1 0x64 ADD PUSH2 0x337 JUMP JUMPDEST PUSH1 0x0 SLOAD PUSH1 0x40 MLOAD PUSH4 0xA3871EB PUSH1 0xE0 SHL DUP2 MSTORE CALLER PUSH1 0x4 DUP3 ADD MSTORE PUSH1 0x24 DUP2 ADD DUP5 SWAP1 MSTORE PUSH1 0x1 PUSH1 0x1 PUSH1 0xA0 SHL SUB SWAP1 SWAP2 AND SWAP1 PUSH4 0xA3871EB SWAP1 PUSH1 0x44 ADD PUSH1 0x20 PUSH1 0x40 MLOAD DUP1 DUP4 SUB DUP2 PUSH1 0x0 DUP8 GAS CALL ISZERO DUP1 ISZERO PUSH2 0x712 JUMPI RETURNDATASIZE PUSH1 0x0 DUP1 RETURNDATACOPY RETURNDATASIZE PUSH1 0x0 REVERT JUMPDEST POP POP POP POP PUSH1 0x40 MLOAD RETURNDATASIZE PUSH1 0x1F NOT PUSH1 0x1F DUP3 ADD AND DUP3 ADD DUP1 PUSH1 0x40 MSTORE POP DUP2 ADD SWAP1 PUSH2 0x736 SWAP2 SWAP1 PUSH2 0x13F2 JUMP JUMPDEST POP CALLER PUSH1 0x0 SWAP1 DUP2 MSTORE PUSH1 0xA PUSH1 0x20 MSTORE PUSH1 0x40 DUP2 KECCAK256 DUP1 SLOAD DUP5 SWAP3 SWAP1 PUSH2 0x756 SWAP1 DUP5 SWAP1 PUSH2 0x1414 JUMP JUMPDEST SWAP3 POP POP DUP2 SWAP1 SSTORE POP DUP2 PUSH1 0x9 PUSH1 0x0 DUP3 DUP3 SLOAD PUSH2 0x76F SWAP2 SWAP1 PUSH2 0x1414 JUMP JUMPDEST SWAP1 SWAP2 SSTORE POP PUSH1 0x1 SWAP2 POP POP JUMPDEST SWAP2 SWAP1 POP JUMP JUMPDEST PUSH1 0x8 SLOAD PUSH1 0x0 SWAP1 PUSH1 0xFF AND PUSH2 0x7A3 JUMPI PUSH1 0x40 MLOAD PUSH3 0x461BCD PUSH1 0xE5 SHL DUP2 MSTORE PUSH1 0x4 ADD PUSH2 0x337 SWAP1 PUSH2 0x1305 JUMP JUMPDEST PUSH1 0x0 PUSH1 0x3 SLOAD PUSH4 0x3B9ACA00 PUSH2 0x7B7 SWAP2 SWAP1 PUSH2 0x1427 JUMP JUMPDEST SWAP1 POP DUP1 CALLVALUE LT ISZERO PUSH2 0x81F JUMPI PUSH1 0x40 MLOAD PUSH3 0x461BCD PUSH1 0xE5 SHL DUP2 MSTORE PUSH1 0x20 PUSH1 0x4 DUP3 ADD MSTORE PUSH1 0x2D PUSH1 0x24 DUP3 ADD MSTORE PUSH32 0x696E73756666696369656E742076616C756520746F206C697374656E20746865 PUSH1 0x44 DUP3 ADD MSTORE PUSH13 0x206D7573696320726967687473 PUSH1 0x98 SHL PUSH1 0x64 DUP3 ADD MSTORE PUSH1 0x84 ADD PUSH2 0x337 JUMP JUMPDEST PUSH1 0x0 PUSH2 0x82B DUP3 CALLVALUE PUSH2 0x1414 JUMP JUMPDEST PUSH1 0x40 MLOAD PUSH1 0x1 DUP2 MSTORE SWAP1 SWAP2 POP CALLER SWAP1 PUSH32 0x53F8FD6B05226233DE7AC193299B5CB02358FE734840D24F2631A5A07643CED5 SWAP1 PUSH1 0x20 ADD JUMPDEST PUSH1 0x40 MLOAD DUP1 SWAP2 SUB SWAP1 LOG2 PUSH1 0x40 MLOAD CALLER SWAP1 DUP3 ISZERO PUSH2 0x8FC MUL SWAP1 DUP4 SWAP1 PUSH1 0x0 DUP2 DUP2 DUP2 DUP6 DUP9 DUP9 CALL SWAP4 POP POP POP POP ISZERO DUP1 ISZERO PUSH2 0x892 JUMPI RETURNDATASIZE PUSH1 0x0 DUP1 RETURNDATACOPY RETURNDATASIZE PUSH1 0x0 REVERT JUMPDEST POP PUSH1 0x1 SWAP3 POP POP POP SWAP1 JUMP JUMPDEST PUSH1 0x4 SLOAD PUSH1 0x0 SWAP1 PUSH1 0x1 PUSH1 0x1 PUSH1 0xA0 SHL SUB AND CALLER EQ PUSH2 0x8C9 JUMPI PUSH1 0x40 MLOAD PUSH3 0x461BCD PUSH1 0xE5 SHL DUP2 MSTORE PUSH1 0x4 ADD PUSH2 0x337 SWAP1 PUSH2 0x11FD JUMP JUMPDEST PUSH1 0x8 SLOAD PUSH1 0xFF AND ISZERO PUSH2 0x8EC JUMPI PUSH1 0x40 MLOAD PUSH3 0x461BCD PUSH1 0xE5 SHL DUP2 MSTORE PUSH1 0x4 ADD PUSH2 0x337 SWAP1 PUSH2 0x1252 JUMP JUMPDEST PUSH1 0x0 DUP3 PUSH1 0xFF AND GT PUSH2 0x953 JUMPI PUSH1 0x40 MLOAD PUSH3 0x461BCD PUSH1 0xE5 SHL DUP2 MSTORE PUSH1 0x20 PUSH1 0x4 DUP3 ADD MSTORE PUSH1 0x2B PUSH1 0x24 DUP3 ADD MSTORE PUSH32 0x50657263656E74616765206F6620726967687473206D75737420626520677265 PUSH1 0x44 DUP3 ADD MSTORE PUSH11 0x61746572207468616E203 PUSH1 0xAC SHL PUSH1 0x64 DUP3 ADD MSTORE PUSH1 0x84 ADD PUSH2 0x337 JUMP JUMPDEST PUSH1 0x6 SLOAD PUSH1 0xFF SWAP1 DUP2 AND SWAP1 DUP4 AND GT ISZERO PUSH2 0x9E1 JUMPI PUSH1 0x40 MLOAD PUSH3 0x461BCD PUSH1 0xE5 SHL DUP2 MSTORE PUSH1 0x20 PUSH1 0x4 DUP3 ADD MSTORE PUSH1 0x46 PUSH1 0x24 DUP3 ADD MSTORE PUSH32 0x70657263656E74616765206F6620656E7469746C656D656E74732072656D6169 PUSH1 0x44 DUP3 ADD MSTORE PUSH32 0x6E696E67206973206C657373207468616E207468652072657175657374656420 PUSH1 0x64 DUP3 ADD MSTORE PUSH6 0x185B5BDD5B9D PUSH1 0xD2 SHL PUSH1 0x84 DUP3 ADD MSTORE PUSH1 0xA4 ADD PUSH2 0x337 JUMP JUMPDEST PUSH1 0x1 PUSH1 0x1 PUSH1 0xA0 SHL SUB DUP4 AND PUSH1 0x0 SWAP1 DUP2 MSTORE PUSH1 0x5 PUSH1 0x20 MSTORE PUSH1 0x40 DUP2 KECCAK256 SLOAD PUSH1 0xFF AND SWAP1 SUB PUSH2 0xA4F JUMPI PUSH1 0x7 DUP1 SLOAD PUSH1 0x1 DUP2 ADD DUP3 SSTORE PUSH1 0x0 SWAP2 SWAP1 SWAP2 MSTORE PUSH32 0xA66CC928B5EDB82AF9BD49922954155AB7B0942694BEA4CE44661D9A8736C688 ADD DUP1 SLOAD PUSH1 0x1 PUSH1 0x1 PUSH1 0xA0 SHL SUB NOT AND PUSH1 0x1 PUSH1 0x1 PUSH1 0xA0 SHL SUB DUP6 AND OR SWAP1 SSTORE JUMPDEST PUSH1 0x1 PUSH1 0x1 PUSH1 0xA0 SHL SUB DUP4 AND PUSH1 0x0 SWAP1 DUP2 MSTORE PUSH1 0x5 PUSH1 0x20 MSTORE PUSH1 0x40 DUP2 KECCAK256 DUP1 SLOAD DUP5 SWAP3 SWAP1 PUSH2 0xA7A SWAP1 DUP5 SWAP1 PUSH1 0xFF AND PUSH2 0x12EC JUMP JUMPDEST SWAP3 POP PUSH2 0x100 EXP DUP2 SLOAD DUP2 PUSH1 0xFF MUL NOT AND SWAP1 DUP4 PUSH1 0xFF AND MUL OR SWAP1 SSTORE POP DUP2 PUSH1 0x6 PUSH1 0x0 DUP3 DUP3 DUP3 SWAP1 SLOAD SWAP1 PUSH2 0x100 EXP SWAP1 DIV PUSH1 0xFF AND PUSH2 0xAB0 SWAP2 SWAP1 PUSH2 0x12D3 JUMP JUMPDEST SWAP3 POP PUSH2 0x100 EXP DUP2 SLOAD DUP2 PUSH1 0xFF MUL NOT AND SWAP1 DUP4 PUSH1 0xFF AND MUL OR SWAP1 SSTORE POP ADDRESS PUSH1 0x1 PUSH1 0x1 PUSH1 0xA0 SHL SUB AND DUP4 PUSH1 0x1 PUSH1 0x1 PUSH1 0xA0 SHL SUB AND PUSH32 0x3DF476B3B37A3360A1B466487C0A06214A4E1D899E5C66A7AD379E503C2EA9E DUP5 PUSH1 0x40 MLOAD PUSH2 0x55A SWAP2 SWAP1 PUSH1 0xFF SWAP2 SWAP1 SWAP2 AND DUP2 MSTORE PUSH1 0x20 ADD SWAP1 JUMP JUMPDEST PUSH1 0x8 SLOAD PUSH1 0x0 SWAP1 PUSH1 0xFF AND PUSH2 0xB39 JUMPI PUSH1 0x40 MLOAD PUSH3 0x461BCD PUSH1 0xE5 SHL DUP2 MSTORE PUSH1 0x4 ADD PUSH2 0x337 SWAP1 PUSH2 0x1305 JUMP JUMPDEST PUSH1 0x0 PUSH1 0x2 SLOAD PUSH4 0x3B9ACA00 PUSH2 0xB4D SWAP2 SWAP1 PUSH2 0x1427 JUMP JUMPDEST SWAP1 POP DUP1 CALLVALUE LT ISZERO PUSH2 0xBB7 JUMPI PUSH1 0x40 MLOAD PUSH3 0x461BCD PUSH1 0xE5 SHL DUP2 MSTORE PUSH1 0x20 PUSH1 0x4 DUP3 ADD MSTORE PUSH1 0x2F PUSH1 0x24 DUP3 ADD MSTORE PUSH32 0x696E73756666696369656E742076616C756520746F2070757263686173652074 PUSH1 0x44 DUP3 ADD MSTORE PUSH15 0x6865206D7573696320726967687473 PUSH1 0x88 SHL PUSH1 0x64 DUP3 ADD MSTORE PUSH1 0x84 ADD PUSH2 0x337 JUMP JUMPDEST PUSH1 0x0 PUSH2 0xBC3 DUP3 CALLVALUE PUSH2 0x1414 JUMP JUMPDEST PUSH1 0x40 MLOAD PUSH1 0x1 DUP2 MSTORE SWAP1 SWAP2 POP CALLER SWAP1 PUSH32 0x4429633AB0A9F77B1BC61E2ED0E484B81B41823661C29DD1BA47C1B06882459D SWAP1 PUSH1 0x20 ADD PUSH2 0x85D JUMP JUMPDEST PUSH1 0x4 SLOAD PUSH1 0x0 SWAP1 PUSH1 0x1 PUSH1 0x1 PUSH1 0xA0 SHL SUB AND CALLER EQ PUSH2 0xC26 JUMPI PUSH1 0x40 MLOAD PUSH3 0x461BCD PUSH1 0xE5 SHL DUP2 MSTORE PUSH1 0x4 ADD PUSH2 0x337 SWAP1 PUSH2 0x11FD JUMP JUMPDEST PUSH1 0x6 SLOAD PUSH1 0xFF AND ISZERO PUSH2 0xCA9 JUMPI PUSH1 0x40 MLOAD PUSH3 0x461BCD PUSH1 0xE5 SHL DUP2 MSTORE PUSH1 0x20 PUSH1 0x4 DUP3 ADD MSTORE PUSH1 0x41 PUSH1 0x24 DUP3 ADD MSTORE PUSH32 0x5468652072656D61696E696E67206469766973696F6E73206F66207269676874 PUSH1 0x44 DUP3 ADD MSTORE PUSH32 0x73206D757374206265203020746F207365616C207468697320636F6E74726163 PUSH1 0x64 DUP3 ADD MSTORE PUSH1 0x1D PUSH1 0xFA SHL PUSH1 0x84 DUP3 ADD MSTORE PUSH1 0xA4 ADD PUSH2 0x337 JUMP JUMPDEST PUSH1 0x8 DUP1 SLOAD PUSH1 0xFF NOT AND PUSH1 0x1 SWAP1 DUP2 OR SWAP1 SWAP2 SSTORE PUSH1 0x40 MLOAD SWAP1 DUP2 MSTORE ADDRESS SWAP1 PUSH32 0x2BD58C1C32E360804CF66BB5628995E5689D64524F0203FDD547F47E1E4E6D71 SWAP1 PUSH1 0x20 ADD PUSH1 0x40 MLOAD DUP1 SWAP2 SUB SWAP1 LOG2 POP PUSH1 0x1 SWAP1 JUMP JUMPDEST PUSH1 0x8 SLOAD PUSH1 0x0 SWAP1 PUSH1 0xFF AND PUSH2 0xD19 JUMPI PUSH1 0x40 MLOAD PUSH3 0x461BCD PUSH1 0xE5 SHL DUP2 MSTORE PUSH1 0x4 ADD PUSH2 0x337 SWAP1 PUSH2 0x1305 JUMP JUMPDEST CALLER PUSH1 0x0 SWAP1 DUP2 MSTORE PUSH1 0x5 PUSH1 0x20 MSTORE PUSH1 0x40 DUP2 KECCAK256 SLOAD PUSH1 0xFF AND SWAP1 SUB PUSH2 0xD4A JUMPI PUSH1 0x40 MLOAD PUSH3 0x461BCD PUSH1 0xE5 SHL DUP2 MSTORE PUSH1 0x4 ADD PUSH2 0x337 SWAP1 PUSH2 0x137F JUMP JUMPDEST PUSH7 0x12D452694F4000 SELFBALANCE LT ISZERO PUSH2 0xDD6 JUMPI PUSH1 0x40 MLOAD PUSH3 0x461BCD PUSH1 0xE5 SHL DUP2 MSTORE PUSH1 0x20 PUSH1 0x4 DUP3 ADD MSTORE PUSH1 0x46 PUSH1 0x24 DUP3 ADD MSTORE PUSH32 0x496E73756666696369656E742045746865722073656E7420746F206275792074 PUSH1 0x44 DUP3 ADD MSTORE PUSH32 0x6F6B656E732E204D7573742068617665206174206C6561737420302E30303533 PUSH1 0x64 DUP3 ADD MSTORE PUSH6 0x1022BA3432B9 PUSH1 0xD1 SHL PUSH1 0x84 DUP3 ADD MSTORE PUSH1 0xA4 ADD PUSH2 0x337 JUMP JUMPDEST PUSH1 0x0 DUP1 SLOAD SWAP1 PUSH2 0x100 EXP SWAP1 DIV PUSH1 0x1 PUSH1 0x1 PUSH1 0xA0 SHL SUB AND PUSH1 0x1 PUSH1 0x1 PUSH1 0xA0 SHL SUB AND PUSH4 0x917B1BF5 SELFBALANCE PUSH1 0x40 MLOAD DUP3 PUSH4 0xFFFFFFFF AND PUSH1 0xE0 SHL DUP2 MSTORE PUSH1 0x4 ADD PUSH1 0x20 PUSH1 0x40 MLOAD DUP1 DUP4 SUB DUP2 DUP6 DUP9 GAS CALL ISZERO DUP1 ISZERO PUSH2 0xE29 JUMPI RETURNDATASIZE PUSH1 0x0 DUP1 RETURNDATACOPY RETURNDATASIZE PUSH1 0x0 REVERT JUMPDEST POP POP POP POP POP PUSH1 0x40 MLOAD RETURNDATASIZE PUSH1 0x1F NOT PUSH1 0x1F DUP3 ADD AND DUP3 ADD DUP1 PUSH1 0x40 MSTORE POP DUP2 ADD SWAP1 PUSH2 0xE4E SWAP2 SWAP1 PUSH2 0x13F2 JUMP JUMPDEST POP PUSH1 0x64 PUSH1 0x9 PUSH1 0x0 DUP3 DUP3 SLOAD PUSH2 0xE62 SWAP2 SWAP1 PUSH2 0x143E JUMP JUMPDEST SWAP1 SWAP2 SSTORE POP PUSH2 0xE72 SWAP1 POP PUSH1 0x64 PUSH2 0xF43 JUMP JUMPDEST POP PUSH2 0xE7B PUSH2 0xFC6 JUMP JUMPDEST POP PUSH1 0x1 SWAP1 POP SWAP1 JUMP JUMPDEST PUSH1 0x0 PUSH2 0xE8E DUP3 PUSH2 0x1111 JUMP JUMPDEST PUSH1 0x7 DUP1 SLOAD SWAP2 SWAP3 POP SWAP1 PUSH2 0xEA2 SWAP1 PUSH1 0x1 SWAP1 PUSH2 0x1414 JUMP JUMPDEST DUP2 SLOAD DUP2 LT PUSH2 0xEB2 JUMPI PUSH2 0xEB2 PUSH2 0x1451 JUMP JUMPDEST PUSH1 0x0 SWAP2 DUP3 MSTORE PUSH1 0x20 SWAP1 SWAP2 KECCAK256 ADD SLOAD PUSH1 0x7 DUP1 SLOAD PUSH1 0x1 PUSH1 0x1 PUSH1 0xA0 SHL SUB SWAP1 SWAP3 AND SWAP2 DUP4 SWAP1 DUP2 LT PUSH2 0xEDE JUMPI PUSH2 0xEDE PUSH2 0x1451 JUMP JUMPDEST SWAP1 PUSH1 0x0 MSTORE PUSH1 0x20 PUSH1 0x0 KECCAK256 ADD PUSH1 0x0 PUSH2 0x100 EXP DUP2 SLOAD DUP2 PUSH1 0x1 PUSH1 0x1 PUSH1 0xA0 SHL SUB MUL NOT AND SWAP1 DUP4 PUSH1 0x1 PUSH1 0x1 PUSH1 0xA0 SHL SUB AND MUL OR SWAP1 SSTORE POP PUSH1 0x7 DUP1 SLOAD DUP1 PUSH2 0xF1D JUMPI PUSH2 0xF1D PUSH2 0x1467 JUMP JUMPDEST PUSH1 0x0 DUP3 DUP2 MSTORE PUSH1 0x20 SWAP1 KECCAK256 DUP2 ADD PUSH1 0x0 NOT SWAP1 DUP2 ADD DUP1 SLOAD PUSH1 0x1 PUSH1 0x1 PUSH1 0xA0 SHL SUB NOT AND SWAP1 SSTORE ADD SWAP1 SSTORE POP POP JUMP JUMPDEST PUSH1 0x0 DUP1 SLOAD PUSH1 0x1 SLOAD PUSH1 0x40 MLOAD PUSH4 0x95EA7B3 PUSH1 0xE0 SHL DUP2 MSTORE PUSH1 0x1 PUSH1 0x1 PUSH1 0xA0 SHL SUB SWAP2 DUP3 AND PUSH1 0x4 DUP3 ADD MSTORE PUSH1 0x24 DUP2 ADD DUP6 SWAP1 MSTORE SWAP2 AND SWAP1 PUSH4 0x95EA7B3 SWAP1 PUSH1 0x44 ADD PUSH1 0x20 PUSH1 0x40 MLOAD DUP1 DUP4 SUB DUP2 PUSH1 0x0 DUP8 GAS CALL ISZERO DUP1 ISZERO PUSH2 0xF99 JUMPI RETURNDATASIZE PUSH1 0x0 DUP1 RETURNDATACOPY RETURNDATASIZE PUSH1 0x0 REVERT JUMPDEST POP POP POP POP PUSH1 0x40 MLOAD RETURNDATASIZE PUSH1 0x1F NOT PUSH1 0x1F DUP3 ADD AND DUP3 ADD DUP1 PUSH1 0x40 MSTORE POP DUP2 ADD SWAP1 PUSH2 0xFBD SWAP2 SWAP1 PUSH2 0x13F2 JUMP JUMPDEST POP PUSH1 0x1 SWAP3 SWAP2 POP POP JUMP JUMPDEST PUSH1 0x0 DUP1 JUMPDEST PUSH1 0x7 SLOAD DUP2 LT ISZERO PUSH2 0xE7B JUMPI PUSH1 0x5 PUSH1 0x0 PUSH1 0x7 DUP4 DUP2 SLOAD DUP2 LT PUSH2 0xFEB JUMPI PUSH2 0xFEB PUSH2 0x1451 JUMP JUMPDEST PUSH1 0x0 SWAP2 DUP3 MSTORE PUSH1 0x20 DUP1 DUP4 KECCAK256 SWAP1 SWAP2 ADD SLOAD PUSH1 0x1 PUSH1 0x1 PUSH1 0xA0 SHL SUB AND DUP4 MSTORE DUP3 ADD SWAP3 SWAP1 SWAP3 MSTORE PUSH1 0x40 ADD DUP2 KECCAK256 SLOAD PUSH1 0x7 DUP1 SLOAD PUSH1 0xFF SWAP1 SWAP3 AND SWAP3 PUSH1 0xA SWAP3 SWAP1 SWAP2 SWAP1 DUP6 SWAP1 DUP2 LT PUSH2 0x1030 JUMPI PUSH2 0x1030 PUSH2 0x1451 JUMP JUMPDEST PUSH1 0x0 SWAP2 DUP3 MSTORE PUSH1 0x20 DUP1 DUP4 KECCAK256 SWAP1 SWAP2 ADD SLOAD PUSH1 0x1 PUSH1 0x1 PUSH1 0xA0 SHL SUB AND DUP4 MSTORE DUP3 ADD SWAP3 SWAP1 SWAP3 MSTORE PUSH1 0x40 ADD DUP2 KECCAK256 DUP1 SLOAD SWAP1 SWAP2 SWAP1 PUSH2 0x1064 SWAP1 DUP5 SWAP1 PUSH2 0x143E JUMP JUMPDEST SWAP1 SWAP2 SSTORE POP POP PUSH1 0x7 DUP1 SLOAD DUP3 SWAP1 DUP2 LT PUSH2 0x107D JUMPI PUSH2 0x107D PUSH2 0x1451 JUMP JUMPDEST PUSH1 0x0 SWAP2 DUP3 MSTORE PUSH1 0x20 DUP3 KECCAK256 ADD SLOAD PUSH1 0x7 DUP1 SLOAD PUSH1 0x1 PUSH1 0x1 PUSH1 0xA0 SHL SUB SWAP1 SWAP3 AND SWAP3 PUSH32 0xF18C582FB18BAB8A0EFE761E8FDD548EAEF7B331B99E27696A6381ED38C451E SWAP3 PUSH1 0x5 SWAP3 SWAP1 DUP7 SWAP1 DUP2 LT PUSH2 0x10CE JUMPI PUSH2 0x10CE PUSH2 0x1451 JUMP JUMPDEST PUSH1 0x0 SWAP2 DUP3 MSTORE PUSH1 0x20 DUP1 DUP4 KECCAK256 SWAP2 SWAP1 SWAP2 ADD SLOAD PUSH1 0x1 PUSH1 0x1 PUSH1 0xA0 SHL SUB AND DUP4 MSTORE DUP3 DUP2 ADD SWAP4 SWAP1 SWAP4 MSTORE PUSH1 0x40 SWAP2 DUP3 ADD SWAP1 KECCAK256 SLOAD SWAP1 MLOAD PUSH1 0xFF SWAP1 SWAP2 AND DUP2 MSTORE ADD PUSH1 0x40 MLOAD DUP1 SWAP2 SUB SWAP1 LOG2 PUSH1 0x1 ADD PUSH2 0xFCA JUMP JUMPDEST PUSH1 0x0 DUP1 JUMPDEST PUSH1 0x7 SLOAD DUP2 LT ISZERO PUSH2 0x1164 JUMPI DUP3 PUSH1 0x1 PUSH1 0x1 PUSH1 0xA0 SHL SUB AND PUSH1 0x7 DUP3 DUP2 SLOAD DUP2 LT PUSH2 0x113C JUMPI PUSH2 0x113C PUSH2 0x1451 JUMP JUMPDEST PUSH1 0x0 SWAP2 DUP3 MSTORE PUSH1 0x20 SWAP1 SWAP2 KECCAK256 ADD SLOAD PUSH1 0x1 PUSH1 0x1 PUSH1 0xA0 SHL SUB AND SUB PUSH2 0x115C JUMPI SWAP3 SWAP2 POP POP JUMP JUMPDEST PUSH1 0x1 ADD PUSH2 0x1115 JUMP JUMPDEST POP POP PUSH1 0x7 SLOAD SWAP2 SWAP1 POP JUMP JUMPDEST DUP1 CALLDATALOAD PUSH1 0x1 PUSH1 0x1 PUSH1 0xA0 SHL SUB DUP2 AND DUP2 EQ PUSH2 0x779 JUMPI PUSH1 0x0 DUP1 REVERT JUMPDEST PUSH1 0x0 PUSH1 0x20 DUP3 DUP5 SUB SLT ISZERO PUSH2 0x1197 JUMPI PUSH1 0x0 DUP1 REVERT JUMPDEST PUSH2 0x11A0 DUP3 PUSH2 0x116E JUMP JUMPDEST SWAP4 SWAP3 POP POP POP JUMP JUMPDEST PUSH1 0x0 DUP1 PUSH1 0x40 DUP4 DUP6 SUB SLT ISZERO PUSH2 0x11BA JUMPI PUSH1 0x0 DUP1 REVERT JUMPDEST PUSH2 0x11C3 DUP4 PUSH2 0x116E JUMP JUMPDEST SWAP2 POP PUSH1 0x20 DUP4 ADD CALLDATALOAD PUSH1 0xFF DUP2 AND DUP2 EQ PUSH2 0x11D9 JUMPI PUSH1 0x0 DUP1 REVERT JUMPDEST DUP1 SWAP2 POP POP SWAP3 POP SWAP3 SWAP1 POP JUMP JUMPDEST PUSH1 0x0 PUSH1 0x20 DUP3 DUP5 SUB SLT ISZERO PUSH2 0x11F6 JUMPI PUSH1 0x0 DUP1 REVERT JUMPDEST POP CALLDATALOAD SWAP2 SWAP1 POP JUMP JUMPDEST PUSH1 0x20 DUP1 DUP3 MSTORE PUSH1 0x35 SWAP1 DUP3 ADD MSTORE PUSH32 0x546869732066756E6374696F6E2063616E206F6E6C792062652063616C6C6564 PUSH1 0x40 DUP3 ADD MSTORE PUSH21 0x20627920746865206F776E65722061646472657373 PUSH1 0x58 SHL PUSH1 0x60 DUP3 ADD MSTORE PUSH1 0x80 ADD SWAP1 JUMP JUMPDEST PUSH1 0x20 DUP1 DUP3 MSTORE PUSH1 0x45 SWAP1 DUP3 ADD MSTORE PUSH32 0x54686520636F6E747261637420697320616C7265616479207365616C65642C20 PUSH1 0x40 DUP3 ADD MSTORE PUSH32 0x6E6F206D6F64696669636174696F6E206F66207269676874732063616E206265 PUSH1 0x60 DUP3 ADD MSTORE PUSH5 0x206D616465 PUSH1 0xD8 SHL PUSH1 0x80 DUP3 ADD MSTORE PUSH1 0xA0 ADD SWAP1 JUMP JUMPDEST PUSH4 0x4E487B71 PUSH1 0xE0 SHL PUSH1 0x0 MSTORE PUSH1 0x11 PUSH1 0x4 MSTORE PUSH1 0x24 PUSH1 0x0 REVERT JUMPDEST PUSH1 0xFF DUP3 DUP2 AND DUP3 DUP3 AND SUB SWAP1 DUP2 GT ISZERO PUSH2 0x566 JUMPI PUSH2 0x566 PUSH2 0x12BD JUMP JUMPDEST PUSH1 0xFF DUP2 DUP2 AND DUP4 DUP3 AND ADD SWAP1 DUP2 GT ISZERO PUSH2 0x566 JUMPI PUSH2 0x566 PUSH2 0x12BD JUMP JUMPDEST PUSH1 0x20 DUP1 DUP3 MSTORE PUSH1 0x54 SWAP1 DUP3 ADD MSTORE PUSH32 0x54686520636F6E7472616374206973206E6F74207365616C65642E2054686973 PUSH1 0x40 DUP3 ADD MSTORE PUSH32 0x207472616E73616374696F6E2063616E206F6E6C7920626520646F6E65207769 PUSH1 0x60 DUP3 ADD MSTORE PUSH20 0x1D1A0818481CD9585B19590818DBDB9D1C9858DD PUSH1 0x62 SHL PUSH1 0x80 DUP3 ADD MSTORE PUSH1 0xA0 ADD SWAP1 JUMP JUMPDEST PUSH1 0x20 DUP1 DUP3 MSTORE PUSH1 0x4D SWAP1 DUP3 ADD MSTORE PUSH32 0x546869732066756E6374696F6E2063616E6E6F742062652063616C6C65642062 PUSH1 0x40 DUP3 ADD MSTORE PUSH32 0x7920616E796F6E652077686F20646F6573206E6F742068617665207269676874 PUSH1 0x60 DUP3 ADD MSTORE PUSH13 0x7320746F2074686520736F6E67 PUSH1 0x98 SHL PUSH1 0x80 DUP3 ADD MSTORE PUSH1 0xA0 ADD SWAP1 JUMP JUMPDEST PUSH1 0x0 PUSH1 0x20 DUP3 DUP5 SUB SLT ISZERO PUSH2 0x1404 JUMPI PUSH1 0x0 DUP1 REVERT JUMPDEST DUP2 MLOAD DUP1 ISZERO ISZERO DUP2 EQ PUSH2 0x11A0 JUMPI PUSH1 0x0 DUP1 REVERT JUMPDEST DUP2 DUP2 SUB DUP2 DUP2 GT ISZERO PUSH2 0x566 JUMPI PUSH2 0x566 PUSH2 0x12BD JUMP JUMPDEST DUP1 DUP3 MUL DUP2 ISZERO DUP3 DUP3 DIV DUP5 EQ OR PUSH2 0x566 JUMPI PUSH2 0x566 PUSH2 0x12BD JUMP JUMPDEST DUP1 DUP3 ADD DUP1 DUP3 GT ISZERO PUSH2 0x566 JUMPI PUSH2 0x566 PUSH2 0x12BD JUMP JUMPDEST PUSH4 0x4E487B71 PUSH1 0xE0 SHL PUSH1 0x0 MSTORE PUSH1 0x32 PUSH1 0x4 MSTORE PUSH1 0x24 PUSH1 0x0 REVERT JUMPDEST PUSH4 0x4E487B71 PUSH1 0xE0 SHL PUSH1 0x0 MSTORE PUSH1 0x31 PUSH1 0x4 MSTORE PUSH1 0x24 PUSH1 0x0 REVERT INVALID LOG2 PUSH5 0x6970667358 0x22 SLT KECCAK256 PUSH27 0x7DEB8F38CA1AD219986680CF06DD23BA024D43DF5E73B7DBC4F069 CREATE LT 0xBE 0xC0 PUSH5 0x736F6C6343 STOP ADDMOD SHR STOP CALLER "},"methodIdentifiers":{"assignRights(address,uint8)":"76866222","balanceTokens()":"e4494a0f","buy100OysterToken()":"b145fcd4","buyRightsMusic()":"8e6b3ac4","divisionOfRights(address)":"bee4f733","listenMusic()":"6ba5d079","musicContactIsSealed()":"ebc1945b","owner()":"8da5cb5b","remainingRightsDivision()":"f7173526","rightHolders(uint256)":"5d0fab84","rightPurchaseValueInGwei()":"eff13431","sealRights()":"98208484","sellOysterToken(uint256)":"5e1b6191","tokensPerAddress(address)":"425432b1","valueForListeningInGwei()":"9650f289","viewBalance()":"3ff1e05b","withdrawRights(address,uint8)":"4b946cc9"}}}}}