{
  "_format": "hh-sol-artifact-1",
  "contractName": "MusicContract",
  "sourceName": "contracts/MusicContract.sol",
  "abi": [
    {
      "inputs": [
        {
          "internalType": "address",
          "name": "_oysterToken",
          "type": "address"
        },
        {
          "internalType": "address",
          "name": "initialOwner",
          "type": "address"
        }
      ],
      "stateMutability": "nonpayable",
      "type": "constructor"
    },
    {
      "inputs": [
        {
          "internalType": "address",
          "name": "owner",
          "type": "address"
        }
      ],
      "name": "OwnableInvalidOwner",
      "type": "error"
    },
    {
      "inputs": [
        {
          "internalType": "address",
          "name": "account",
          "type": "address"
        }
      ],
      "name": "OwnableUnauthorizedAccount",
      "type": "error"
    },
    {
      "anonymous": false,
      "inputs": [
        {
          "indexed": false,
          "internalType": "string",
          "name": "message",
          "type": "string"
        }
      ],
      "name": "Log",
      "type": "event"
    },
    {
      "anonymous": false,
      "inputs": [
        {
          "indexed": false,
          "internalType": "string",
          "name": "message",
          "type": "string"
        },
        {
          "indexed": false,
          "internalType": "address",
          "name": "addr",
          "type": "address"
        }
      ],
      "name": "LogAddress",
      "type": "event"
    },
    {
      "anonymous": false,
      "inputs": [
        {
          "indexed": false,
          "internalType": "string",
          "name": "message",
          "type": "string"
        },
        {
          "indexed": false,
          "internalType": "uint256",
          "name": "value",
          "type": "uint256"
        }
      ],
      "name": "LogUint",
      "type": "event"
    },
    {
      "anonymous": false,
      "inputs": [
        {
          "indexed": true,
          "internalType": "address",
          "name": "previousOwner",
          "type": "address"
        },
        {
          "indexed": true,
          "internalType": "address",
          "name": "newOwner",
          "type": "address"
        }
      ],
      "name": "OwnershipTransferred",
      "type": "event"
    },
    {
      "anonymous": false,
      "inputs": [
        {
          "indexed": true,
          "internalType": "address",
          "name": "oysterToken",
          "type": "address"
        }
      ],
      "name": "OysterTokenSet",
      "type": "event"
    },
    {
      "anonymous": false,
      "inputs": [
        {
          "indexed": true,
          "internalType": "address",
          "name": "newRightsHolder",
          "type": "address"
        }
      ],
      "name": "RightsAssigned",
      "type": "event"
    },
    {
      "anonymous": false,
      "inputs": [],
      "name": "RightsSealed",
      "type": "event"
    },
    {
      "anonymous": false,
      "inputs": [
        {
          "indexed": true,
          "internalType": "address",
          "name": "buyer",
          "type": "address"
        },
        {
          "indexed": false,
          "internalType": "uint256",
          "name": "amount",
          "type": "uint256"
        }
      ],
      "name": "TokensBought",
      "type": "event"
    },
    {
      "anonymous": false,
      "inputs": [
        {
          "indexed": true,
          "internalType": "address",
          "name": "seller",
          "type": "address"
        },
        {
          "indexed": false,
          "internalType": "uint256",
          "name": "amount",
          "type": "uint256"
        }
      ],
      "name": "TokensSold",
      "type": "event"
    },
    {
      "inputs": [
        {
          "internalType": "address",
          "name": "_newRightsHolder",
          "type": "address"
        }
      ],
      "name": "assignFullRights",
      "outputs": [],
      "stateMutability": "nonpayable",
      "type": "function"
    },
    {
      "inputs": [
        {
          "internalType": "uint256",
          "name": "_amount",
          "type": "uint256"
        }
      ],
      "name": "buyTokens",
      "outputs": [],
      "stateMutability": "nonpayable",
      "type": "function"
    },
    {
      "inputs": [],
      "name": "isSealed",
      "outputs": [
        {
          "internalType": "bool",
          "name": "",
          "type": "bool"
        }
      ],
      "stateMutability": "view",
      "type": "function"
    },
    {
      "inputs": [],
      "name": "owner",
      "outputs": [
        {
          "internalType": "address",
          "name": "",
          "type": "address"
        }
      ],
      "stateMutability": "view",
      "type": "function"
    },
    {
      "inputs": [],
      "name": "oysterToken",
      "outputs": [
        {
          "internalType": "contract IERC20",
          "name": "",
          "type": "address"
        }
      ],
      "stateMutability": "view",
      "type": "function"
    },
    {
      "inputs": [],
      "name": "renounceOwnership",
      "outputs": [],
      "stateMutability": "nonpayable",
      "type": "function"
    },
    {
      "inputs": [],
      "name": "rightsHolder",
      "outputs": [
        {
          "internalType": "address",
          "name": "",
          "type": "address"
        }
      ],
      "stateMutability": "view",
      "type": "function"
    },
    {
      "inputs": [],
      "name": "rightsSealed",
      "outputs": [
        {
          "internalType": "bool",
          "name": "",
          "type": "bool"
        }
      ],
      "stateMutability": "view",
      "type": "function"
    },
    {
      "inputs": [],
      "name": "sealRights",
      "outputs": [],
      "stateMutability": "nonpayable",
      "type": "function"
    },
    {
      "inputs": [
        {
          "internalType": "uint256",
          "name": "_amount",
          "type": "uint256"
        }
      ],
      "name": "sellTokens",
      "outputs": [],
      "stateMutability": "nonpayable",
      "type": "function"
    },
    {
      "inputs": [
        {
          "internalType": "address",
          "name": "_oysterToken",
          "type": "address"
        }
      ],
      "name": "setOysterToken",
      "outputs": [
        {
          "internalType": "bool",
          "name": "",
          "type": "bool"
        }
      ],
      "stateMutability": "nonpayable",
      "type": "function"
    },
    {
      "inputs": [
        {
          "internalType": "address",
          "name": "",
          "type": "address"
        }
      ],
      "name": "tokenBalances",
      "outputs": [
        {
          "internalType": "uint256",
          "name": "",
          "type": "uint256"
        }
      ],
      "stateMutability": "view",
      "type": "function"
    },
    {
      "inputs": [
        {
          "internalType": "address",
          "name": "newOwner",
          "type": "address"
        }
      ],
      "name": "transferOwnership",
      "outputs": [],
      "stateMutability": "nonpayable",
      "type": "function"
    }
  ],
  "bytecode": "0x608060405234801561001057600080fd5b5060405161132b38038061132b83398101604081905261002f916101bc565b806001600160a01b03811661005e57604051631e4fbdf760e01b81526000600482015260240160405180910390fd5b61006781610150565b507f62ddffe5b5108385f7a590f100e1ee414ad9551a31f089e64e82998440785e1e61009b6000546001600160a01b031690565b604080518181526014818301527f4d75736963436f6e74726163743a204f776e657200000000000000000000000060608201526001600160a01b03929092166020830152519081900360800190a16040516001600160a01b038316907f4591f85d9e7c32e3c8dfc71554a9dbaeafed3d8a4287ae3a4d35aa671b4bd91590600090a250600180546001600160a01b0319166001600160a01b03929092169190911790556002805460ff60a01b191690556101ef565b600080546001600160a01b038381166001600160a01b0319831681178455604051919092169283917f8be0079c531659141344cd1fd0a4f28419497f9722a3daafe3b4186f6b6457e09190a35050565b80516001600160a01b03811681146101b757600080fd5b919050565b600080604083850312156101cf57600080fd5b6101d8836101a0565b91506101e6602084016101a0565b90509250929050565b61112d806101fe6000396000f3fe608060405234801561001057600080fd5b50600436106100cf5760003560e01c80638da5cb5b1161008c578063bdacae4611610066578063bdacae46146101ad578063f2fde38b146101c0578063fd994c16146101d3578063ff87fdf0146101e657600080fd5b80638da5cb5b146101805780639820848414610191578063aab7f4931461019957600080fd5b80633610724e146100d4578063523fba7f146100e9578063631f98521461011c5780636c11bcd31461013a578063715018a61461014d57806381e20e6e14610155575b600080fd5b6100e76100e2366004610fb1565b6101f9565b005b6101096100f7366004610fca565b60036020526000908152604090205481565b6040519081526020015b60405180910390f35b600254600160a01b900460ff165b6040519015158152602001610113565b6100e7610148366004610fb1565b6109bf565b6100e7610ae1565b600254610168906001600160a01b031681565b6040516001600160a01b039091168152602001610113565b6000546001600160a01b0316610168565b6100e7610af5565b60025461012a90600160a01b900460ff1681565b6100e76101bb366004610fca565b610b95565b6100e76101ce366004610fca565b610c41565b600154610168906001600160a01b031681565b61012a6101f4366004610fca565b610c7f565b600080516020611078833981519152604051610246906020808252601f908201527f4d75736963436f6e74726163743a20627579546f6b656e732063616c6c656400604082015260600190565b60405180910390a16040805181815260028183015261627960f01b606082015233602082015290516000805160206110d88339815191529181900360800190a16040805181815260068183015265185b5bdd5b9d60d21b60608201526020810183905290516000805160206110988339815191529181900360800190a16001546001600160a01b03166103205760405162461bcd60e51b815260206004820152601b60248201527f4f7973746572546f6b656e2061646472657373206e6f7420736574000000000060448201526064015b60405180910390fd5b60008051602061107883398151915260405161036d906020808252601e908201527f4d75736963436f6e74726163743a204265666f7265207472616e736665720000604082015260600190565b60405180910390a1604080518181526006818301526529b2b73232b960d11b606082015233602082015290516000805160206110d88339815191529181900360800190a160408051818152600481830152635468697360e01b606082015230602082015290516000805160206110d88339815191529181900360800190a16040805181815260068183015265105b5bdd5b9d60d21b60608201526020810183905290516000805160206110988339815191529181900360800190a16001546040516370a0823160e01b8152336004820152600080516020611098833981519152916001600160a01b0316906370a0823190602401602060405180830381865afa15801561047e573d6000803e3d6000fd5b505050506040513d601f19601f820116820180604052508101906104a29190610ffa565b6040516104fd919060408082526037908201526000805160206110b883398151915260608201527f63654f66286d73672e73656e64657229206265666f72650000000000000000006080820152602081019190915260a00190565b60405180910390a16001546040516370a0823160e01b8152306004820152600080516020611098833981519152916001600160a01b0316906370a0823190602401602060405180830381865afa15801561055b573d6000803e3d6000fd5b505050506040513d601f19601f8201168201806040525081019061057f9190610ffa565b6040516105da91906040808252603a908201526000805160206110b883398151915260608201527f63654f66286164647265737328746869732929206265666f72650000000000006080820152602081019190915260a00190565b60405180910390a1600154604051636eb1769f60e11b8152336004820152306024820152600080516020611098833981519152916001600160a01b03169063dd62ed3e90604401602060405180830381865afa15801561063e573d6000803e3d6000fd5b505050506040513d601f19601f820116820180604052508101906106629190610ffa565b6040516106de919060408082526046908201527f4d75736963436f6e74726163743a206f7973746572546f6b656e2e616c6c6f7760608201527f616e6365286d73672e73656e6465722c206164647265737328746869732929206080820152656265666f726560d01b60a0820152602081019190915260c00190565b60405180910390a1600080516020611078833981519152604051610733906020808252601d908201527f4d75736963436f6e74726163743a204166746572207472616e73666572000000604082015260600190565b60405180910390a16001546040516370a0823160e01b8152336004820152600080516020611098833981519152916001600160a01b0316906370a0823190602401602060405180830381865afa158015610791573d6000803e3d6000fd5b505050506040513d601f19601f820116820180604052508101906107b59190610ffa565b604051610809919060408082526036908201526000805160206110b883398151915260608201527531b2a7b31436b9b39739b2b73232b9149030b33a32b960511b6080820152602081019190915260a00190565b60405180910390a16001546040516370a0823160e01b8152306004820152600080516020611098833981519152916001600160a01b0316906370a0823190602401602060405180830381865afa158015610867573d6000803e3d6000fd5b505050506040513d601f19601f8201168201806040525081019061088b9190610ffa565b6040516108e6919060408082526039908201526000805160206110b883398151915260608201527f63654f66286164647265737328746869732929206166746572000000000000006080820152602081019190915260a00190565b60405180910390a1336000908152600360205260408120805483929061090d908490611029565b9091555050336000908152600360209081526040918290205482518381526028818501527f4d75736963436f6e74726163743a20746f6b656e42616c616e6365735b6d73676060820152672e73656e6465725d60c01b60808201529182015290516000805160206110988339815191529181900360a00190a160405181815233907f745f661b8143944fb883f50694ebed3a871e43c451d9d4bf4648a9d551d7e47a906020015b60405180910390a250565b33600090815260036020526040902054811115610a155760405162461bcd60e51b8152602060048201526014602482015273496e73756666696369656e742062616c616e636560601b6044820152606401610317565b3360009081526003602052604081208054839290610a34908490611042565b909155505060015460405163a9059cbb60e01b8152336004820152602481018390526001600160a01b039091169063a9059cbb906044016020604051808303816000875af1158015610a8a573d6000803e3d6000fd5b505050506040513d601f19601f82011682018060405250810190610aae9190611055565b5060405181815233907f57d61f3ccd4ccd25ec5d234d6049553a586fac134c85c98d0b0d9d5724f4e43e906020016109b4565b610ae9610f34565b610af36000610f61565b565b610afd610f34565b600254600160a01b900460ff1615610b575760405162461bcd60e51b815260206004820152601f60248201527f526967687473206861766520616c7265616479206265656e207365616c6564006044820152606401610317565b6002805460ff60a01b1916600160a01b1790556040517fbd6a7263e83a75372ac2dbd0e06b8f145656e5432899164ea65fe2c29283e6cc90600090a1565b610b9d610f34565b600254600160a01b900460ff1615610bf75760405162461bcd60e51b815260206004820152601760248201527f5269676874732068617665206265656e207365616c65640000000000000000006044820152606401610317565b600280546001600160a01b0319166001600160a01b0383169081179091556040517ff50d6092aae737aede3c085516ef290606cfc1b003da5a49a48b1e6d9430734390600090a250565b610c49610f34565b6001600160a01b038116610c7357604051631e4fbdf760e01b815260006004820152602401610317565b610c7c81610f61565b50565b6000600080516020611078833981519152604051610cdb9060208082526024908201527f4d75736963436f6e74726163743a207365744f7973746572546f6b656e2063616040820152631b1b195960e21b606082015260800190565b60405180910390a1604080518181526029818301527f4d75736963436f6e74726163743a207365744f7973746572546f6b656e2063616060820152680d8d8cac840eed2e8d60bb1b60808201526001600160a01b038416602082015290516000805160206110d88339815191529181900360a00190a1600154604080518181526022818301527f4d75736963436f6e74726163743a2043757272656e74206f7973746572546f6b60608201526132b760f11b60808201526001600160a01b039092166020830152516000805160206110d88339815191529181900360a00190a16000805160206110d8833981519152610ddc6000546001600160a01b031690565b604080518181526014818301527326bab9b4b1a1b7b73a3930b1ba1d1037bbb732b960611b60608201526001600160a01b03929092166020830152519081900360800190a1604080518181526019818301527f4d75736963436f6e74726163743a206d73672e73656e64657200000000000000606082015233602082015290516000805160206110d88339815191529181900360800190a16040516001600160a01b038316907f4591f85d9e7c32e3c8dfc71554a9dbaeafed3d8a4287ae3a4d35aa671b4bd91590600090a2600180546001600160a01b0384166001600160a01b03199091168117909155604080518181526028818301527f4d75736963436f6e74726163743a206f7973746572546f6b656e20616464726560608201526739b99030b33a32b960c11b60808201526020810192909252516000805160206110d88339815191529181900360a00190a1506001919050565b6000546001600160a01b03163314610af35760405163118cdaa760e01b8152336004820152602401610317565b600080546001600160a01b038381166001600160a01b0319831681178455604051919092169283917f8be0079c531659141344cd1fd0a4f28419497f9722a3daafe3b4186f6b6457e09190a35050565b600060208284031215610fc357600080fd5b5035919050565b600060208284031215610fdc57600080fd5b81356001600160a01b0381168114610ff357600080fd5b9392505050565b60006020828403121561100c57600080fd5b5051919050565b634e487b7160e01b600052601160045260246000fd5b8082018082111561103c5761103c611013565b92915050565b8181038181111561103c5761103c611013565b60006020828403121561106757600080fd5b81518015158114610ff357600080fdfecf34ef537ac33ee1ac626ca1587a0a7e8e51561e5514f8cb36afa1c5102b3bab941296a39ea107bde685522318a4b6c2b544904a5dd82a512748ca2cf839bef74d75736963436f6e74726163743a206f7973746572546f6b656e2e62616c616e62ddffe5b5108385f7a590f100e1ee414ad9551a31f089e64e82998440785e1ea264697066735822122002a817eaafbe7749bbec0740279ae57ecf33c3260aa069fbdc3fc0ea53ff6ecb64736f6c634300081c0033",
  "linkReferences": {},
  "deployedLinkReferences": {}
}