{
  "_format": "hh-sol-artifact-1",
  "contractName": "MusicContract",
  "sourceName": "contracts/MusicContract.sol",
  "abi": [
    {
      "inputs": [
        {
          "internalType": "contract IERC20",
          "name": "_oysterToken",
          "type": "address"
        },
        {
          "internalType": "address",
          "name": "initialOwner",
          "type": "address"
        },
        {
          "internalType": "contract OysterVault",
          "name": "_vault",
          "type": "address"
        },
        {
          "internalType": "uint256",
          "name": "_gweiPerToken",
          "type": "uint256"
        }
      ],
      "stateMutability": "nonpayable",
      "type": "constructor"
    },
    {
      "inputs": [
        {
          "internalType": "address",
          "name": "owner",
          "type": "address"
        }
      ],
      "name": "OwnableInvalidOwner",
      "type": "error"
    },
    {
      "inputs": [
        {
          "internalType": "address",
          "name": "account",
          "type": "address"
        }
      ],
      "name": "OwnableUnauthorizedAccount",
      "type": "error"
    },
    {
      "anonymous": false,
      "inputs": [
        {
          "indexed": true,
          "internalType": "address",
          "name": "to",
          "type": "address"
        },
        {
          "indexed": false,
          "internalType": "uint256",
          "name": "timestamp",
          "type": "uint256"
        }
      ],
      "name": "FullRightsAssigned",
      "type": "event"
    },
    {
      "anonymous": false,
      "inputs": [
        {
          "indexed": false,
          "internalType": "string",
          "name": "message",
          "type": "string"
        }
      ],
      "name": "Log",
      "type": "event"
    },
    {
      "anonymous": false,
      "inputs": [
        {
          "indexed": false,
          "internalType": "string",
          "name": "message",
          "type": "string"
        },
        {
          "indexed": false,
          "internalType": "address",
          "name": "addr",
          "type": "address"
        }
      ],
      "name": "LogAddress",
      "type": "event"
    },
    {
      "anonymous": false,
      "inputs": [
        {
          "indexed": false,
          "internalType": "string",
          "name": "message",
          "type": "string"
        },
        {
          "indexed": false,
          "internalType": "address",
          "name": "addr1",
          "type": "address"
        },
        {
          "indexed": false,
          "internalType": "address",
          "name": "addr2",
          "type": "address"
        },
        {
          "indexed": false,
          "internalType": "uint256",
          "name": "value",
          "type": "uint256"
        }
      ],
      "name": "LogAddressAddressUint",
      "type": "event"
    },
    {
      "anonymous": false,
      "inputs": [
        {
          "indexed": false,
          "internalType": "string",
          "name": "message",
          "type": "string"
        },
        {
          "indexed": false,
          "internalType": "address",
          "name": "addr",
          "type": "address"
        },
        {
          "indexed": false,
          "internalType": "uint256",
          "name": "value",
          "type": "uint256"
        }
      ],
      "name": "LogAddressUint",
      "type": "event"
    },
    {
      "anonymous": false,
      "inputs": [
        {
          "indexed": false,
          "internalType": "string",
          "name": "message",
          "type": "string"
        },
        {
          "indexed": false,
          "internalType": "uint256",
          "name": "value",
          "type": "uint256"
        }
      ],
      "name": "LogUint",
      "type": "event"
    },
    {
      "anonymous": false,
      "inputs": [
        {
          "indexed": false,
          "internalType": "string",
          "name": "message",
          "type": "string"
        },
        {
          "indexed": false,
          "internalType": "uint256",
          "name": "value1",
          "type": "uint256"
        },
        {
          "indexed": false,
          "internalType": "uint256",
          "name": "value2",
          "type": "uint256"
        }
      ],
      "name": "LogUintUint",
      "type": "event"
    },
    {
      "anonymous": false,
      "inputs": [
        {
          "indexed": true,
          "internalType": "address",
          "name": "previousOwner",
          "type": "address"
        },
        {
          "indexed": true,
          "internalType": "address",
          "name": "newOwner",
          "type": "address"
        }
      ],
      "name": "OwnershipTransferred",
      "type": "event"
    },
    {
      "anonymous": false,
      "inputs": [
        {
          "indexed": true,
          "internalType": "address",
          "name": "caller",
          "type": "address"
        }
      ],
      "name": "RightsSealed",
      "type": "event"
    },
    {
      "anonymous": false,
      "inputs": [
        {
          "indexed": true,
          "internalType": "address",
          "name": "caller",
          "type": "address"
        },
        {
          "indexed": false,
          "internalType": "uint256",
          "name": "amount",
          "type": "uint256"
        }
      ],
      "name": "SellTokens",
      "type": "event"
    },
    {
      "anonymous": false,
      "inputs": [
        {
          "indexed": true,
          "internalType": "address",
          "name": "buyer",
          "type": "address"
        },
        {
          "indexed": false,
          "internalType": "uint256",
          "name": "amount",
          "type": "uint256"
        }
      ],
      "name": "TokensPurchased",
      "type": "event"
    },
    {
      "inputs": [
        {
          "internalType": "address",
          "name": "spender",
          "type": "address"
        },
        {
          "internalType": "uint256",
          "name": "amount",
          "type": "uint256"
        }
      ],
      "name": "approve",
      "outputs": [
        {
          "internalType": "bool",
          "name": "",
          "type": "bool"
        }
      ],
      "stateMutability": "nonpayable",
      "type": "function"
    },
    {
      "inputs": [
        {
          "internalType": "address",
          "name": "_to",
          "type": "address"
        }
      ],
      "name": "assignFullRights",
      "outputs": [
        {
          "internalType": "bool",
          "name": "",
          "type": "bool"
        }
      ],
      "stateMutability": "nonpayable",
      "type": "function"
    },
    {
      "inputs": [
        {
          "internalType": "address",
          "name": "_of",
          "type": "address"
        }
      ],
      "name": "divisionOfRights",
      "outputs": [
        {
          "internalType": "uint256",
          "name": "",
          "type": "uint256"
        }
      ],
      "stateMutability": "view",
      "type": "function"
    },
    {
      "inputs": [],
      "name": "getContractType",
      "outputs": [
        {
          "internalType": "string",
          "name": "",
          "type": "string"
        }
      ],
      "stateMutability": "pure",
      "type": "function"
    },
    {
      "inputs": [],
      "name": "getRemainingRightsDivision",
      "outputs": [
        {
          "internalType": "uint256",
          "name": "",
          "type": "uint256"
        }
      ],
      "stateMutability": "view",
      "type": "function"
    },
    {
      "inputs": [],
      "name": "getRightHolders",
      "outputs": [
        {
          "internalType": "address[]",
          "name": "",
          "type": "address[]"
        }
      ],
      "stateMutability": "view",
      "type": "function"
    },
    {
      "inputs": [],
      "name": "gweiPerToken",
      "outputs": [
        {
          "internalType": "uint256",
          "name": "",
          "type": "uint256"
        }
      ],
      "stateMutability": "view",
      "type": "function"
    },
    {
      "inputs": [],
      "name": "isMusicContractSealed",
      "outputs": [
        {
          "internalType": "bool",
          "name": "",
          "type": "bool"
        }
      ],
      "stateMutability": "view",
      "type": "function"
    },
    {
      "inputs": [],
      "name": "musicContactIsSealed",
      "outputs": [
        {
          "internalType": "bool",
          "name": "",
          "type": "bool"
        }
      ],
      "stateMutability": "view",
      "type": "function"
    },
    {
      "inputs": [],
      "name": "owner",
      "outputs": [
        {
          "internalType": "address",
          "name": "",
          "type": "address"
        }
      ],
      "stateMutability": "view",
      "type": "function"
    },
    {
      "inputs": [],
      "name": "oysterToken",
      "outputs": [
        {
          "internalType": "contract IERC20",
          "name": "",
          "type": "address"
        }
      ],
      "stateMutability": "view",
      "type": "function"
    },
    {
      "inputs": [
        {
          "internalType": "address",
          "name": "buyer",
          "type": "address"
        },
        {
          "internalType": "uint256",
          "name": "amount",
          "type": "uint256"
        }
      ],
      "name": "purchaseTokens",
      "outputs": [],
      "stateMutability": "nonpayable",
      "type": "function"
    },
    {
      "inputs": [],
      "name": "remainingRights",
      "outputs": [
        {
          "internalType": "uint256",
          "name": "",
          "type": "uint256"
        }
      ],
      "stateMutability": "view",
      "type": "function"
    },
    {
      "inputs": [],
      "name": "renounceOwnership",
      "outputs": [],
      "stateMutability": "nonpayable",
      "type": "function"
    },
    {
      "inputs": [
        {
          "internalType": "address",
          "name": "",
          "type": "address"
        }
      ],
      "name": "rightAssigned",
      "outputs": [
        {
          "internalType": "uint256",
          "name": "",
          "type": "uint256"
        }
      ],
      "stateMutability": "view",
      "type": "function"
    },
    {
      "inputs": [
        {
          "internalType": "uint256",
          "name": "",
          "type": "uint256"
        }
      ],
      "name": "rightHolders",
      "outputs": [
        {
          "internalType": "address",
          "name": "",
          "type": "address"
        }
      ],
      "stateMutability": "view",
      "type": "function"
    },
    {
      "inputs": [],
      "name": "sealRights",
      "outputs": [
        {
          "internalType": "bool",
          "name": "",
          "type": "bool"
        }
      ],
      "stateMutability": "nonpayable",
      "type": "function"
    },
    {
      "inputs": [
        {
          "internalType": "uint256",
          "name": "amount",
          "type": "uint256"
        }
      ],
      "name": "sellTokens",
      "outputs": [],
      "stateMutability": "payable",
      "type": "function"
    },
    {
      "inputs": [
        {
          "internalType": "address",
          "name": "",
          "type": "address"
        }
      ],
      "name": "tokensPerAddress",
      "outputs": [
        {
          "internalType": "uint256",
          "name": "",
          "type": "uint256"
        }
      ],
      "stateMutability": "view",
      "type": "function"
    },
    {
      "inputs": [
        {
          "internalType": "address",
          "name": "newOwner",
          "type": "address"
        }
      ],
      "name": "transferOwnership",
      "outputs": [],
      "stateMutability": "nonpayable",
      "type": "function"
    },
    {
      "inputs": [],
      "name": "vault",
      "outputs": [
        {
          "internalType": "contract OysterVault",
          "name": "",
          "type": "address"
        }
      ],
      "stateMutability": "view",
      "type": "function"
    },
    {
      "inputs": [
        {
          "internalType": "address",
          "name": "_of",
          "type": "address"
        }
      ],
      "name": "viewTokensPerAddress",
      "outputs": [
        {
          "internalType": "uint256",
          "name": "",
          "type": "uint256"
        }
      ],
      "stateMutability": "view",
      "type": "function"
    }
  ],
  "bytecode": "0x608060405234801561001057600080fd5b50604051611df1380380611df183398101604081905261002f91610118565b826001600160a01b03811661005e57604051631e4fbdf760e01b81526000600482015260240160405180910390fd5b610067816100b0565b50600180546001600160a01b039586166001600160a01b03199182161790915560028054939095169216919091179092555060646006556007805460ff1916905560085561016b565b600080546001600160a01b038381166001600160a01b0319831681178455604051919092169283917f8be0079c531659141344cd1fd0a4f28419497f9722a3daafe3b4186f6b6457e09190a35050565b6001600160a01b038116811461011557600080fd5b50565b6000806000806080858703121561012e57600080fd5b845161013981610100565b602086015190945061014a81610100565b604086015190935061015b81610100565b6060959095015193969295505050565b611c778061017a6000396000f3fe6080604052600436106101355760003560e01c8063a11d08c7116100ab578063d8218a1e1161006f578063d8218a1e14610384578063e8010b9a146103ba578063ebc1945b146103cf578063f2fde38b146103e9578063fbfa77cf14610409578063fd994c161461042957600080fd5b8063a11d08c7146102ba578063bdacae46146102d0578063bee4f733146102f0578063c51a29e014610326578063cd8e64c61461036257600080fd5b80635d0fab84116100fd5780635d0fab84146101fa5780636c11bcd3146102325780636f391d1614610245578063715018a6146102725780638da5cb5b1461028757806398208484146102a557600080fd5b8063095ea7b31461013a5780631641f59d1461016f5780631e7350f41461019357806322ea2231146101ab578063425432b1146101cd575b600080fd5b34801561014657600080fd5b5061015a610155366004611a07565b610449565b60405190151581526020015b60405180910390f35b34801561017b57600080fd5b5061018560065481565b604051908152602001610166565b34801561019f57600080fd5b5060075460ff1661015a565b3480156101b757600080fd5b506101cb6101c6366004611a07565b6104ca565b005b3480156101d957600080fd5b506101856101e8366004611a31565b60036020526000908152604090205481565b34801561020657600080fd5b5061021a610215366004611a4c565b610a79565b6040516001600160a01b039091168152602001610166565b6101cb610240366004611a4c565b610aa3565b34801561025157600080fd5b50610185610260366004611a31565b60046020526000908152604090205481565b34801561027e57600080fd5b506101cb6113fd565b34801561029357600080fd5b506000546001600160a01b031661021a565b3480156102b157600080fd5b5061015a611411565b3480156102c657600080fd5b5061018560085481565b3480156102dc57600080fd5b5061015a6102eb366004611a31565b61160b565b3480156102fc57600080fd5b5061018561030b366004611a31565b6001600160a01b031660009081526004602052604090205490565b34801561033257600080fd5b50604080518082018252600d81526c135d5cda58d0dbdb9d1c9858dd609a1b602082015290516101669190611a65565b34801561036e57600080fd5b506103776118d3565b6040516101669190611ab3565b34801561039057600080fd5b5061018561039f366004611a31565b6001600160a01b031660009081526003602052604090205490565b3480156103c657600080fd5b50600654610185565b3480156103db57600080fd5b5060075461015a9060ff1681565b3480156103f557600080fd5b506101cb610404366004611a31565b611935565b34801561041557600080fd5b5060025461021a906001600160a01b031681565b34801561043557600080fd5b5060015461021a906001600160a01b031681565b60015460405163095ea7b360e01b81526001600160a01b03848116600483015260248201849052600092169063095ea7b3906044016020604051808303816000875af115801561049d573d6000803e3d6000fd5b505050506040513d601f19601f820116820180604052508101906104c19190611aff565b90505b92915050565b600080516020611be28339815191526040516105249060208082526024908201527f4d75736963436f6e74726163743a207075726368617365546f6b656e732063616040820152631b1b195960e21b606082015260800190565b60405180910390a1600080516020611c22833981519152336040516105499190611b28565b60405180910390a160408051818152600981830152683337b910313abcb2b960b91b60608201526001600160a01b03841660208201529051600080516020611c228339815191529181900360800190a16040805181815260068183015265185b5bdd5b9d60d21b6060820152602081018390529051600080516020611c028339815191529181900360800190a16001546001600160a01b031633146106455760405162461bcd60e51b815260206004820152602760248201527f4f6e6c79204f7973746572546f6b656e2063616e2063616c6c207468697320666044820152663ab731ba34b7b760c91b60648201526084015b60405180910390fd5b6001546040516370a0823160e01b81523060048201819052600080516020611bc28339815191529290916001600160a01b03909116906370a0823190602401602060405180830381865afa1580156106a1573d6000803e3d6000fd5b505050506040513d601f19601f820116820180604052508101906106c59190611b55565b6040805160608082526037908201527f4d75736963436f6e74726163743a2042616c616e6365206f66204d757369634360808201527f6f6e7472616374206265666f726520707572636861736500000000000000000060a08201526001600160a01b03909316602084015282015260c00160405180910390a160015460025460405163095ea7b360e01b81526001600160a01b0391821660048201526024810184905291169063095ea7b3906044016020604051808303816000875af1158015610793573d6000803e3d6000fd5b505050506040513d601f19601f820116820180604052508101906107b79190611aff565b6107f55760405162461bcd60e51b815260206004820152600f60248201526e105c1c1c9bdd985b0819985a5b1959608a1b604482015260640161063c565b600254604051630357291360e41b8152306004820152602481018390526001600160a01b03909116906335729130906044016020604051808303816000875af1158015610846573d6000803e3d6000fd5b505050506040513d601f19601f8201168201806040525081019061086a9190611aff565b6108ae5760405162461bcd60e51b8152602060048201526015602482015274151bdad95b881d1c985b9cd9995c8819985a5b1959605a1b604482015260640161063c565b6001546040516370a0823160e01b81523060048201819052600080516020611bc28339815191529290916001600160a01b03909116906370a0823190602401602060405180830381865afa15801561090a573d6000803e3d6000fd5b505050506040513d601f19601f8201168201806040525081019061092e9190611b55565b6040805160608082526036908201527f4d75736963436f6e74726163743a2042616c616e6365206f66204d75736963436080820152756f6e747261637420616674657220707572636861736560501b60a08201526001600160a01b03909316602084015282015260c00160405180910390a16001600160a01b038216600090815260036020526040812080548392906109c8908490611b84565b90915550506040518181526001600160a01b038316907f8f28852646c20cc973d3a8218f7eefed58c25c909f78f0265af4818c3d4dc2719060200160405180910390a2600080516020611be2833981519152604051610a6d906020808252602c908201527f4d75736963436f6e74726163743a20546f6b656e73507572636861736564206560408201526b1d995b9d08195b5a5d1d195960a21b606082015260800190565b60405180910390a15050565b60058181548110610a8957600080fd5b6000918252602090912001546001600160a01b0316905081565b600080516020611be2833981519152604051610aee906020808252818101527f4d75736963436f6e74726163743a2073656c6c546f6b656e732063616c6c6564604082015260600190565b60405180910390a1600080516020611c2283398151915233604051610b139190611b28565b60405180910390a16040805181815260068183015265185b5bdd5b9d60d21b6060820152602081018390529051600080516020611c028339815191529181900360800190a160008111610ba85760405162461bcd60e51b815260206004820181905260248201527f416d6f756e74206d7573742062652067726561746572207468616e207a65726f604482015260640161063c565b33600090815260036020526040902054811115610c075760405162461bcd60e51b815260206004820152601a60248201527f496e73756666696369656e7420746f6b656e2062616c616e6365000000000000604482015260640161063c565b336000908152600360205260409020547f588e9389247df984e05efcf5b59edd87395f95f14fa3c9b343e85bf72bb624e890610c438382611b97565b604080516060808252602b908201527f4d75736963436f6e74726163743a205573657220746f6b656e73206265666f7260808201526a329030b7321030b33a32b960a91b60a0820152602081019390935282015260c00160405180910390a16001546040516370a0823160e01b81523060048201819052600080516020611bc28339815191529290916001600160a01b03909116906370a0823190602401602060405180830381865afa158015610cfe573d6000803e3d6000fd5b505050506040513d601f19601f82011682018060405250810190610d229190611b55565b6040805160608082526036908201527f4d75736963436f6e74726163743a2042616c616e6365206f66204d75736963436080820152756f6e7472616374206265666f72652073656c6c696e6760501b60a08201526001600160a01b03909316602084015282015260c00160405180910390a1600254604080516080808252602e908201527f4d75736963436f6e74726163743a20417070726f76696e67207661756c74207460a08201526d6f207370656e6420746f6b656e7360901b60c08201523060208201526001600160a01b039092168282015260608201839052517fb325f3b0b0a40be7de63ea2ebbb20ba49152246d3e016e445675d9329246f3c99181900360e00190a160015460025460405163095ea7b360e01b81526001600160a01b0391821660048201526024810184905291169063095ea7b3906044016020604051808303816000875af1158015610e7f573d6000803e3d6000fd5b505050506040513d601f19601f82011682018060405250810190610ea39190611aff565b610ee15760405162461bcd60e51b815260206004820152600f60248201526e105c1c1c9bdd985b0819985a5b1959608a1b604482015260640161063c565b600254600154604051636eb1769f60e11b81523060048201526001600160a01b0392831660248201819052600080516020611bc2833981519152939092169063dd62ed3e90604401602060405180830381865afa158015610f46573d6000803e3d6000fd5b505050506040513d601f19601f82011682018060405250810190610f6a9190611b55565b6040805160608082526022908201527f4d75736963436f6e74726163743a20416c6c6f77616e636520666f72207661756080820152611b1d60f21b60a08201526001600160a01b03909316602084015282015260c00160405180910390a13360009081526003602052604081208054839290610fe7908490611b97565b9091555050336000908152600360209081526040918290205482518381526028818501527f4d75736963436f6e74726163743a20546f6b656e732072656d61696e696e67206060820152673337b9103ab9b2b960c11b6080820152918201529051600080516020611c028339815191529181900360a00190a1600080516020611be28339815191526040516110c3906020808252602d908201527f4d75736963436f6e74726163743a2043616c6c696e672072656365697665546f60408201526c1ad95b9cc81bdb881d985d5b1d609a1b606082015260800190565b60405180910390a1600254604051630357291360e41b8152306004820152602481018390526001600160a01b03909116906335729130906044016020604051808303816000875af115801561111c573d6000803e3d6000fd5b505050506040513d601f19601f820116820180604052508101906111409190611aff565b6111845760405162461bcd60e51b8152602060048201526015602482015274151bdad95b881d1c985b9cd9995c8819985a5b1959605a1b604482015260640161063c565b600080516020611be28339815191526040516111e6906020808252602c908201527f4d75736963436f6e74726163743a2072656365697665546f6b656e732063616c60408201526b1b1959081bdb881d985d5b1d60a21b606082015260800190565b60405180910390a16000600854826111fe9190611baa565b9050600080516020611c0283398151915281604051611268919060408082526028908201527f4d75736963436f6e74726163743a20416d6f756e7420746f207472616e7366656060820152677220696e2057656960c01b6080820152602081019190915260a00190565b60405180910390a1600080516020611be28339815191526040516112cf9060208082526029908201527f4d75736963436f6e74726163743a205472616e7366657272696e6720576569206040820152683a379039b2b63632b960b91b606082015260800190565b60405180910390a1604051339082156108fc029083906000818181858888f19350505050158015611304573d6000803e3d6000fd5b50600080516020611be28339815191526040516113639060208082526028908201527f4d75736963436f6e74726163743a205472616e73666572726564205765692074604082015267379039b2b63632b960c11b606082015260800190565b60405180910390a160405182815233907f4f0a05c98d5132dc12d8adee36e2453f1d5bcfd87ae6c465e0d99e5fc8a3a0ba9060200160405180910390a2600080516020611be2833981519152604051610a6d9060208082526027908201527f4d75736963436f6e74726163743a2053656c6c546f6b656e73206576656e7420604082015266195b5a5d1d195960ca1b606082015260800190565b611405611973565b61140f60006119a0565b565b600061141b611973565b600080516020611be2833981519152604051611466906020808252818101527f4d75736963436f6e74726163743a207365616c5269676874732063616c6c6564604082015260600190565b60405180910390a1600080516020611c228339815191523360405161148b9190611b28565b60405180910390a1600654156115135760405162461bcd60e51b815260206004820152604160248201527f54686520636f6e74726163742063616e6e6f74206265207365616c656420756e60448201527f74696c20616c6c207269676874732068617665206265656e2061737369676e656064820152601960fa1b608482015260a40161063c565b60075460ff16156115665760405162461bcd60e51b815260206004820152601e60248201527f54686520636f6e747261637420697320616c7265616479207365616c65640000604482015260640161063c565b6007805460ff1916600117905560405133907f153da6636337f767b9271bce5038ab2853e763eaec31707fc743d88bb9d0c7a990600090a2600080516020611be28339815191526040516115fd9060208082526029908201527f4d75736963436f6e74726163743a205269676874735365616c6564206576656e6040820152681d08195b5a5d1d195960ba1b606082015260800190565b60405180910390a150600190565b6000611615611973565b600080516020611be28339815191526040516116719060208082526026908201527f4d75736963436f6e74726163743a2061737369676e46756c6c5269676874732060408201526518d85b1b195960d21b606082015260800190565b60405180910390a1600080516020611c22833981519152336040516116969190611b28565b60405180910390a16040805181815260028183015261746f60f01b60608201526001600160a01b03841660208201529051600080516020611c228339815191529181900360800190a160075460ff16156117665760405162461bcd60e51b815260206004820152604560248201527f54686520636f6e747261637420697320616c7265616479207365616c65642c2060448201527f6e6f206d6f64696669636174696f6e206f66207269676874732063616e206265606482015264206d61646560d81b608482015260a40161063c565b6000600654116117c35760405162461bcd60e51b815260206004820152602260248201527f546865726520617265206e6f20726967687473206c65667420746f206173736960448201526133b760f11b606482015260840161063c565b6001600160a01b0382166000818152600460205260408082206064905560068290556005805460018101825592527f036b6384b5eca791c62761152d0c79bb0604c104a5fb6f4eb0703f3154bb3db090910180546001600160a01b03191683179055517fac537fbd0bac2810163562635da0e4a087e443f27b5d794f2de53e07ebd79720906118559042815260200190565b60405180910390a2600080516020611be28339815191526040516118c2906020808252602f908201527f4d75736963436f6e74726163743a2046756c6c52696768747341737369676e6560408201526e1908195d995b9d08195b5a5d1d1959608a1b606082015260800190565b60405180910390a15060015b919050565b6060600580548060200260200160405190810160405280929190818152602001828054801561192b57602002820191906000526020600020905b81546001600160a01b0316815260019091019060200180831161190d575b5050505050905090565b61193d611973565b6001600160a01b03811661196757604051631e4fbdf760e01b81526000600482015260240161063c565b611970816119a0565b50565b6000546001600160a01b0316331461140f5760405163118cdaa760e01b815233600482015260240161063c565b600080546001600160a01b038381166001600160a01b0319831681178455604051919092169283917f8be0079c531659141344cd1fd0a4f28419497f9722a3daafe3b4186f6b6457e09190a35050565b80356001600160a01b03811681146118ce57600080fd5b60008060408385031215611a1a57600080fd5b611a23836119f0565b946020939093013593505050565b600060208284031215611a4357600080fd5b6104c1826119f0565b600060208284031215611a5e57600080fd5b5035919050565b602081526000825180602084015260005b81811015611a935760208186018101516040868401015201611a76565b506000604082850101526040601f19601f83011684010191505092915050565b602080825282518282018190526000918401906040840190835b81811015611af45783516001600160a01b0316835260209384019390920191600101611acd565b509095945050505050565b600060208284031215611b1157600080fd5b81518015158114611b2157600080fd5b9392505050565b604080825260029082015261627960f01b60608201526001600160a01b0391909116602082015260800190565b600060208284031215611b6757600080fd5b5051919050565b634e487b7160e01b600052601160045260246000fd5b808201808211156104c4576104c4611b6e565b818103818111156104c4576104c4611b6e565b80820281158282048414176104c4576104c4611b6e56fe91ea01da2b09ce2b5154c613cbd74b3cb9156dcf3dc16ba7c2db9d12d4f5437dcf34ef537ac33ee1ac626ca1587a0a7e8e51561e5514f8cb36afa1c5102b3bab941296a39ea107bde685522318a4b6c2b544904a5dd82a512748ca2cf839bef762ddffe5b5108385f7a590f100e1ee414ad9551a31f089e64e82998440785e1ea26469706673582212209fa12c696712d27535adfdbb5f22e0b3880ecaf95a95b3544dcc02dd9d68ba3164736f6c634300081c0033",
  "linkReferences": {},
  "deployedLinkReferences": {}
}