{
  "_format": "hh-sol-artifact-1",
  "contractName": "MusicContract",
  "sourceName": "contracts/MusicContract.sol",
  "abi": [
    {
      "inputs": [
        {
          "internalType": "contract IERC20",
          "name": "_oysterToken",
          "type": "address"
        },
        {
          "internalType": "address",
          "name": "initialOwner",
          "type": "address"
        },
        {
          "internalType": "contract OysterVault",
          "name": "_vault",
          "type": "address"
        },
        {
          "internalType": "uint256",
          "name": "_gweiPerToken",
          "type": "uint256"
        }
      ],
      "stateMutability": "nonpayable",
      "type": "constructor"
    },
    {
      "inputs": [
        {
          "internalType": "address",
          "name": "owner",
          "type": "address"
        }
      ],
      "name": "OwnableInvalidOwner",
      "type": "error"
    },
    {
      "inputs": [
        {
          "internalType": "address",
          "name": "account",
          "type": "address"
        }
      ],
      "name": "OwnableUnauthorizedAccount",
      "type": "error"
    },
    {
      "anonymous": false,
      "inputs": [
        {
          "indexed": true,
          "internalType": "address",
          "name": "to",
          "type": "address"
        },
        {
          "indexed": false,
          "internalType": "uint256",
          "name": "timestamp",
          "type": "uint256"
        }
      ],
      "name": "FullRightsAssigned",
      "type": "event"
    },
    {
      "anonymous": false,
      "inputs": [
        {
          "indexed": false,
          "internalType": "string",
          "name": "message",
          "type": "string"
        }
      ],
      "name": "Log",
      "type": "event"
    },
    {
      "anonymous": false,
      "inputs": [
        {
          "indexed": false,
          "internalType": "string",
          "name": "message",
          "type": "string"
        },
        {
          "indexed": false,
          "internalType": "address",
          "name": "addr",
          "type": "address"
        }
      ],
      "name": "LogAddress",
      "type": "event"
    },
    {
      "anonymous": false,
      "inputs": [
        {
          "indexed": false,
          "internalType": "string",
          "name": "message",
          "type": "string"
        },
        {
          "indexed": false,
          "internalType": "uint256",
          "name": "value",
          "type": "uint256"
        }
      ],
      "name": "LogUint",
      "type": "event"
    },
    {
      "anonymous": false,
      "inputs": [
        {
          "indexed": true,
          "internalType": "address",
          "name": "previousOwner",
          "type": "address"
        },
        {
          "indexed": true,
          "internalType": "address",
          "name": "newOwner",
          "type": "address"
        }
      ],
      "name": "OwnershipTransferred",
      "type": "event"
    },
    {
      "anonymous": false,
      "inputs": [
        {
          "indexed": true,
          "internalType": "address",
          "name": "caller",
          "type": "address"
        }
      ],
      "name": "RightsSealed",
      "type": "event"
    },
    {
      "anonymous": false,
      "inputs": [
        {
          "indexed": true,
          "internalType": "address",
          "name": "caller",
          "type": "address"
        },
        {
          "indexed": false,
          "internalType": "uint256",
          "name": "amount",
          "type": "uint256"
        }
      ],
      "name": "SellTokens",
      "type": "event"
    },
    {
      "anonymous": false,
      "inputs": [
        {
          "indexed": true,
          "internalType": "address",
          "name": "buyer",
          "type": "address"
        },
        {
          "indexed": false,
          "internalType": "uint256",
          "name": "amount",
          "type": "uint256"
        }
      ],
      "name": "TokensPurchased",
      "type": "event"
    },
    {
      "inputs": [
        {
          "internalType": "address",
          "name": "_to",
          "type": "address"
        }
      ],
      "name": "assignFullRights",
      "outputs": [
        {
          "internalType": "bool",
          "name": "",
          "type": "bool"
        }
      ],
      "stateMutability": "nonpayable",
      "type": "function"
    },
    {
      "inputs": [
        {
          "internalType": "address",
          "name": "_of",
          "type": "address"
        }
      ],
      "name": "divisionOfRights",
      "outputs": [
        {
          "internalType": "uint256",
          "name": "",
          "type": "uint256"
        }
      ],
      "stateMutability": "view",
      "type": "function"
    },
    {
      "inputs": [],
      "name": "getRemainingRightsDivision",
      "outputs": [
        {
          "internalType": "uint256",
          "name": "",
          "type": "uint256"
        }
      ],
      "stateMutability": "view",
      "type": "function"
    },
    {
      "inputs": [],
      "name": "getRightHolders",
      "outputs": [
        {
          "internalType": "address[]",
          "name": "",
          "type": "address[]"
        }
      ],
      "stateMutability": "view",
      "type": "function"
    },
    {
      "inputs": [],
      "name": "gweiPerToken",
      "outputs": [
        {
          "internalType": "uint256",
          "name": "",
          "type": "uint256"
        }
      ],
      "stateMutability": "view",
      "type": "function"
    },
    {
      "inputs": [],
      "name": "isMusicContractSealed",
      "outputs": [
        {
          "internalType": "bool",
          "name": "",
          "type": "bool"
        }
      ],
      "stateMutability": "view",
      "type": "function"
    },
    {
      "inputs": [],
      "name": "musicContactIsSealed",
      "outputs": [
        {
          "internalType": "bool",
          "name": "",
          "type": "bool"
        }
      ],
      "stateMutability": "view",
      "type": "function"
    },
    {
      "inputs": [],
      "name": "owner",
      "outputs": [
        {
          "internalType": "address",
          "name": "",
          "type": "address"
        }
      ],
      "stateMutability": "view",
      "type": "function"
    },
    {
      "inputs": [],
      "name": "oysterToken",
      "outputs": [
        {
          "internalType": "contract IERC20",
          "name": "",
          "type": "address"
        }
      ],
      "stateMutability": "view",
      "type": "function"
    },
    {
      "inputs": [
        {
          "internalType": "address",
          "name": "buyer",
          "type": "address"
        },
        {
          "internalType": "uint256",
          "name": "amount",
          "type": "uint256"
        }
      ],
      "name": "purchaseTokens",
      "outputs": [],
      "stateMutability": "nonpayable",
      "type": "function"
    },
    {
      "inputs": [],
      "name": "remainingRights",
      "outputs": [
        {
          "internalType": "uint256",
          "name": "",
          "type": "uint256"
        }
      ],
      "stateMutability": "view",
      "type": "function"
    },
    {
      "inputs": [],
      "name": "renounceOwnership",
      "outputs": [],
      "stateMutability": "nonpayable",
      "type": "function"
    },
    {
      "inputs": [
        {
          "internalType": "address",
          "name": "",
          "type": "address"
        }
      ],
      "name": "rightAssigned",
      "outputs": [
        {
          "internalType": "uint256",
          "name": "",
          "type": "uint256"
        }
      ],
      "stateMutability": "view",
      "type": "function"
    },
    {
      "inputs": [
        {
          "internalType": "uint256",
          "name": "",
          "type": "uint256"
        }
      ],
      "name": "rightHolders",
      "outputs": [
        {
          "internalType": "address",
          "name": "",
          "type": "address"
        }
      ],
      "stateMutability": "view",
      "type": "function"
    },
    {
      "inputs": [],
      "name": "sealRights",
      "outputs": [
        {
          "internalType": "bool",
          "name": "",
          "type": "bool"
        }
      ],
      "stateMutability": "nonpayable",
      "type": "function"
    },
    {
      "inputs": [
        {
          "internalType": "uint256",
          "name": "amount",
          "type": "uint256"
        }
      ],
      "name": "sellTokens",
      "outputs": [],
      "stateMutability": "payable",
      "type": "function"
    },
    {
      "inputs": [
        {
          "internalType": "address",
          "name": "",
          "type": "address"
        }
      ],
      "name": "tokensPerAddress",
      "outputs": [
        {
          "internalType": "uint256",
          "name": "",
          "type": "uint256"
        }
      ],
      "stateMutability": "view",
      "type": "function"
    },
    {
      "inputs": [
        {
          "internalType": "address",
          "name": "newOwner",
          "type": "address"
        }
      ],
      "name": "transferOwnership",
      "outputs": [],
      "stateMutability": "nonpayable",
      "type": "function"
    },
    {
      "inputs": [],
      "name": "vault",
      "outputs": [
        {
          "internalType": "contract OysterVault",
          "name": "",
          "type": "address"
        }
      ],
      "stateMutability": "view",
      "type": "function"
    },
    {
      "inputs": [
        {
          "internalType": "address",
          "name": "_of",
          "type": "address"
        }
      ],
      "name": "viewTokensPerAddress",
      "outputs": [
        {
          "internalType": "uint256",
          "name": "",
          "type": "uint256"
        }
      ],
      "stateMutability": "view",
      "type": "function"
    }
  ],
  "bytecode": "0x608060405234801561001057600080fd5b506040516113c33803806113c383398101604081905261002f91610118565b826001600160a01b03811661005e57604051631e4fbdf760e01b81526000600482015260240160405180910390fd5b610067816100b0565b50600180546001600160a01b039586166001600160a01b03199182161790915560028054939095169216919091179092555060646006556007805460ff1916905560085561016b565b600080546001600160a01b038381166001600160a01b0319831681178455604051919092169283917f8be0079c531659141344cd1fd0a4f28419497f9722a3daafe3b4186f6b6457e09190a35050565b6001600160a01b038116811461011557600080fd5b50565b6000806000806080858703121561012e57600080fd5b845161013981610100565b602086015190945061014a81610100565b604086015190935061015b81610100565b6060959095015193969295505050565b6112498061017a6000396000f3fe60806040526004361061011f5760003560e01c8063a11d08c7116100a0578063e8010b9a11610064578063e8010b9a14610344578063ebc1945b14610359578063f2fde38b14610373578063fbfa77cf14610393578063fd994c16146103b357600080fd5b8063a11d08c714610280578063bdacae4614610296578063bee4f733146102b6578063cd8e64c6146102ec578063d8218a1e1461030e57600080fd5b80636c11bcd3116100e75780636c11bcd3146101f85780636f391d161461020b578063715018a6146102385780638da5cb5b1461024d578063982084841461026b57600080fd5b80631641f59d146101245780631e7350f41461014d57806322ea223114610171578063425432b1146101935780635d0fab84146101c0575b600080fd5b34801561013057600080fd5b5061013a60065481565b6040519081526020015b60405180910390f35b34801561015957600080fd5b5060075460ff165b6040519015158152602001610144565b34801561017d57600080fd5b5061019161018c36600461107a565b6103d3565b005b34801561019f57600080fd5b5061013a6101ae3660046110a4565b60036020526000908152604090205481565b3480156101cc57600080fd5b506101e06101db3660046110c6565b610766565b6040516001600160a01b039091168152602001610144565b6101916102063660046110c6565b610790565b34801561021757600080fd5b5061013a6102263660046110a4565b60046020526000908152604090205481565b34801561024457600080fd5b50610191610a70565b34801561025957600080fd5b506000546001600160a01b03166101e0565b34801561027757600080fd5b50610161610a84565b34801561028c57600080fd5b5061013a60085481565b3480156102a257600080fd5b506101616102b13660046110a4565b610c7e565b3480156102c257600080fd5b5061013a6102d13660046110a4565b6001600160a01b031660009081526004602052604090205490565b3480156102f857600080fd5b50610301610f46565b60405161014491906110df565b34801561031a57600080fd5b5061013a6103293660046110a4565b6001600160a01b031660009081526003602052604090205490565b34801561035057600080fd5b5060065461013a565b34801561036557600080fd5b506007546101619060ff1681565b34801561037f57600080fd5b5061019161038e3660046110a4565b610fa8565b34801561039f57600080fd5b506002546101e0906001600160a01b031681565b3480156103bf57600080fd5b506001546101e0906001600160a01b031681565b6000805160206111d483398151915260405161042d9060208082526024908201527f4d75736963436f6e74726163743a207075726368617365546f6b656e732063616040820152631b1b195960e21b606082015260800190565b60405180910390a16000805160206111f483398151915233604051610452919061112b565b60405180910390a160408051818152600981830152683337b910313abcb2b960b91b60608201526001600160a01b038416602082015290516000805160206111f48339815191529181900360800190a16040805181815260068183015265185b5bdd5b9d60d21b60608201526020810183905290517f941296a39ea107bde685522318a4b6c2b544904a5dd82a512748ca2cf839bef79181900360800190a16001546001600160a01b031633146105605760405162461bcd60e51b815260206004820152602760248201527f4f6e6c79204f7973746572546f6b656e2063616e2063616c6c207468697320666044820152663ab731ba34b7b760c91b60648201526084015b60405180910390fd5b60015460025460405163095ea7b360e01b81526001600160a01b0391821660048201526024810184905291169063095ea7b3906044016020604051808303816000875af11580156105b5573d6000803e3d6000fd5b505050506040513d601f19601f820116820180604052508101906105d99190611158565b6106175760405162461bcd60e51b815260206004820152600f60248201526e105c1c1c9bdd985b0819985a5b1959608a1b6044820152606401610557565b600254604051630357291360e41b8152306004820152602481018390526001600160a01b03909116906335729130906044016020604051808303816000875af1158015610668573d6000803e3d6000fd5b505050506040513d601f19601f8201168201806040525081019061068c9190611158565b506001600160a01b038216600090815260036020526040812080548392906106b5908490611190565b90915550506040518181526001600160a01b038316907f8f28852646c20cc973d3a8218f7eefed58c25c909f78f0265af4818c3d4dc2719060200160405180910390a26000805160206111d483398151915260405161075a906020808252602c908201527f4d75736963436f6e74726163743a20546f6b656e73507572636861736564206560408201526b1d995b9d08195b5a5d1d195960a21b606082015260800190565b60405180910390a15050565b6005818154811061077657600080fd5b6000918252602090912001546001600160a01b0316905081565b6000805160206111d48339815191526040516107db906020808252818101527f4d75736963436f6e74726163743a2073656c6c546f6b656e732063616c6c6564604082015260600190565b60405180910390a16000805160206111f483398151915233604051610800919061112b565b60405180910390a16040805181815260068183015265185b5bdd5b9d60d21b60608201526020810183905290517f941296a39ea107bde685522318a4b6c2b544904a5dd82a512748ca2cf839bef79181900360800190a1336000908152600360205260409020548111156108b65760405162461bcd60e51b815260206004820152601a60248201527f496e73756666696369656e7420746f6b656e2062616c616e63650000000000006044820152606401610557565b33600090815260036020526040812080548392906108d59084906111a9565b90915550506001546002546040516323b872dd60e01b81523060048201526001600160a01b039182166024820152604481018490529116906323b872dd906064016020604051808303816000875af1158015610935573d6000803e3d6000fd5b505050506040513d601f19601f820116820180604052508101906109599190611158565b61099d5760405162461bcd60e51b8152602060048201526015602482015274151bdad95b881d1c985b9cd9995c8819985a5b1959605a1b6044820152606401610557565b6000600854826109ad91906111bc565b604051909150339082156108fc029083906000818181858888f193505050501580156109dd573d6000803e3d6000fd5b5060405182815233907f4f0a05c98d5132dc12d8adee36e2453f1d5bcfd87ae6c465e0d99e5fc8a3a0ba9060200160405180910390a26000805160206111d483398151915260405161075a9060208082526027908201527f4d75736963436f6e74726163743a2053656c6c546f6b656e73206576656e7420604082015266195b5a5d1d195960ca1b606082015260800190565b610a78610fe6565b610a826000611013565b565b6000610a8e610fe6565b6000805160206111d4833981519152604051610ad9906020808252818101527f4d75736963436f6e74726163743a207365616c5269676874732063616c6c6564604082015260600190565b60405180910390a16000805160206111f483398151915233604051610afe919061112b565b60405180910390a160065415610b865760405162461bcd60e51b815260206004820152604160248201527f54686520636f6e74726163742063616e6e6f74206265207365616c656420756e60448201527f74696c20616c6c207269676874732068617665206265656e2061737369676e656064820152601960fa1b608482015260a401610557565b60075460ff1615610bd95760405162461bcd60e51b815260206004820152601e60248201527f54686520636f6e747261637420697320616c7265616479207365616c656400006044820152606401610557565b6007805460ff1916600117905560405133907f153da6636337f767b9271bce5038ab2853e763eaec31707fc743d88bb9d0c7a990600090a26000805160206111d4833981519152604051610c709060208082526029908201527f4d75736963436f6e74726163743a205269676874735365616c6564206576656e6040820152681d08195b5a5d1d195960ba1b606082015260800190565b60405180910390a150600190565b6000610c88610fe6565b6000805160206111d4833981519152604051610ce49060208082526026908201527f4d75736963436f6e74726163743a2061737369676e46756c6c5269676874732060408201526518d85b1b195960d21b606082015260800190565b60405180910390a16000805160206111f483398151915233604051610d09919061112b565b60405180910390a16040805181815260028183015261746f60f01b60608201526001600160a01b038416602082015290516000805160206111f48339815191529181900360800190a160075460ff1615610dd95760405162461bcd60e51b815260206004820152604560248201527f54686520636f6e747261637420697320616c7265616479207365616c65642c2060448201527f6e6f206d6f64696669636174696f6e206f66207269676874732063616e206265606482015264206d61646560d81b608482015260a401610557565b600060065411610e365760405162461bcd60e51b815260206004820152602260248201527f546865726520617265206e6f20726967687473206c65667420746f206173736960448201526133b760f11b6064820152608401610557565b6001600160a01b0382166000818152600460205260408082206064905560068290556005805460018101825592527f036b6384b5eca791c62761152d0c79bb0604c104a5fb6f4eb0703f3154bb3db090910180546001600160a01b03191683179055517fac537fbd0bac2810163562635da0e4a087e443f27b5d794f2de53e07ebd7972090610ec89042815260200190565b60405180910390a26000805160206111d4833981519152604051610f35906020808252602f908201527f4d75736963436f6e74726163743a2046756c6c52696768747341737369676e6560408201526e1908195d995b9d08195b5a5d1d1959608a1b606082015260800190565b60405180910390a15060015b919050565b60606005805480602002602001604051908101604052809291908181526020018280548015610f9e57602002820191906000526020600020905b81546001600160a01b03168152600190910190602001808311610f80575b5050505050905090565b610fb0610fe6565b6001600160a01b038116610fda57604051631e4fbdf760e01b815260006004820152602401610557565b610fe381611013565b50565b6000546001600160a01b03163314610a825760405163118cdaa760e01b8152336004820152602401610557565b600080546001600160a01b038381166001600160a01b0319831681178455604051919092169283917f8be0079c531659141344cd1fd0a4f28419497f9722a3daafe3b4186f6b6457e09190a35050565b80356001600160a01b0381168114610f4157600080fd5b6000806040838503121561108d57600080fd5b61109683611063565b946020939093013593505050565b6000602082840312156110b657600080fd5b6110bf82611063565b9392505050565b6000602082840312156110d857600080fd5b5035919050565b602080825282518282018190526000918401906040840190835b818110156111205783516001600160a01b03168352602093840193909201916001016110f9565b509095945050505050565b604080825260029082015261627960f01b60608201526001600160a01b0391909116602082015260800190565b60006020828403121561116a57600080fd5b815180151581146110bf57600080fd5b634e487b7160e01b600052601160045260246000fd5b808201808211156111a3576111a361117a565b92915050565b818103818111156111a3576111a361117a565b80820281158282048414176111a3576111a361117a56fecf34ef537ac33ee1ac626ca1587a0a7e8e51561e5514f8cb36afa1c5102b3bab62ddffe5b5108385f7a590f100e1ee414ad9551a31f089e64e82998440785e1ea264697066735822122094182d317bafc59a7dfd4bd8dfbab5d1dbe68f6050b207a1051091387d24c31f64736f6c634300081c0033",
  "linkReferences": {},
  "deployedLinkReferences": {}
}