{
  "_format": "hh-sol-artifact-1",
  "contractName": "MusicContract",
  "sourceName": "contracts/MusicContract.sol",
  "abi": [
    {
      "inputs": [
        {
          "internalType": "contract OysterToken",
          "name": "_oysterToken",
          "type": "address"
        }
      ],
      "stateMutability": "nonpayable",
      "type": "constructor"
    },
    {
      "anonymous": false,
      "inputs": [
        {
          "indexed": false,
          "internalType": "address",
          "name": "caller",
          "type": "address"
        },
        {
          "indexed": false,
          "internalType": "uint256",
          "name": "amount",
          "type": "uint256"
        },
        {
          "indexed": false,
          "internalType": "uint256",
          "name": "balance",
          "type": "uint256"
        }
      ],
      "name": "BuyTokensCalled",
      "type": "event"
    },
    {
      "anonymous": false,
      "inputs": [
        {
          "indexed": false,
          "internalType": "address",
          "name": "caller",
          "type": "address"
        },
        {
          "indexed": false,
          "internalType": "uint256",
          "name": "amount",
          "type": "uint256"
        },
        {
          "indexed": false,
          "internalType": "string",
          "name": "reason",
          "type": "string"
        }
      ],
      "name": "BuyTokensFailed",
      "type": "event"
    },
    {
      "inputs": [],
      "name": "buyTokens",
      "outputs": [],
      "stateMutability": "payable",
      "type": "function"
    },
    {
      "inputs": [],
      "name": "owner",
      "outputs": [
        {
          "internalType": "address",
          "name": "",
          "type": "address"
        }
      ],
      "stateMutability": "view",
      "type": "function"
    },
    {
      "inputs": [],
      "name": "oysterToken",
      "outputs": [
        {
          "internalType": "contract OysterToken",
          "name": "",
          "type": "address"
        }
      ],
      "stateMutability": "view",
      "type": "function"
    },
    {
      "inputs": [
        {
          "internalType": "address",
          "name": "newOwner",
          "type": "address"
        }
      ],
      "name": "transferOwnership",
      "outputs": [],
      "stateMutability": "nonpayable",
      "type": "function"
    }
  ],
  "bytecode": "0x608060405234801561001057600080fd5b50604051610a70380380610a708339818101604052810190610032919061012e565b806000806101000a81548173ffffffffffffffffffffffffffffffffffffffff021916908373ffffffffffffffffffffffffffffffffffffffff16021790555033600160006101000a81548173ffffffffffffffffffffffffffffffffffffffff021916908373ffffffffffffffffffffffffffffffffffffffff1602179055505061015b565b600080fd5b600073ffffffffffffffffffffffffffffffffffffffff82169050919050565b60006100e9826100be565b9050919050565b60006100fb826100de565b9050919050565b61010b816100f0565b811461011657600080fd5b50565b60008151905061012881610102565b92915050565b600060208284031215610144576101436100b9565b5b600061015284828501610119565b91505092915050565b6109068061016a6000396000f3fe60806040526004361061003f5760003560e01c80638da5cb5b14610044578063d0febe4c1461006f578063f2fde38b14610079578063fd994c16146100a2575b600080fd5b34801561005057600080fd5b506100596100cd565b60405161006691906104c9565b60405180910390f35b6100776100f3565b005b34801561008557600080fd5b506100a0600480360381019061009b9190610515565b610321565b005b3480156100ae57600080fd5b506100b7610464565b6040516100c491906105a1565b60405180910390f35b600160009054906101000a900473ffffffffffffffffffffffffffffffffffffffff1681565b60008060009054906101000a900473ffffffffffffffffffffffffffffffffffffffff1673ffffffffffffffffffffffffffffffffffffffff166370a08231306040518263ffffffff1660e01b815260040161014f91906104c9565b602060405180830381865afa15801561016c573d6000803e3d6000fd5b505050506040513d601f19601f8201168201806040525081019061019091906105f2565b90507fc88f20492be28f9f110dd0d60f43356ce45bf1dc59600af7050dd95de529f1ab3334836040516101c59392919061062e565b60405180910390a160008060009054906101000a900473ffffffffffffffffffffffffffffffffffffffff1673ffffffffffffffffffffffffffffffffffffffff16346040516024016040516020818303038152906040527f917b1bf5000000000000000000000000000000000000000000000000000000007bffffffffffffffffffffffffffffffffffffffffffffffffffffffff19166020820180517bffffffffffffffffffffffffffffffffffffffffffffffffffffffff838183161783525050505060405161029891906106d6565b60006040518083038185875af1925050503d80600081146102d5576040519150601f19603f3d011682016040523d82523d6000602084013e6102da565b606091505b505090508061031d577f7238c54fe3c90c8982de624ff8a180f87f13590539e43ac3f76dab7a6df8be013334604051610314929190610770565b60405180910390a15b5050565b600160009054906101000a900473ffffffffffffffffffffffffffffffffffffffff1673ffffffffffffffffffffffffffffffffffffffff163373ffffffffffffffffffffffffffffffffffffffff16146103b1576040517f08c379a00000000000000000000000000000000000000000000000000000000081526004016103a89061081e565b60405180910390fd5b600073ffffffffffffffffffffffffffffffffffffffff168173ffffffffffffffffffffffffffffffffffffffff1603610420576040517f08c379a0000000000000000000000000000000000000000000000000000000008152600401610417906108b0565b60405180910390fd5b80600160006101000a81548173ffffffffffffffffffffffffffffffffffffffff021916908373ffffffffffffffffffffffffffffffffffffffff16021790555050565b60008054906101000a900473ffffffffffffffffffffffffffffffffffffffff1681565b600073ffffffffffffffffffffffffffffffffffffffff82169050919050565b60006104b382610488565b9050919050565b6104c3816104a8565b82525050565b60006020820190506104de60008301846104ba565b92915050565b600080fd5b6104f2816104a8565b81146104fd57600080fd5b50565b60008135905061050f816104e9565b92915050565b60006020828403121561052b5761052a6104e4565b5b600061053984828501610500565b91505092915050565b6000819050919050565b600061056761056261055d84610488565b610542565b610488565b9050919050565b60006105798261054c565b9050919050565b600061058b8261056e565b9050919050565b61059b81610580565b82525050565b60006020820190506105b66000830184610592565b92915050565b6000819050919050565b6105cf816105bc565b81146105da57600080fd5b50565b6000815190506105ec816105c6565b92915050565b600060208284031215610608576106076104e4565b5b6000610616848285016105dd565b91505092915050565b610628816105bc565b82525050565b600060608201905061064360008301866104ba565b610650602083018561061f565b61065d604083018461061f565b949350505050565b600081519050919050565b600081905092915050565b60005b8381101561069957808201518184015260208101905061067e565b60008484015250505050565b60006106b082610665565b6106ba8185610670565b93506106ca81856020860161067b565b80840191505092915050565b60006106e282846106a5565b915081905092915050565b600082825260208201905092915050565b7f6275793130304f5354546f4d75736963436f6e74726163742063616c6c20666160008201527f696c656400000000000000000000000000000000000000000000000000000000602082015250565b600061075a6024836106ed565b9150610765826106fe565b604082019050919050565b600060608201905061078560008301856104ba565b610792602083018461061f565b81810360408301526107a38161074d565b90509392505050565b7f4f6e6c79207468652063757272656e74206f776e65722063616e207472616e7360008201527f666572206f776e65727368697000000000000000000000000000000000000000602082015250565b6000610808602d836106ed565b9150610813826107ac565b604082019050919050565b60006020820190508181036000830152610837816107fb565b9050919050565b7f4e6577206f776e65722063616e6e6f7420626520746865207a65726f2061646460008201527f7265737300000000000000000000000000000000000000000000000000000000602082015250565b600061089a6024836106ed565b91506108a58261083e565b604082019050919050565b600060208201905081810360008301526108c98161088d565b905091905056fea264697066735822122007774ee4581d2ec24f2d64f56a596e3c5e1c5cb533e500dc0d4ad062dc1354d264736f6c634300081c0033",
  "linkReferences": {},
  "deployedLinkReferences": {}
}