{
  "_format": "hh-sol-artifact-1",
  "contractName": "MusicContract",
  "sourceName": "contracts/MusicContract.sol",
  "abi": [
    {
      "inputs": [
        {
          "internalType": "contract OysterToken",
          "name": "_oysterTokenContract",
          "type": "address"
        },
        {
          "internalType": "address",
          "name": "_owner",
          "type": "address"
        },
        {
          "internalType": "uint256",
          "name": "_rightPurchaseValue",
          "type": "uint256"
        },
        {
          "internalType": "uint256",
          "name": "_valueForListening",
          "type": "uint256"
        }
      ],
      "stateMutability": "nonpayable",
      "type": "constructor"
    },
    {
      "anonymous": false,
      "inputs": [
        {
          "indexed": true,
          "internalType": "address",
          "name": "addressRight",
          "type": "address"
        },
        {
          "indexed": true,
          "internalType": "address",
          "name": "addressThisMusicContract",
          "type": "address"
        },
        {
          "indexed": false,
          "internalType": "uint8",
          "name": "percentageOfRights",
          "type": "uint8"
        }
      ],
      "name": "assignedRight",
      "type": "event"
    },
    {
      "anonymous": false,
      "inputs": [
        {
          "indexed": true,
          "internalType": "address",
          "name": "hearAddress",
          "type": "address"
        },
        {
          "indexed": false,
          "internalType": "bool",
          "name": "confirm",
          "type": "bool"
        }
      ],
      "name": "musicHeard",
      "type": "event"
    },
    {
      "anonymous": false,
      "inputs": [
        {
          "indexed": true,
          "internalType": "address",
          "name": "addressThisMusicContract",
          "type": "address"
        },
        {
          "indexed": false,
          "internalType": "bool",
          "name": "musicContactIsSealed",
          "type": "bool"
        }
      ],
      "name": "musicWithSealedRights",
      "type": "event"
    },
    {
      "anonymous": false,
      "inputs": [
        {
          "indexed": true,
          "internalType": "address",
          "name": "purchaseAddress",
          "type": "address"
        },
        {
          "indexed": false,
          "internalType": "bool",
          "name": "activated",
          "type": "bool"
        }
      ],
      "name": "purchaseMade",
      "type": "event"
    },
    {
      "anonymous": false,
      "inputs": [
        {
          "indexed": true,
          "internalType": "address",
          "name": "addressHolderToken",
          "type": "address"
        },
        {
          "indexed": false,
          "internalType": "uint256",
          "name": "amountToken",
          "type": "uint256"
        }
      ],
      "name": "tokenAssigned",
      "type": "event"
    },
    {
      "anonymous": false,
      "inputs": [
        {
          "indexed": true,
          "internalType": "address",
          "name": "addressRight",
          "type": "address"
        },
        {
          "indexed": true,
          "internalType": "address",
          "name": "addressThisMusicContract",
          "type": "address"
        },
        {
          "indexed": false,
          "internalType": "uint8",
          "name": "percentageOfRights",
          "type": "uint8"
        }
      ],
      "name": "withdrawalRight",
      "type": "event"
    },
    {
      "inputs": [
        {
          "internalType": "address",
          "name": "addressRight",
          "type": "address"
        },
        {
          "internalType": "uint8",
          "name": "percentageOfRights",
          "type": "uint8"
        }
      ],
      "name": "assignRights",
      "outputs": [
        {
          "internalType": "bool",
          "name": "",
          "type": "bool"
        }
      ],
      "stateMutability": "nonpayable",
      "type": "function"
    },
    {
      "inputs": [],
      "name": "balanceTokens",
      "outputs": [
        {
          "internalType": "uint256",
          "name": "",
          "type": "uint256"
        }
      ],
      "stateMutability": "view",
      "type": "function"
    },
    {
      "inputs": [],
      "name": "buy100OysterToken",
      "outputs": [
        {
          "internalType": "bool",
          "name": "",
          "type": "bool"
        }
      ],
      "stateMutability": "payable",
      "type": "function"
    },
    {
      "inputs": [],
      "name": "buyRightsMusic",
      "outputs": [
        {
          "internalType": "bool",
          "name": "",
          "type": "bool"
        }
      ],
      "stateMutability": "payable",
      "type": "function"
    },
    {
      "inputs": [
        {
          "internalType": "address",
          "name": "",
          "type": "address"
        }
      ],
      "name": "divisionOfRights",
      "outputs": [
        {
          "internalType": "uint8",
          "name": "",
          "type": "uint8"
        }
      ],
      "stateMutability": "view",
      "type": "function"
    },
    {
      "inputs": [],
      "name": "listenMusic",
      "outputs": [
        {
          "internalType": "bool",
          "name": "",
          "type": "bool"
        }
      ],
      "stateMutability": "payable",
      "type": "function"
    },
    {
      "inputs": [],
      "name": "musicContactIsSealed",
      "outputs": [
        {
          "internalType": "bool",
          "name": "",
          "type": "bool"
        }
      ],
      "stateMutability": "view",
      "type": "function"
    },
    {
      "inputs": [],
      "name": "owner",
      "outputs": [
        {
          "internalType": "address",
          "name": "",
          "type": "address"
        }
      ],
      "stateMutability": "view",
      "type": "function"
    },
    {
      "inputs": [],
      "name": "oysterToken",
      "outputs": [
        {
          "internalType": "contract OysterToken",
          "name": "",
          "type": "address"
        }
      ],
      "stateMutability": "view",
      "type": "function"
    },
    {
      "inputs": [],
      "name": "remainingRightsDivision",
      "outputs": [
        {
          "internalType": "uint8",
          "name": "",
          "type": "uint8"
        }
      ],
      "stateMutability": "view",
      "type": "function"
    },
    {
      "inputs": [
        {
          "internalType": "uint256",
          "name": "",
          "type": "uint256"
        }
      ],
      "name": "rightHolders",
      "outputs": [
        {
          "internalType": "address",
          "name": "",
          "type": "address"
        }
      ],
      "stateMutability": "view",
      "type": "function"
    },
    {
      "inputs": [],
      "name": "rightPurchaseValueInGwei",
      "outputs": [
        {
          "internalType": "uint256",
          "name": "",
          "type": "uint256"
        }
      ],
      "stateMutability": "view",
      "type": "function"
    },
    {
      "inputs": [],
      "name": "sealRights",
      "outputs": [
        {
          "internalType": "bool",
          "name": "",
          "type": "bool"
        }
      ],
      "stateMutability": "nonpayable",
      "type": "function"
    },
    {
      "inputs": [
        {
          "internalType": "uint256",
          "name": "amount",
          "type": "uint256"
        }
      ],
      "name": "sellOysterToken",
      "outputs": [
        {
          "internalType": "bool",
          "name": "",
          "type": "bool"
        }
      ],
      "stateMutability": "nonpayable",
      "type": "function"
    },
    {
      "inputs": [
        {
          "internalType": "address",
          "name": "",
          "type": "address"
        }
      ],
      "name": "tokensPerAddress",
      "outputs": [
        {
          "internalType": "uint256",
          "name": "",
          "type": "uint256"
        }
      ],
      "stateMutability": "view",
      "type": "function"
    },
    {
      "inputs": [],
      "name": "valueForListeningInGwei",
      "outputs": [
        {
          "internalType": "uint256",
          "name": "",
          "type": "uint256"
        }
      ],
      "stateMutability": "view",
      "type": "function"
    },
    {
      "inputs": [],
      "name": "viewBalance",
      "outputs": [
        {
          "internalType": "uint256",
          "name": "",
          "type": "uint256"
        }
      ],
      "stateMutability": "view",
      "type": "function"
    },
    {
      "inputs": [
        {
          "internalType": "address",
          "name": "addressRight",
          "type": "address"
        },
        {
          "internalType": "uint8",
          "name": "percentageOfRights",
          "type": "uint8"
        }
      ],
      "name": "withdrawRights",
      "outputs": [
        {
          "internalType": "bool",
          "name": "",
          "type": "bool"
        }
      ],
      "stateMutability": "nonpayable",
      "type": "function"
    },
    {
      "stateMutability": "payable",
      "type": "receive"
    }
  ],
  "bytecode": "0x608060405234801561001057600080fd5b50604051612b41380380612b41833981810160405281019061003291906101bd565b6064600560006101000a81548160ff021916908360ff160217905550836000806101000a81548173ffffffffffffffffffffffffffffffffffffffff021916908373ffffffffffffffffffffffffffffffffffffffff160217905550816001819055508060028190555082600360006101000a81548173ffffffffffffffffffffffffffffffffffffffff021916908373ffffffffffffffffffffffffffffffffffffffff16021790555050505050610224565b600080fd5b600073ffffffffffffffffffffffffffffffffffffffff82169050919050565b6000610116826100eb565b9050919050565b60006101288261010b565b9050919050565b6101388161011d565b811461014357600080fd5b50565b6000815190506101558161012f565b92915050565b6101648161010b565b811461016f57600080fd5b50565b6000815190506101818161015b565b92915050565b6000819050919050565b61019a81610187565b81146101a557600080fd5b50565b6000815190506101b781610191565b92915050565b600080600080608085870312156101d7576101d66100e6565b5b60006101e587828801610146565b94505060206101f687828801610172565b9350506040610207878288016101a8565b9250506060610218878288016101a8565b91505092959194509250565b61290e806102336000396000f3fe60806040526004361061010d5760003560e01c80639650f28911610095578063e4494a0f11610064578063e4494a0f1461038d578063ebc1945b146103b8578063eff13431146103e3578063f71735261461040e578063fd994c161461043957610114565b80639650f289146102dc5780639820848414610307578063b145fcd414610332578063bee4f7331461035057610114565b80635e1b6191116100dc5780635e1b6191146101fb5780636ba5d0791461023857806376866222146102565780638da5cb5b146102935780638e6b3ac4146102be57610114565b80633ff1e05b14610119578063425432b1146101445780634b946cc9146101815780635d0fab84146101be57610114565b3661011457005b600080fd5b34801561012557600080fd5b5061012e610464565b60405161013b9190611a91565b60405180910390f35b34801561015057600080fd5b5061016b60048036038101906101669190611b0f565b61046c565b6040516101789190611a91565b60405180910390f35b34801561018d57600080fd5b506101a860048036038101906101a39190611b75565b610484565b6040516101b59190611bd0565b60405180910390f35b3480156101ca57600080fd5b506101e560048036038101906101e09190611c17565b610806565b6040516101f29190611c53565b60405180910390f35b34801561020757600080fd5b50610222600480360381019061021d9190611c17565b610845565b60405161022f9190611bd0565b60405180910390f35b610240610a65565b60405161024d9190611bd0565b60405180910390f35b34801561026257600080fd5b5061027d60048036038101906102789190611b75565b610bbe565b60405161028a9190611bd0565b60405180910390f35b34801561029f57600080fd5b506102a8611036565b6040516102b59190611c53565b60405180910390f35b6102c661105c565b6040516102d39190611bd0565b60405180910390f35b3480156102e857600080fd5b506102f16111b5565b6040516102fe9190611a91565b60405180910390f35b34801561031357600080fd5b5061031c6111bb565b6040516103299190611bd0565b60405180910390f35b61033a611313565b6040516103479190611bd0565b60405180910390f35b34801561035c57600080fd5b5061037760048036038101906103729190611b0f565b61146a565b6040516103849190611c7d565b60405180910390f35b34801561039957600080fd5b506103a261148a565b6040516103af9190611a91565b60405180910390f35b3480156103c457600080fd5b506103cd611490565b6040516103da9190611bd0565b60405180910390f35b3480156103ef57600080fd5b506103f86114a3565b6040516104059190611a91565b60405180910390f35b34801561041a57600080fd5b506104236114a9565b6040516104309190611c7d565b60405180910390f35b34801561044557600080fd5b5061044e6114bc565b60405161045b9190611cf7565b60405180910390f35b600047905090565b60096020528060005260406000206000915090505481565b6000600360009054906101000a900473ffffffffffffffffffffffffffffffffffffffff1673ffffffffffffffffffffffffffffffffffffffff163373ffffffffffffffffffffffffffffffffffffffff1614610516576040517f08c379a000000000000000000000000000000000000000000000000000000000815260040161050d90611d95565b60405180910390fd5b600760009054906101000a900460ff1615610566576040517f08c379a000000000000000000000000000000000000000000000000000000000815260040161055d90611e4d565b60405180910390fd5b6000600460008573ffffffffffffffffffffffffffffffffffffffff1673ffffffffffffffffffffffffffffffffffffffff16815260200190815260200160002060009054906101000a900460ff1660ff16036105f8576040517f08c379a00000000000000000000000000000000000000000000000000000000081526004016105ef90611edf565b60405180910390fd5b8160ff16600460008573ffffffffffffffffffffffffffffffffffffffff1673ffffffffffffffffffffffffffffffffffffffff16815260200190815260200160002060009054906101000a900460ff1660ff16101561068d576040517f08c379a000000000000000000000000000000000000000000000000000000000815260040161068490611f71565b60405180910390fd5b81600460008573ffffffffffffffffffffffffffffffffffffffff1673ffffffffffffffffffffffffffffffffffffffff16815260200190815260200160002060008282829054906101000a900460ff166106e89190611fc0565b92506101000a81548160ff021916908360ff16021790555081600560008282829054906101000a900460ff1661071e9190611ff5565b92506101000a81548160ff021916908360ff1602179055506000600460008573ffffffffffffffffffffffffffffffffffffffff1673ffffffffffffffffffffffffffffffffffffffff16815260200190815260200160002060009054906101000a900460ff1660ff160361079757610796836114e0565b5b3073ffffffffffffffffffffffffffffffffffffffff168373ffffffffffffffffffffffffffffffffffffffff167fe5c90d1f4d58fd7bc5c546521e874b223125d83f37bf4b35ade1532e08a0fff5846040516107f49190611c7d565b60405180910390a36001905092915050565b6006818154811061081657600080fd5b906000526020600020016000915054906101000a900473ffffffffffffffffffffffffffffffffffffffff1681565b6000600760009054906101000a900460ff16610896576040517f08c379a000000000000000000000000000000000000000000000000000000000815260040161088d906120c2565b60405180910390fd5b6000600460003373ffffffffffffffffffffffffffffffffffffffff1673ffffffffffffffffffffffffffffffffffffffff16815260200190815260200160002060009054906101000a900460ff1660ff1603610928576040517f08c379a000000000000000000000000000000000000000000000000000000000815260040161091f9061217a565b60405180910390fd5b6000821161096b576040517f08c379a00000000000000000000000000000000000000000000000000000000081526004016109629061220c565b60405180910390fd5b81600960003373ffffffffffffffffffffffffffffffffffffffff1673ffffffffffffffffffffffffffffffffffffffff1681526020019081526020016000205410156109ed576040517f08c379a00000000000000000000000000000000000000000000000000000000081526004016109e490612278565b60405180910390fd5b81600960003373ffffffffffffffffffffffffffffffffffffffff1673ffffffffffffffffffffffffffffffffffffffff1681526020019081526020016000206000828254610a3c9190612298565b925050819055508160086000828254610a559190612298565b9250508190555060019050919050565b6000600760009054906101000a900460ff16610ab6576040517f08c379a0000000000000000000000000000000000000000000000000000000008152600401610aad906120c2565b60405180910390fd5b6000633b9aca00600254610aca91906122cc565b905080341015610b0f576040517f08c379a0000000000000000000000000000000000000000000000000000000008152600401610b0690612380565b60405180910390fd5b60008134610b1d9190612298565b90503373ffffffffffffffffffffffffffffffffffffffff167f53f8fd6b05226233de7ac193299b5cb02358fe734840d24f2631a5a07643ced56001604051610b669190611bd0565b60405180910390a23373ffffffffffffffffffffffffffffffffffffffff166108fc829081150290604051600060405180830381858888f19350505050158015610bb4573d6000803e3d6000fd5b5060019250505090565b6000600360009054906101000a900473ffffffffffffffffffffffffffffffffffffffff1673ffffffffffffffffffffffffffffffffffffffff163373ffffffffffffffffffffffffffffffffffffffff1614610c50576040517f08c379a0000000000000000000000000000000000000000000000000000000008152600401610c4790611d95565b60405180910390fd5b610c8f6040518060400160405280601781526020017f61737369676e5269676874732063616c6c65642062793a000000000000000000815250336115e4565b610cce6040518060400160405280600d81526020017f41737369676e696e6720746f3a00000000000000000000000000000000000000815250846115e4565b610d106040518060400160405280600b81526020017f50657263656e746167653a0000000000000000000000000000000000000000008152508360ff16611680565b3073ffffffffffffffffffffffffffffffffffffffff168373ffffffffffffffffffffffffffffffffffffffff167f03df476b3b37a3360a1b466487c0a06214a4e1d899e5c66a7ad379e503c2ea9e84604051610d6d9190611c7d565b60405180910390a3600760009054906101000a900460ff1615610dc5576040517f08c379a0000000000000000000000000000000000000000000000000000000008152600401610dbc90611e4d565b60405180910390fd5b60008260ff1611610e0b576040517f08c379a0000000000000000000000000000000000000000000000000000000008152600401610e0290612412565b60405180910390fd5b600560009054906101000a900460ff1660ff168260ff161115610e63576040517f08c379a0000000000000000000000000000000000000000000000000000000008152600401610e5a906124ca565b60405180910390fd5b6000600460008573ffffffffffffffffffffffffffffffffffffffff1673ffffffffffffffffffffffffffffffffffffffff16815260200190815260200160002060009054906101000a900460ff1660ff1603610f1e576006839080600181540180825580915050600190039060005260206000200160009091909190916101000a81548173ffffffffffffffffffffffffffffffffffffffff021916908373ffffffffffffffffffffffffffffffffffffffff1602179055505b81600460008573ffffffffffffffffffffffffffffffffffffffff1673ffffffffffffffffffffffffffffffffffffffff16815260200190815260200160002060008282829054906101000a900460ff16610f799190611ff5565b92506101000a81548160ff021916908360ff16021790555081600560008282829054906101000a900460ff16610faf9190611fc0565b92506101000a81548160ff021916908360ff1602179055503073ffffffffffffffffffffffffffffffffffffffff168373ffffffffffffffffffffffffffffffffffffffff167f03df476b3b37a3360a1b466487c0a06214a4e1d899e5c66a7ad379e503c2ea9e846040516110249190611c7d565b60405180910390a36001905092915050565b600360009054906101000a900473ffffffffffffffffffffffffffffffffffffffff1681565b6000600760009054906101000a900460ff166110ad576040517f08c379a00000000000000000000000000000000000000000000000000000000081526004016110a4906120c2565b60405180910390fd5b6000633b9aca006001546110c191906122cc565b905080341015611106576040517f08c379a00000000000000000000000000000000000000000000000000000000081526004016110fd9061255c565b60405180910390fd5b600081346111149190612298565b90503373ffffffffffffffffffffffffffffffffffffffff167f4429633ab0a9f77b1bc61e2ed0e484b81b41823661c29dd1ba47c1b06882459d600160405161115d9190611bd0565b60405180910390a23373ffffffffffffffffffffffffffffffffffffffff166108fc829081150290604051600060405180830381858888f193505050501580156111ab573d6000803e3d6000fd5b5060019250505090565b60025481565b6000600360009054906101000a900473ffffffffffffffffffffffffffffffffffffffff1673ffffffffffffffffffffffffffffffffffffffff163373ffffffffffffffffffffffffffffffffffffffff161461124d576040517f08c379a000000000000000000000000000000000000000000000000000000000815260040161124490611d95565b60405180910390fd5b6000600560009054906101000a900460ff1660ff16146112a2576040517f08c379a000000000000000000000000000000000000000000000000000000000815260040161129990612614565b60405180910390fd5b6001600760006101000a81548160ff0219169083151502179055503073ffffffffffffffffffffffffffffffffffffffff167f2bd58c1c32e360804cf66bb5628995e5689d64524f0203fdd547f47e1e4e6d7160016040516113049190611bd0565b60405180910390a26001905090565b6000600760009054906101000a900460ff16611364576040517f08c379a000000000000000000000000000000000000000000000000000000000815260040161135b906120c2565b60405180910390fd5b6000600460003373ffffffffffffffffffffffffffffffffffffffff1673ffffffffffffffffffffffffffffffffffffffff16815260200190815260200160002060009054906101000a900460ff1660ff16036113f6576040517f08c379a00000000000000000000000000000000000000000000000000000000081526004016113ed9061217a565b60405180910390fd5b6612d452694f4000471015611440576040517f08c379a0000000000000000000000000000000000000000000000000000000008152600401611437906126cc565b60405180910390fd5b60646008600082825461145391906126ec565b9250508190555061146261171c565b506001905090565b60046020528060005260406000206000915054906101000a900460ff1681565b60085481565b600760009054906101000a900460ff1681565b60015481565b600560009054906101000a900460ff1681565b60008054906101000a900473ffffffffffffffffffffffffffffffffffffffff1681565b60006114eb8261197d565b9050600660016006805490506115019190612298565b8154811061151257611511612720565b5b9060005260206000200160009054906101000a900473ffffffffffffffffffffffffffffffffffffffff166006828154811061155157611550612720565b5b9060005260206000200160006101000a81548173ffffffffffffffffffffffffffffffffffffffff021916908373ffffffffffffffffffffffffffffffffffffffff16021790555060068054806115ab576115aa61274f565b5b6001900381819060005260206000200160006101000a81549073ffffffffffffffffffffffffffffffffffffffff021916905590555050565b61167c82826040516024016115fa9291906127fd565b6040516020818303038152906040527f319af333000000000000000000000000000000000000000000000000000000007bffffffffffffffffffffffffffffffffffffffffffffffffffffffff19166020820180517bffffffffffffffffffffffffffffffffffffffffffffffffffffffff8381831617835250505050611a28565b5050565b611718828260405160240161169692919061282d565b6040516020818303038152906040527fb60e72cc000000000000000000000000000000000000000000000000000000007bffffffffffffffffffffffffffffffffffffffffffffffffffffffff19166020820180517bffffffffffffffffffffffffffffffffffffffffffffffffffffffff8381831617835250505050611a28565b5050565b600080600090505b60068054905081101561197557600460006006838154811061174957611748612720565b5b9060005260206000200160009054906101000a900473ffffffffffffffffffffffffffffffffffffffff1673ffffffffffffffffffffffffffffffffffffffff1673ffffffffffffffffffffffffffffffffffffffff16815260200190815260200160002060009054906101000a900460ff1660ff1660096000600684815481106117d7576117d6612720565b5b9060005260206000200160009054906101000a900473ffffffffffffffffffffffffffffffffffffffff1673ffffffffffffffffffffffffffffffffffffffff1673ffffffffffffffffffffffffffffffffffffffff168152602001908152602001600020600082825461184b91906126ec565b925050819055506006818154811061186657611865612720565b5b9060005260206000200160009054906101000a900473ffffffffffffffffffffffffffffffffffffffff1673ffffffffffffffffffffffffffffffffffffffff167f0f18c582fb18bab8a0efe761e8fdd548eaef7b331b99e27696a6381ed38c451e60046000600685815481106118e0576118df612720565b5b9060005260206000200160009054906101000a900473ffffffffffffffffffffffffffffffffffffffff1673ffffffffffffffffffffffffffffffffffffffff1673ffffffffffffffffffffffffffffffffffffffff16815260200190815260200160002060009054906101000a900460ff16604051611960919061288e565b60405180910390a28080600101915050611724565b506001905090565b600080600090505b600680549050811015611a19578273ffffffffffffffffffffffffffffffffffffffff16600682815481106119bd576119bc612720565b5b9060005260206000200160009054906101000a900473ffffffffffffffffffffffffffffffffffffffff1673ffffffffffffffffffffffffffffffffffffffff1603611a0c5780915050611a23565b8080600101915050611985565b5060068054905090505b919050565b611a3f81611a37611a42611a63565b63ffffffff16565b50565b60006a636f6e736f6c652e6c6f679050600080835160208501845afa505050565b611a6e819050919050565b611a766128a9565b565b6000819050919050565b611a8b81611a78565b82525050565b6000602082019050611aa66000830184611a82565b92915050565b600080fd5b600073ffffffffffffffffffffffffffffffffffffffff82169050919050565b6000611adc82611ab1565b9050919050565b611aec81611ad1565b8114611af757600080fd5b50565b600081359050611b0981611ae3565b92915050565b600060208284031215611b2557611b24611aac565b5b6000611b3384828501611afa565b91505092915050565b600060ff82169050919050565b611b5281611b3c565b8114611b5d57600080fd5b50565b600081359050611b6f81611b49565b92915050565b60008060408385031215611b8c57611b8b611aac565b5b6000611b9a85828601611afa565b9250506020611bab85828601611b60565b9150509250929050565b60008115159050919050565b611bca81611bb5565b82525050565b6000602082019050611be56000830184611bc1565b92915050565b611bf481611a78565b8114611bff57600080fd5b50565b600081359050611c1181611beb565b92915050565b600060208284031215611c2d57611c2c611aac565b5b6000611c3b84828501611c02565b91505092915050565b611c4d81611ad1565b82525050565b6000602082019050611c686000830184611c44565b92915050565b611c7781611b3c565b82525050565b6000602082019050611c926000830184611c6e565b92915050565b6000819050919050565b6000611cbd611cb8611cb384611ab1565b611c98565b611ab1565b9050919050565b6000611ccf82611ca2565b9050919050565b6000611ce182611cc4565b9050919050565b611cf181611cd6565b82525050565b6000602082019050611d0c6000830184611ce8565b92915050565b600082825260208201905092915050565b7f546869732066756e6374696f6e2063616e206f6e6c792062652063616c6c656460008201527f20627920746865206f776e657220616464726573730000000000000000000000602082015250565b6000611d7f603583611d12565b9150611d8a82611d23565b604082019050919050565b60006020820190508181036000830152611dae81611d72565b9050919050565b7f54686520636f6e747261637420697320616c7265616479207365616c65642c2060008201527f6e6f206d6f64696669636174696f6e206f66207269676874732063616e20626560208201527f206d616465000000000000000000000000000000000000000000000000000000604082015250565b6000611e37604583611d12565b9150611e4282611db5565b606082019050919050565b60006020820190508181036000830152611e6681611e2a565b9050919050565b7f4e6f207269676874732068617665206265656e20646566696e656420666f722060008201527f7468697320616464726573730000000000000000000000000000000000000000602082015250565b6000611ec9602c83611d12565b9150611ed482611e6d565b604082019050919050565b60006020820190508181036000830152611ef881611ebc565b9050919050565b7f4974206973206e6f7420706f737369626c6520746f2072656d6f7665206d6f7260008201527f6520726967687473207468616e20746869732061646472657373206861730000602082015250565b6000611f5b603e83611d12565b9150611f6682611eff565b604082019050919050565b60006020820190508181036000830152611f8a81611f4e565b9050919050565b7f4e487b7100000000000000000000000000000000000000000000000000000000600052601160045260246000fd5b6000611fcb82611b3c565b9150611fd683611b3c565b9250828203905060ff811115611fef57611fee611f91565b5b92915050565b600061200082611b3c565b915061200b83611b3c565b9250828201905060ff81111561202457612023611f91565b5b92915050565b7f54686520636f6e7472616374206973206e6f74207365616c65642e205468697360008201527f207472616e73616374696f6e2063616e206f6e6c7920626520646f6e6520776960208201527f74682061207365616c656420636f6e7472616374000000000000000000000000604082015250565b60006120ac605483611d12565b91506120b78261202a565b606082019050919050565b600060208201905081810360008301526120db8161209f565b9050919050565b7f546869732066756e6374696f6e2063616e6e6f742062652063616c6c6564206260008201527f7920616e796f6e652077686f20646f6573206e6f74206861766520726967687460208201527f7320746f2074686520736f6e6700000000000000000000000000000000000000604082015250565b6000612164604d83611d12565b915061216f826120e2565b606082019050919050565b6000602082019050818103600083015261219381612157565b9050919050565b7f4e756d626572206f6620746f6b656e7320666f7220726571756573746564207460008201527f72616e73666572206d7573742062652067726561746572207468616e20300000602082015250565b60006121f6603e83611d12565b91506122018261219a565b604082019050919050565b60006020820190508181036000830152612225816121e9565b9050919050565b7f4e756d626572206f6620746f6b656e7320756e617661696c61626c6500000000600082015250565b6000612262601c83611d12565b915061226d8261222c565b602082019050919050565b6000602082019050818103600083015261229181612255565b9050919050565b60006122a382611a78565b91506122ae83611a78565b92508282039050818111156122c6576122c5611f91565b5b92915050565b60006122d782611a78565b91506122e283611a78565b92508282026122f081611a78565b9150828204841483151761230757612306611f91565b5b5092915050565b7f696e73756666696369656e742076616c756520746f206c697374656e2074686560008201527f206d757369632072696768747300000000000000000000000000000000000000602082015250565b600061236a602d83611d12565b91506123758261230e565b604082019050919050565b600060208201905081810360008301526123998161235d565b9050919050565b7f50657263656e74616765206f6620726967687473206d7573742062652067726560008201527f61746572207468616e2030000000000000000000000000000000000000000000602082015250565b60006123fc602b83611d12565b9150612407826123a0565b604082019050919050565b6000602082019050818103600083015261242b816123ef565b9050919050565b7f70657263656e74616765206f6620656e7469746c656d656e74732072656d616960008201527f6e696e67206973206c657373207468616e20746865207265717565737465642060208201527f616d6f756e740000000000000000000000000000000000000000000000000000604082015250565b60006124b4604683611d12565b91506124bf82612432565b606082019050919050565b600060208201905081810360008301526124e3816124a7565b9050919050565b7f696e73756666696369656e742076616c756520746f207075726368617365207460008201527f6865206d75736963207269676874730000000000000000000000000000000000602082015250565b6000612546602f83611d12565b9150612551826124ea565b604082019050919050565b6000602082019050818103600083015261257581612539565b9050919050565b7f5468652072656d61696e696e67206469766973696f6e73206f6620726967687460008201527f73206d757374206265203020746f207365616c207468697320636f6e7472616360208201527f7400000000000000000000000000000000000000000000000000000000000000604082015250565b60006125fe604183611d12565b91506126098261257c565b606082019050919050565b6000602082019050818103600083015261262d816125f1565b9050919050565b7f496e73756666696369656e742045746865722073656e7420746f20627579207460008201527f6f6b656e732e204d7573742068617665206174206c6561737420302e3030353360208201527f2045746865720000000000000000000000000000000000000000000000000000604082015250565b60006126b6604683611d12565b91506126c182612634565b606082019050919050565b600060208201905081810360008301526126e5816126a9565b9050919050565b60006126f782611a78565b915061270283611a78565b925082820190508082111561271a57612719611f91565b5b92915050565b7f4e487b7100000000000000000000000000000000000000000000000000000000600052603260045260246000fd5b7f4e487b7100000000000000000000000000000000000000000000000000000000600052603160045260246000fd5b600081519050919050565b60005b838110156127a757808201518184015260208101905061278c565b60008484015250505050565b6000601f19601f8301169050919050565b60006127cf8261277e565b6127d98185611d12565b93506127e9818560208601612789565b6127f2816127b3565b840191505092915050565b6000604082019050818103600083015261281781856127c4565b90506128266020830184611c44565b9392505050565b6000604082019050818103600083015261284781856127c4565b90506128566020830184611a82565b9392505050565b600061287861287361286e84611b3c565b611c98565b611a78565b9050919050565b6128888161285d565b82525050565b60006020820190506128a3600083018461287f565b92915050565b7f4e487b7100000000000000000000000000000000000000000000000000000000600052605160045260246000fdfea264697066735822122098cbbc90b4027f908a692e3808abda48e4fc3120d707170bfec31512f7efe52064736f6c634300081c0033",
  "linkReferences": {},
  "deployedLinkReferences": {}
}