{
  "_format": "hh-sol-artifact-1",
  "contractName": "MusicContract",
  "sourceName": "contracts/MusicContract.sol",
  "abi": [
    {
      "inputs": [
        {
          "internalType": "contract IERC20",
          "name": "_oysterToken",
          "type": "address"
        },
        {
          "internalType": "address",
          "name": "initialOwner",
          "type": "address"
        },
        {
          "internalType": "contract OysterVault",
          "name": "_vault",
          "type": "address"
        },
        {
          "internalType": "uint256",
          "name": "_gweiPerToken",
          "type": "uint256"
        }
      ],
      "stateMutability": "nonpayable",
      "type": "constructor"
    },
    {
      "inputs": [
        {
          "internalType": "address",
          "name": "owner",
          "type": "address"
        }
      ],
      "name": "OwnableInvalidOwner",
      "type": "error"
    },
    {
      "inputs": [
        {
          "internalType": "address",
          "name": "account",
          "type": "address"
        }
      ],
      "name": "OwnableUnauthorizedAccount",
      "type": "error"
    },
    {
      "anonymous": false,
      "inputs": [
        {
          "indexed": true,
          "internalType": "address",
          "name": "to",
          "type": "address"
        },
        {
          "indexed": false,
          "internalType": "uint256",
          "name": "timestamp",
          "type": "uint256"
        }
      ],
      "name": "FullRightsAssigned",
      "type": "event"
    },
    {
      "anonymous": false,
      "inputs": [
        {
          "indexed": false,
          "internalType": "string",
          "name": "message",
          "type": "string"
        }
      ],
      "name": "Log",
      "type": "event"
    },
    {
      "anonymous": false,
      "inputs": [
        {
          "indexed": false,
          "internalType": "string",
          "name": "message",
          "type": "string"
        },
        {
          "indexed": false,
          "internalType": "address",
          "name": "addr",
          "type": "address"
        }
      ],
      "name": "LogAddress",
      "type": "event"
    },
    {
      "anonymous": false,
      "inputs": [
        {
          "indexed": false,
          "internalType": "string",
          "name": "message",
          "type": "string"
        },
        {
          "indexed": false,
          "internalType": "uint256",
          "name": "value",
          "type": "uint256"
        }
      ],
      "name": "LogUint",
      "type": "event"
    },
    {
      "anonymous": false,
      "inputs": [
        {
          "indexed": true,
          "internalType": "address",
          "name": "previousOwner",
          "type": "address"
        },
        {
          "indexed": true,
          "internalType": "address",
          "name": "newOwner",
          "type": "address"
        }
      ],
      "name": "OwnershipTransferred",
      "type": "event"
    },
    {
      "anonymous": false,
      "inputs": [
        {
          "indexed": true,
          "internalType": "address",
          "name": "caller",
          "type": "address"
        }
      ],
      "name": "RightsSealed",
      "type": "event"
    },
    {
      "anonymous": false,
      "inputs": [
        {
          "indexed": true,
          "internalType": "address",
          "name": "caller",
          "type": "address"
        },
        {
          "indexed": false,
          "internalType": "uint256",
          "name": "amount",
          "type": "uint256"
        }
      ],
      "name": "SellTokens",
      "type": "event"
    },
    {
      "anonymous": false,
      "inputs": [
        {
          "indexed": true,
          "internalType": "address",
          "name": "buyer",
          "type": "address"
        },
        {
          "indexed": false,
          "internalType": "uint256",
          "name": "amount",
          "type": "uint256"
        }
      ],
      "name": "TokensPurchased",
      "type": "event"
    },
    {
      "inputs": [
        {
          "internalType": "address",
          "name": "spender",
          "type": "address"
        },
        {
          "internalType": "uint256",
          "name": "amount",
          "type": "uint256"
        }
      ],
      "name": "approve",
      "outputs": [
        {
          "internalType": "bool",
          "name": "",
          "type": "bool"
        }
      ],
      "stateMutability": "nonpayable",
      "type": "function"
    },
    {
      "inputs": [
        {
          "internalType": "address",
          "name": "_to",
          "type": "address"
        }
      ],
      "name": "assignFullRights",
      "outputs": [
        {
          "internalType": "bool",
          "name": "",
          "type": "bool"
        }
      ],
      "stateMutability": "nonpayable",
      "type": "function"
    },
    {
      "inputs": [
        {
          "internalType": "address",
          "name": "_of",
          "type": "address"
        }
      ],
      "name": "divisionOfRights",
      "outputs": [
        {
          "internalType": "uint256",
          "name": "",
          "type": "uint256"
        }
      ],
      "stateMutability": "view",
      "type": "function"
    },
    {
      "inputs": [],
      "name": "getRemainingRightsDivision",
      "outputs": [
        {
          "internalType": "uint256",
          "name": "",
          "type": "uint256"
        }
      ],
      "stateMutability": "view",
      "type": "function"
    },
    {
      "inputs": [],
      "name": "getRightHolders",
      "outputs": [
        {
          "internalType": "address[]",
          "name": "",
          "type": "address[]"
        }
      ],
      "stateMutability": "view",
      "type": "function"
    },
    {
      "inputs": [],
      "name": "gweiPerToken",
      "outputs": [
        {
          "internalType": "uint256",
          "name": "",
          "type": "uint256"
        }
      ],
      "stateMutability": "view",
      "type": "function"
    },
    {
      "inputs": [],
      "name": "isMusicContractSealed",
      "outputs": [
        {
          "internalType": "bool",
          "name": "",
          "type": "bool"
        }
      ],
      "stateMutability": "view",
      "type": "function"
    },
    {
      "inputs": [],
      "name": "musicContactIsSealed",
      "outputs": [
        {
          "internalType": "bool",
          "name": "",
          "type": "bool"
        }
      ],
      "stateMutability": "view",
      "type": "function"
    },
    {
      "inputs": [],
      "name": "owner",
      "outputs": [
        {
          "internalType": "address",
          "name": "",
          "type": "address"
        }
      ],
      "stateMutability": "view",
      "type": "function"
    },
    {
      "inputs": [],
      "name": "oysterToken",
      "outputs": [
        {
          "internalType": "contract IERC20",
          "name": "",
          "type": "address"
        }
      ],
      "stateMutability": "view",
      "type": "function"
    },
    {
      "inputs": [
        {
          "internalType": "address",
          "name": "buyer",
          "type": "address"
        },
        {
          "internalType": "uint256",
          "name": "amount",
          "type": "uint256"
        }
      ],
      "name": "purchaseTokens",
      "outputs": [],
      "stateMutability": "nonpayable",
      "type": "function"
    },
    {
      "inputs": [],
      "name": "remainingRights",
      "outputs": [
        {
          "internalType": "uint256",
          "name": "",
          "type": "uint256"
        }
      ],
      "stateMutability": "view",
      "type": "function"
    },
    {
      "inputs": [],
      "name": "renounceOwnership",
      "outputs": [],
      "stateMutability": "nonpayable",
      "type": "function"
    },
    {
      "inputs": [
        {
          "internalType": "address",
          "name": "",
          "type": "address"
        }
      ],
      "name": "rightAssigned",
      "outputs": [
        {
          "internalType": "uint256",
          "name": "",
          "type": "uint256"
        }
      ],
      "stateMutability": "view",
      "type": "function"
    },
    {
      "inputs": [
        {
          "internalType": "uint256",
          "name": "",
          "type": "uint256"
        }
      ],
      "name": "rightHolders",
      "outputs": [
        {
          "internalType": "address",
          "name": "",
          "type": "address"
        }
      ],
      "stateMutability": "view",
      "type": "function"
    },
    {
      "inputs": [],
      "name": "sealRights",
      "outputs": [
        {
          "internalType": "bool",
          "name": "",
          "type": "bool"
        }
      ],
      "stateMutability": "nonpayable",
      "type": "function"
    },
    {
      "inputs": [
        {
          "internalType": "uint256",
          "name": "amount",
          "type": "uint256"
        }
      ],
      "name": "sellTokens",
      "outputs": [],
      "stateMutability": "payable",
      "type": "function"
    },
    {
      "inputs": [
        {
          "internalType": "address",
          "name": "",
          "type": "address"
        }
      ],
      "name": "tokensPerAddress",
      "outputs": [
        {
          "internalType": "uint256",
          "name": "",
          "type": "uint256"
        }
      ],
      "stateMutability": "view",
      "type": "function"
    },
    {
      "inputs": [
        {
          "internalType": "address",
          "name": "newOwner",
          "type": "address"
        }
      ],
      "name": "transferOwnership",
      "outputs": [],
      "stateMutability": "nonpayable",
      "type": "function"
    },
    {
      "inputs": [],
      "name": "vault",
      "outputs": [
        {
          "internalType": "contract OysterVault",
          "name": "",
          "type": "address"
        }
      ],
      "stateMutability": "view",
      "type": "function"
    },
    {
      "inputs": [
        {
          "internalType": "address",
          "name": "_of",
          "type": "address"
        }
      ],
      "name": "viewTokensPerAddress",
      "outputs": [
        {
          "internalType": "uint256",
          "name": "",
          "type": "uint256"
        }
      ],
      "stateMutability": "view",
      "type": "function"
    }
  ],
  "bytecode": "0x608060405234801561001057600080fd5b506040516118e23803806118e283398101604081905261002f91610183565b826001600160a01b03811661005e57604051631e4fbdf760e01b81526000600482015260240160405180910390fd5b6100678161011b565b50600180546001600160a01b038681166001600160a01b03199283168117909355600280549186169190921617905560646006556007805460ff19169055600882905560405163095ea7b360e01b8152306004820152600019602482015263095ea7b3906044016020604051808303816000875af11580156100ed573d6000803e3d6000fd5b505050506040513d601f19601f8201168201806040525081019061011191906101d6565b50505050506101ff565b600080546001600160a01b038381166001600160a01b0319831681178455604051919092169283917f8be0079c531659141344cd1fd0a4f28419497f9722a3daafe3b4186f6b6457e09190a35050565b6001600160a01b038116811461018057600080fd5b50565b6000806000806080858703121561019957600080fd5b84516101a48161016b565b60208601519094506101b58161016b565b60408601519093506101c68161016b565b6060959095015193969295505050565b6000602082840312156101e857600080fd5b815180151581146101f857600080fd5b9392505050565b6116d48061020e6000396000f3fe60806040526004361061012a5760003560e01c806398208484116100ab578063d8218a1e1161006f578063d8218a1e1461033d578063e8010b9a14610373578063ebc1945b14610388578063f2fde38b146103a2578063fbfa77cf146103c2578063fd994c16146103e257600080fd5b8063982084841461029a578063a11d08c7146102af578063bdacae46146102c5578063bee4f733146102e5578063cd8e64c61461031b57600080fd5b80635d0fab84116100f25780635d0fab84146101ef5780636c11bcd3146102275780636f391d161461023a578063715018a6146102675780638da5cb5b1461027c57600080fd5b8063095ea7b31461012f5780631641f59d146101645780631e7350f41461018857806322ea2231146101a0578063425432b1146101c2575b600080fd5b34801561013b57600080fd5b5061014f61014a3660046114eb565b610402565b60405190151581526020015b60405180910390f35b34801561017057600080fd5b5061017a60065481565b60405190815260200161015b565b34801561019457600080fd5b5060075460ff1661014f565b3480156101ac57600080fd5b506101c06101bb3660046114eb565b610483565b005b3480156101ce57600080fd5b5061017a6101dd366004611515565b60036020526000908152604090205481565b3480156101fb57600080fd5b5061020f61020a366004611530565b610847565b6040516001600160a01b03909116815260200161015b565b6101c0610235366004611530565b610871565b34801561024657600080fd5b5061017a610255366004611515565b60046020526000908152604090205481565b34801561027357600080fd5b506101c0610ee1565b34801561028857600080fd5b506000546001600160a01b031661020f565b3480156102a657600080fd5b5061014f610ef5565b3480156102bb57600080fd5b5061017a60085481565b3480156102d157600080fd5b5061014f6102e0366004611515565b6110ef565b3480156102f157600080fd5b5061017a610300366004611515565b6001600160a01b031660009081526004602052604090205490565b34801561032757600080fd5b506103306113b7565b60405161015b9190611549565b34801561034957600080fd5b5061017a610358366004611515565b6001600160a01b031660009081526003602052604090205490565b34801561037f57600080fd5b5060065461017a565b34801561039457600080fd5b5060075461014f9060ff1681565b3480156103ae57600080fd5b506101c06103bd366004611515565b611419565b3480156103ce57600080fd5b5060025461020f906001600160a01b031681565b3480156103ee57600080fd5b5060015461020f906001600160a01b031681565b60015460405163095ea7b360e01b81526001600160a01b03848116600483015260248201849052600092169063095ea7b3906044016020604051808303816000875af1158015610456573d6000803e3d6000fd5b505050506040513d601f19601f8201168201806040525081019061047a9190611595565b90505b92915050565b60008051602061163f8339815191526040516104dd9060208082526024908201527f4d75736963436f6e74726163743a207075726368617365546f6b656e732063616040820152631b1b195960e21b606082015260800190565b60405180910390a160008051602061167f8339815191523360405161050291906115be565b60405180910390a160408051818152600981830152683337b910313abcb2b960b91b60608201526001600160a01b0384166020820152905160008051602061167f8339815191529181900360800190a16040805181815260068183015265185b5bdd5b9d60d21b606082015260208101839052905160008051602061165f8339815191529181900360800190a16001546001600160a01b031633146105fe5760405162461bcd60e51b815260206004820152602760248201527f4f6e6c79204f7973746572546f6b656e2063616e2063616c6c207468697320666044820152663ab731ba34b7b760c91b60648201526084015b60405180910390fd5b60015460025460405163095ea7b360e01b81526001600160a01b0391821660048201526024810184905291169063095ea7b3906044016020604051808303816000875af1158015610653573d6000803e3d6000fd5b505050506040513d601f19601f820116820180604052508101906106779190611595565b6106b55760405162461bcd60e51b815260206004820152600f60248201526e105c1c1c9bdd985b0819985a5b1959608a1b60448201526064016105f5565b600254604051630357291360e41b8152306004820152602481018390526001600160a01b03909116906335729130906044016020604051808303816000875af1158015610706573d6000803e3d6000fd5b505050506040513d601f19601f8201168201806040525081019061072a9190611595565b61076e5760405162461bcd60e51b8152602060048201526015602482015274151bdad95b881d1c985b9cd9995c8819985a5b1959605a1b60448201526064016105f5565b6001600160a01b03821660009081526003602052604081208054839290610796908490611601565b90915550506040518181526001600160a01b038316907f8f28852646c20cc973d3a8218f7eefed58c25c909f78f0265af4818c3d4dc2719060200160405180910390a260008051602061163f83398151915260405161083b906020808252602c908201527f4d75736963436f6e74726163743a20546f6b656e73507572636861736564206560408201526b1d995b9d08195b5a5d1d195960a21b606082015260800190565b60405180910390a15050565b6005818154811061085757600080fd5b6000918252602090912001546001600160a01b0316905081565b60008051602061163f8339815191526040516108bc906020808252818101527f4d75736963436f6e74726163743a2073656c6c546f6b656e732063616c6c6564604082015260600190565b60405180910390a160008051602061167f833981519152336040516108e191906115be565b60405180910390a16040805181815260068183015265185b5bdd5b9d60d21b606082015260208101839052905160008051602061165f8339815191529181900360800190a1600081116109765760405162461bcd60e51b815260206004820181905260248201527f416d6f756e74206d7573742062652067726561746572207468616e207a65726f60448201526064016105f5565b336000908152600360205260409020548111156109d55760405162461bcd60e51b815260206004820152601a60248201527f496e73756666696369656e7420746f6b656e2062616c616e636500000000000060448201526064016105f5565b60008051602061163f833981519152604051610a39906020808252602e908201527f4d75736963436f6e74726163743a20417070726f76696e67207661756c74207460408201526d6f207370656e6420746f6b656e7360901b606082015260800190565b60405180910390a160008051602061163f833981519152604051610aa4906020808252602d908201527f4d75736963436f6e74726163743a20417070726f766564207661756c7420746f60408201526c207370656e6420746f6b656e7360981b606082015260800190565b60405180910390a13360009081526003602052604081208054839290610acb908490611614565b9091555050336000908152600360209081526040918290205482518381526028818501527f4d75736963436f6e74726163743a20546f6b656e732072656d61696e696e67206060820152673337b9103ab9b2b960c11b608082015291820152905160008051602061165f8339815191529181900360a00190a160008051602061163f833981519152604051610ba7906020808252602d908201527f4d75736963436f6e74726163743a2043616c6c696e672072656365697665546f60408201526c1ad95b9cc81bdb881d985d5b1d609a1b606082015260800190565b60405180910390a1600254604051630357291360e41b8152306004820152602481018390526001600160a01b03909116906335729130906044016020604051808303816000875af1158015610c00573d6000803e3d6000fd5b505050506040513d601f19601f82011682018060405250810190610c249190611595565b610c685760405162461bcd60e51b8152602060048201526015602482015274151bdad95b881d1c985b9cd9995c8819985a5b1959605a1b60448201526064016105f5565b60008051602061163f833981519152604051610cca906020808252602c908201527f4d75736963436f6e74726163743a2072656365697665546f6b656e732063616c60408201526b1b1959081bdb881d985d5b1d60a21b606082015260800190565b60405180910390a1600060085482610ce29190611627565b905060008051602061165f83398151915281604051610d4c919060408082526028908201527f4d75736963436f6e74726163743a20416d6f756e7420746f207472616e7366656060820152677220696e2057656960c01b6080820152602081019190915260a00190565b60405180910390a160008051602061163f833981519152604051610db39060208082526029908201527f4d75736963436f6e74726163743a205472616e7366657272696e6720576569206040820152683a379039b2b63632b960b91b606082015260800190565b60405180910390a1604051339082156108fc029083906000818181858888f19350505050158015610de8573d6000803e3d6000fd5b5060008051602061163f833981519152604051610e479060208082526028908201527f4d75736963436f6e74726163743a205472616e73666572726564205765692074604082015267379039b2b63632b960c11b606082015260800190565b60405180910390a160405182815233907f4f0a05c98d5132dc12d8adee36e2453f1d5bcfd87ae6c465e0d99e5fc8a3a0ba9060200160405180910390a260008051602061163f83398151915260405161083b9060208082526027908201527f4d75736963436f6e74726163743a2053656c6c546f6b656e73206576656e7420604082015266195b5a5d1d195960ca1b606082015260800190565b610ee9611457565b610ef36000611484565b565b6000610eff611457565b60008051602061163f833981519152604051610f4a906020808252818101527f4d75736963436f6e74726163743a207365616c5269676874732063616c6c6564604082015260600190565b60405180910390a160008051602061167f83398151915233604051610f6f91906115be565b60405180910390a160065415610ff75760405162461bcd60e51b815260206004820152604160248201527f54686520636f6e74726163742063616e6e6f74206265207365616c656420756e60448201527f74696c20616c6c207269676874732068617665206265656e2061737369676e656064820152601960fa1b608482015260a4016105f5565b60075460ff161561104a5760405162461bcd60e51b815260206004820152601e60248201527f54686520636f6e747261637420697320616c7265616479207365616c6564000060448201526064016105f5565b6007805460ff1916600117905560405133907f153da6636337f767b9271bce5038ab2853e763eaec31707fc743d88bb9d0c7a990600090a260008051602061163f8339815191526040516110e19060208082526029908201527f4d75736963436f6e74726163743a205269676874735365616c6564206576656e6040820152681d08195b5a5d1d195960ba1b606082015260800190565b60405180910390a150600190565b60006110f9611457565b60008051602061163f8339815191526040516111559060208082526026908201527f4d75736963436f6e74726163743a2061737369676e46756c6c5269676874732060408201526518d85b1b195960d21b606082015260800190565b60405180910390a160008051602061167f8339815191523360405161117a91906115be565b60405180910390a16040805181815260028183015261746f60f01b60608201526001600160a01b0384166020820152905160008051602061167f8339815191529181900360800190a160075460ff161561124a5760405162461bcd60e51b815260206004820152604560248201527f54686520636f6e747261637420697320616c7265616479207365616c65642c2060448201527f6e6f206d6f64696669636174696f6e206f66207269676874732063616e206265606482015264206d61646560d81b608482015260a4016105f5565b6000600654116112a75760405162461bcd60e51b815260206004820152602260248201527f546865726520617265206e6f20726967687473206c65667420746f206173736960448201526133b760f11b60648201526084016105f5565b6001600160a01b0382166000818152600460205260408082206064905560068290556005805460018101825592527f036b6384b5eca791c62761152d0c79bb0604c104a5fb6f4eb0703f3154bb3db090910180546001600160a01b03191683179055517fac537fbd0bac2810163562635da0e4a087e443f27b5d794f2de53e07ebd79720906113399042815260200190565b60405180910390a260008051602061163f8339815191526040516113a6906020808252602f908201527f4d75736963436f6e74726163743a2046756c6c52696768747341737369676e6560408201526e1908195d995b9d08195b5a5d1d1959608a1b606082015260800190565b60405180910390a15060015b919050565b6060600580548060200260200160405190810160405280929190818152602001828054801561140f57602002820191906000526020600020905b81546001600160a01b031681526001909101906020018083116113f1575b5050505050905090565b611421611457565b6001600160a01b03811661144b57604051631e4fbdf760e01b8152600060048201526024016105f5565b61145481611484565b50565b6000546001600160a01b03163314610ef35760405163118cdaa760e01b81523360048201526024016105f5565b600080546001600160a01b038381166001600160a01b0319831681178455604051919092169283917f8be0079c531659141344cd1fd0a4f28419497f9722a3daafe3b4186f6b6457e09190a35050565b80356001600160a01b03811681146113b257600080fd5b600080604083850312156114fe57600080fd5b611507836114d4565b946020939093013593505050565b60006020828403121561152757600080fd5b61047a826114d4565b60006020828403121561154257600080fd5b5035919050565b602080825282518282018190526000918401906040840190835b8181101561158a5783516001600160a01b0316835260209384019390920191600101611563565b509095945050505050565b6000602082840312156115a757600080fd5b815180151581146115b757600080fd5b9392505050565b604080825260029082015261627960f01b60608201526001600160a01b0391909116602082015260800190565b634e487b7160e01b600052601160045260246000fd5b8082018082111561047d5761047d6115eb565b8181038181111561047d5761047d6115eb565b808202811582820484141761047d5761047d6115eb56fecf34ef537ac33ee1ac626ca1587a0a7e8e51561e5514f8cb36afa1c5102b3bab941296a39ea107bde685522318a4b6c2b544904a5dd82a512748ca2cf839bef762ddffe5b5108385f7a590f100e1ee414ad9551a31f089e64e82998440785e1ea2646970667358221220b5ba6453cafb1b4d405e4e120dd6d83af25fa6471d0c38dd2fe0effed0bbe81864736f6c634300081c0033",
  "linkReferences": {},
  "deployedLinkReferences": {}
}