{
  "_format": "hh-sol-artifact-1",
  "contractName": "MusicContract",
  "sourceName": "contracts/MusicContract.sol",
  "abi": [
    {
      "inputs": [
        {
          "internalType": "contract OysterToken",
          "name": "_oysterTokenContract",
          "type": "address"
        },
        {
          "internalType": "contract OysterVault",
          "name": "_oysterVaultContract",
          "type": "address"
        },
        {
          "internalType": "uint256",
          "name": "_rightPurchaseValue",
          "type": "uint256"
        },
        {
          "internalType": "uint256",
          "name": "_valueForListening",
          "type": "uint256"
        }
      ],
      "stateMutability": "nonpayable",
      "type": "constructor"
    },
    {
      "anonymous": false,
      "inputs": [
        {
          "indexed": true,
          "internalType": "address",
          "name": "addressRight",
          "type": "address"
        },
        {
          "indexed": true,
          "internalType": "address",
          "name": "addressThisMusicContract",
          "type": "address"
        },
        {
          "indexed": false,
          "internalType": "uint8",
          "name": "percentageOfRights",
          "type": "uint8"
        }
      ],
      "name": "assignedRight",
      "type": "event"
    },
    {
      "anonymous": false,
      "inputs": [
        {
          "indexed": true,
          "internalType": "address",
          "name": "hearAddress",
          "type": "address"
        },
        {
          "indexed": false,
          "internalType": "bool",
          "name": "confirm",
          "type": "bool"
        }
      ],
      "name": "musicHeard",
      "type": "event"
    },
    {
      "anonymous": false,
      "inputs": [
        {
          "indexed": true,
          "internalType": "address",
          "name": "addressThisMusicContract",
          "type": "address"
        },
        {
          "indexed": false,
          "internalType": "bool",
          "name": "musicContactIsSealed",
          "type": "bool"
        }
      ],
      "name": "musicWithSealedRights",
      "type": "event"
    },
    {
      "anonymous": false,
      "inputs": [
        {
          "indexed": true,
          "internalType": "address",
          "name": "purchaseAddress",
          "type": "address"
        },
        {
          "indexed": false,
          "internalType": "bool",
          "name": "activated",
          "type": "bool"
        }
      ],
      "name": "purchaseMade",
      "type": "event"
    },
    {
      "anonymous": false,
      "inputs": [
        {
          "indexed": true,
          "internalType": "address",
          "name": "addressHolderToken",
          "type": "address"
        },
        {
          "indexed": false,
          "internalType": "uint256",
          "name": "amountToken",
          "type": "uint256"
        }
      ],
      "name": "tokenAssigned",
      "type": "event"
    },
    {
      "anonymous": false,
      "inputs": [
        {
          "indexed": true,
          "internalType": "address",
          "name": "addressRight",
          "type": "address"
        },
        {
          "indexed": true,
          "internalType": "address",
          "name": "addressThisMusicContract",
          "type": "address"
        },
        {
          "indexed": false,
          "internalType": "uint8",
          "name": "percentageOfRights",
          "type": "uint8"
        }
      ],
      "name": "withdrawalRight",
      "type": "event"
    },
    {
      "inputs": [
        {
          "internalType": "address",
          "name": "addressRight",
          "type": "address"
        },
        {
          "internalType": "uint8",
          "name": "percentageOfRights",
          "type": "uint8"
        }
      ],
      "name": "assignRights",
      "outputs": [
        {
          "internalType": "bool",
          "name": "",
          "type": "bool"
        }
      ],
      "stateMutability": "nonpayable",
      "type": "function"
    },
    {
      "inputs": [],
      "name": "balanceTokens",
      "outputs": [
        {
          "internalType": "uint256",
          "name": "",
          "type": "uint256"
        }
      ],
      "stateMutability": "view",
      "type": "function"
    },
    {
      "inputs": [],
      "name": "buy100OysterToken",
      "outputs": [
        {
          "internalType": "bool",
          "name": "",
          "type": "bool"
        }
      ],
      "stateMutability": "payable",
      "type": "function"
    },
    {
      "inputs": [],
      "name": "buyRightsMusic",
      "outputs": [
        {
          "internalType": "bool",
          "name": "",
          "type": "bool"
        }
      ],
      "stateMutability": "payable",
      "type": "function"
    },
    {
      "inputs": [
        {
          "internalType": "address",
          "name": "",
          "type": "address"
        }
      ],
      "name": "divisionOfRights",
      "outputs": [
        {
          "internalType": "uint8",
          "name": "",
          "type": "uint8"
        }
      ],
      "stateMutability": "view",
      "type": "function"
    },
    {
      "inputs": [],
      "name": "listenMusic",
      "outputs": [
        {
          "internalType": "bool",
          "name": "",
          "type": "bool"
        }
      ],
      "stateMutability": "payable",
      "type": "function"
    },
    {
      "inputs": [],
      "name": "musicContactIsSealed",
      "outputs": [
        {
          "internalType": "bool",
          "name": "",
          "type": "bool"
        }
      ],
      "stateMutability": "view",
      "type": "function"
    },
    {
      "inputs": [],
      "name": "owner",
      "outputs": [
        {
          "internalType": "address",
          "name": "",
          "type": "address"
        }
      ],
      "stateMutability": "view",
      "type": "function"
    },
    {
      "inputs": [],
      "name": "remainingRightsDivision",
      "outputs": [
        {
          "internalType": "uint8",
          "name": "",
          "type": "uint8"
        }
      ],
      "stateMutability": "view",
      "type": "function"
    },
    {
      "inputs": [
        {
          "internalType": "uint256",
          "name": "",
          "type": "uint256"
        }
      ],
      "name": "rightHolders",
      "outputs": [
        {
          "internalType": "address",
          "name": "",
          "type": "address"
        }
      ],
      "stateMutability": "view",
      "type": "function"
    },
    {
      "inputs": [],
      "name": "rightPurchaseValueInGwei",
      "outputs": [
        {
          "internalType": "uint256",
          "name": "",
          "type": "uint256"
        }
      ],
      "stateMutability": "view",
      "type": "function"
    },
    {
      "inputs": [],
      "name": "sealRights",
      "outputs": [
        {
          "internalType": "bool",
          "name": "",
          "type": "bool"
        }
      ],
      "stateMutability": "nonpayable",
      "type": "function"
    },
    {
      "inputs": [
        {
          "internalType": "uint256",
          "name": "amount",
          "type": "uint256"
        }
      ],
      "name": "sellOysterToken",
      "outputs": [
        {
          "internalType": "bool",
          "name": "",
          "type": "bool"
        }
      ],
      "stateMutability": "nonpayable",
      "type": "function"
    },
    {
      "inputs": [
        {
          "internalType": "address",
          "name": "",
          "type": "address"
        }
      ],
      "name": "tokensPerAddress",
      "outputs": [
        {
          "internalType": "uint256",
          "name": "",
          "type": "uint256"
        }
      ],
      "stateMutability": "view",
      "type": "function"
    },
    {
      "inputs": [],
      "name": "valueForListeningInGwei",
      "outputs": [
        {
          "internalType": "uint256",
          "name": "",
          "type": "uint256"
        }
      ],
      "stateMutability": "view",
      "type": "function"
    },
    {
      "inputs": [],
      "name": "viewBalance",
      "outputs": [
        {
          "internalType": "uint256",
          "name": "",
          "type": "uint256"
        }
      ],
      "stateMutability": "view",
      "type": "function"
    },
    {
      "inputs": [
        {
          "internalType": "address",
          "name": "addressRight",
          "type": "address"
        },
        {
          "internalType": "uint8",
          "name": "percentageOfRights",
          "type": "uint8"
        }
      ],
      "name": "withdrawRights",
      "outputs": [
        {
          "internalType": "bool",
          "name": "",
          "type": "bool"
        }
      ],
      "stateMutability": "nonpayable",
      "type": "function"
    },
    {
      "stateMutability": "payable",
      "type": "receive"
    }
  ],
  "bytecode": "0x6080604052348015600f57600080fd5b5060405161159e38038061159e833981016040819052602c916099565b6006805460ff19166064179055600080546001600160a01b039586166001600160a01b031991821617909155600180549490951693811693909317909355600255600391909155600480549091163317905560dc565b6001600160a01b0381168114609657600080fd5b50565b6000806000806080858703121560ae57600080fd5b845160b7816082565b602086015190945060c6816082565b6040860151606090960151949790965092505050565b6114b3806100eb6000396000f3fe6080604052600436106101025760003560e01c80638e6b3ac411610095578063bee4f73311610064578063bee4f73314610268578063e4494a0f146102aa578063ebc1945b146102c0578063eff13431146102da578063f7173526146102f057600080fd5b80638e6b3ac41461022d5780639650f28914610235578063982084841461024b578063b145fcd41461026057600080fd5b80635e1b6191116100d15780635e1b6191146101c55780636ba5d079146101e557806376866222146101ed5780638da5cb5b1461020d57600080fd5b80633ff1e05b1461010e578063425432b1146101305780634b946cc91461015d5780635d0fab841461018d57600080fd5b3661010957005b600080fd5b34801561011a57600080fd5b50475b6040519081526020015b60405180910390f35b34801561013c57600080fd5b5061011d61014b366004611185565b600a6020526000908152604090205481565b34801561016957600080fd5b5061017d6101783660046111a7565b61030a565b6040519015158152602001610127565b34801561019957600080fd5b506101ad6101a83660046111e4565b61056c565b6040516001600160a01b039091168152602001610127565b3480156101d157600080fd5b5061017d6101e03660046111e4565b610596565b61017d61077e565b3480156101f957600080fd5b5061017d6102083660046111a7565b61089c565b34801561021957600080fd5b506004546101ad906001600160a01b031681565b61017d610b14565b34801561024157600080fd5b5061011d60035481565b34801561025757600080fd5b5061017d610bf9565b61017d610cf4565b34801561027457600080fd5b50610298610283366004611185565b60056020526000908152604090205460ff1681565b60405160ff9091168152602001610127565b3480156102b657600080fd5b5061011d60095481565b3480156102cc57600080fd5b5060085461017d9060ff1681565b3480156102e657600080fd5b5061011d60025481565b3480156102fc57600080fd5b506006546102989060ff1681565b6004546000906001600160a01b031633146103405760405162461bcd60e51b8152600401610337906111fd565b60405180910390fd5b60085460ff16156103635760405162461bcd60e51b815260040161033790611252565b6001600160a01b03831660009081526005602052604081205460ff1690036103e25760405162461bcd60e51b815260206004820152602c60248201527f4e6f207269676874732068617665206265656e20646566696e656420666f722060448201526b74686973206164647265737360a01b6064820152608401610337565b6001600160a01b03831660009081526005602052604090205460ff808416911610156104765760405162461bcd60e51b815260206004820152603e60248201527f4974206973206e6f7420706f737369626c6520746f2072656d6f7665206d6f7260448201527f6520726967687473207468616e207468697320616464726573732068617300006064820152608401610337565b6001600160a01b038316600090815260056020526040812080548492906104a190849060ff166112d3565b92506101000a81548160ff021916908360ff16021790555081600660008282829054906101000a900460ff166104d791906112ec565b82546101009290920a60ff8181021990931691831602179091556001600160a01b0385166000908152600560205260408120549091169003905061051e5761051e83610e83565b60405160ff8316815230906001600160a01b038516907fe5c90d1f4d58fd7bc5c546521e874b223125d83f37bf4b35ade1532e08a0fff5906020015b60405180910390a35060015b92915050565b6007818154811061057c57600080fd5b6000918252602090912001546001600160a01b0316905081565b60085460009060ff166105bb5760405162461bcd60e51b815260040161033790611305565b3360009081526005602052604081205460ff1690036105ec5760405162461bcd60e51b81526004016103379061137f565b600082116106625760405162461bcd60e51b815260206004820152603e60248201527f4e756d626572206f6620746f6b656e7320666f7220726571756573746564207460448201527f72616e73666572206d7573742062652067726561746572207468616e203000006064820152608401610337565b336000908152600a60205260409020548211156106c15760405162461bcd60e51b815260206004820152601c60248201527f4e756d626572206f6620746f6b656e7320756e617661696c61626c65000000006044820152606401610337565b600054604051630a3871eb60e01b8152336004820152602481018490526001600160a01b0390911690630a3871eb906044016020604051808303816000875af1158015610712573d6000803e3d6000fd5b505050506040513d601f19601f8201168201806040525081019061073691906113f2565b50336000908152600a602052604081208054849290610756908490611414565b92505081905550816009600082825461076f9190611414565b9091555060019150505b919050565b60085460009060ff166107a35760405162461bcd60e51b815260040161033790611305565b6000600354633b9aca006107b79190611427565b90508034101561081f5760405162461bcd60e51b815260206004820152602d60248201527f696e73756666696369656e742076616c756520746f206c697374656e2074686560448201526c206d757369632072696768747360981b6064820152608401610337565b600061082b8234611414565b6040516001815290915033907f53f8fd6b05226233de7ac193299b5cb02358fe734840d24f2631a5a07643ced5906020015b60405180910390a2604051339082156108fc029083906000818181858888f19350505050158015610892573d6000803e3d6000fd5b5060019250505090565b6004546000906001600160a01b031633146108c95760405162461bcd60e51b8152600401610337906111fd565b60085460ff16156108ec5760405162461bcd60e51b815260040161033790611252565b60008260ff16116109535760405162461bcd60e51b815260206004820152602b60248201527f50657263656e74616765206f6620726967687473206d7573742062652067726560448201526a061746572207468616e20360ac1b6064820152608401610337565b60065460ff90811690831611156109e15760405162461bcd60e51b815260206004820152604660248201527f70657263656e74616765206f6620656e7469746c656d656e74732072656d616960448201527f6e696e67206973206c657373207468616e207468652072657175657374656420606482015265185b5bdd5b9d60d21b608482015260a401610337565b6001600160a01b03831660009081526005602052604081205460ff169003610a4f57600780546001810182556000919091527fa66cc928b5edb82af9bd49922954155ab7b0942694bea4ce44661d9a8736c6880180546001600160a01b0319166001600160a01b0385161790555b6001600160a01b03831660009081526005602052604081208054849290610a7a90849060ff166112ec565b92506101000a81548160ff021916908360ff16021790555081600660008282829054906101000a900460ff16610ab091906112d3565b92506101000a81548160ff021916908360ff160217905550306001600160a01b0316836001600160a01b03167f03df476b3b37a3360a1b466487c0a06214a4e1d899e5c66a7ad379e503c2ea9e8460405161055a919060ff91909116815260200190565b60085460009060ff16610b395760405162461bcd60e51b815260040161033790611305565b6000600254633b9aca00610b4d9190611427565b905080341015610bb75760405162461bcd60e51b815260206004820152602f60248201527f696e73756666696369656e742076616c756520746f207075726368617365207460448201526e6865206d757369632072696768747360881b6064820152608401610337565b6000610bc38234611414565b6040516001815290915033907f4429633ab0a9f77b1bc61e2ed0e484b81b41823661c29dd1ba47c1b06882459d9060200161085d565b6004546000906001600160a01b03163314610c265760405162461bcd60e51b8152600401610337906111fd565b60065460ff1615610ca95760405162461bcd60e51b815260206004820152604160248201527f5468652072656d61696e696e67206469766973696f6e73206f6620726967687460448201527f73206d757374206265203020746f207365616c207468697320636f6e747261636064820152601d60fa1b608482015260a401610337565b6008805460ff1916600190811790915560405190815230907f2bd58c1c32e360804cf66bb5628995e5689d64524f0203fdd547f47e1e4e6d719060200160405180910390a250600190565b60085460009060ff16610d195760405162461bcd60e51b815260040161033790611305565b3360009081526005602052604081205460ff169003610d4a5760405162461bcd60e51b81526004016103379061137f565b6612d452694f4000471015610dd65760405162461bcd60e51b815260206004820152604660248201527f496e73756666696369656e742045746865722073656e7420746f20627579207460448201527f6f6b656e732e204d7573742068617665206174206c6561737420302e303035336064820152651022ba3432b960d11b608482015260a401610337565b60008054906101000a90046001600160a01b03166001600160a01b031663917b1bf5476040518263ffffffff1660e01b815260040160206040518083038185885af1158015610e29573d6000803e3d6000fd5b50505050506040513d601f19601f82011682018060405250810190610e4e91906113f2565b50606460096000828254610e62919061143e565b90915550610e7290506064610f43565b50610e7b610fc6565b506001905090565b6000610e8e82611111565b6007805491925090610ea290600190611414565b81548110610eb257610eb2611451565b600091825260209091200154600780546001600160a01b039092169183908110610ede57610ede611451565b9060005260206000200160006101000a8154816001600160a01b0302191690836001600160a01b031602179055506007805480610f1d57610f1d611467565b600082815260209020810160001990810180546001600160a01b03191690550190555050565b6000805460015460405163095ea7b360e01b81526001600160a01b0391821660048201526024810185905291169063095ea7b3906044016020604051808303816000875af1158015610f99573d6000803e3d6000fd5b505050506040513d601f19601f82011682018060405250810190610fbd91906113f2565b50600192915050565b6000805b600754811015610e7b576005600060078381548110610feb57610feb611451565b60009182526020808320909101546001600160a01b031683528201929092526040018120546007805460ff90921692600a929091908590811061103057611030611451565b60009182526020808320909101546001600160a01b031683528201929092526040018120805490919061106490849061143e565b9091555050600780548290811061107d5761107d611451565b6000918252602082200154600780546001600160a01b03909216927f0f18c582fb18bab8a0efe761e8fdd548eaef7b331b99e27696a6381ed38c451e9260059290869081106110ce576110ce611451565b6000918252602080832091909101546001600160a01b03168352828101939093526040918201902054905160ff90911681520160405180910390a2600101610fca565b6000805b60075481101561116457826001600160a01b03166007828154811061113c5761113c611451565b6000918252602090912001546001600160a01b03160361115c5792915050565b600101611115565b5050600754919050565b80356001600160a01b038116811461077957600080fd5b60006020828403121561119757600080fd5b6111a08261116e565b9392505050565b600080604083850312156111ba57600080fd5b6111c38361116e565b9150602083013560ff811681146111d957600080fd5b809150509250929050565b6000602082840312156111f657600080fd5b5035919050565b60208082526035908201527f546869732066756e6374696f6e2063616e206f6e6c792062652063616c6c656460408201527420627920746865206f776e6572206164647265737360581b606082015260800190565b60208082526045908201527f54686520636f6e747261637420697320616c7265616479207365616c65642c2060408201527f6e6f206d6f64696669636174696f6e206f66207269676874732063616e206265606082015264206d61646560d81b608082015260a00190565b634e487b7160e01b600052601160045260246000fd5b60ff8281168282160390811115610566576105666112bd565b60ff8181168382160190811115610566576105666112bd565b60208082526054908201527f54686520636f6e7472616374206973206e6f74207365616c65642e205468697360408201527f207472616e73616374696f6e2063616e206f6e6c7920626520646f6e652077696060820152731d1a0818481cd9585b19590818dbdb9d1c9858dd60621b608082015260a00190565b6020808252604d908201527f546869732066756e6374696f6e2063616e6e6f742062652063616c6c6564206260408201527f7920616e796f6e652077686f20646f6573206e6f74206861766520726967687460608201526c7320746f2074686520736f6e6760981b608082015260a00190565b60006020828403121561140457600080fd5b815180151581146111a057600080fd5b81810381811115610566576105666112bd565b8082028115828204841417610566576105666112bd565b80820180821115610566576105666112bd565b634e487b7160e01b600052603260045260246000fd5b634e487b7160e01b600052603160045260246000fdfea264697066735822122046f094985c2740d64a7009658e3dfc00db94a64dd91aa078e30321bdecd0811f64736f6c634300081c0033",
  "linkReferences": {},
  "deployedLinkReferences": {}
}