{
  "_format": "hh-sol-artifact-1",
  "contractName": "MusicContract",
  "sourceName": "contracts/MusicContract.sol",
  "abi": [
    {
      "inputs": [
        {
          "internalType": "contract OysterToken",
          "name": "_oysterTokenContract",
          "type": "address"
        },
        {
          "internalType": "address",
          "name": "_owner",
          "type": "address"
        },
        {
          "internalType": "uint256",
          "name": "_rightPurchaseValue",
          "type": "uint256"
        },
        {
          "internalType": "uint256",
          "name": "_valueForListening",
          "type": "uint256"
        }
      ],
      "stateMutability": "nonpayable",
      "type": "constructor"
    },
    {
      "anonymous": false,
      "inputs": [
        {
          "indexed": true,
          "internalType": "address",
          "name": "addressRight",
          "type": "address"
        },
        {
          "indexed": true,
          "internalType": "address",
          "name": "addressThisMusicContract",
          "type": "address"
        },
        {
          "indexed": false,
          "internalType": "uint8",
          "name": "percentageOfRights",
          "type": "uint8"
        }
      ],
      "name": "assignedRight",
      "type": "event"
    },
    {
      "anonymous": false,
      "inputs": [
        {
          "indexed": true,
          "internalType": "address",
          "name": "hearAddress",
          "type": "address"
        },
        {
          "indexed": false,
          "internalType": "bool",
          "name": "confirm",
          "type": "bool"
        }
      ],
      "name": "musicHeard",
      "type": "event"
    },
    {
      "anonymous": false,
      "inputs": [
        {
          "indexed": true,
          "internalType": "address",
          "name": "addressThisMusicContract",
          "type": "address"
        },
        {
          "indexed": false,
          "internalType": "bool",
          "name": "musicContactIsSealed",
          "type": "bool"
        }
      ],
      "name": "musicWithSealedRights",
      "type": "event"
    },
    {
      "anonymous": false,
      "inputs": [
        {
          "indexed": true,
          "internalType": "address",
          "name": "purchaseAddress",
          "type": "address"
        },
        {
          "indexed": false,
          "internalType": "bool",
          "name": "activated",
          "type": "bool"
        }
      ],
      "name": "purchaseMade",
      "type": "event"
    },
    {
      "anonymous": false,
      "inputs": [
        {
          "indexed": true,
          "internalType": "address",
          "name": "addressHolderToken",
          "type": "address"
        },
        {
          "indexed": false,
          "internalType": "uint256",
          "name": "amountToken",
          "type": "uint256"
        }
      ],
      "name": "tokenAssigned",
      "type": "event"
    },
    {
      "anonymous": false,
      "inputs": [
        {
          "indexed": true,
          "internalType": "address",
          "name": "addressRight",
          "type": "address"
        },
        {
          "indexed": true,
          "internalType": "address",
          "name": "addressThisMusicContract",
          "type": "address"
        },
        {
          "indexed": false,
          "internalType": "uint8",
          "name": "percentageOfRights",
          "type": "uint8"
        }
      ],
      "name": "withdrawalRight",
      "type": "event"
    },
    {
      "inputs": [
        {
          "internalType": "address",
          "name": "addressRight",
          "type": "address"
        },
        {
          "internalType": "uint8",
          "name": "percentageOfRights",
          "type": "uint8"
        }
      ],
      "name": "assignRights",
      "outputs": [
        {
          "internalType": "bool",
          "name": "",
          "type": "bool"
        }
      ],
      "stateMutability": "nonpayable",
      "type": "function"
    },
    {
      "inputs": [],
      "name": "balanceTokens",
      "outputs": [
        {
          "internalType": "uint256",
          "name": "",
          "type": "uint256"
        }
      ],
      "stateMutability": "view",
      "type": "function"
    },
    {
      "inputs": [],
      "name": "buyRightsMusic",
      "outputs": [
        {
          "internalType": "bool",
          "name": "",
          "type": "bool"
        }
      ],
      "stateMutability": "payable",
      "type": "function"
    },
    {
      "inputs": [
        {
          "internalType": "address",
          "name": "",
          "type": "address"
        }
      ],
      "name": "divisionOfRights",
      "outputs": [
        {
          "internalType": "uint8",
          "name": "",
          "type": "uint8"
        }
      ],
      "stateMutability": "view",
      "type": "function"
    },
    {
      "inputs": [],
      "name": "getRightHolders",
      "outputs": [
        {
          "internalType": "address[]",
          "name": "",
          "type": "address[]"
        }
      ],
      "stateMutability": "view",
      "type": "function"
    },
    {
      "inputs": [],
      "name": "listenMusic",
      "outputs": [
        {
          "internalType": "bool",
          "name": "",
          "type": "bool"
        }
      ],
      "stateMutability": "payable",
      "type": "function"
    },
    {
      "inputs": [],
      "name": "musicContactIsSealed",
      "outputs": [
        {
          "internalType": "bool",
          "name": "",
          "type": "bool"
        }
      ],
      "stateMutability": "view",
      "type": "function"
    },
    {
      "inputs": [],
      "name": "owner",
      "outputs": [
        {
          "internalType": "address",
          "name": "",
          "type": "address"
        }
      ],
      "stateMutability": "view",
      "type": "function"
    },
    {
      "inputs": [],
      "name": "oysterToken",
      "outputs": [
        {
          "internalType": "contract OysterToken",
          "name": "",
          "type": "address"
        }
      ],
      "stateMutability": "view",
      "type": "function"
    },
    {
      "inputs": [],
      "name": "remainingRightsDivision",
      "outputs": [
        {
          "internalType": "uint8",
          "name": "",
          "type": "uint8"
        }
      ],
      "stateMutability": "view",
      "type": "function"
    },
    {
      "inputs": [
        {
          "internalType": "uint256",
          "name": "",
          "type": "uint256"
        }
      ],
      "name": "rightHolders",
      "outputs": [
        {
          "internalType": "address",
          "name": "",
          "type": "address"
        }
      ],
      "stateMutability": "view",
      "type": "function"
    },
    {
      "inputs": [],
      "name": "rightPurchaseValueInGwei",
      "outputs": [
        {
          "internalType": "uint256",
          "name": "",
          "type": "uint256"
        }
      ],
      "stateMutability": "view",
      "type": "function"
    },
    {
      "inputs": [],
      "name": "sealRights",
      "outputs": [
        {
          "internalType": "bool",
          "name": "",
          "type": "bool"
        }
      ],
      "stateMutability": "nonpayable",
      "type": "function"
    },
    {
      "inputs": [
        {
          "internalType": "uint256",
          "name": "amount",
          "type": "uint256"
        }
      ],
      "name": "sellOysterToken",
      "outputs": [
        {
          "internalType": "bool",
          "name": "",
          "type": "bool"
        }
      ],
      "stateMutability": "nonpayable",
      "type": "function"
    },
    {
      "inputs": [
        {
          "internalType": "address",
          "name": "",
          "type": "address"
        }
      ],
      "name": "tokensPerAddress",
      "outputs": [
        {
          "internalType": "uint256",
          "name": "",
          "type": "uint256"
        }
      ],
      "stateMutability": "view",
      "type": "function"
    },
    {
      "inputs": [],
      "name": "valueForListeningInGwei",
      "outputs": [
        {
          "internalType": "uint256",
          "name": "",
          "type": "uint256"
        }
      ],
      "stateMutability": "view",
      "type": "function"
    },
    {
      "inputs": [],
      "name": "viewBalance",
      "outputs": [
        {
          "internalType": "uint256",
          "name": "",
          "type": "uint256"
        }
      ],
      "stateMutability": "view",
      "type": "function"
    },
    {
      "inputs": [
        {
          "internalType": "address",
          "name": "addressRight",
          "type": "address"
        },
        {
          "internalType": "uint8",
          "name": "percentageOfRights",
          "type": "uint8"
        }
      ],
      "name": "withdrawRights",
      "outputs": [
        {
          "internalType": "bool",
          "name": "",
          "type": "bool"
        }
      ],
      "stateMutability": "nonpayable",
      "type": "function"
    },
    {
      "stateMutability": "payable",
      "type": "receive"
    }
  ],
  "bytecode": "0x608060405234801561001057600080fd5b506040516127cc3803806127cc833981810160405281019061003291906101bd565b6064600560006101000a81548160ff021916908360ff160217905550836000806101000a81548173ffffffffffffffffffffffffffffffffffffffff021916908373ffffffffffffffffffffffffffffffffffffffff160217905550816001819055508060028190555082600360006101000a81548173ffffffffffffffffffffffffffffffffffffffff021916908373ffffffffffffffffffffffffffffffffffffffff16021790555050505050610224565b600080fd5b600073ffffffffffffffffffffffffffffffffffffffff82169050919050565b6000610116826100eb565b9050919050565b60006101288261010b565b9050919050565b6101388161011d565b811461014357600080fd5b50565b6000815190506101558161012f565b92915050565b6101648161010b565b811461016f57600080fd5b50565b6000815190506101818161015b565b92915050565b6000819050919050565b61019a81610187565b81146101a557600080fd5b50565b6000815190506101b781610191565b92915050565b600080600080608085870312156101d7576101d66100e6565b5b60006101e587828801610146565b94505060206101f687828801610172565b9350506040610207878288016101a8565b9250506060610218878288016101a8565b91505092959194509250565b612599806102336000396000f3fe60806040526004361061010d5760003560e01c80639650f28911610095578063e4494a0f11610064578063e4494a0f1461039a578063ebc1945b146103c5578063eff13431146103f0578063f71735261461041b578063fd994c161461044657610114565b80639650f289146102dc5780639820848414610307578063bee4f73314610332578063cd8e64c61461036f57610114565b80635e1b6191116100dc5780635e1b6191146101fb5780636ba5d0791461023857806376866222146102565780638da5cb5b146102935780638e6b3ac4146102be57610114565b80633ff1e05b14610119578063425432b1146101445780634b946cc9146101815780635d0fab84146101be57610114565b3661011457005b600080fd5b34801561012557600080fd5b5061012e610471565b60405161013b9190611774565b60405180910390f35b34801561015057600080fd5b5061016b600480360381019061016691906117f2565b610479565b6040516101789190611774565b60405180910390f35b34801561018d57600080fd5b506101a860048036038101906101a39190611858565b610491565b6040516101b591906118b3565b60405180910390f35b3480156101ca57600080fd5b506101e560048036038101906101e091906118fa565b610813565b6040516101f29190611936565b60405180910390f35b34801561020757600080fd5b50610222600480360381019061021d91906118fa565b610852565b60405161022f91906118b3565b60405180910390f35b610240610a72565b60405161024d91906118b3565b60405180910390f35b34801561026257600080fd5b5061027d60048036038101906102789190611858565b610bcb565b60405161028a91906118b3565b60405180910390f35b34801561029f57600080fd5b506102a8611043565b6040516102b59190611936565b60405180910390f35b6102c6611069565b6040516102d391906118b3565b60405180910390f35b3480156102e857600080fd5b506102f16111c2565b6040516102fe9190611774565b60405180910390f35b34801561031357600080fd5b5061031c6111c8565b60405161032991906118b3565b60405180910390f35b34801561033e57600080fd5b50610359600480360381019061035491906117f2565b611320565b6040516103669190611960565b60405180910390f35b34801561037b57600080fd5b50610384611340565b6040516103919190611a39565b60405180910390f35b3480156103a657600080fd5b506103af6113ce565b6040516103bc9190611774565b60405180910390f35b3480156103d157600080fd5b506103da6113d4565b6040516103e791906118b3565b60405180910390f35b3480156103fc57600080fd5b506104056113e7565b6040516104129190611774565b60405180910390f35b34801561042757600080fd5b506104306113ed565b60405161043d9190611960565b60405180910390f35b34801561045257600080fd5b5061045b611400565b6040516104689190611aba565b60405180910390f35b600047905090565b60096020528060005260406000206000915090505481565b6000600360009054906101000a900473ffffffffffffffffffffffffffffffffffffffff1673ffffffffffffffffffffffffffffffffffffffff163373ffffffffffffffffffffffffffffffffffffffff1614610523576040517f08c379a000000000000000000000000000000000000000000000000000000000815260040161051a90611b58565b60405180910390fd5b600760009054906101000a900460ff1615610573576040517f08c379a000000000000000000000000000000000000000000000000000000000815260040161056a90611c10565b60405180910390fd5b6000600460008573ffffffffffffffffffffffffffffffffffffffff1673ffffffffffffffffffffffffffffffffffffffff16815260200190815260200160002060009054906101000a900460ff1660ff1603610605576040517f08c379a00000000000000000000000000000000000000000000000000000000081526004016105fc90611ca2565b60405180910390fd5b8160ff16600460008573ffffffffffffffffffffffffffffffffffffffff1673ffffffffffffffffffffffffffffffffffffffff16815260200190815260200160002060009054906101000a900460ff1660ff16101561069a576040517f08c379a000000000000000000000000000000000000000000000000000000000815260040161069190611d34565b60405180910390fd5b81600460008573ffffffffffffffffffffffffffffffffffffffff1673ffffffffffffffffffffffffffffffffffffffff16815260200190815260200160002060008282829054906101000a900460ff166106f59190611d83565b92506101000a81548160ff021916908360ff16021790555081600560008282829054906101000a900460ff1661072b9190611db8565b92506101000a81548160ff021916908360ff1602179055506000600460008573ffffffffffffffffffffffffffffffffffffffff1673ffffffffffffffffffffffffffffffffffffffff16815260200190815260200160002060009054906101000a900460ff1660ff16036107a4576107a383611424565b5b3073ffffffffffffffffffffffffffffffffffffffff168373ffffffffffffffffffffffffffffffffffffffff167fe5c90d1f4d58fd7bc5c546521e874b223125d83f37bf4b35ade1532e08a0fff5846040516108019190611960565b60405180910390a36001905092915050565b6006818154811061082357600080fd5b906000526020600020016000915054906101000a900473ffffffffffffffffffffffffffffffffffffffff1681565b6000600760009054906101000a900460ff166108a3576040517f08c379a000000000000000000000000000000000000000000000000000000000815260040161089a90611e85565b60405180910390fd5b6000600460003373ffffffffffffffffffffffffffffffffffffffff1673ffffffffffffffffffffffffffffffffffffffff16815260200190815260200160002060009054906101000a900460ff1660ff1603610935576040517f08c379a000000000000000000000000000000000000000000000000000000000815260040161092c90611f3d565b60405180910390fd5b60008211610978576040517f08c379a000000000000000000000000000000000000000000000000000000000815260040161096f90611fcf565b60405180910390fd5b81600960003373ffffffffffffffffffffffffffffffffffffffff1673ffffffffffffffffffffffffffffffffffffffff1681526020019081526020016000205410156109fa576040517f08c379a00000000000000000000000000000000000000000000000000000000081526004016109f19061203b565b60405180910390fd5b81600960003373ffffffffffffffffffffffffffffffffffffffff1673ffffffffffffffffffffffffffffffffffffffff1681526020019081526020016000206000828254610a49919061205b565b925050819055508160086000828254610a62919061205b565b9250508190555060019050919050565b6000600760009054906101000a900460ff16610ac3576040517f08c379a0000000000000000000000000000000000000000000000000000000008152600401610aba90611e85565b60405180910390fd5b6000633b9aca00600254610ad7919061208f565b905080341015610b1c576040517f08c379a0000000000000000000000000000000000000000000000000000000008152600401610b1390612143565b60405180910390fd5b60008134610b2a919061205b565b90503373ffffffffffffffffffffffffffffffffffffffff167f53f8fd6b05226233de7ac193299b5cb02358fe734840d24f2631a5a07643ced56001604051610b7391906118b3565b60405180910390a23373ffffffffffffffffffffffffffffffffffffffff166108fc829081150290604051600060405180830381858888f19350505050158015610bc1573d6000803e3d6000fd5b5060019250505090565b6000600360009054906101000a900473ffffffffffffffffffffffffffffffffffffffff1673ffffffffffffffffffffffffffffffffffffffff163373ffffffffffffffffffffffffffffffffffffffff1614610c5d576040517f08c379a0000000000000000000000000000000000000000000000000000000008152600401610c5490611b58565b60405180910390fd5b610c9c6040518060400160405280601781526020017f61737369676e5269676874732063616c6c65642062793a00000000000000000081525033611528565b610cdb6040518060400160405280600d81526020017f41737369676e696e6720746f3a0000000000000000000000000000000000000081525084611528565b610d1d6040518060400160405280600b81526020017f50657263656e746167653a0000000000000000000000000000000000000000008152508360ff166115c4565b3073ffffffffffffffffffffffffffffffffffffffff168373ffffffffffffffffffffffffffffffffffffffff167f03df476b3b37a3360a1b466487c0a06214a4e1d899e5c66a7ad379e503c2ea9e84604051610d7a9190611960565b60405180910390a3600760009054906101000a900460ff1615610dd2576040517f08c379a0000000000000000000000000000000000000000000000000000000008152600401610dc990611c10565b60405180910390fd5b60008260ff1611610e18576040517f08c379a0000000000000000000000000000000000000000000000000000000008152600401610e0f906121d5565b60405180910390fd5b600560009054906101000a900460ff1660ff168260ff161115610e70576040517f08c379a0000000000000000000000000000000000000000000000000000000008152600401610e679061228d565b60405180910390fd5b6000600460008573ffffffffffffffffffffffffffffffffffffffff1673ffffffffffffffffffffffffffffffffffffffff16815260200190815260200160002060009054906101000a900460ff1660ff1603610f2b576006839080600181540180825580915050600190039060005260206000200160009091909190916101000a81548173ffffffffffffffffffffffffffffffffffffffff021916908373ffffffffffffffffffffffffffffffffffffffff1602179055505b81600460008573ffffffffffffffffffffffffffffffffffffffff1673ffffffffffffffffffffffffffffffffffffffff16815260200190815260200160002060008282829054906101000a900460ff16610f869190611db8565b92506101000a81548160ff021916908360ff16021790555081600560008282829054906101000a900460ff16610fbc9190611d83565b92506101000a81548160ff021916908360ff1602179055503073ffffffffffffffffffffffffffffffffffffffff168373ffffffffffffffffffffffffffffffffffffffff167f03df476b3b37a3360a1b466487c0a06214a4e1d899e5c66a7ad379e503c2ea9e846040516110319190611960565b60405180910390a36001905092915050565b600360009054906101000a900473ffffffffffffffffffffffffffffffffffffffff1681565b6000600760009054906101000a900460ff166110ba576040517f08c379a00000000000000000000000000000000000000000000000000000000081526004016110b190611e85565b60405180910390fd5b6000633b9aca006001546110ce919061208f565b905080341015611113576040517f08c379a000000000000000000000000000000000000000000000000000000000815260040161110a9061231f565b60405180910390fd5b60008134611121919061205b565b90503373ffffffffffffffffffffffffffffffffffffffff167f4429633ab0a9f77b1bc61e2ed0e484b81b41823661c29dd1ba47c1b06882459d600160405161116a91906118b3565b60405180910390a23373ffffffffffffffffffffffffffffffffffffffff166108fc829081150290604051600060405180830381858888f193505050501580156111b8573d6000803e3d6000fd5b5060019250505090565b60025481565b6000600360009054906101000a900473ffffffffffffffffffffffffffffffffffffffff1673ffffffffffffffffffffffffffffffffffffffff163373ffffffffffffffffffffffffffffffffffffffff161461125a576040517f08c379a000000000000000000000000000000000000000000000000000000000815260040161125190611b58565b60405180910390fd5b6000600560009054906101000a900460ff1660ff16146112af576040517f08c379a00000000000000000000000000000000000000000000000000000000081526004016112a6906123d7565b60405180910390fd5b6001600760006101000a81548160ff0219169083151502179055503073ffffffffffffffffffffffffffffffffffffffff167f2bd58c1c32e360804cf66bb5628995e5689d64524f0203fdd547f47e1e4e6d71600160405161131191906118b3565b60405180910390a26001905090565b60046020528060005260406000206000915054906101000a900460ff1681565b606060068054806020026020016040519081016040528092919081815260200182805480156113c457602002820191906000526020600020905b8160009054906101000a900473ffffffffffffffffffffffffffffffffffffffff1673ffffffffffffffffffffffffffffffffffffffff168152602001906001019080831161137a575b5050505050905090565b60085481565b600760009054906101000a900460ff1681565b60015481565b600560009054906101000a900460ff1681565b60008054906101000a900473ffffffffffffffffffffffffffffffffffffffff1681565b600061142f82611660565b905060066001600680549050611445919061205b565b81548110611456576114556123f7565b5b9060005260206000200160009054906101000a900473ffffffffffffffffffffffffffffffffffffffff1660068281548110611495576114946123f7565b5b9060005260206000200160006101000a81548173ffffffffffffffffffffffffffffffffffffffff021916908373ffffffffffffffffffffffffffffffffffffffff16021790555060068054806114ef576114ee612426565b5b6001900381819060005260206000200160006101000a81549073ffffffffffffffffffffffffffffffffffffffff021916905590555050565b6115c0828260405160240161153e9291906124d4565b6040516020818303038152906040527f319af333000000000000000000000000000000000000000000000000000000007bffffffffffffffffffffffffffffffffffffffffffffffffffffffff19166020820180517bffffffffffffffffffffffffffffffffffffffffffffffffffffffff838183161783525050505061170b565b5050565b61165c82826040516024016115da929190612504565b6040516020818303038152906040527fb60e72cc000000000000000000000000000000000000000000000000000000007bffffffffffffffffffffffffffffffffffffffffffffffffffffffff19166020820180517bffffffffffffffffffffffffffffffffffffffffffffffffffffffff838183161783525050505061170b565b5050565b600080600090505b6006805490508110156116fc578273ffffffffffffffffffffffffffffffffffffffff16600682815481106116a05761169f6123f7565b5b9060005260206000200160009054906101000a900473ffffffffffffffffffffffffffffffffffffffff1673ffffffffffffffffffffffffffffffffffffffff16036116ef5780915050611706565b8080600101915050611668565b5060068054905090505b919050565b6117228161171a611725611746565b63ffffffff16565b50565b60006a636f6e736f6c652e6c6f679050600080835160208501845afa505050565b611751819050919050565b611759612534565b565b6000819050919050565b61176e8161175b565b82525050565b60006020820190506117896000830184611765565b92915050565b600080fd5b600073ffffffffffffffffffffffffffffffffffffffff82169050919050565b60006117bf82611794565b9050919050565b6117cf816117b4565b81146117da57600080fd5b50565b6000813590506117ec816117c6565b92915050565b6000602082840312156118085761180761178f565b5b6000611816848285016117dd565b91505092915050565b600060ff82169050919050565b6118358161181f565b811461184057600080fd5b50565b6000813590506118528161182c565b92915050565b6000806040838503121561186f5761186e61178f565b5b600061187d858286016117dd565b925050602061188e85828601611843565b9150509250929050565b60008115159050919050565b6118ad81611898565b82525050565b60006020820190506118c860008301846118a4565b92915050565b6118d78161175b565b81146118e257600080fd5b50565b6000813590506118f4816118ce565b92915050565b6000602082840312156119105761190f61178f565b5b600061191e848285016118e5565b91505092915050565b611930816117b4565b82525050565b600060208201905061194b6000830184611927565b92915050565b61195a8161181f565b82525050565b60006020820190506119756000830184611951565b92915050565b600081519050919050565b600082825260208201905092915050565b6000819050602082019050919050565b6119b0816117b4565b82525050565b60006119c283836119a7565b60208301905092915050565b6000602082019050919050565b60006119e68261197b565b6119f08185611986565b93506119fb83611997565b8060005b83811015611a2c578151611a1388826119b6565b9750611a1e836119ce565b9250506001810190506119ff565b5085935050505092915050565b60006020820190508181036000830152611a5381846119db565b905092915050565b6000819050919050565b6000611a80611a7b611a7684611794565b611a5b565b611794565b9050919050565b6000611a9282611a65565b9050919050565b6000611aa482611a87565b9050919050565b611ab481611a99565b82525050565b6000602082019050611acf6000830184611aab565b92915050565b600082825260208201905092915050565b7f546869732066756e6374696f6e2063616e206f6e6c792062652063616c6c656460008201527f20627920746865206f776e657220616464726573730000000000000000000000602082015250565b6000611b42603583611ad5565b9150611b4d82611ae6565b604082019050919050565b60006020820190508181036000830152611b7181611b35565b9050919050565b7f54686520636f6e747261637420697320616c7265616479207365616c65642c2060008201527f6e6f206d6f64696669636174696f6e206f66207269676874732063616e20626560208201527f206d616465000000000000000000000000000000000000000000000000000000604082015250565b6000611bfa604583611ad5565b9150611c0582611b78565b606082019050919050565b60006020820190508181036000830152611c2981611bed565b9050919050565b7f4e6f207269676874732068617665206265656e20646566696e656420666f722060008201527f7468697320616464726573730000000000000000000000000000000000000000602082015250565b6000611c8c602c83611ad5565b9150611c9782611c30565b604082019050919050565b60006020820190508181036000830152611cbb81611c7f565b9050919050565b7f4974206973206e6f7420706f737369626c6520746f2072656d6f7665206d6f7260008201527f6520726967687473207468616e20746869732061646472657373206861730000602082015250565b6000611d1e603e83611ad5565b9150611d2982611cc2565b604082019050919050565b60006020820190508181036000830152611d4d81611d11565b9050919050565b7f4e487b7100000000000000000000000000000000000000000000000000000000600052601160045260246000fd5b6000611d8e8261181f565b9150611d998361181f565b9250828203905060ff811115611db257611db1611d54565b5b92915050565b6000611dc38261181f565b9150611dce8361181f565b9250828201905060ff811115611de757611de6611d54565b5b92915050565b7f54686520636f6e7472616374206973206e6f74207365616c65642e205468697360008201527f207472616e73616374696f6e2063616e206f6e6c7920626520646f6e6520776960208201527f74682061207365616c656420636f6e7472616374000000000000000000000000604082015250565b6000611e6f605483611ad5565b9150611e7a82611ded565b606082019050919050565b60006020820190508181036000830152611e9e81611e62565b9050919050565b7f546869732066756e6374696f6e2063616e6e6f742062652063616c6c6564206260008201527f7920616e796f6e652077686f20646f6573206e6f74206861766520726967687460208201527f7320746f2074686520736f6e6700000000000000000000000000000000000000604082015250565b6000611f27604d83611ad5565b9150611f3282611ea5565b606082019050919050565b60006020820190508181036000830152611f5681611f1a565b9050919050565b7f4e756d626572206f6620746f6b656e7320666f7220726571756573746564207460008201527f72616e73666572206d7573742062652067726561746572207468616e20300000602082015250565b6000611fb9603e83611ad5565b9150611fc482611f5d565b604082019050919050565b60006020820190508181036000830152611fe881611fac565b9050919050565b7f4e756d626572206f6620746f6b656e7320756e617661696c61626c6500000000600082015250565b6000612025601c83611ad5565b915061203082611fef565b602082019050919050565b6000602082019050818103600083015261205481612018565b9050919050565b60006120668261175b565b91506120718361175b565b925082820390508181111561208957612088611d54565b5b92915050565b600061209a8261175b565b91506120a58361175b565b92508282026120b38161175b565b915082820484148315176120ca576120c9611d54565b5b5092915050565b7f696e73756666696369656e742076616c756520746f206c697374656e2074686560008201527f206d757369632072696768747300000000000000000000000000000000000000602082015250565b600061212d602d83611ad5565b9150612138826120d1565b604082019050919050565b6000602082019050818103600083015261215c81612120565b9050919050565b7f50657263656e74616765206f6620726967687473206d7573742062652067726560008201527f61746572207468616e2030000000000000000000000000000000000000000000602082015250565b60006121bf602b83611ad5565b91506121ca82612163565b604082019050919050565b600060208201905081810360008301526121ee816121b2565b9050919050565b7f70657263656e74616765206f6620656e7469746c656d656e74732072656d616960008201527f6e696e67206973206c657373207468616e20746865207265717565737465642060208201527f616d6f756e740000000000000000000000000000000000000000000000000000604082015250565b6000612277604683611ad5565b9150612282826121f5565b606082019050919050565b600060208201905081810360008301526122a68161226a565b9050919050565b7f696e73756666696369656e742076616c756520746f207075726368617365207460008201527f6865206d75736963207269676874730000000000000000000000000000000000602082015250565b6000612309602f83611ad5565b9150612314826122ad565b604082019050919050565b60006020820190508181036000830152612338816122fc565b9050919050565b7f5468652072656d61696e696e67206469766973696f6e73206f6620726967687460008201527f73206d757374206265203020746f207365616c207468697320636f6e7472616360208201527f7400000000000000000000000000000000000000000000000000000000000000604082015250565b60006123c1604183611ad5565b91506123cc8261233f565b606082019050919050565b600060208201905081810360008301526123f0816123b4565b9050919050565b7f4e487b7100000000000000000000000000000000000000000000000000000000600052603260045260246000fd5b7f4e487b7100000000000000000000000000000000000000000000000000000000600052603160045260246000fd5b600081519050919050565b60005b8381101561247e578082015181840152602081019050612463565b60008484015250505050565b6000601f19601f8301169050919050565b60006124a682612455565b6124b08185611ad5565b93506124c0818560208601612460565b6124c98161248a565b840191505092915050565b600060408201905081810360008301526124ee818561249b565b90506124fd6020830184611927565b9392505050565b6000604082019050818103600083015261251e818561249b565b905061252d6020830184611765565b9392505050565b7f4e487b7100000000000000000000000000000000000000000000000000000000600052605160045260246000fdfea264697066735822122085dccfe9c13c8567c66e219e8bf6e13d8c1865a5f03523469dc6edf091d7836e64736f6c634300081c0033",
  "linkReferences": {},
  "deployedLinkReferences": {}
}