{
  "_format": "hh-sol-artifact-1",
  "contractName": "MusicContract",
  "sourceName": "contracts/MusicContract.sol",
  "abi": [
    {
      "inputs": [
        {
          "internalType": "contract OysterToken",
          "name": "_oysterTokenContract",
          "type": "address"
        },
        {
          "internalType": "address",
          "name": "_owner",
          "type": "address"
        },
        {
          "internalType": "uint256",
          "name": "_rightPurchaseValue",
          "type": "uint256"
        },
        {
          "internalType": "uint256",
          "name": "_valueForListening",
          "type": "uint256"
        }
      ],
      "stateMutability": "nonpayable",
      "type": "constructor"
    },
    {
      "anonymous": false,
      "inputs": [
        {
          "indexed": true,
          "internalType": "address",
          "name": "addressRight",
          "type": "address"
        },
        {
          "indexed": true,
          "internalType": "address",
          "name": "addressThisMusicContract",
          "type": "address"
        },
        {
          "indexed": false,
          "internalType": "uint8",
          "name": "percentageOfRights",
          "type": "uint8"
        }
      ],
      "name": "assignedRight",
      "type": "event"
    },
    {
      "anonymous": false,
      "inputs": [
        {
          "indexed": true,
          "internalType": "address",
          "name": "hearAddress",
          "type": "address"
        },
        {
          "indexed": false,
          "internalType": "bool",
          "name": "confirm",
          "type": "bool"
        }
      ],
      "name": "musicHeard",
      "type": "event"
    },
    {
      "anonymous": false,
      "inputs": [
        {
          "indexed": true,
          "internalType": "address",
          "name": "addressThisMusicContract",
          "type": "address"
        },
        {
          "indexed": false,
          "internalType": "bool",
          "name": "musicContactIsSealed",
          "type": "bool"
        }
      ],
      "name": "musicWithSealedRights",
      "type": "event"
    },
    {
      "anonymous": false,
      "inputs": [
        {
          "indexed": true,
          "internalType": "address",
          "name": "purchaseAddress",
          "type": "address"
        },
        {
          "indexed": false,
          "internalType": "bool",
          "name": "activated",
          "type": "bool"
        }
      ],
      "name": "purchaseMade",
      "type": "event"
    },
    {
      "anonymous": false,
      "inputs": [
        {
          "indexed": true,
          "internalType": "address",
          "name": "addressHolderToken",
          "type": "address"
        },
        {
          "indexed": false,
          "internalType": "uint256",
          "name": "amountToken",
          "type": "uint256"
        }
      ],
      "name": "tokenAssigned",
      "type": "event"
    },
    {
      "anonymous": false,
      "inputs": [
        {
          "indexed": true,
          "internalType": "address",
          "name": "addressRight",
          "type": "address"
        },
        {
          "indexed": true,
          "internalType": "address",
          "name": "addressThisMusicContract",
          "type": "address"
        },
        {
          "indexed": false,
          "internalType": "uint8",
          "name": "percentageOfRights",
          "type": "uint8"
        }
      ],
      "name": "withdrawalRight",
      "type": "event"
    },
    {
      "inputs": [
        {
          "internalType": "uint256",
          "name": "amount",
          "type": "uint256"
        }
      ],
      "name": "approveOysterVault",
      "outputs": [
        {
          "internalType": "bool",
          "name": "",
          "type": "bool"
        }
      ],
      "stateMutability": "nonpayable",
      "type": "function"
    },
    {
      "inputs": [
        {
          "internalType": "address",
          "name": "addressRight",
          "type": "address"
        },
        {
          "internalType": "uint8",
          "name": "percentageOfRights",
          "type": "uint8"
        }
      ],
      "name": "assignRights",
      "outputs": [
        {
          "internalType": "bool",
          "name": "",
          "type": "bool"
        }
      ],
      "stateMutability": "nonpayable",
      "type": "function"
    },
    {
      "inputs": [],
      "name": "balanceTokens",
      "outputs": [
        {
          "internalType": "uint256",
          "name": "",
          "type": "uint256"
        }
      ],
      "stateMutability": "view",
      "type": "function"
    },
    {
      "inputs": [],
      "name": "buy100OysterToken",
      "outputs": [
        {
          "internalType": "bool",
          "name": "",
          "type": "bool"
        }
      ],
      "stateMutability": "payable",
      "type": "function"
    },
    {
      "inputs": [],
      "name": "buyRightsMusic",
      "outputs": [
        {
          "internalType": "bool",
          "name": "",
          "type": "bool"
        }
      ],
      "stateMutability": "payable",
      "type": "function"
    },
    {
      "inputs": [
        {
          "internalType": "address",
          "name": "",
          "type": "address"
        }
      ],
      "name": "divisionOfRights",
      "outputs": [
        {
          "internalType": "uint8",
          "name": "",
          "type": "uint8"
        }
      ],
      "stateMutability": "view",
      "type": "function"
    },
    {
      "inputs": [],
      "name": "getRightHolders",
      "outputs": [
        {
          "internalType": "address[]",
          "name": "",
          "type": "address[]"
        }
      ],
      "stateMutability": "view",
      "type": "function"
    },
    {
      "inputs": [],
      "name": "listenMusic",
      "outputs": [
        {
          "internalType": "bool",
          "name": "",
          "type": "bool"
        }
      ],
      "stateMutability": "payable",
      "type": "function"
    },
    {
      "inputs": [],
      "name": "musicContactIsSealed",
      "outputs": [
        {
          "internalType": "bool",
          "name": "",
          "type": "bool"
        }
      ],
      "stateMutability": "view",
      "type": "function"
    },
    {
      "inputs": [],
      "name": "owner",
      "outputs": [
        {
          "internalType": "address",
          "name": "",
          "type": "address"
        }
      ],
      "stateMutability": "view",
      "type": "function"
    },
    {
      "inputs": [],
      "name": "oysterToken",
      "outputs": [
        {
          "internalType": "contract OysterToken",
          "name": "",
          "type": "address"
        }
      ],
      "stateMutability": "view",
      "type": "function"
    },
    {
      "inputs": [],
      "name": "remainingRightsDivision",
      "outputs": [
        {
          "internalType": "uint8",
          "name": "",
          "type": "uint8"
        }
      ],
      "stateMutability": "view",
      "type": "function"
    },
    {
      "inputs": [
        {
          "internalType": "uint256",
          "name": "",
          "type": "uint256"
        }
      ],
      "name": "rightHolders",
      "outputs": [
        {
          "internalType": "address",
          "name": "",
          "type": "address"
        }
      ],
      "stateMutability": "view",
      "type": "function"
    },
    {
      "inputs": [],
      "name": "rightPurchaseValueInGwei",
      "outputs": [
        {
          "internalType": "uint256",
          "name": "",
          "type": "uint256"
        }
      ],
      "stateMutability": "view",
      "type": "function"
    },
    {
      "inputs": [],
      "name": "sealRights",
      "outputs": [
        {
          "internalType": "bool",
          "name": "",
          "type": "bool"
        }
      ],
      "stateMutability": "nonpayable",
      "type": "function"
    },
    {
      "inputs": [
        {
          "internalType": "uint256",
          "name": "amount",
          "type": "uint256"
        }
      ],
      "name": "sellOysterToken",
      "outputs": [
        {
          "internalType": "bool",
          "name": "",
          "type": "bool"
        }
      ],
      "stateMutability": "nonpayable",
      "type": "function"
    },
    {
      "inputs": [
        {
          "internalType": "address",
          "name": "",
          "type": "address"
        }
      ],
      "name": "tokensPerAddress",
      "outputs": [
        {
          "internalType": "uint256",
          "name": "",
          "type": "uint256"
        }
      ],
      "stateMutability": "view",
      "type": "function"
    },
    {
      "inputs": [],
      "name": "valueForListeningInGwei",
      "outputs": [
        {
          "internalType": "uint256",
          "name": "",
          "type": "uint256"
        }
      ],
      "stateMutability": "view",
      "type": "function"
    },
    {
      "inputs": [],
      "name": "viewBalance",
      "outputs": [
        {
          "internalType": "uint256",
          "name": "",
          "type": "uint256"
        }
      ],
      "stateMutability": "view",
      "type": "function"
    },
    {
      "inputs": [
        {
          "internalType": "address",
          "name": "addressRight",
          "type": "address"
        },
        {
          "internalType": "uint8",
          "name": "percentageOfRights",
          "type": "uint8"
        }
      ],
      "name": "withdrawRights",
      "outputs": [
        {
          "internalType": "bool",
          "name": "",
          "type": "bool"
        }
      ],
      "stateMutability": "nonpayable",
      "type": "function"
    },
    {
      "stateMutability": "payable",
      "type": "receive"
    }
  ],
  "bytecode": "0x6080604052348015600f57600080fd5b5060405161183f38038061183f833981016040819052602c916089565b6005805460ff19166064179055600080546001600160a01b039586166001600160a01b0319918216179091556001929092556002556003805492909316911617905560cc565b6001600160a01b0381168114608657600080fd5b50565b60008060008060808587031215609e57600080fd5b845160a7816072565b602086015190945060b6816072565b6040860151606090960151949790965092505050565b611764806100db6000396000f3fe6080604052600436106101235760003560e01c806398208484116100a0578063ebc1945b11610064578063ebc1945b14610303578063eff134311461031d578063f06519a614610333578063f717352614610353578063fd994c161461036d57600080fd5b8063982084841461026c578063b145fcd414610281578063bee4f73314610289578063cd8e64c6146102cb578063e4494a0f146102ed57600080fd5b80636ba5d079116100e75780636ba5d07914610206578063768662221461020e5780638da5cb5b1461022e5780638e6b3ac41461024e5780639650f2891461025657600080fd5b80633ff1e05b1461012f578063425432b1146101515780634b946cc91461017e5780635d0fab84146101ae5780635e1b6191146101e657600080fd5b3661012a57005b600080fd5b34801561013b57600080fd5b50475b6040519081526020015b60405180910390f35b34801561015d57600080fd5b5061013e61016c3660046113a7565b60096020526000908152604090205481565b34801561018a57600080fd5b5061019e6101993660046113cb565b61038d565b6040519015158152602001610148565b3480156101ba57600080fd5b506101ce6101c936600461140a565b6105ef565b6040516001600160a01b039091168152602001610148565b3480156101f257600080fd5b5061019e61020136600461140a565b610619565b61019e610789565b34801561021a57600080fd5b5061019e6102293660046113cb565b6108a7565b34801561023a57600080fd5b506003546101ce906001600160a01b031681565b61019e610b1f565b34801561026257600080fd5b5061013e60025481565b34801561027857600080fd5b5061019e610c04565b61019e610cff565b34801561029557600080fd5b506102b96102a43660046113a7565b60046020526000908152604090205460ff1681565b60405160ff9091168152602001610148565b3480156102d757600080fd5b506102e0610e0a565b6040516101489190611423565b3480156102f957600080fd5b5061013e60085481565b34801561030f57600080fd5b5060075461019e9060ff1681565b34801561032957600080fd5b5061013e60015481565b34801561033f57600080fd5b5061019e61034e36600461140a565b610e6c565b34801561035f57600080fd5b506005546102b99060ff1681565b34801561037957600080fd5b506000546101ce906001600160a01b031681565b6003546000906001600160a01b031633146103c35760405162461bcd60e51b81526004016103ba9061146f565b60405180910390fd5b60075460ff16156103e65760405162461bcd60e51b81526004016103ba906114c4565b6001600160a01b03831660009081526004602052604081205460ff1690036104655760405162461bcd60e51b815260206004820152602c60248201527f4e6f207269676874732068617665206265656e20646566696e656420666f722060448201526b74686973206164647265737360a01b60648201526084016103ba565b6001600160a01b03831660009081526004602052604090205460ff808416911610156104f95760405162461bcd60e51b815260206004820152603e60248201527f4974206973206e6f7420706f737369626c6520746f2072656d6f7665206d6f7260448201527f6520726967687473207468616e2074686973206164647265737320686173000060648201526084016103ba565b6001600160a01b0383166000908152600460205260408120805484929061052490849060ff16611545565b92506101000a81548160ff021916908360ff16021790555081600560008282829054906101000a900460ff1661055a919061155e565b82546101009290920a60ff8181021990931691831602179091556001600160a01b038516600090815260046020526040812054909116900390506105a1576105a183610fb2565b60405160ff8316815230906001600160a01b038516907fe5c90d1f4d58fd7bc5c546521e874b223125d83f37bf4b35ade1532e08a0fff5906020015b60405180910390a35060015b92915050565b600681815481106105ff57600080fd5b6000918252602090912001546001600160a01b0316905081565b60075460009060ff1661063e5760405162461bcd60e51b81526004016103ba90611577565b3360009081526004602052604081205460ff16900361066f5760405162461bcd60e51b81526004016103ba906115f1565b600082116106e55760405162461bcd60e51b815260206004820152603e60248201527f4e756d626572206f6620746f6b656e7320666f7220726571756573746564207460448201527f72616e73666572206d7573742062652067726561746572207468616e2030000060648201526084016103ba565b336000908152600960205260409020548211156107445760405162461bcd60e51b815260206004820152601c60248201527f4e756d626572206f6620746f6b656e7320756e617661696c61626c650000000060448201526064016103ba565b3360009081526009602052604081208054849290610763908490611664565b92505081905550816008600082825461077c9190611664565b9091555060019392505050565b60075460009060ff166107ae5760405162461bcd60e51b81526004016103ba90611577565b6000600254633b9aca006107c29190611677565b90508034101561082a5760405162461bcd60e51b815260206004820152602d60248201527f696e73756666696369656e742076616c756520746f206c697374656e2074686560448201526c206d757369632072696768747360981b60648201526084016103ba565b60006108368234611664565b6040516001815290915033907f53f8fd6b05226233de7ac193299b5cb02358fe734840d24f2631a5a07643ced5906020015b60405180910390a2604051339082156108fc029083906000818181858888f1935050505015801561089d573d6000803e3d6000fd5b5060019250505090565b6003546000906001600160a01b031633146108d45760405162461bcd60e51b81526004016103ba9061146f565b60075460ff16156108f75760405162461bcd60e51b81526004016103ba906114c4565b60008260ff161161095e5760405162461bcd60e51b815260206004820152602b60248201527f50657263656e74616765206f6620726967687473206d7573742062652067726560448201526a061746572207468616e20360ac1b60648201526084016103ba565b60055460ff90811690831611156109ec5760405162461bcd60e51b815260206004820152604660248201527f70657263656e74616765206f6620656e7469746c656d656e74732072656d616960448201527f6e696e67206973206c657373207468616e207468652072657175657374656420606482015265185b5bdd5b9d60d21b608482015260a4016103ba565b6001600160a01b03831660009081526004602052604081205460ff169003610a5a57600680546001810182556000919091527ff652222313e28459528d920b65115c16c04f3efc82aaedc97be59f3f377c0d3f0180546001600160a01b0319166001600160a01b0385161790555b6001600160a01b03831660009081526004602052604081208054849290610a8590849060ff1661155e565b92506101000a81548160ff021916908360ff16021790555081600560008282829054906101000a900460ff16610abb9190611545565b92506101000a81548160ff021916908360ff160217905550306001600160a01b0316836001600160a01b03167f03df476b3b37a3360a1b466487c0a06214a4e1d899e5c66a7ad379e503c2ea9e846040516105dd919060ff91909116815260200190565b60075460009060ff16610b445760405162461bcd60e51b81526004016103ba90611577565b6000600154633b9aca00610b589190611677565b905080341015610bc25760405162461bcd60e51b815260206004820152602f60248201527f696e73756666696369656e742076616c756520746f207075726368617365207460448201526e6865206d757369632072696768747360881b60648201526084016103ba565b6000610bce8234611664565b6040516001815290915033907f4429633ab0a9f77b1bc61e2ed0e484b81b41823661c29dd1ba47c1b06882459d90602001610868565b6003546000906001600160a01b03163314610c315760405162461bcd60e51b81526004016103ba9061146f565b60055460ff1615610cb45760405162461bcd60e51b815260206004820152604160248201527f5468652072656d61696e696e67206469766973696f6e73206f6620726967687460448201527f73206d757374206265203020746f207365616c207468697320636f6e747261636064820152601d60fa1b608482015260a4016103ba565b6007805460ff1916600190811790915560405190815230907f2bd58c1c32e360804cf66bb5628995e5689d64524f0203fdd547f47e1e4e6d719060200160405180910390a250600190565b60075460009060ff16610d245760405162461bcd60e51b81526004016103ba90611577565b3360009081526004602052604081205460ff169003610d555760405162461bcd60e51b81526004016103ba906115f1565b6612d452694f4000471015610de15760405162461bcd60e51b815260206004820152604660248201527f496e73756666696369656e742045746865722073656e7420746f20627579207460448201527f6f6b656e732e204d7573742068617665206174206c6561737420302e303035336064820152651022ba3432b960d11b608482015260a4016103ba565b606460086000828254610df4919061168e565b90915550610e029050611072565b506001905090565b60606006805480602002602001604051908101604052809291908181526020018280548015610e6257602002820191906000526020600020905b81546001600160a01b03168152600190910190602001808311610e44575b5050505050905090565b60075460009060ff16610e915760405162461bcd60e51b81526004016103ba90611577565b3360009081526004602052604081205460ff169003610ec25760405162461bcd60e51b81526004016103ba906115f1565b6000546040805163fbfa77cf60e01b815290516001600160a01b039092169163095ea7b391839163fbfa77cf916004808201926020929091908290030181865afa158015610f14573d6000803e3d6000fd5b505050506040513d601f19601f82011682018060405250810190610f3891906116a1565b6040516001600160e01b031960e084901b1681526001600160a01b039091166004820152602481018590526044016020604051808303816000875af1158015610f85573d6000803e3d6000fd5b505050506040513d601f19601f82011682018060405250810190610fa991906116be565b50600192915050565b6000610fbd82611332565b6006805491925090610fd190600190611664565b81548110610fe157610fe16116e0565b600091825260209091200154600680546001600160a01b03909216918390811061100d5761100d6116e0565b9060005260206000200160006101000a8154816001600160a01b0302191690836001600160a01b03160217905550600680548061104c5761104c6116f6565b600082815260209020810160001990810180546001600160a01b03191690550190555050565b6000805b6006548110156113265760646004600060068481548110611099576110996116e0565b60009182526020808320909101546001600160a01b031683528201929092526040019020546008546110ce9160ff1690611677565b6110d8919061170c565b60096000600684815481106110ef576110ef6116e0565b60009182526020808320909101546001600160a01b031683528201929092526040018120805490919061112390849061168e565b9091555050600680548290811061113c5761113c6116e0565b6000918252602082200154600680546001600160a01b03909216927f0f18c582fb18bab8a0efe761e8fdd548eaef7b331b99e27696a6381ed38c451e926064926004929187908110611190576111906116e0565b60009182526020808320909101546001600160a01b031683528201929092526040019020546008546111c59160ff1690611677565b6111cf919061170c565b60405190815260200160405180910390a26000546040805163fbfa77cf60e01b815290516001600160a01b039092169163095ea7b391839163fbfa77cf916004808201926020929091908290030181865afa158015611232573d6000803e3d6000fd5b505050506040513d601f19601f8201168201806040525081019061125691906116a1565b6064600460006006878154811061126f5761126f6116e0565b60009182526020808320909101546001600160a01b031683528201929092526040019020546008546112a49160ff1690611677565b6112ae919061170c565b6040516001600160e01b031960e085901b1681526001600160a01b03909216600483015260248201526044016020604051808303816000875af11580156112f9573d6000803e3d6000fd5b505050506040513d601f19601f8201168201806040525081019061131d91906116be565b50600101611076565b50506000600855600190565b6000805b60065481101561138557826001600160a01b03166006828154811061135d5761135d6116e0565b6000918252602090912001546001600160a01b03160361137d5792915050565b600101611336565b5050600654919050565b6001600160a01b03811681146113a457600080fd5b50565b6000602082840312156113b957600080fd5b81356113c48161138f565b9392505050565b600080604083850312156113de57600080fd5b82356113e98161138f565b9150602083013560ff811681146113ff57600080fd5b809150509250929050565b60006020828403121561141c57600080fd5b5035919050565b602080825282518282018190526000918401906040840190835b818110156114645783516001600160a01b031683526020938401939092019160010161143d565b509095945050505050565b60208082526035908201527f546869732066756e6374696f6e2063616e206f6e6c792062652063616c6c656460408201527420627920746865206f776e6572206164647265737360581b606082015260800190565b60208082526045908201527f54686520636f6e747261637420697320616c7265616479207365616c65642c2060408201527f6e6f206d6f64696669636174696f6e206f66207269676874732063616e206265606082015264206d61646560d81b608082015260a00190565b634e487b7160e01b600052601160045260246000fd5b60ff82811682821603908111156105e9576105e961152f565b60ff81811683821601908111156105e9576105e961152f565b60208082526054908201527f54686520636f6e7472616374206973206e6f74207365616c65642e205468697360408201527f207472616e73616374696f6e2063616e206f6e6c7920626520646f6e652077696060820152731d1a0818481cd9585b19590818dbdb9d1c9858dd60621b608082015260a00190565b6020808252604d908201527f546869732066756e6374696f6e2063616e6e6f742062652063616c6c6564206260408201527f7920616e796f6e652077686f20646f6573206e6f74206861766520726967687460608201526c7320746f2074686520736f6e6760981b608082015260a00190565b818103818111156105e9576105e961152f565b80820281158282048414176105e9576105e961152f565b808201808211156105e9576105e961152f565b6000602082840312156116b357600080fd5b81516113c48161138f565b6000602082840312156116d057600080fd5b815180151581146113c457600080fd5b634e487b7160e01b600052603260045260246000fd5b634e487b7160e01b600052603160045260246000fd5b60008261172957634e487b7160e01b600052601260045260246000fd5b50049056fea26469706673582212204c42763f975d4220ed6f0f53b7dcaa59252d5b278f4c0fd12c253c55a87a6bc064736f6c634300081c0033",
  "linkReferences": {},
  "deployedLinkReferences": {}
}