{
  "_format": "hh-sol-artifact-1",
  "contractName": "MusicContract",
  "sourceName": "contracts/MusicContract.sol",
  "abi": [
    {
      "inputs": [
        {
          "internalType": "contract OysterToken",
          "name": "_oysterTokenContract",
          "type": "address"
        },
        {
          "internalType": "address",
          "name": "_owner",
          "type": "address"
        },
        {
          "internalType": "uint256",
          "name": "_rightPurchaseValue",
          "type": "uint256"
        },
        {
          "internalType": "uint256",
          "name": "_valueForListening",
          "type": "uint256"
        }
      ],
      "stateMutability": "nonpayable",
      "type": "constructor"
    },
    {
      "anonymous": false,
      "inputs": [
        {
          "indexed": true,
          "internalType": "address",
          "name": "addressRight",
          "type": "address"
        },
        {
          "indexed": true,
          "internalType": "address",
          "name": "addressThisMusicContract",
          "type": "address"
        },
        {
          "indexed": false,
          "internalType": "uint8",
          "name": "percentageOfRights",
          "type": "uint8"
        }
      ],
      "name": "assignedRight",
      "type": "event"
    },
    {
      "anonymous": false,
      "inputs": [
        {
          "indexed": true,
          "internalType": "address",
          "name": "hearAddress",
          "type": "address"
        },
        {
          "indexed": false,
          "internalType": "bool",
          "name": "confirm",
          "type": "bool"
        }
      ],
      "name": "musicHeard",
      "type": "event"
    },
    {
      "anonymous": false,
      "inputs": [
        {
          "indexed": true,
          "internalType": "address",
          "name": "addressThisMusicContract",
          "type": "address"
        },
        {
          "indexed": false,
          "internalType": "bool",
          "name": "musicContactIsSealed",
          "type": "bool"
        }
      ],
      "name": "musicWithSealedRights",
      "type": "event"
    },
    {
      "anonymous": false,
      "inputs": [
        {
          "indexed": true,
          "internalType": "address",
          "name": "purchaseAddress",
          "type": "address"
        },
        {
          "indexed": false,
          "internalType": "bool",
          "name": "activated",
          "type": "bool"
        }
      ],
      "name": "purchaseMade",
      "type": "event"
    },
    {
      "anonymous": false,
      "inputs": [
        {
          "indexed": true,
          "internalType": "address",
          "name": "addressHolderToken",
          "type": "address"
        },
        {
          "indexed": false,
          "internalType": "uint256",
          "name": "amountToken",
          "type": "uint256"
        }
      ],
      "name": "tokenAssigned",
      "type": "event"
    },
    {
      "anonymous": false,
      "inputs": [
        {
          "indexed": true,
          "internalType": "address",
          "name": "addressRight",
          "type": "address"
        },
        {
          "indexed": true,
          "internalType": "address",
          "name": "addressThisMusicContract",
          "type": "address"
        },
        {
          "indexed": false,
          "internalType": "uint8",
          "name": "percentageOfRights",
          "type": "uint8"
        }
      ],
      "name": "withdrawalRight",
      "type": "event"
    },
    {
      "inputs": [
        {
          "internalType": "uint256",
          "name": "amount",
          "type": "uint256"
        }
      ],
      "name": "approveOysterVault",
      "outputs": [
        {
          "internalType": "bool",
          "name": "",
          "type": "bool"
        }
      ],
      "stateMutability": "nonpayable",
      "type": "function"
    },
    {
      "inputs": [
        {
          "internalType": "address",
          "name": "addressRight",
          "type": "address"
        },
        {
          "internalType": "uint8",
          "name": "percentageOfRights",
          "type": "uint8"
        }
      ],
      "name": "assignRights",
      "outputs": [
        {
          "internalType": "bool",
          "name": "",
          "type": "bool"
        }
      ],
      "stateMutability": "nonpayable",
      "type": "function"
    },
    {
      "inputs": [],
      "name": "balanceTokens",
      "outputs": [
        {
          "internalType": "uint256",
          "name": "",
          "type": "uint256"
        }
      ],
      "stateMutability": "view",
      "type": "function"
    },
    {
      "inputs": [],
      "name": "buy100OysterToken",
      "outputs": [
        {
          "internalType": "bool",
          "name": "",
          "type": "bool"
        }
      ],
      "stateMutability": "nonpayable",
      "type": "function"
    },
    {
      "inputs": [],
      "name": "buyRightsMusic",
      "outputs": [
        {
          "internalType": "bool",
          "name": "",
          "type": "bool"
        }
      ],
      "stateMutability": "payable",
      "type": "function"
    },
    {
      "inputs": [
        {
          "internalType": "address",
          "name": "",
          "type": "address"
        }
      ],
      "name": "divisionOfRights",
      "outputs": [
        {
          "internalType": "uint8",
          "name": "",
          "type": "uint8"
        }
      ],
      "stateMutability": "view",
      "type": "function"
    },
    {
      "inputs": [],
      "name": "getRightHolders",
      "outputs": [
        {
          "internalType": "address[]",
          "name": "",
          "type": "address[]"
        }
      ],
      "stateMutability": "view",
      "type": "function"
    },
    {
      "inputs": [],
      "name": "listenMusic",
      "outputs": [
        {
          "internalType": "bool",
          "name": "",
          "type": "bool"
        }
      ],
      "stateMutability": "payable",
      "type": "function"
    },
    {
      "inputs": [],
      "name": "musicContactIsSealed",
      "outputs": [
        {
          "internalType": "bool",
          "name": "",
          "type": "bool"
        }
      ],
      "stateMutability": "view",
      "type": "function"
    },
    {
      "inputs": [],
      "name": "owner",
      "outputs": [
        {
          "internalType": "address",
          "name": "",
          "type": "address"
        }
      ],
      "stateMutability": "view",
      "type": "function"
    },
    {
      "inputs": [],
      "name": "oysterToken",
      "outputs": [
        {
          "internalType": "contract OysterToken",
          "name": "",
          "type": "address"
        }
      ],
      "stateMutability": "view",
      "type": "function"
    },
    {
      "inputs": [],
      "name": "remainingRightsDivision",
      "outputs": [
        {
          "internalType": "uint8",
          "name": "",
          "type": "uint8"
        }
      ],
      "stateMutability": "view",
      "type": "function"
    },
    {
      "inputs": [
        {
          "internalType": "uint256",
          "name": "",
          "type": "uint256"
        }
      ],
      "name": "rightHolders",
      "outputs": [
        {
          "internalType": "address",
          "name": "",
          "type": "address"
        }
      ],
      "stateMutability": "view",
      "type": "function"
    },
    {
      "inputs": [],
      "name": "rightPurchaseValueInGwei",
      "outputs": [
        {
          "internalType": "uint256",
          "name": "",
          "type": "uint256"
        }
      ],
      "stateMutability": "view",
      "type": "function"
    },
    {
      "inputs": [],
      "name": "sealRights",
      "outputs": [
        {
          "internalType": "bool",
          "name": "",
          "type": "bool"
        }
      ],
      "stateMutability": "nonpayable",
      "type": "function"
    },
    {
      "inputs": [
        {
          "internalType": "uint256",
          "name": "amount",
          "type": "uint256"
        }
      ],
      "name": "sellOysterToken",
      "outputs": [
        {
          "internalType": "bool",
          "name": "",
          "type": "bool"
        }
      ],
      "stateMutability": "nonpayable",
      "type": "function"
    },
    {
      "inputs": [
        {
          "internalType": "address",
          "name": "",
          "type": "address"
        }
      ],
      "name": "tokensPerAddress",
      "outputs": [
        {
          "internalType": "uint256",
          "name": "",
          "type": "uint256"
        }
      ],
      "stateMutability": "view",
      "type": "function"
    },
    {
      "inputs": [],
      "name": "valueForListeningInGwei",
      "outputs": [
        {
          "internalType": "uint256",
          "name": "",
          "type": "uint256"
        }
      ],
      "stateMutability": "view",
      "type": "function"
    },
    {
      "inputs": [],
      "name": "viewBalance",
      "outputs": [
        {
          "internalType": "uint256",
          "name": "",
          "type": "uint256"
        }
      ],
      "stateMutability": "view",
      "type": "function"
    },
    {
      "inputs": [
        {
          "internalType": "address",
          "name": "addressRight",
          "type": "address"
        },
        {
          "internalType": "uint8",
          "name": "percentageOfRights",
          "type": "uint8"
        }
      ],
      "name": "withdrawRights",
      "outputs": [
        {
          "internalType": "bool",
          "name": "",
          "type": "bool"
        }
      ],
      "stateMutability": "nonpayable",
      "type": "function"
    },
    {
      "stateMutability": "payable",
      "type": "receive"
    }
  ],
  "bytecode": "0x6080604052348015600f57600080fd5b506040516115c23803806115c2833981016040819052602c916089565b6005805460ff19166064179055600080546001600160a01b039586166001600160a01b0319918216179091556001929092556002556003805492909316911617905560cc565b6001600160a01b0381168114608657600080fd5b50565b60008060008060808587031215609e57600080fd5b845160a7816072565b602086015190945060b6816072565b6040860151606090960151949790965092505050565b6114e7806100db6000396000f3fe6080604052600436106101235760003560e01c806398208484116100a0578063ebc1945b11610064578063ebc1945b14610310578063eff134311461032a578063f06519a614610340578063f717352614610360578063fd994c161461037a57600080fd5b8063982084841461026c578063b145fcd414610281578063bee4f73314610296578063cd8e64c6146102d8578063e4494a0f146102fa57600080fd5b80636ba5d079116100e75780636ba5d07914610206578063768662221461020e5780638da5cb5b1461022e5780638e6b3ac41461024e5780639650f2891461025657600080fd5b80633ff1e05b1461012f578063425432b1146101515780634b946cc91461017e5780635d0fab84146101ae5780635e1b6191146101e657600080fd5b3661012a57005b600080fd5b34801561013b57600080fd5b50475b6040519081526020015b60405180910390f35b34801561015d57600080fd5b5061013e61016c36600461114c565b60096020526000908152604090205481565b34801561018a57600080fd5b5061019e610199366004611170565b61039a565b6040519015158152602001610148565b3480156101ba57600080fd5b506101ce6101c93660046111af565b6105fc565b6040516001600160a01b039091168152602001610148565b3480156101f257600080fd5b5061019e6102013660046111af565b610626565b61019e61080d565b34801561021a57600080fd5b5061019e610229366004611170565b61092a565b34801561023a57600080fd5b506003546101ce906001600160a01b031681565b61019e610ba2565b34801561026257600080fd5b5061013e60025481565b34801561027857600080fd5b5061019e610cf2565b34801561028d57600080fd5b5061019e610dee565b3480156102a257600080fd5b506102c66102b136600461114c565b60046020526000908152604090205460ff1681565b60405160ff9091168152602001610148565b3480156102e457600080fd5b506102ed610eb6565b60405161014891906111c8565b34801561030657600080fd5b5061013e60085481565b34801561031c57600080fd5b5060075461019e9060ff1681565b34801561033657600080fd5b5061013e60015481565b34801561034c57600080fd5b5061019e61035b3660046111af565b610f18565b34801561036c57600080fd5b506005546102c69060ff1681565b34801561038657600080fd5b506000546101ce906001600160a01b031681565b6003546000906001600160a01b031633146103d05760405162461bcd60e51b81526004016103c790611214565b60405180910390fd5b60075460ff16156103f35760405162461bcd60e51b81526004016103c790611269565b6001600160a01b03831660009081526004602052604081205460ff1690036104725760405162461bcd60e51b815260206004820152602c60248201527f4e6f207269676874732068617665206265656e20646566696e656420666f722060448201526b74686973206164647265737360a01b60648201526084016103c7565b6001600160a01b03831660009081526004602052604090205460ff808416911610156105065760405162461bcd60e51b815260206004820152603e60248201527f4974206973206e6f7420706f737369626c6520746f2072656d6f7665206d6f7260448201527f6520726967687473207468616e2074686973206164647265737320686173000060648201526084016103c7565b6001600160a01b0383166000908152600460205260408120805484929061053190849060ff166112ea565b92506101000a81548160ff021916908360ff16021790555081600560008282829054906101000a900460ff166105679190611303565b82546101009290920a60ff8181021990931691831602179091556001600160a01b038516600090815260046020526040812054909116900390506105ae576105ae83611017565b60405160ff8316815230906001600160a01b038516907fe5c90d1f4d58fd7bc5c546521e874b223125d83f37bf4b35ade1532e08a0fff5906020015b60405180910390a35060015b92915050565b6006818154811061060c57600080fd5b6000918252602090912001546001600160a01b0316905081565b60075460009060ff1661064b5760405162461bcd60e51b81526004016103c79061131c565b3360009081526004602052604081205460ff16900361067c5760405162461bcd60e51b81526004016103c790611396565b600082116106f25760405162461bcd60e51b815260206004820152603e60248201527f4e756d626572206f6620746f6b656e7320666f7220726571756573746564207460448201527f72616e73666572206d7573742062652067726561746572207468616e2030000060648201526084016103c7565b336000908152600960205260409020548211156107515760405162461bcd60e51b815260206004820152601c60248201527f4e756d626572206f6620746f6b656e7320756e617661696c61626c650000000060448201526064016103c7565b3360009081526009602052604081208054849290610770908490611409565b9250508190555081600860008282546107899190611409565b9091555050600054604051630a3871eb60e01b8152336004820152602481018490526001600160a01b0390911690630a3871eb906044015b6020604051808303816000875af11580156107e0573d6000803e3d6000fd5b505050506040513d601f19601f82011682018060405250810190610804919061141c565b50600192915050565b60075460009060ff166108325760405162461bcd60e51b81526004016103c79061131c565b6000600254633b9aca00610846919061143e565b9050803410156108ae5760405162461bcd60e51b815260206004820152602d60248201527f696e73756666696369656e742076616c756520746f206c697374656e2074686560448201526c206d757369632072696768747360981b60648201526084016103c7565b60006108ba8234611409565b6040516001815290915033907f53f8fd6b05226233de7ac193299b5cb02358fe734840d24f2631a5a07643ced59060200160405180910390a2604051339082156108fc029083906000818181858888f19350505050158015610920573d6000803e3d6000fd5b5060019250505090565b6003546000906001600160a01b031633146109575760405162461bcd60e51b81526004016103c790611214565b60075460ff161561097a5760405162461bcd60e51b81526004016103c790611269565b60008260ff16116109e15760405162461bcd60e51b815260206004820152602b60248201527f50657263656e74616765206f6620726967687473206d7573742062652067726560448201526a061746572207468616e20360ac1b60648201526084016103c7565b60055460ff9081169083161115610a6f5760405162461bcd60e51b815260206004820152604660248201527f70657263656e74616765206f6620656e7469746c656d656e74732072656d616960448201527f6e696e67206973206c657373207468616e207468652072657175657374656420606482015265185b5bdd5b9d60d21b608482015260a4016103c7565b6001600160a01b03831660009081526004602052604081205460ff169003610add57600680546001810182556000919091527ff652222313e28459528d920b65115c16c04f3efc82aaedc97be59f3f377c0d3f0180546001600160a01b0319166001600160a01b0385161790555b6001600160a01b03831660009081526004602052604081208054849290610b0890849060ff16611303565b92506101000a81548160ff021916908360ff16021790555081600560008282829054906101000a900460ff16610b3e91906112ea565b92506101000a81548160ff021916908360ff160217905550306001600160a01b0316836001600160a01b03167f03df476b3b37a3360a1b466487c0a06214a4e1d899e5c66a7ad379e503c2ea9e846040516105ea919060ff91909116815260200190565b60075460009060ff16610bc75760405162461bcd60e51b81526004016103c79061131c565b6000600154633b9aca00610bdb919061143e565b905080341015610c455760405162461bcd60e51b815260206004820152602f60248201527f696e73756666696369656e742076616c756520746f207075726368617365207460448201526e6865206d757369632072696768747360881b60648201526084016103c7565b6000610c518234611409565b6040516001815290915033907f4429633ab0a9f77b1bc61e2ed0e484b81b41823661c29dd1ba47c1b06882459d9060200160405180910390a26003546040516001600160a01b039091169083156108fc029084906000818181858888f19350505050158015610cc4573d6000803e3d6000fd5b50604051339082156108fc029083906000818181858888f19350505050158015610920573d6000803e3d6000fd5b6003546000906001600160a01b03163314610d1f5760405162461bcd60e51b81526004016103c790611214565b60055460ff1615610da25760405162461bcd60e51b815260206004820152604160248201527f5468652072656d61696e696e67206469766973696f6e73206f6620726967687460448201527f73206d757374206265203020746f207365616c207468697320636f6e747261636064820152601d60fa1b608482015260a4016103c7565b6007805460ff1916600190811790915560405190815230907f2bd58c1c32e360804cf66bb5628995e5689d64524f0203fdd547f47e1e4e6d71906020015b60405180910390a250600190565b60075460009060ff16610e135760405162461bcd60e51b81526004016103c79061131c565b3360009081526004602052604081205460ff169003610e445760405162461bcd60e51b81526004016103c790611396565b336000908152600960205260408120805460649290610e64908490611455565b92505081905550606460086000828254610e7e9190611455565b90915550506040516064815233907f0f18c582fb18bab8a0efe761e8fdd548eaef7b331b99e27696a6381ed38c451e90602001610de0565b60606006805480602002602001604051908101604052809291908181526020018280548015610f0e57602002820191906000526020600020905b81546001600160a01b03168152600190910190602001808311610ef0575b5050505050905090565b60075460009060ff16610f3d5760405162461bcd60e51b81526004016103c79061131c565b3360009081526004602052604081205460ff169003610f6e5760405162461bcd60e51b81526004016103c790611396565b6000546040805163fbfa77cf60e01b815290516001600160a01b039092169163095ea7b391839163fbfa77cf916004808201926020929091908290030181865afa158015610fc0573d6000803e3d6000fd5b505050506040513d601f19601f82011682018060405250810190610fe49190611468565b6040516001600160e01b031960e084901b1681526001600160a01b039091166004820152602481018590526044016107c1565b6000611022826110d7565b600680549192509061103690600190611409565b8154811061104657611046611485565b600091825260209091200154600680546001600160a01b03909216918390811061107257611072611485565b9060005260206000200160006101000a8154816001600160a01b0302191690836001600160a01b0316021790555060068054806110b1576110b161149b565b600082815260209020810160001990810180546001600160a01b03191690550190555050565b6000805b60065481101561112a57826001600160a01b03166006828154811061110257611102611485565b6000918252602090912001546001600160a01b0316036111225792915050565b6001016110db565b5050600654919050565b6001600160a01b038116811461114957600080fd5b50565b60006020828403121561115e57600080fd5b813561116981611134565b9392505050565b6000806040838503121561118357600080fd5b823561118e81611134565b9150602083013560ff811681146111a457600080fd5b809150509250929050565b6000602082840312156111c157600080fd5b5035919050565b602080825282518282018190526000918401906040840190835b818110156112095783516001600160a01b03168352602093840193909201916001016111e2565b509095945050505050565b60208082526035908201527f546869732066756e6374696f6e2063616e206f6e6c792062652063616c6c656460408201527420627920746865206f776e6572206164647265737360581b606082015260800190565b60208082526045908201527f54686520636f6e747261637420697320616c7265616479207365616c65642c2060408201527f6e6f206d6f64696669636174696f6e206f66207269676874732063616e206265606082015264206d61646560d81b608082015260a00190565b634e487b7160e01b600052601160045260246000fd5b60ff82811682821603908111156105f6576105f66112d4565b60ff81811683821601908111156105f6576105f66112d4565b60208082526054908201527f54686520636f6e7472616374206973206e6f74207365616c65642e205468697360408201527f207472616e73616374696f6e2063616e206f6e6c7920626520646f6e652077696060820152731d1a0818481cd9585b19590818dbdb9d1c9858dd60621b608082015260a00190565b6020808252604d908201527f546869732066756e6374696f6e2063616e6e6f742062652063616c6c6564206260408201527f7920616e796f6e652077686f20646f6573206e6f74206861766520726967687460608201526c7320746f2074686520736f6e6760981b608082015260a00190565b818103818111156105f6576105f66112d4565b60006020828403121561142e57600080fd5b8151801515811461116957600080fd5b80820281158282048414176105f6576105f66112d4565b808201808211156105f6576105f66112d4565b60006020828403121561147a57600080fd5b815161116981611134565b634e487b7160e01b600052603260045260246000fd5b634e487b7160e01b600052603160045260246000fdfea26469706673582212205ebb52a17bac1ffa1b8e206a574fa9ed49c1cb69172763d5a589b2002b114f5e64736f6c634300081c0033",
  "linkReferences": {},
  "deployedLinkReferences": {}
}