{
  "_format": "hh-sol-artifact-1",
  "contractName": "OysterToken",
  "sourceName": "contracts/OysterToken.sol",
  "abi": [
    {
      "inputs": [
        {
          "internalType": "address",
          "name": "initialOwner",
          "type": "address"
        }
      ],
      "stateMutability": "nonpayable",
      "type": "constructor"
    },
    {
      "inputs": [],
      "name": "ECDSAInvalidSignature",
      "type": "error"
    },
    {
      "inputs": [
        {
          "internalType": "uint256",
          "name": "length",
          "type": "uint256"
        }
      ],
      "name": "ECDSAInvalidSignatureLength",
      "type": "error"
    },
    {
      "inputs": [
        {
          "internalType": "bytes32",
          "name": "s",
          "type": "bytes32"
        }
      ],
      "name": "ECDSAInvalidSignatureS",
      "type": "error"
    },
    {
      "inputs": [
        {
          "internalType": "address",
          "name": "spender",
          "type": "address"
        },
        {
          "internalType": "uint256",
          "name": "allowance",
          "type": "uint256"
        },
        {
          "internalType": "uint256",
          "name": "needed",
          "type": "uint256"
        }
      ],
      "name": "ERC20InsufficientAllowance",
      "type": "error"
    },
    {
      "inputs": [
        {
          "internalType": "address",
          "name": "sender",
          "type": "address"
        },
        {
          "internalType": "uint256",
          "name": "balance",
          "type": "uint256"
        },
        {
          "internalType": "uint256",
          "name": "needed",
          "type": "uint256"
        }
      ],
      "name": "ERC20InsufficientBalance",
      "type": "error"
    },
    {
      "inputs": [
        {
          "internalType": "address",
          "name": "approver",
          "type": "address"
        }
      ],
      "name": "ERC20InvalidApprover",
      "type": "error"
    },
    {
      "inputs": [
        {
          "internalType": "address",
          "name": "receiver",
          "type": "address"
        }
      ],
      "name": "ERC20InvalidReceiver",
      "type": "error"
    },
    {
      "inputs": [
        {
          "internalType": "address",
          "name": "sender",
          "type": "address"
        }
      ],
      "name": "ERC20InvalidSender",
      "type": "error"
    },
    {
      "inputs": [
        {
          "internalType": "address",
          "name": "spender",
          "type": "address"
        }
      ],
      "name": "ERC20InvalidSpender",
      "type": "error"
    },
    {
      "inputs": [
        {
          "internalType": "uint256",
          "name": "deadline",
          "type": "uint256"
        }
      ],
      "name": "ERC2612ExpiredSignature",
      "type": "error"
    },
    {
      "inputs": [
        {
          "internalType": "address",
          "name": "signer",
          "type": "address"
        },
        {
          "internalType": "address",
          "name": "owner",
          "type": "address"
        }
      ],
      "name": "ERC2612InvalidSigner",
      "type": "error"
    },
    {
      "inputs": [
        {
          "internalType": "address",
          "name": "account",
          "type": "address"
        },
        {
          "internalType": "uint256",
          "name": "currentNonce",
          "type": "uint256"
        }
      ],
      "name": "InvalidAccountNonce",
      "type": "error"
    },
    {
      "inputs": [],
      "name": "InvalidShortString",
      "type": "error"
    },
    {
      "inputs": [
        {
          "internalType": "address",
          "name": "owner",
          "type": "address"
        }
      ],
      "name": "OwnableInvalidOwner",
      "type": "error"
    },
    {
      "inputs": [
        {
          "internalType": "address",
          "name": "account",
          "type": "address"
        }
      ],
      "name": "OwnableUnauthorizedAccount",
      "type": "error"
    },
    {
      "inputs": [
        {
          "internalType": "string",
          "name": "str",
          "type": "string"
        }
      ],
      "name": "StringTooLong",
      "type": "error"
    },
    {
      "anonymous": false,
      "inputs": [
        {
          "indexed": true,
          "internalType": "address",
          "name": "owner",
          "type": "address"
        },
        {
          "indexed": true,
          "internalType": "address",
          "name": "spender",
          "type": "address"
        },
        {
          "indexed": false,
          "internalType": "uint256",
          "name": "value",
          "type": "uint256"
        }
      ],
      "name": "Approval",
      "type": "event"
    },
    {
      "anonymous": false,
      "inputs": [],
      "name": "EIP712DomainChanged",
      "type": "event"
    },
    {
      "anonymous": false,
      "inputs": [
        {
          "indexed": true,
          "internalType": "address",
          "name": "previousOwner",
          "type": "address"
        },
        {
          "indexed": true,
          "internalType": "address",
          "name": "newOwner",
          "type": "address"
        }
      ],
      "name": "OwnershipTransferred",
      "type": "event"
    },
    {
      "anonymous": false,
      "inputs": [
        {
          "indexed": true,
          "internalType": "address",
          "name": "from",
          "type": "address"
        },
        {
          "indexed": true,
          "internalType": "address",
          "name": "to",
          "type": "address"
        },
        {
          "indexed": false,
          "internalType": "uint256",
          "name": "value",
          "type": "uint256"
        }
      ],
      "name": "Transfer",
      "type": "event"
    },
    {
      "anonymous": false,
      "inputs": [
        {
          "indexed": true,
          "internalType": "address",
          "name": "to",
          "type": "address"
        },
        {
          "indexed": false,
          "internalType": "uint256",
          "name": "gweiAmount",
          "type": "uint256"
        }
      ],
      "name": "WeiRefunded",
      "type": "event"
    },
    {
      "anonymous": false,
      "inputs": [
        {
          "indexed": true,
          "internalType": "address",
          "name": "_address",
          "type": "address"
        },
        {
          "indexed": false,
          "internalType": "bool",
          "name": "valid",
          "type": "bool"
        }
      ],
      "name": "validatedMusicContract",
      "type": "event"
    },
    {
      "inputs": [],
      "name": "DOMAIN_SEPARATOR",
      "outputs": [
        {
          "internalType": "bytes32",
          "name": "",
          "type": "bytes32"
        }
      ],
      "stateMutability": "view",
      "type": "function"
    },
    {
      "inputs": [
        {
          "internalType": "address",
          "name": "owner",
          "type": "address"
        },
        {
          "internalType": "address",
          "name": "spender",
          "type": "address"
        }
      ],
      "name": "allowance",
      "outputs": [
        {
          "internalType": "uint256",
          "name": "",
          "type": "uint256"
        }
      ],
      "stateMutability": "view",
      "type": "function"
    },
    {
      "inputs": [
        {
          "internalType": "address",
          "name": "spender",
          "type": "address"
        },
        {
          "internalType": "uint256",
          "name": "value",
          "type": "uint256"
        }
      ],
      "name": "approve",
      "outputs": [
        {
          "internalType": "bool",
          "name": "",
          "type": "bool"
        }
      ],
      "stateMutability": "nonpayable",
      "type": "function"
    },
    {
      "inputs": [
        {
          "internalType": "address",
          "name": "account",
          "type": "address"
        }
      ],
      "name": "balanceOf",
      "outputs": [
        {
          "internalType": "uint256",
          "name": "",
          "type": "uint256"
        }
      ],
      "stateMutability": "view",
      "type": "function"
    },
    {
      "inputs": [],
      "name": "buy100OSTToMusicContract",
      "outputs": [
        {
          "internalType": "bool",
          "name": "",
          "type": "bool"
        }
      ],
      "stateMutability": "payable",
      "type": "function"
    },
    {
      "inputs": [],
      "name": "decimals",
      "outputs": [
        {
          "internalType": "uint8",
          "name": "",
          "type": "uint8"
        }
      ],
      "stateMutability": "view",
      "type": "function"
    },
    {
      "inputs": [],
      "name": "eip712Domain",
      "outputs": [
        {
          "internalType": "bytes1",
          "name": "fields",
          "type": "bytes1"
        },
        {
          "internalType": "string",
          "name": "name",
          "type": "string"
        },
        {
          "internalType": "string",
          "name": "version",
          "type": "string"
        },
        {
          "internalType": "uint256",
          "name": "chainId",
          "type": "uint256"
        },
        {
          "internalType": "address",
          "name": "verifyingContract",
          "type": "address"
        },
        {
          "internalType": "bytes32",
          "name": "salt",
          "type": "bytes32"
        },
        {
          "internalType": "uint256[]",
          "name": "extensions",
          "type": "uint256[]"
        }
      ],
      "stateMutability": "view",
      "type": "function"
    },
    {
      "inputs": [
        {
          "internalType": "uint256",
          "name": "amount",
          "type": "uint256"
        }
      ],
      "name": "mintToVault",
      "outputs": [],
      "stateMutability": "nonpayable",
      "type": "function"
    },
    {
      "inputs": [],
      "name": "name",
      "outputs": [
        {
          "internalType": "string",
          "name": "",
          "type": "string"
        }
      ],
      "stateMutability": "view",
      "type": "function"
    },
    {
      "inputs": [
        {
          "internalType": "address",
          "name": "owner",
          "type": "address"
        }
      ],
      "name": "nonces",
      "outputs": [
        {
          "internalType": "uint256",
          "name": "",
          "type": "uint256"
        }
      ],
      "stateMutability": "view",
      "type": "function"
    },
    {
      "inputs": [],
      "name": "owner",
      "outputs": [
        {
          "internalType": "address",
          "name": "",
          "type": "address"
        }
      ],
      "stateMutability": "view",
      "type": "function"
    },
    {
      "inputs": [
        {
          "internalType": "address",
          "name": "owner",
          "type": "address"
        },
        {
          "internalType": "address",
          "name": "spender",
          "type": "address"
        },
        {
          "internalType": "uint256",
          "name": "value",
          "type": "uint256"
        },
        {
          "internalType": "uint256",
          "name": "deadline",
          "type": "uint256"
        },
        {
          "internalType": "uint8",
          "name": "v",
          "type": "uint8"
        },
        {
          "internalType": "bytes32",
          "name": "r",
          "type": "bytes32"
        },
        {
          "internalType": "bytes32",
          "name": "s",
          "type": "bytes32"
        }
      ],
      "name": "permit",
      "outputs": [],
      "stateMutability": "nonpayable",
      "type": "function"
    },
    {
      "inputs": [],
      "name": "renounceOwnership",
      "outputs": [],
      "stateMutability": "nonpayable",
      "type": "function"
    },
    {
      "inputs": [
        {
          "internalType": "contract OysterVault",
          "name": "_vault",
          "type": "address"
        }
      ],
      "name": "setVault",
      "outputs": [],
      "stateMutability": "nonpayable",
      "type": "function"
    },
    {
      "inputs": [],
      "name": "symbol",
      "outputs": [
        {
          "internalType": "string",
          "name": "",
          "type": "string"
        }
      ],
      "stateMutability": "view",
      "type": "function"
    },
    {
      "inputs": [],
      "name": "totalSupply",
      "outputs": [
        {
          "internalType": "uint256",
          "name": "",
          "type": "uint256"
        }
      ],
      "stateMutability": "view",
      "type": "function"
    },
    {
      "inputs": [
        {
          "internalType": "address",
          "name": "to",
          "type": "address"
        },
        {
          "internalType": "uint256",
          "name": "value",
          "type": "uint256"
        }
      ],
      "name": "transfer",
      "outputs": [
        {
          "internalType": "bool",
          "name": "",
          "type": "bool"
        }
      ],
      "stateMutability": "nonpayable",
      "type": "function"
    },
    {
      "inputs": [
        {
          "internalType": "address",
          "name": "from",
          "type": "address"
        },
        {
          "internalType": "address",
          "name": "to",
          "type": "address"
        },
        {
          "internalType": "uint256",
          "name": "value",
          "type": "uint256"
        }
      ],
      "name": "transferFrom",
      "outputs": [
        {
          "internalType": "bool",
          "name": "",
          "type": "bool"
        }
      ],
      "stateMutability": "nonpayable",
      "type": "function"
    },
    {
      "inputs": [
        {
          "internalType": "address",
          "name": "newOwner",
          "type": "address"
        }
      ],
      "name": "transferOwnership",
      "outputs": [],
      "stateMutability": "nonpayable",
      "type": "function"
    },
    {
      "inputs": [
        {
          "internalType": "address",
          "name": "",
          "type": "address"
        }
      ],
      "name": "validMusicContracts",
      "outputs": [
        {
          "internalType": "bool",
          "name": "",
          "type": "bool"
        }
      ],
      "stateMutability": "view",
      "type": "function"
    },
    {
      "inputs": [
        {
          "internalType": "address",
          "name": "addressMusicContract",
          "type": "address"
        }
      ],
      "name": "validateMusicContracts",
      "outputs": [
        {
          "internalType": "bool",
          "name": "",
          "type": "bool"
        }
      ],
      "stateMutability": "nonpayable",
      "type": "function"
    },
    {
      "inputs": [],
      "name": "vault",
      "outputs": [
        {
          "internalType": "contract OysterVault",
          "name": "",
          "type": "address"
        }
      ],
      "stateMutability": "view",
      "type": "function"
    }
  ],
  "bytecode": "0x61016060405234801561001157600080fd5b50604051613729380380613729833981810160405281019061003391906104a8565b6040518060400160405280600b81526020017f4f7973746572546f6b656e000000000000000000000000000000000000000000815250806040518060400160405280600181526020017f3100000000000000000000000000000000000000000000000000000000000000815250836040518060400160405280600b81526020017f4f7973746572546f6b656e0000000000000000000000000000000000000000008152506040518060400160405280600381526020017f4f53540000000000000000000000000000000000000000000000000000000000815250816003908161011c9190610725565b50806004908161012c9190610725565b505050600073ffffffffffffffffffffffffffffffffffffffff168173ffffffffffffffffffffffffffffffffffffffff16036101a15760006040517f1e4fbdf70000000000000000000000000000000000000000000000000000000081526004016101989190610806565b60405180910390fd5b6101b08161026260201b60201c565b506101c560068361032860201b90919060201c565b61012081815250506101e160078261032860201b90919060201c565b6101408181525050818051906020012060e08181525050808051906020012061010081815250504660a0818152505061021e61037860201b60201c565b608081815250503073ffffffffffffffffffffffffffffffffffffffff1660c08173ffffffffffffffffffffffffffffffffffffffff1681525050505050506109da565b6000600560009054906101000a900473ffffffffffffffffffffffffffffffffffffffff16905081600560006101000a81548173ffffffffffffffffffffffffffffffffffffffff021916908373ffffffffffffffffffffffffffffffffffffffff1602179055508173ffffffffffffffffffffffffffffffffffffffff168173ffffffffffffffffffffffffffffffffffffffff167f8be0079c531659141344cd1fd0a4f28419497f9722a3daafe3b4186f6b6457e060405160405180910390a35050565b600060208351101561034a57610343836103d360201b60201c565b9050610372565b8261035a8361043b60201b60201c565b60000190816103699190610725565b5060ff60001b90505b92915050565b60007f8b73c3c69bb8fe3d512ecc4cf759cc79239f7b179b0ffacaa9a75d522b39400f60e0516101005146306040516020016103b8959493929190610849565b60405160208183030381529060405280519060200120905090565b600080829050601f8151111561042057826040517f305a27a90000000000000000000000000000000000000000000000000000000081526004016104179190610921565b60405180910390fd5b80518161042c90610973565b60001c1760001b915050919050565b6000819050919050565b600080fd5b600073ffffffffffffffffffffffffffffffffffffffff82169050919050565b60006104758261044a565b9050919050565b6104858161046a565b811461049057600080fd5b50565b6000815190506104a28161047c565b92915050565b6000602082840312156104be576104bd610445565b5b60006104cc84828501610493565b91505092915050565b600081519050919050565b7f4e487b7100000000000000000000000000000000000000000000000000000000600052604160045260246000fd5b7f4e487b7100000000000000000000000000000000000000000000000000000000600052602260045260246000fd5b6000600282049050600182168061055657607f821691505b6020821081036105695761056861050f565b5b50919050565b60008190508160005260206000209050919050565b60006020601f8301049050919050565b600082821b905092915050565b6000600883026105d17fffffffffffffffffffffffffffffffffffffffffffffffffffffffffffffffff82610594565b6105db8683610594565b95508019841693508086168417925050509392505050565b6000819050919050565b6000819050919050565b600061062261061d610618846105f3565b6105fd565b6105f3565b9050919050565b6000819050919050565b61063c83610607565b61065061064882610629565b8484546105a1565b825550505050565b600090565b610665610658565b610670818484610633565b505050565b5b818110156106945761068960008261065d565b600181019050610676565b5050565b601f8211156106d9576106aa8161056f565b6106b384610584565b810160208510156106c2578190505b6106d66106ce85610584565b830182610675565b50505b505050565b600082821c905092915050565b60006106fc600019846008026106de565b1980831691505092915050565b600061071583836106eb565b9150826002028217905092915050565b61072e826104d5565b67ffffffffffffffff811115610747576107466104e0565b5b610751825461053e565b61075c828285610698565b600060209050601f83116001811461078f576000841561077d578287015190505b6107878582610709565b8655506107ef565b601f19841661079d8661056f565b60005b828110156107c5578489015182556001820191506020850194506020810190506107a0565b868310156107e257848901516107de601f8916826106eb565b8355505b6001600288020188555050505b505050505050565b6108008161046a565b82525050565b600060208201905061081b60008301846107f7565b92915050565b6000819050919050565b61083481610821565b82525050565b610843816105f3565b82525050565b600060a08201905061085e600083018861082b565b61086b602083018761082b565b610878604083018661082b565b610885606083018561083a565b61089260808301846107f7565b9695505050505050565b600082825260208201905092915050565b60005b838110156108cb5780820151818401526020810190506108b0565b60008484015250505050565b6000601f19601f8301169050919050565b60006108f3826104d5565b6108fd818561089c565b935061090d8185602086016108ad565b610916816108d7565b840191505092915050565b6000602082019050818103600083015261093b81846108e8565b905092915050565b600081519050919050565b6000819050602082019050919050565b600061096a8251610821565b80915050919050565b600061097e82610943565b826109888461094e565b90506109938161095e565b925060208210156109d3576109ce7fffffffffffffffffffffffffffffffffffffffffffffffffffffffffffffffff83602003600802610594565b831692505b5050919050565b60805160a05160c05160e051610100516101205161014051612cf5610a3460003960006115920152600061155701526000611aa701526000611a860152600061138c015260006113e20152600061140b0152612cf56000f3fe6080604052600436106101355760003560e01c80637ecebe00116100ab578063a9059cbb1161006f578063a9059cbb14610425578063d505accf14610462578063dd62ed3e1461048b578063f2fde38b146104c8578063f89fbe6a146104f1578063fbfa77cf1461052e57610135565b80637ecebe001461034357806384b0196e146103805780638da5cb5b146103b1578063917b1bf5146103dc57806395d89b41146103fa57610135565b8063313ce567116100fd578063313ce567146102335780633644e5151461025e5780636817031b1461028957806370a08231146102b2578063715018a6146102ef5780637eb4cde71461030657610135565b806306fdde031461013a578063095ea7b31461016557806318160ddd146101a257806323b872dd146101cd57806324c938371461020a575b600080fd5b34801561014657600080fd5b5061014f610559565b60405161015c9190611f94565b60405180910390f35b34801561017157600080fd5b5061018c6004803603810190610187919061204f565b6105eb565b60405161019991906120aa565b60405180910390f35b3480156101ae57600080fd5b506101b761060e565b6040516101c491906120d4565b60405180910390f35b3480156101d957600080fd5b506101f460048036038101906101ef91906120ef565b610618565b60405161020191906120aa565b60405180910390f35b34801561021657600080fd5b50610231600480360381019061022c9190612142565b610647565b005b34801561023f57600080fd5b5061024861070f565b604051610255919061218b565b60405180910390f35b34801561026a57600080fd5b50610273610718565b60405161028091906121bf565b60405180910390f35b34801561029557600080fd5b506102b060048036038101906102ab9190612218565b610727565b005b3480156102be57600080fd5b506102d960048036038101906102d49190612245565b610873565b6040516102e691906120d4565b60405180910390f35b3480156102fb57600080fd5b506103046108bb565b005b34801561031257600080fd5b5061032d60048036038101906103289190612245565b6108cf565b60405161033a91906120aa565b60405180910390f35b34801561034f57600080fd5b5061036a60048036038101906103659190612245565b610989565b60405161037791906120d4565b60405180910390f35b34801561038c57600080fd5b5061039561099b565b6040516103a8979695949392919061237a565b60405180910390f35b3480156103bd57600080fd5b506103c6610a45565b6040516103d391906123fe565b60405180910390f35b6103e4610a6f565b6040516103f191906120aa565b60405180910390f35b34801561040657600080fd5b5061040f610d8d565b60405161041c9190611f94565b60405180910390f35b34801561043157600080fd5b5061044c6004803603810190610447919061204f565b610e1f565b60405161045991906120aa565b60405180910390f35b34801561046e57600080fd5b5061048960048036038101906104849190612471565b610e42565b005b34801561049757600080fd5b506104b260048036038101906104ad9190612513565b610f8a565b6040516104bf91906120d4565b60405180910390f35b3480156104d457600080fd5b506104ef60048036038101906104ea9190612245565b611011565b005b3480156104fd57600080fd5b5061051860048036038101906105139190612245565b611097565b60405161052591906120aa565b60405180910390f35b34801561053a57600080fd5b506105436110b7565b60405161055091906125b2565b60405180910390f35b606060038054610568906125fc565b80601f0160208091040260200160405190810160405280929190818152602001828054610594906125fc565b80156105e15780601f106105b6576101008083540402835291602001916105e1565b820191906000526020600020905b8154815290600101906020018083116105c457829003601f168201915b5050505050905090565b6000806105f66110dd565b90506106038185856110e5565b600191505092915050565b6000600254905090565b6000806106236110dd565b90506106308582856110f7565b61063b85858561118b565b60019150509392505050565b61064f61127f565b600073ffffffffffffffffffffffffffffffffffffffff16600960009054906101000a900473ffffffffffffffffffffffffffffffffffffffff1673ffffffffffffffffffffffffffffffffffffffff16036106e0576040517f08c379a00000000000000000000000000000000000000000000000000000000081526004016106d790612679565b60405180910390fd5b61070c600960009054906101000a900473ffffffffffffffffffffffffffffffffffffffff1682611306565b50565b60006012905090565b6000610722611388565b905090565b61072f61127f565b600073ffffffffffffffffffffffffffffffffffffffff16600960009054906101000a900473ffffffffffffffffffffffffffffffffffffffff1673ffffffffffffffffffffffffffffffffffffffff16146107c0576040517f08c379a00000000000000000000000000000000000000000000000000000000081526004016107b7906126e5565b60405180910390fd5b600073ffffffffffffffffffffffffffffffffffffffff168173ffffffffffffffffffffffffffffffffffffffff160361082f576040517f08c379a000000000000000000000000000000000000000000000000000000000815260040161082690612751565b60405180910390fd5b80600960006101000a81548173ffffffffffffffffffffffffffffffffffffffff021916908373ffffffffffffffffffffffffffffffffffffffff16021790555050565b60008060008373ffffffffffffffffffffffffffffffffffffffff1673ffffffffffffffffffffffffffffffffffffffff168152602001908152602001600020549050919050565b6108c361127f565b6108cd600061143f565b565b60006108d961127f565b6001600a60008473ffffffffffffffffffffffffffffffffffffffff1673ffffffffffffffffffffffffffffffffffffffff16815260200190815260200160002060006101000a81548160ff0219169083151502179055508173ffffffffffffffffffffffffffffffffffffffff167f8828c88ef46029fc10c19655c4c67e16d76903c9fbd9170b8298d51194ed7508600160405161097891906120aa565b60405180910390a260019050919050565b600061099482611505565b9050919050565b6000606080600080600060606109af61154e565b6109b7611589565b46306000801b600067ffffffffffffffff8111156109d8576109d7612771565b5b604051908082528060200260200182016040528015610a065781602001602082028036833780820191505090505b507f0f00000000000000000000000000000000000000000000000000000000000000959493929190965096509650965096509650965090919293949596565b6000600560009054906101000a900473ffffffffffffffffffffffffffffffffffffffff16905090565b6000600a60003373ffffffffffffffffffffffffffffffffffffffff1673ffffffffffffffffffffffffffffffffffffffff16815260200190815260200160002060009054906101000a900460ff16610afd576040517f08c379a0000000000000000000000000000000000000000000000000000000008152600401610af490612838565b60405180910390fd5b624f5880341015610b43576040517f08c379a0000000000000000000000000000000000000000000000000000000008152600401610b3a906128ca565b60405180910390fd5b6000606490506000624c4b40905060008134610b5f9190612919565b905082600960009054906101000a900473ffffffffffffffffffffffffffffffffffffffff1673ffffffffffffffffffffffffffffffffffffffff16631f4aad2a6040518163ffffffff1660e01b8152600401602060405180830381865afa158015610bcf573d6000803e3d6000fd5b505050506040513d601f19601f82011682018060405250810190610bf39190612962565b1015610c34576040517f08c379a0000000000000000000000000000000000000000000000000000000008152600401610c2b90612a01565b60405180910390fd5b600960009054906101000a900473ffffffffffffffffffffffffffffffffffffffff1673ffffffffffffffffffffffffffffffffffffffff1663412664ae33856040518363ffffffff1660e01b8152600401610c91929190612a21565b6020604051808303816000875af1158015610cb0573d6000803e3d6000fd5b505050506040513d601f19601f82011682018060405250810190610cd49190612a76565b506000670de0b6b3a764000082610ceb9190612ad2565b90503373ffffffffffffffffffffffffffffffffffffffff166108fc829081150290604051600060405180830381858888f19350505050158015610d33573d6000803e3d6000fd5b503373ffffffffffffffffffffffffffffffffffffffff167ffec51bd7a12167abbae91302df382bf09c27aab7a4fddd88f056c6ab1c9b8e2083604051610d7a91906120d4565b60405180910390a2600194505050505090565b606060048054610d9c906125fc565b80601f0160208091040260200160405190810160405280929190818152602001828054610dc8906125fc565b8015610e155780601f10610dea57610100808354040283529160200191610e15565b820191906000526020600020905b815481529060010190602001808311610df857829003601f168201915b5050505050905090565b600080610e2a6110dd565b9050610e3781858561118b565b600191505092915050565b83421115610e8757836040517f62791302000000000000000000000000000000000000000000000000000000008152600401610e7e91906120d4565b60405180910390fd5b60007f6e71edae12b1b97f4d1f60370fef10105fa2faae0126114a169c64845d6126c9888888610eb68c6115c4565b89604051602001610ecc96959493929190612b03565b6040516020818303038152906040528051906020012090506000610eef8261161b565b90506000610eff82878787611635565b90508973ffffffffffffffffffffffffffffffffffffffff168173ffffffffffffffffffffffffffffffffffffffff1614610f7357808a6040517f4b800e46000000000000000000000000000000000000000000000000000000008152600401610f6a929190612b64565b60405180910390fd5b610f7e8a8a8a6110e5565b50505050505050505050565b6000600160008473ffffffffffffffffffffffffffffffffffffffff1673ffffffffffffffffffffffffffffffffffffffff16815260200190815260200160002060008373ffffffffffffffffffffffffffffffffffffffff1673ffffffffffffffffffffffffffffffffffffffff16815260200190815260200160002054905092915050565b61101961127f565b600073ffffffffffffffffffffffffffffffffffffffff168173ffffffffffffffffffffffffffffffffffffffff160361108b5760006040517f1e4fbdf700000000000000000000000000000000000000000000000000000000815260040161108291906123fe565b60405180910390fd5b6110948161143f565b50565b600a6020528060005260406000206000915054906101000a900460ff1681565b600960009054906101000a900473ffffffffffffffffffffffffffffffffffffffff1681565b600033905090565b6110f28383836001611665565b505050565b60006111038484610f8a565b90507fffffffffffffffffffffffffffffffffffffffffffffffffffffffffffffffff81146111855781811015611175578281836040517ffb8f41b200000000000000000000000000000000000000000000000000000000815260040161116c93929190612b8d565b60405180910390fd5b61118484848484036000611665565b5b50505050565b600073ffffffffffffffffffffffffffffffffffffffff168373ffffffffffffffffffffffffffffffffffffffff16036111fd5760006040517f96c6fd1e0000000000000000000000000000000000000000000000000000000081526004016111f491906123fe565b60405180910390fd5b600073ffffffffffffffffffffffffffffffffffffffff168273ffffffffffffffffffffffffffffffffffffffff160361126f5760006040517fec442f0500000000000000000000000000000000000000000000000000000000815260040161126691906123fe565b60405180910390fd5b61127a83838361183c565b505050565b6112876110dd565b73ffffffffffffffffffffffffffffffffffffffff166112a5610a45565b73ffffffffffffffffffffffffffffffffffffffff1614611304576112c86110dd565b6040517f118cdaa70000000000000000000000000000000000000000000000000000000081526004016112fb91906123fe565b60405180910390fd5b565b600073ffffffffffffffffffffffffffffffffffffffff168273ffffffffffffffffffffffffffffffffffffffff16036113785760006040517fec442f0500000000000000000000000000000000000000000000000000000000815260040161136f91906123fe565b60405180910390fd5b6113846000838361183c565b5050565b60007f000000000000000000000000000000000000000000000000000000000000000073ffffffffffffffffffffffffffffffffffffffff163073ffffffffffffffffffffffffffffffffffffffff1614801561140457507f000000000000000000000000000000000000000000000000000000000000000046145b15611431577f0000000000000000000000000000000000000000000000000000000000000000905061143c565b611439611a61565b90505b90565b6000600560009054906101000a900473ffffffffffffffffffffffffffffffffffffffff16905081600560006101000a81548173ffffffffffffffffffffffffffffffffffffffff021916908373ffffffffffffffffffffffffffffffffffffffff1602179055508173ffffffffffffffffffffffffffffffffffffffff168173ffffffffffffffffffffffffffffffffffffffff167f8be0079c531659141344cd1fd0a4f28419497f9722a3daafe3b4186f6b6457e060405160405180910390a35050565b6000600860008373ffffffffffffffffffffffffffffffffffffffff1673ffffffffffffffffffffffffffffffffffffffff168152602001908152602001600020549050919050565b606061158460067f0000000000000000000000000000000000000000000000000000000000000000611af790919063ffffffff16565b905090565b60606115bf60077f0000000000000000000000000000000000000000000000000000000000000000611af790919063ffffffff16565b905090565b6000600860008373ffffffffffffffffffffffffffffffffffffffff1673ffffffffffffffffffffffffffffffffffffffff1681526020019081526020016000206000815480929190600101919050559050919050565b600061162e611628611388565b83611ba7565b9050919050565b60008060008061164788888888611be8565b9250925092506116578282611cdc565b829350505050949350505050565b600073ffffffffffffffffffffffffffffffffffffffff168473ffffffffffffffffffffffffffffffffffffffff16036116d75760006040517fe602df050000000000000000000000000000000000000000000000000000000081526004016116ce91906123fe565b60405180910390fd5b600073ffffffffffffffffffffffffffffffffffffffff168373ffffffffffffffffffffffffffffffffffffffff16036117495760006040517f94280d6200000000000000000000000000000000000000000000000000000000815260040161174091906123fe565b60405180910390fd5b81600160008673ffffffffffffffffffffffffffffffffffffffff1673ffffffffffffffffffffffffffffffffffffffff16815260200190815260200160002060008573ffffffffffffffffffffffffffffffffffffffff1673ffffffffffffffffffffffffffffffffffffffff168152602001908152602001600020819055508015611836578273ffffffffffffffffffffffffffffffffffffffff168473ffffffffffffffffffffffffffffffffffffffff167f8c5be1e5ebec7d5bd14f71427d1e84f3dd0314c0f7b2291e5b200ac8c7c3b9258460405161182d91906120d4565b60405180910390a35b50505050565b600073ffffffffffffffffffffffffffffffffffffffff168373ffffffffffffffffffffffffffffffffffffffff160361188e5780600260008282546118829190612bc4565b92505081905550611961565b60008060008573ffffffffffffffffffffffffffffffffffffffff1673ffffffffffffffffffffffffffffffffffffffff1681526020019081526020016000205490508181101561191a578381836040517fe450d38c00000000000000000000000000000000000000000000000000000000815260040161191193929190612b8d565b60405180910390fd5b8181036000808673ffffffffffffffffffffffffffffffffffffffff1673ffffffffffffffffffffffffffffffffffffffff16815260200190815260200160002081905550505b600073ffffffffffffffffffffffffffffffffffffffff168273ffffffffffffffffffffffffffffffffffffffff16036119aa57806002600082825403925050819055506119f7565b806000808473ffffffffffffffffffffffffffffffffffffffff1673ffffffffffffffffffffffffffffffffffffffff168152602001908152602001600020600082825401925050819055505b8173ffffffffffffffffffffffffffffffffffffffff168373ffffffffffffffffffffffffffffffffffffffff167fddf252ad1be2c89b69c2b068fc378daa952ba7f163c4a11628f55a4df523b3ef83604051611a5491906120d4565b60405180910390a3505050565b60007f8b73c3c69bb8fe3d512ecc4cf759cc79239f7b179b0ffacaa9a75d522b39400f7f00000000000000000000000000000000000000000000000000000000000000007f00000000000000000000000000000000000000000000000000000000000000004630604051602001611adc959493929190612bf8565b60405160208183030381529060405280519060200120905090565b606060ff60001b8314611b1457611b0d83611e40565b9050611ba1565b818054611b20906125fc565b80601f0160208091040260200160405190810160405280929190818152602001828054611b4c906125fc565b8015611b995780601f10611b6e57610100808354040283529160200191611b99565b820191906000526020600020905b815481529060010190602001808311611b7c57829003601f168201915b505050505090505b92915050565b60006040517f190100000000000000000000000000000000000000000000000000000000000081528360028201528260228201526042812091505092915050565b60008060007f7fffffffffffffffffffffffffffffff5d576e7357a4501ddfe92f46681b20a08460001c1115611c28576000600385925092509250611cd2565b600060018888888860405160008152602001604052604051611c4d9493929190612c4b565b6020604051602081039080840390855afa158015611c6f573d6000803e3d6000fd5b505050602060405103519050600073ffffffffffffffffffffffffffffffffffffffff168173ffffffffffffffffffffffffffffffffffffffff1603611cc357600060016000801b93509350935050611cd2565b8060008060001b935093509350505b9450945094915050565b60006003811115611cf057611cef612c90565b5b826003811115611d0357611d02612c90565b5b0315611e3c5760016003811115611d1d57611d1c612c90565b5b826003811115611d3057611d2f612c90565b5b03611d67576040517ff645eedf00000000000000000000000000000000000000000000000000000000815260040160405180910390fd5b60026003811115611d7b57611d7a612c90565b5b826003811115611d8e57611d8d612c90565b5b03611dd3578060001c6040517ffce698f7000000000000000000000000000000000000000000000000000000008152600401611dca91906120d4565b60405180910390fd5b600380811115611de657611de5612c90565b5b826003811115611df957611df8612c90565b5b03611e3b57806040517fd78bce0c000000000000000000000000000000000000000000000000000000008152600401611e3291906121bf565b60405180910390fd5b5b5050565b60606000611e4d83611eb4565b90506000602067ffffffffffffffff811115611e6c57611e6b612771565b5b6040519080825280601f01601f191660200182016040528015611e9e5781602001600182028036833780820191505090505b5090508181528360208201528092505050919050565b60008060ff8360001c169050601f811115611efb576040517fb3512b0c00000000000000000000000000000000000000000000000000000000815260040160405180910390fd5b80915050919050565b600081519050919050565b600082825260208201905092915050565b60005b83811015611f3e578082015181840152602081019050611f23565b60008484015250505050565b6000601f19601f8301169050919050565b6000611f6682611f04565b611f708185611f0f565b9350611f80818560208601611f20565b611f8981611f4a565b840191505092915050565b60006020820190508181036000830152611fae8184611f5b565b905092915050565b600080fd5b600073ffffffffffffffffffffffffffffffffffffffff82169050919050565b6000611fe682611fbb565b9050919050565b611ff681611fdb565b811461200157600080fd5b50565b60008135905061201381611fed565b92915050565b6000819050919050565b61202c81612019565b811461203757600080fd5b50565b60008135905061204981612023565b92915050565b6000806040838503121561206657612065611fb6565b5b600061207485828601612004565b92505060206120858582860161203a565b9150509250929050565b60008115159050919050565b6120a48161208f565b82525050565b60006020820190506120bf600083018461209b565b92915050565b6120ce81612019565b82525050565b60006020820190506120e960008301846120c5565b92915050565b60008060006060848603121561210857612107611fb6565b5b600061211686828701612004565b935050602061212786828701612004565b92505060406121388682870161203a565b9150509250925092565b60006020828403121561215857612157611fb6565b5b60006121668482850161203a565b91505092915050565b600060ff82169050919050565b6121858161216f565b82525050565b60006020820190506121a0600083018461217c565b92915050565b6000819050919050565b6121b9816121a6565b82525050565b60006020820190506121d460008301846121b0565b92915050565b60006121e582611fdb565b9050919050565b6121f5816121da565b811461220057600080fd5b50565b600081359050612212816121ec565b92915050565b60006020828403121561222e5761222d611fb6565b5b600061223c84828501612203565b91505092915050565b60006020828403121561225b5761225a611fb6565b5b600061226984828501612004565b91505092915050565b60007fff0000000000000000000000000000000000000000000000000000000000000082169050919050565b6122a781612272565b82525050565b6122b681611fdb565b82525050565b600081519050919050565b600082825260208201905092915050565b6000819050602082019050919050565b6122f181612019565b82525050565b600061230383836122e8565b60208301905092915050565b6000602082019050919050565b6000612327826122bc565b61233181856122c7565b935061233c836122d8565b8060005b8381101561236d57815161235488826122f7565b975061235f8361230f565b925050600181019050612340565b5085935050505092915050565b600060e08201905061238f600083018a61229e565b81810360208301526123a18189611f5b565b905081810360408301526123b58188611f5b565b90506123c460608301876120c5565b6123d160808301866122ad565b6123de60a08301856121b0565b81810360c08301526123f0818461231c565b905098975050505050505050565b600060208201905061241360008301846122ad565b92915050565b6124228161216f565b811461242d57600080fd5b50565b60008135905061243f81612419565b92915050565b61244e816121a6565b811461245957600080fd5b50565b60008135905061246b81612445565b92915050565b600080600080600080600060e0888a0312156124905761248f611fb6565b5b600061249e8a828b01612004565b97505060206124af8a828b01612004565b96505060406124c08a828b0161203a565b95505060606124d18a828b0161203a565b94505060806124e28a828b01612430565b93505060a06124f38a828b0161245c565b92505060c06125048a828b0161245c565b91505092959891949750929550565b6000806040838503121561252a57612529611fb6565b5b600061253885828601612004565b925050602061254985828601612004565b9150509250929050565b6000819050919050565b600061257861257361256e84611fbb565b612553565b611fbb565b9050919050565b600061258a8261255d565b9050919050565b600061259c8261257f565b9050919050565b6125ac81612591565b82525050565b60006020820190506125c760008301846125a3565b92915050565b7f4e487b7100000000000000000000000000000000000000000000000000000000600052602260045260246000fd5b6000600282049050600182168061261457607f821691505b602082108103612627576126266125cd565b5b50919050565b7f5661756c742061646472657373206e6f74207365740000000000000000000000600082015250565b6000612663601583611f0f565b915061266e8261262d565b602082019050919050565b6000602082019050818103600083015261269281612656565b9050919050565b7f5661756c7420616c726561647920736574000000000000000000000000000000600082015250565b60006126cf601183611f0f565b91506126da82612699565b602082019050919050565b600060208201905081810360008301526126fe816126c2565b9050919050565b7f496e76616c6964207661756c7420616464726573730000000000000000000000600082015250565b600061273b601583611f0f565b915061274682612705565b602082019050919050565b6000602082019050818103600083015261276a8161272e565b9050919050565b7f4e487b7100000000000000000000000000000000000000000000000000000000600052604160045260246000fd5b7f546869732066756e6374696f6e2063616e206f6e6c792062652063616c6c656460008201527f20627920612076616c6964204d75736963436f6e74726163742061646472657360208201527f7300000000000000000000000000000000000000000000000000000000000000604082015250565b6000612822604183611f0f565b915061282d826127a0565b606082019050919050565b6000602082019050818103600083015261285181612815565b9050919050565b7f496e73756666696369656e74205765692073656e7420746f2062757920746f6b60008201527f656e730000000000000000000000000000000000000000000000000000000000602082015250565b60006128b4602383611f0f565b91506128bf82612858565b604082019050919050565b600060208201905081810360008301526128e3816128a7565b9050919050565b7f4e487b7100000000000000000000000000000000000000000000000000000000600052601160045260246000fd5b600061292482612019565b915061292f83612019565b9250828203905081811115612947576129466128ea565b5b92915050565b60008151905061295c81612023565b92915050565b60006020828403121561297857612977611fb6565b5b60006129868482850161294d565b91505092915050565b7f4e6f7420656e6f75676820746f6b656e7320696e204f7973746572546f6b656e60008201527f20636f6e74726163740000000000000000000000000000000000000000000000602082015250565b60006129eb602983611f0f565b91506129f68261298f565b604082019050919050565b60006020820190508181036000830152612a1a816129de565b9050919050565b6000604082019050612a3660008301856122ad565b612a4360208301846120c5565b9392505050565b612a538161208f565b8114612a5e57600080fd5b50565b600081519050612a7081612a4a565b92915050565b600060208284031215612a8c57612a8b611fb6565b5b6000612a9a84828501612a61565b91505092915050565b7f4e487b7100000000000000000000000000000000000000000000000000000000600052601260045260246000fd5b6000612add82612019565b9150612ae883612019565b925082612af857612af7612aa3565b5b828204905092915050565b600060c082019050612b1860008301896121b0565b612b2560208301886122ad565b612b3260408301876122ad565b612b3f60608301866120c5565b612b4c60808301856120c5565b612b5960a08301846120c5565b979650505050505050565b6000604082019050612b7960008301856122ad565b612b8660208301846122ad565b9392505050565b6000606082019050612ba260008301866122ad565b612baf60208301856120c5565b612bbc60408301846120c5565b949350505050565b6000612bcf82612019565b9150612bda83612019565b9250828201905080821115612bf257612bf16128ea565b5b92915050565b600060a082019050612c0d60008301886121b0565b612c1a60208301876121b0565b612c2760408301866121b0565b612c3460608301856120c5565b612c4160808301846122ad565b9695505050505050565b6000608082019050612c6060008301876121b0565b612c6d602083018661217c565b612c7a60408301856121b0565b612c8760608301846121b0565b95945050505050565b7f4e487b7100000000000000000000000000000000000000000000000000000000600052602160045260246000fdfea26469706673582212206b60106d4173cde77d4d6072bb50c356ea54abf01b83782a5bad2fa01c84452664736f6c634300081c0033",
  "linkReferences": {},
  "deployedLinkReferences": {}
}