{
  "_format": "hh-sol-artifact-1",
  "contractName": "OysterToken",
  "sourceName": "contracts/OysterToken.sol",
  "abi": [
    {
      "inputs": [
        {
          "internalType": "address",
          "name": "initialOwner",
          "type": "address"
        },
        {
          "internalType": "uint256",
          "name": "_gweiPerToken",
          "type": "uint256"
        }
      ],
      "stateMutability": "nonpayable",
      "type": "constructor"
    },
    {
      "inputs": [],
      "name": "ECDSAInvalidSignature",
      "type": "error"
    },
    {
      "inputs": [
        {
          "internalType": "uint256",
          "name": "length",
          "type": "uint256"
        }
      ],
      "name": "ECDSAInvalidSignatureLength",
      "type": "error"
    },
    {
      "inputs": [
        {
          "internalType": "bytes32",
          "name": "s",
          "type": "bytes32"
        }
      ],
      "name": "ECDSAInvalidSignatureS",
      "type": "error"
    },
    {
      "inputs": [
        {
          "internalType": "address",
          "name": "spender",
          "type": "address"
        },
        {
          "internalType": "uint256",
          "name": "allowance",
          "type": "uint256"
        },
        {
          "internalType": "uint256",
          "name": "needed",
          "type": "uint256"
        }
      ],
      "name": "ERC20InsufficientAllowance",
      "type": "error"
    },
    {
      "inputs": [
        {
          "internalType": "address",
          "name": "sender",
          "type": "address"
        },
        {
          "internalType": "uint256",
          "name": "balance",
          "type": "uint256"
        },
        {
          "internalType": "uint256",
          "name": "needed",
          "type": "uint256"
        }
      ],
      "name": "ERC20InsufficientBalance",
      "type": "error"
    },
    {
      "inputs": [
        {
          "internalType": "address",
          "name": "approver",
          "type": "address"
        }
      ],
      "name": "ERC20InvalidApprover",
      "type": "error"
    },
    {
      "inputs": [
        {
          "internalType": "address",
          "name": "receiver",
          "type": "address"
        }
      ],
      "name": "ERC20InvalidReceiver",
      "type": "error"
    },
    {
      "inputs": [
        {
          "internalType": "address",
          "name": "sender",
          "type": "address"
        }
      ],
      "name": "ERC20InvalidSender",
      "type": "error"
    },
    {
      "inputs": [
        {
          "internalType": "address",
          "name": "spender",
          "type": "address"
        }
      ],
      "name": "ERC20InvalidSpender",
      "type": "error"
    },
    {
      "inputs": [
        {
          "internalType": "uint256",
          "name": "deadline",
          "type": "uint256"
        }
      ],
      "name": "ERC2612ExpiredSignature",
      "type": "error"
    },
    {
      "inputs": [
        {
          "internalType": "address",
          "name": "signer",
          "type": "address"
        },
        {
          "internalType": "address",
          "name": "owner",
          "type": "address"
        }
      ],
      "name": "ERC2612InvalidSigner",
      "type": "error"
    },
    {
      "inputs": [
        {
          "internalType": "address",
          "name": "account",
          "type": "address"
        },
        {
          "internalType": "uint256",
          "name": "currentNonce",
          "type": "uint256"
        }
      ],
      "name": "InvalidAccountNonce",
      "type": "error"
    },
    {
      "inputs": [],
      "name": "InvalidShortString",
      "type": "error"
    },
    {
      "inputs": [
        {
          "internalType": "address",
          "name": "owner",
          "type": "address"
        }
      ],
      "name": "OwnableInvalidOwner",
      "type": "error"
    },
    {
      "inputs": [
        {
          "internalType": "address",
          "name": "account",
          "type": "address"
        }
      ],
      "name": "OwnableUnauthorizedAccount",
      "type": "error"
    },
    {
      "inputs": [
        {
          "internalType": "string",
          "name": "str",
          "type": "string"
        }
      ],
      "name": "StringTooLong",
      "type": "error"
    },
    {
      "anonymous": false,
      "inputs": [
        {
          "indexed": true,
          "internalType": "address",
          "name": "owner",
          "type": "address"
        },
        {
          "indexed": true,
          "internalType": "address",
          "name": "spender",
          "type": "address"
        },
        {
          "indexed": false,
          "internalType": "uint256",
          "name": "value",
          "type": "uint256"
        }
      ],
      "name": "Approval",
      "type": "event"
    },
    {
      "anonymous": false,
      "inputs": [
        {
          "indexed": true,
          "internalType": "address",
          "name": "buyer",
          "type": "address"
        },
        {
          "indexed": false,
          "internalType": "uint256",
          "name": "amount",
          "type": "uint256"
        }
      ],
      "name": "BuyTokens",
      "type": "event"
    },
    {
      "anonymous": false,
      "inputs": [],
      "name": "EIP712DomainChanged",
      "type": "event"
    },
    {
      "anonymous": false,
      "inputs": [
        {
          "indexed": true,
          "internalType": "address",
          "name": "vault",
          "type": "address"
        },
        {
          "indexed": false,
          "internalType": "uint256",
          "name": "amount",
          "type": "uint256"
        }
      ],
      "name": "MintToVault",
      "type": "event"
    },
    {
      "anonymous": false,
      "inputs": [
        {
          "indexed": true,
          "internalType": "address",
          "name": "previousOwner",
          "type": "address"
        },
        {
          "indexed": true,
          "internalType": "address",
          "name": "newOwner",
          "type": "address"
        }
      ],
      "name": "OwnershipTransferred",
      "type": "event"
    },
    {
      "anonymous": false,
      "inputs": [
        {
          "indexed": true,
          "internalType": "address",
          "name": "vault",
          "type": "address"
        }
      ],
      "name": "SetVault",
      "type": "event"
    },
    {
      "anonymous": false,
      "inputs": [
        {
          "indexed": true,
          "internalType": "address",
          "name": "from",
          "type": "address"
        },
        {
          "indexed": true,
          "internalType": "address",
          "name": "to",
          "type": "address"
        },
        {
          "indexed": false,
          "internalType": "uint256",
          "name": "value",
          "type": "uint256"
        }
      ],
      "name": "Transfer",
      "type": "event"
    },
    {
      "anonymous": false,
      "inputs": [
        {
          "indexed": true,
          "internalType": "address",
          "name": "_address",
          "type": "address"
        },
        {
          "indexed": false,
          "internalType": "bool",
          "name": "valid",
          "type": "bool"
        }
      ],
      "name": "ValidatedMusicContract",
      "type": "event"
    },
    {
      "inputs": [],
      "name": "DOMAIN_SEPARATOR",
      "outputs": [
        {
          "internalType": "bytes32",
          "name": "",
          "type": "bytes32"
        }
      ],
      "stateMutability": "view",
      "type": "function"
    },
    {
      "inputs": [
        {
          "internalType": "address",
          "name": "owner",
          "type": "address"
        },
        {
          "internalType": "address",
          "name": "spender",
          "type": "address"
        }
      ],
      "name": "allowance",
      "outputs": [
        {
          "internalType": "uint256",
          "name": "",
          "type": "uint256"
        }
      ],
      "stateMutability": "view",
      "type": "function"
    },
    {
      "inputs": [
        {
          "internalType": "address",
          "name": "spender",
          "type": "address"
        },
        {
          "internalType": "uint256",
          "name": "value",
          "type": "uint256"
        }
      ],
      "name": "approve",
      "outputs": [
        {
          "internalType": "bool",
          "name": "",
          "type": "bool"
        }
      ],
      "stateMutability": "nonpayable",
      "type": "function"
    },
    {
      "inputs": [
        {
          "internalType": "address",
          "name": "account",
          "type": "address"
        }
      ],
      "name": "balanceOf",
      "outputs": [
        {
          "internalType": "uint256",
          "name": "",
          "type": "uint256"
        }
      ],
      "stateMutability": "view",
      "type": "function"
    },
    {
      "inputs": [
        {
          "internalType": "address",
          "name": "musicContractAddress",
          "type": "address"
        }
      ],
      "name": "buyTokens",
      "outputs": [],
      "stateMutability": "payable",
      "type": "function"
    },
    {
      "inputs": [],
      "name": "decimals",
      "outputs": [
        {
          "internalType": "uint8",
          "name": "",
          "type": "uint8"
        }
      ],
      "stateMutability": "view",
      "type": "function"
    },
    {
      "inputs": [],
      "name": "eip712Domain",
      "outputs": [
        {
          "internalType": "bytes1",
          "name": "fields",
          "type": "bytes1"
        },
        {
          "internalType": "string",
          "name": "name",
          "type": "string"
        },
        {
          "internalType": "string",
          "name": "version",
          "type": "string"
        },
        {
          "internalType": "uint256",
          "name": "chainId",
          "type": "uint256"
        },
        {
          "internalType": "address",
          "name": "verifyingContract",
          "type": "address"
        },
        {
          "internalType": "bytes32",
          "name": "salt",
          "type": "bytes32"
        },
        {
          "internalType": "uint256[]",
          "name": "extensions",
          "type": "uint256[]"
        }
      ],
      "stateMutability": "view",
      "type": "function"
    },
    {
      "inputs": [],
      "name": "gweiPerToken",
      "outputs": [
        {
          "internalType": "uint256",
          "name": "",
          "type": "uint256"
        }
      ],
      "stateMutability": "view",
      "type": "function"
    },
    {
      "inputs": [
        {
          "internalType": "address",
          "name": "to",
          "type": "address"
        },
        {
          "internalType": "uint256",
          "name": "amount",
          "type": "uint256"
        }
      ],
      "name": "mint",
      "outputs": [],
      "stateMutability": "nonpayable",
      "type": "function"
    },
    {
      "inputs": [
        {
          "internalType": "uint256",
          "name": "amount",
          "type": "uint256"
        }
      ],
      "name": "mintToVault",
      "outputs": [],
      "stateMutability": "nonpayable",
      "type": "function"
    },
    {
      "inputs": [],
      "name": "name",
      "outputs": [
        {
          "internalType": "string",
          "name": "",
          "type": "string"
        }
      ],
      "stateMutability": "view",
      "type": "function"
    },
    {
      "inputs": [
        {
          "internalType": "address",
          "name": "owner",
          "type": "address"
        }
      ],
      "name": "nonces",
      "outputs": [
        {
          "internalType": "uint256",
          "name": "",
          "type": "uint256"
        }
      ],
      "stateMutability": "view",
      "type": "function"
    },
    {
      "inputs": [],
      "name": "owner",
      "outputs": [
        {
          "internalType": "address",
          "name": "",
          "type": "address"
        }
      ],
      "stateMutability": "view",
      "type": "function"
    },
    {
      "inputs": [
        {
          "internalType": "address",
          "name": "owner",
          "type": "address"
        },
        {
          "internalType": "address",
          "name": "spender",
          "type": "address"
        },
        {
          "internalType": "uint256",
          "name": "value",
          "type": "uint256"
        },
        {
          "internalType": "uint256",
          "name": "deadline",
          "type": "uint256"
        },
        {
          "internalType": "uint8",
          "name": "v",
          "type": "uint8"
        },
        {
          "internalType": "bytes32",
          "name": "r",
          "type": "bytes32"
        },
        {
          "internalType": "bytes32",
          "name": "s",
          "type": "bytes32"
        }
      ],
      "name": "permit",
      "outputs": [],
      "stateMutability": "nonpayable",
      "type": "function"
    },
    {
      "inputs": [],
      "name": "renounceOwnership",
      "outputs": [],
      "stateMutability": "nonpayable",
      "type": "function"
    },
    {
      "inputs": [
        {
          "internalType": "contract OysterVault",
          "name": "_vault",
          "type": "address"
        }
      ],
      "name": "setVault",
      "outputs": [],
      "stateMutability": "nonpayable",
      "type": "function"
    },
    {
      "inputs": [],
      "name": "symbol",
      "outputs": [
        {
          "internalType": "string",
          "name": "",
          "type": "string"
        }
      ],
      "stateMutability": "view",
      "type": "function"
    },
    {
      "inputs": [],
      "name": "totalSupply",
      "outputs": [
        {
          "internalType": "uint256",
          "name": "",
          "type": "uint256"
        }
      ],
      "stateMutability": "view",
      "type": "function"
    },
    {
      "inputs": [
        {
          "internalType": "address",
          "name": "to",
          "type": "address"
        },
        {
          "internalType": "uint256",
          "name": "value",
          "type": "uint256"
        }
      ],
      "name": "transfer",
      "outputs": [
        {
          "internalType": "bool",
          "name": "",
          "type": "bool"
        }
      ],
      "stateMutability": "nonpayable",
      "type": "function"
    },
    {
      "inputs": [
        {
          "internalType": "address",
          "name": "from",
          "type": "address"
        },
        {
          "internalType": "address",
          "name": "to",
          "type": "address"
        },
        {
          "internalType": "uint256",
          "name": "value",
          "type": "uint256"
        }
      ],
      "name": "transferFrom",
      "outputs": [
        {
          "internalType": "bool",
          "name": "",
          "type": "bool"
        }
      ],
      "stateMutability": "nonpayable",
      "type": "function"
    },
    {
      "inputs": [
        {
          "internalType": "address",
          "name": "newOwner",
          "type": "address"
        }
      ],
      "name": "transferOwnership",
      "outputs": [],
      "stateMutability": "nonpayable",
      "type": "function"
    },
    {
      "inputs": [
        {
          "internalType": "address",
          "name": "",
          "type": "address"
        }
      ],
      "name": "validMusicContracts",
      "outputs": [
        {
          "internalType": "bool",
          "name": "",
          "type": "bool"
        }
      ],
      "stateMutability": "view",
      "type": "function"
    },
    {
      "inputs": [
        {
          "internalType": "address",
          "name": "addressMusicContract",
          "type": "address"
        }
      ],
      "name": "validateMusicContracts",
      "outputs": [
        {
          "internalType": "bool",
          "name": "",
          "type": "bool"
        }
      ],
      "stateMutability": "nonpayable",
      "type": "function"
    },
    {
      "inputs": [],
      "name": "vault",
      "outputs": [
        {
          "internalType": "contract OysterVault",
          "name": "",
          "type": "address"
        }
      ],
      "stateMutability": "view",
      "type": "function"
    }
  ],
  "bytecode": "0x61016060405234801561001157600080fd5b50604051611cd7380380611cd783398101604081905261003091610285565b6040518060400160405280600b81526020016a27bcb9ba32b92a37b5b2b760a91b81525080604051806040016040528060018152602001603160f81b815250846040518060400160405280600b81526020016a27bcb9ba32b92a37b5b2b760a91b8152506040518060400160405280600381526020016213d4d560ea1b81525081600390816100bf919061035e565b5060046100cc828261035e565b5050506001600160a01b0381166100fe57604051631e4fbdf760e01b8152600060048201526024015b60405180910390fd5b610107816101c2565b50610113826006610214565b61012052610122816007610214565b61014052815160208084019190912060e052815190820120610100524660a0526101af60e05161010051604080517f8b73c3c69bb8fe3d512ecc4cf759cc79239f7b179b0ffacaa9a75d522b39400f60208201529081019290925260608201524660808201523060a082015260009060c00160405160208183030381529060405280519060200120905090565b60805250503060c05250600b555061048e565b600580546001600160a01b038381166001600160a01b0319831681179093556040519116919082907f8be0079c531659141344cd1fd0a4f28419497f9722a3daafe3b4186f6b6457e090600090a35050565b60006020835110156102305761022983610247565b9050610241565b8161023b848261035e565b5060ff90505b92915050565b600080829050601f81511115610272578260405163305a27a960e01b81526004016100f5919061041c565b805161027d8261046a565b179392505050565b6000806040838503121561029857600080fd5b82516001600160a01b03811681146102af57600080fd5b6020939093015192949293505050565b634e487b7160e01b600052604160045260246000fd5b600181811c908216806102e957607f821691505b60208210810361030957634e487b7160e01b600052602260045260246000fd5b50919050565b601f82111561035957806000526020600020601f840160051c810160208510156103365750805b601f840160051c820191505b818110156103565760008155600101610342565b50505b505050565b81516001600160401b03811115610377576103776102bf565b61038b8161038584546102d5565b8461030f565b6020601f8211600181146103bf57600083156103a75750848201515b600019600385901b1c1916600184901b178455610356565b600084815260208120601f198516915b828110156103ef57878501518255602094850194600190920191016103cf565b508482101561040d5786840151600019600387901b60f8161c191681555b50505050600190811b01905550565b602081526000825180602084015260005b8181101561044a576020818601810151604086840101520161042d565b506000604082850101526040601f19601f83011684010191505092915050565b805160208083015191908110156103095760001960209190910360031b1b16919050565b60805160a05160c05160e0516101005161012051610140516117ef6104e86000396000610f7101526000610f4401526000610e9a01526000610e7201526000610dcd01526000610df701526000610e2101526117ef6000f3fe60806040526004361061014b5760003560e01c80637ecebe00116100b6578063d505accf1161006f578063d505accf146103ad578063dd62ed3e146103cd578063ec8ac4d814610413578063f2fde38b14610426578063f89fbe6a14610446578063fbfa77cf1461047657600080fd5b80637ecebe00146102e857806384b0196e146103085780638da5cb5b1461033057806395d89b4114610362578063a11d08c714610377578063a9059cbb1461038d57600080fd5b80633644e515116101085780633644e5151461022857806340c10f191461023d5780636817031b1461025d57806370a082311461027d578063715018a6146102b35780637eb4cde7146102c857600080fd5b806306fdde0314610150578063095ea7b31461017b57806318160ddd146101ab57806323b872dd146101ca57806324c93837146101ea578063313ce5671461020c575b600080fd5b34801561015c57600080fd5b50610165610496565b60405161017291906114d1565b60405180910390f35b34801561018757600080fd5b5061019b610196366004611500565b610528565b6040519015158152602001610172565b3480156101b757600080fd5b506002545b604051908152602001610172565b3480156101d657600080fd5b5061019b6101e536600461152c565b610542565b3480156101f657600080fd5b5061020a61020536600461156d565b610566565b005b34801561021857600080fd5b5060405160128152602001610172565b34801561023457600080fd5b506101bc61061e565b34801561024957600080fd5b5061020a610258366004611500565b61062d565b34801561026957600080fd5b5061020a610278366004611586565b610643565b34801561028957600080fd5b506101bc610298366004611586565b6001600160a01b031660009081526020819052604090205490565b3480156102bf57600080fd5b5061020a61073c565b3480156102d457600080fd5b5061019b6102e3366004611586565b610750565b3480156102f457600080fd5b506101bc610303366004611586565b6107c2565b34801561031457600080fd5b5061031d6107e0565b60405161017297969594939291906115a3565b34801561033c57600080fd5b506005546001600160a01b03165b6040516001600160a01b039091168152602001610172565b34801561036e57600080fd5b50610165610826565b34801561038357600080fd5b506101bc600b5481565b34801561039957600080fd5b5061019b6103a8366004611500565b610835565b3480156103b957600080fd5b5061020a6103c836600461163b565b610843565b3480156103d957600080fd5b506101bc6103e83660046116b2565b6001600160a01b03918216600090815260016020908152604080832093909416825291909152205490565b61020a610421366004611586565b61097d565b34801561043257600080fd5b5061020a610441366004611586565b610c33565b34801561045257600080fd5b5061019b610461366004611586565b600a6020526000908152604090205460ff1681565b34801561048257600080fd5b5060095461034a906001600160a01b031681565b6060600380546104a5906116eb565b80601f01602080910402602001604051908101604052809291908181526020018280546104d1906116eb565b801561051e5780601f106104f35761010080835404028352916020019161051e565b820191906000526020600020905b81548152906001019060200180831161050157829003601f168201915b5050505050905090565b600033610536818585610c6e565b60019150505b92915050565b600033610550858285610c80565b61055b858585610cfe565b506001949350505050565b61056e610d5d565b6009546040518281526001600160a01b03909116907fce08323565e2d8d0b35079e085b0eb3b8ab66acf2cabd4a67a985db6509766d19060200160405180910390a26009546001600160a01b03166106055760405162461bcd60e51b815260206004820152601560248201527415985d5b1d081859191c995cdcc81b9bdd081cd95d605a1b60448201526064015b60405180910390fd5b60095461061b906001600160a01b031682610d8a565b50565b6000610628610dc0565b905090565b610635610d5d565b61063f8282610d8a565b5050565b61064b610d5d565b6040516001600160a01b038216907fd459c7242e23d490831b5676a611c4342d899d28f342d89ae80793e56a930f3090600090a26001600160a01b0381166106cd5760405162461bcd60e51b8152602060048201526015602482015274496e76616c6964207661756c74206164647265737360581b60448201526064016105fc565b6009546001600160a01b03161561071a5760405162461bcd60e51b815260206004820152601160248201527015985d5b1d08185b1c9958591e481cd95d607a1b60448201526064016105fc565b600980546001600160a01b0319166001600160a01b0392909216919091179055565b610744610d5d565b61074e6000610eeb565b565b600061075a610d5d565b604051600181526001600160a01b038316907f9a62342b40f29e0bb7f7221d0d9d62210855ec99729d37ee9f7d66d98b0897c29060200160405180910390a2506001600160a01b03166000908152600a60205260409020805460ff1916600190811790915590565b6001600160a01b03811660009081526008602052604081205461053c565b6000606080600080600060606107f4610f3d565b6107fc610f6a565b60408051600080825260208201909252600f60f81b9b939a50919850469750309650945092509050565b6060600480546104a5906116eb565b600033610536818585610cfe565b834211156108675760405163313c898160e11b8152600481018590526024016105fc565b60007f6e71edae12b1b97f4d1f60370fef10105fa2faae0126114a169c64845d6126c98888886108b48c6001600160a01b0316600090815260086020526040902080546001810190915590565b6040805160208101969096526001600160a01b0394851690860152929091166060840152608083015260a082015260c0810186905260e001604051602081830303815290604052805190602001209050600061090f82610f97565b9050600061091f82878787610fc4565b9050896001600160a01b0316816001600160a01b031614610966576040516325c0072360e11b81526001600160a01b0380831660048301528b1660248201526044016105fc565b6109718a8a8a610c6e565b50505050505050505050565b6001600160a01b0381166000908152600a602052604090205460ff166109e55760405162461bcd60e51b815260206004820152601d60248201527f496e76616c6964204d75736963436f6e7472616374206164647265737300000060448201526064016105fc565b6000600b54346109f59190611725565b905080600960009054906101000a90046001600160a01b03166001600160a01b0316631f4aad2a6040518163ffffffff1660e01b8152600401602060405180830381865afa158015610a4b573d6000803e3d6000fd5b505050506040513d601f19601f82011682018060405250810190610a6f9190611747565b1015610abd5760405162461bcd60e51b815260206004820152601c60248201527f496e73756666696369656e7420746f6b656e7320696e207661756c740000000060448201526064016105fc565b600954604051632093325760e11b81526001600160a01b038481166004830152602482018490529091169063412664ae906044016020604051808303816000875af1158015610b10573d6000803e3d6000fd5b505050506040513d601f19601f82011682018060405250810190610b349190611760565b610b9a5760405162461bcd60e51b815260206004820152603160248201527f546f6b656e207472616e736665722066726f6d207661756c7420746f204d75736044820152701a58d0dbdb9d1c9858dd0819985a5b1959607a1b60648201526084016105fc565b6040516322ea223160e01b8152336004820152602481018290526001600160a01b038316906322ea223190604401600060405180830381600087803b158015610be257600080fd5b505af1158015610bf6573d6000803e3d6000fd5b50506040518381523392507f4aff2c4e63da20aaa26764b3e97f557bf5e95b76ddba8f97a156abbecb081846915060200160405180910390a25050565b610c3b610d5d565b6001600160a01b038116610c6557604051631e4fbdf760e01b8152600060048201526024016105fc565b61061b81610eeb565b610c7b8383836001610ff2565b505050565b6001600160a01b038381166000908152600160209081526040808320938616835292905220546000198114610cf85781811015610ce957604051637dc7a0d960e11b81526001600160a01b038416600482015260248101829052604481018390526064016105fc565b610cf884848484036000610ff2565b50505050565b6001600160a01b038316610d2857604051634b637e8f60e11b8152600060048201526024016105fc565b6001600160a01b038216610d525760405163ec442f0560e01b8152600060048201526024016105fc565b610c7b8383836110c7565b6005546001600160a01b0316331461074e5760405163118cdaa760e01b81523360048201526024016105fc565b6001600160a01b038216610db45760405163ec442f0560e01b8152600060048201526024016105fc565b61063f600083836110c7565b6000306001600160a01b037f000000000000000000000000000000000000000000000000000000000000000016148015610e1957507f000000000000000000000000000000000000000000000000000000000000000046145b15610e4357507f000000000000000000000000000000000000000000000000000000000000000090565b610628604080517f8b73c3c69bb8fe3d512ecc4cf759cc79239f7b179b0ffacaa9a75d522b39400f60208201527f0000000000000000000000000000000000000000000000000000000000000000918101919091527f000000000000000000000000000000000000000000000000000000000000000060608201524660808201523060a082015260009060c00160405160208183030381529060405280519060200120905090565b600580546001600160a01b038381166001600160a01b0319831681179093556040519116919082907f8be0079c531659141344cd1fd0a4f28419497f9722a3daafe3b4186f6b6457e090600090a35050565b60606106287f000000000000000000000000000000000000000000000000000000000000000060066111f1565b60606106287f000000000000000000000000000000000000000000000000000000000000000060076111f1565b600061053c610fa4610dc0565b8360405161190160f01b8152600281019290925260228201526042902090565b600080600080610fd68888888861129c565b925092509250610fe6828261136b565b50909695505050505050565b6001600160a01b03841661101c5760405163e602df0560e01b8152600060048201526024016105fc565b6001600160a01b03831661104657604051634a1406b160e11b8152600060048201526024016105fc565b6001600160a01b0380851660009081526001602090815260408083209387168352929052208290558015610cf857826001600160a01b0316846001600160a01b03167f8c5be1e5ebec7d5bd14f71427d1e84f3dd0314c0f7b2291e5b200ac8c7c3b925846040516110b991815260200190565b60405180910390a350505050565b6001600160a01b0383166110f25780600260008282546110e79190611782565b909155506111649050565b6001600160a01b038316600090815260208190526040902054818110156111455760405163391434e360e21b81526001600160a01b038516600482015260248101829052604481018390526064016105fc565b6001600160a01b03841660009081526020819052604090209082900390555b6001600160a01b0382166111805760028054829003905561119f565b6001600160a01b03821660009081526020819052604090208054820190555b816001600160a01b0316836001600160a01b03167fddf252ad1be2c89b69c2b068fc378daa952ba7f163c4a11628f55a4df523b3ef836040516111e491815260200190565b60405180910390a3505050565b606060ff831461120b5761120483611424565b905061053c565b818054611217906116eb565b80601f0160208091040260200160405190810160405280929190818152602001828054611243906116eb565b80156112905780601f1061126557610100808354040283529160200191611290565b820191906000526020600020905b81548152906001019060200180831161127357829003601f168201915b5050505050905061053c565b600080807f7fffffffffffffffffffffffffffffff5d576e7357a4501ddfe92f46681b20a08411156112d75750600091506003905082611361565b604080516000808252602082018084528a905260ff891692820192909252606081018790526080810186905260019060a0016020604051602081039080840390855afa15801561132b573d6000803e3d6000fd5b5050604051601f1901519150506001600160a01b03811661135757506000925060019150829050611361565b9250600091508190505b9450945094915050565b600082600381111561137f5761137f6117a3565b03611388575050565b600182600381111561139c5761139c6117a3565b036113ba5760405163f645eedf60e01b815260040160405180910390fd5b60028260038111156113ce576113ce6117a3565b036113ef5760405163fce698f760e01b8152600481018290526024016105fc565b6003826003811115611403576114036117a3565b0361063f576040516335e2f38360e21b8152600481018290526024016105fc565b6060600061143183611463565b604080516020808252818301909252919250600091906020820181803683375050509182525060208101929092525090565b600060ff8216601f81111561053c57604051632cd44ac360e21b815260040160405180910390fd5b6000815180845260005b818110156114b157602081850181015186830182015201611495565b506000602082860101526020601f19601f83011685010191505092915050565b6020815260006114e4602083018461148b565b9392505050565b6001600160a01b038116811461061b57600080fd5b6000806040838503121561151357600080fd5b823561151e816114eb565b946020939093013593505050565b60008060006060848603121561154157600080fd5b833561154c816114eb565b9250602084013561155c816114eb565b929592945050506040919091013590565b60006020828403121561157f57600080fd5b5035919050565b60006020828403121561159857600080fd5b81356114e4816114eb565b60ff60f81b8816815260e0602082015260006115c260e083018961148b565b82810360408401526115d4818961148b565b606084018890526001600160a01b038716608085015260a0840186905283810360c08501528451808252602080870193509091019060005b8181101561162a57835183526020938401939092019160010161160c565b50909b9a5050505050505050505050565b600080600080600080600060e0888a03121561165657600080fd5b8735611661816114eb565b96506020880135611671816114eb565b95506040880135945060608801359350608088013560ff8116811461169557600080fd5b9699959850939692959460a0840135945060c09093013592915050565b600080604083850312156116c557600080fd5b82356116d0816114eb565b915060208301356116e0816114eb565b809150509250929050565b600181811c908216806116ff57607f821691505b60208210810361171f57634e487b7160e01b600052602260045260246000fd5b50919050565b60008261174257634e487b7160e01b600052601260045260246000fd5b500490565b60006020828403121561175957600080fd5b5051919050565b60006020828403121561177257600080fd5b815180151581146114e457600080fd5b8082018082111561053c57634e487b7160e01b600052601160045260246000fd5b634e487b7160e01b600052602160045260246000fdfea2646970667358221220881bce67ad099f2591f00aab982c92db7a34b6e960a73315cd4dba6812a40bf064736f6c634300081c0033",
  "linkReferences": {},
  "deployedLinkReferences": {}
}