{
  "_format": "hh-sol-artifact-1",
  "contractName": "OysterToken",
  "sourceName": "contracts/OysterToken.sol",
  "abi": [
    {
      "inputs": [
        {
          "internalType": "address",
          "name": "initialOwner",
          "type": "address"
        }
      ],
      "stateMutability": "nonpayable",
      "type": "constructor"
    },
    {
      "inputs": [],
      "name": "ECDSAInvalidSignature",
      "type": "error"
    },
    {
      "inputs": [
        {
          "internalType": "uint256",
          "name": "length",
          "type": "uint256"
        }
      ],
      "name": "ECDSAInvalidSignatureLength",
      "type": "error"
    },
    {
      "inputs": [
        {
          "internalType": "bytes32",
          "name": "s",
          "type": "bytes32"
        }
      ],
      "name": "ECDSAInvalidSignatureS",
      "type": "error"
    },
    {
      "inputs": [
        {
          "internalType": "address",
          "name": "spender",
          "type": "address"
        },
        {
          "internalType": "uint256",
          "name": "allowance",
          "type": "uint256"
        },
        {
          "internalType": "uint256",
          "name": "needed",
          "type": "uint256"
        }
      ],
      "name": "ERC20InsufficientAllowance",
      "type": "error"
    },
    {
      "inputs": [
        {
          "internalType": "address",
          "name": "sender",
          "type": "address"
        },
        {
          "internalType": "uint256",
          "name": "balance",
          "type": "uint256"
        },
        {
          "internalType": "uint256",
          "name": "needed",
          "type": "uint256"
        }
      ],
      "name": "ERC20InsufficientBalance",
      "type": "error"
    },
    {
      "inputs": [
        {
          "internalType": "address",
          "name": "approver",
          "type": "address"
        }
      ],
      "name": "ERC20InvalidApprover",
      "type": "error"
    },
    {
      "inputs": [
        {
          "internalType": "address",
          "name": "receiver",
          "type": "address"
        }
      ],
      "name": "ERC20InvalidReceiver",
      "type": "error"
    },
    {
      "inputs": [
        {
          "internalType": "address",
          "name": "sender",
          "type": "address"
        }
      ],
      "name": "ERC20InvalidSender",
      "type": "error"
    },
    {
      "inputs": [
        {
          "internalType": "address",
          "name": "spender",
          "type": "address"
        }
      ],
      "name": "ERC20InvalidSpender",
      "type": "error"
    },
    {
      "inputs": [
        {
          "internalType": "uint256",
          "name": "deadline",
          "type": "uint256"
        }
      ],
      "name": "ERC2612ExpiredSignature",
      "type": "error"
    },
    {
      "inputs": [
        {
          "internalType": "address",
          "name": "signer",
          "type": "address"
        },
        {
          "internalType": "address",
          "name": "owner",
          "type": "address"
        }
      ],
      "name": "ERC2612InvalidSigner",
      "type": "error"
    },
    {
      "inputs": [
        {
          "internalType": "address",
          "name": "account",
          "type": "address"
        },
        {
          "internalType": "uint256",
          "name": "currentNonce",
          "type": "uint256"
        }
      ],
      "name": "InvalidAccountNonce",
      "type": "error"
    },
    {
      "inputs": [],
      "name": "InvalidShortString",
      "type": "error"
    },
    {
      "inputs": [
        {
          "internalType": "address",
          "name": "owner",
          "type": "address"
        }
      ],
      "name": "OwnableInvalidOwner",
      "type": "error"
    },
    {
      "inputs": [
        {
          "internalType": "address",
          "name": "account",
          "type": "address"
        }
      ],
      "name": "OwnableUnauthorizedAccount",
      "type": "error"
    },
    {
      "inputs": [
        {
          "internalType": "string",
          "name": "str",
          "type": "string"
        }
      ],
      "name": "StringTooLong",
      "type": "error"
    },
    {
      "inputs": [
        {
          "internalType": "uint256",
          "name": "value",
          "type": "uint256"
        },
        {
          "internalType": "uint256",
          "name": "length",
          "type": "uint256"
        }
      ],
      "name": "StringsInsufficientHexLength",
      "type": "error"
    },
    {
      "anonymous": false,
      "inputs": [
        {
          "indexed": true,
          "internalType": "address",
          "name": "owner",
          "type": "address"
        },
        {
          "indexed": true,
          "internalType": "address",
          "name": "spender",
          "type": "address"
        },
        {
          "indexed": false,
          "internalType": "uint256",
          "name": "value",
          "type": "uint256"
        }
      ],
      "name": "Approval",
      "type": "event"
    },
    {
      "anonymous": false,
      "inputs": [],
      "name": "EIP712DomainChanged",
      "type": "event"
    },
    {
      "anonymous": false,
      "inputs": [
        {
          "indexed": true,
          "internalType": "address",
          "name": "previousOwner",
          "type": "address"
        },
        {
          "indexed": true,
          "internalType": "address",
          "name": "newOwner",
          "type": "address"
        }
      ],
      "name": "OwnershipTransferred",
      "type": "event"
    },
    {
      "anonymous": false,
      "inputs": [
        {
          "indexed": true,
          "internalType": "address",
          "name": "from",
          "type": "address"
        },
        {
          "indexed": true,
          "internalType": "address",
          "name": "to",
          "type": "address"
        },
        {
          "indexed": false,
          "internalType": "uint256",
          "name": "value",
          "type": "uint256"
        }
      ],
      "name": "Transfer",
      "type": "event"
    },
    {
      "anonymous": false,
      "inputs": [
        {
          "indexed": true,
          "internalType": "address",
          "name": "to",
          "type": "address"
        },
        {
          "indexed": false,
          "internalType": "uint256",
          "name": "weiAmount",
          "type": "uint256"
        }
      ],
      "name": "WeiRefunded",
      "type": "event"
    },
    {
      "anonymous": false,
      "inputs": [
        {
          "indexed": true,
          "internalType": "address",
          "name": "to",
          "type": "address"
        },
        {
          "indexed": false,
          "internalType": "uint256",
          "name": "weiAmount",
          "type": "uint256"
        }
      ],
      "name": "transferViaTokenSale",
      "type": "event"
    },
    {
      "anonymous": false,
      "inputs": [
        {
          "indexed": true,
          "internalType": "address",
          "name": "_address",
          "type": "address"
        },
        {
          "indexed": false,
          "internalType": "bool",
          "name": "valid",
          "type": "bool"
        }
      ],
      "name": "validatedMusicContract",
      "type": "event"
    },
    {
      "inputs": [],
      "name": "DOMAIN_SEPARATOR",
      "outputs": [
        {
          "internalType": "bytes32",
          "name": "",
          "type": "bytes32"
        }
      ],
      "stateMutability": "view",
      "type": "function"
    },
    {
      "inputs": [
        {
          "internalType": "address",
          "name": "owner",
          "type": "address"
        },
        {
          "internalType": "address",
          "name": "spender",
          "type": "address"
        }
      ],
      "name": "allowance",
      "outputs": [
        {
          "internalType": "uint256",
          "name": "",
          "type": "uint256"
        }
      ],
      "stateMutability": "view",
      "type": "function"
    },
    {
      "inputs": [
        {
          "internalType": "address",
          "name": "spender",
          "type": "address"
        },
        {
          "internalType": "uint256",
          "name": "value",
          "type": "uint256"
        }
      ],
      "name": "approve",
      "outputs": [
        {
          "internalType": "bool",
          "name": "",
          "type": "bool"
        }
      ],
      "stateMutability": "nonpayable",
      "type": "function"
    },
    {
      "inputs": [
        {
          "internalType": "address",
          "name": "account",
          "type": "address"
        }
      ],
      "name": "balanceOf",
      "outputs": [
        {
          "internalType": "uint256",
          "name": "",
          "type": "uint256"
        }
      ],
      "stateMutability": "view",
      "type": "function"
    },
    {
      "inputs": [],
      "name": "businessRateWei",
      "outputs": [
        {
          "internalType": "uint256",
          "name": "",
          "type": "uint256"
        }
      ],
      "stateMutability": "view",
      "type": "function"
    },
    {
      "inputs": [
        {
          "internalType": "address",
          "name": "_musicContractAddress",
          "type": "address"
        }
      ],
      "name": "buy100OSTToMusicContract",
      "outputs": [
        {
          "internalType": "bool",
          "name": "",
          "type": "bool"
        }
      ],
      "stateMutability": "payable",
      "type": "function"
    },
    {
      "inputs": [],
      "name": "decimals",
      "outputs": [
        {
          "internalType": "uint8",
          "name": "",
          "type": "uint8"
        }
      ],
      "stateMutability": "view",
      "type": "function"
    },
    {
      "inputs": [],
      "name": "eip712Domain",
      "outputs": [
        {
          "internalType": "bytes1",
          "name": "fields",
          "type": "bytes1"
        },
        {
          "internalType": "string",
          "name": "name",
          "type": "string"
        },
        {
          "internalType": "string",
          "name": "version",
          "type": "string"
        },
        {
          "internalType": "uint256",
          "name": "chainId",
          "type": "uint256"
        },
        {
          "internalType": "address",
          "name": "verifyingContract",
          "type": "address"
        },
        {
          "internalType": "bytes32",
          "name": "salt",
          "type": "bytes32"
        },
        {
          "internalType": "uint256[]",
          "name": "extensions",
          "type": "uint256[]"
        }
      ],
      "stateMutability": "view",
      "type": "function"
    },
    {
      "inputs": [],
      "name": "getBusinessRateWei",
      "outputs": [
        {
          "internalType": "uint256",
          "name": "",
          "type": "uint256"
        }
      ],
      "stateMutability": "view",
      "type": "function"
    },
    {
      "inputs": [],
      "name": "getGweiPerToken",
      "outputs": [
        {
          "internalType": "uint256",
          "name": "",
          "type": "uint256"
        }
      ],
      "stateMutability": "view",
      "type": "function"
    },
    {
      "inputs": [],
      "name": "gweiPerToken",
      "outputs": [
        {
          "internalType": "uint256",
          "name": "",
          "type": "uint256"
        }
      ],
      "stateMutability": "view",
      "type": "function"
    },
    {
      "inputs": [
        {
          "internalType": "uint256",
          "name": "amount",
          "type": "uint256"
        }
      ],
      "name": "mintToVault",
      "outputs": [],
      "stateMutability": "nonpayable",
      "type": "function"
    },
    {
      "inputs": [],
      "name": "name",
      "outputs": [
        {
          "internalType": "string",
          "name": "",
          "type": "string"
        }
      ],
      "stateMutability": "view",
      "type": "function"
    },
    {
      "inputs": [
        {
          "internalType": "address",
          "name": "owner",
          "type": "address"
        }
      ],
      "name": "nonces",
      "outputs": [
        {
          "internalType": "uint256",
          "name": "",
          "type": "uint256"
        }
      ],
      "stateMutability": "view",
      "type": "function"
    },
    {
      "inputs": [],
      "name": "owner",
      "outputs": [
        {
          "internalType": "address",
          "name": "",
          "type": "address"
        }
      ],
      "stateMutability": "view",
      "type": "function"
    },
    {
      "inputs": [
        {
          "internalType": "address",
          "name": "owner",
          "type": "address"
        },
        {
          "internalType": "address",
          "name": "spender",
          "type": "address"
        },
        {
          "internalType": "uint256",
          "name": "value",
          "type": "uint256"
        },
        {
          "internalType": "uint256",
          "name": "deadline",
          "type": "uint256"
        },
        {
          "internalType": "uint8",
          "name": "v",
          "type": "uint8"
        },
        {
          "internalType": "bytes32",
          "name": "r",
          "type": "bytes32"
        },
        {
          "internalType": "bytes32",
          "name": "s",
          "type": "bytes32"
        }
      ],
      "name": "permit",
      "outputs": [],
      "stateMutability": "nonpayable",
      "type": "function"
    },
    {
      "inputs": [],
      "name": "renounceOwnership",
      "outputs": [],
      "stateMutability": "nonpayable",
      "type": "function"
    },
    {
      "inputs": [
        {
          "internalType": "address",
          "name": "holder",
          "type": "address"
        },
        {
          "internalType": "uint256",
          "name": "amount",
          "type": "uint256"
        }
      ],
      "name": "sellOysterToken",
      "outputs": [
        {
          "internalType": "bool",
          "name": "",
          "type": "bool"
        }
      ],
      "stateMutability": "payable",
      "type": "function"
    },
    {
      "inputs": [
        {
          "internalType": "contract OysterVault",
          "name": "_vault",
          "type": "address"
        }
      ],
      "name": "setVault",
      "outputs": [],
      "stateMutability": "nonpayable",
      "type": "function"
    },
    {
      "inputs": [],
      "name": "symbol",
      "outputs": [
        {
          "internalType": "string",
          "name": "",
          "type": "string"
        }
      ],
      "stateMutability": "view",
      "type": "function"
    },
    {
      "inputs": [],
      "name": "totalSupply",
      "outputs": [
        {
          "internalType": "uint256",
          "name": "",
          "type": "uint256"
        }
      ],
      "stateMutability": "view",
      "type": "function"
    },
    {
      "inputs": [
        {
          "internalType": "address",
          "name": "to",
          "type": "address"
        },
        {
          "internalType": "uint256",
          "name": "value",
          "type": "uint256"
        }
      ],
      "name": "transfer",
      "outputs": [
        {
          "internalType": "bool",
          "name": "",
          "type": "bool"
        }
      ],
      "stateMutability": "nonpayable",
      "type": "function"
    },
    {
      "inputs": [
        {
          "internalType": "address",
          "name": "from",
          "type": "address"
        },
        {
          "internalType": "address",
          "name": "to",
          "type": "address"
        },
        {
          "internalType": "uint256",
          "name": "value",
          "type": "uint256"
        }
      ],
      "name": "transferFrom",
      "outputs": [
        {
          "internalType": "bool",
          "name": "",
          "type": "bool"
        }
      ],
      "stateMutability": "nonpayable",
      "type": "function"
    },
    {
      "inputs": [
        {
          "internalType": "address",
          "name": "newOwner",
          "type": "address"
        }
      ],
      "name": "transferOwnership",
      "outputs": [],
      "stateMutability": "nonpayable",
      "type": "function"
    },
    {
      "inputs": [
        {
          "internalType": "address",
          "name": "",
          "type": "address"
        }
      ],
      "name": "validMusicContracts",
      "outputs": [
        {
          "internalType": "bool",
          "name": "",
          "type": "bool"
        }
      ],
      "stateMutability": "view",
      "type": "function"
    },
    {
      "inputs": [
        {
          "internalType": "address",
          "name": "addressMusicContract",
          "type": "address"
        }
      ],
      "name": "validateMusicContracts",
      "outputs": [
        {
          "internalType": "bool",
          "name": "",
          "type": "bool"
        }
      ],
      "stateMutability": "nonpayable",
      "type": "function"
    },
    {
      "inputs": [],
      "name": "vault",
      "outputs": [
        {
          "internalType": "contract OysterVault",
          "name": "",
          "type": "address"
        }
      ],
      "stateMutability": "view",
      "type": "function"
    }
  ],
  "bytecode": "0x61016060405265b5e620f48000600b5561c350600c5534801561002157600080fd5b506040516123b93803806123b983398101604081905261004091610293565b6040518060400160405280600b81526020016a27bcb9ba32b92a37b5b2b760a91b81525080604051806040016040528060018152602001603160f81b815250836040518060400160405280600b81526020016a27bcb9ba32b92a37b5b2b760a91b8152506040518060400160405280600381526020016213d4d560ea1b81525081600390816100cf9190610362565b5060046100dc8282610362565b5050506001600160a01b03811661010e57604051631e4fbdf760e01b8152600060048201526024015b60405180910390fd5b610117816101d0565b50610123826006610222565b61012052610132816007610222565b61014052815160208084019190912060e052815190820120610100524660a0526101bf60e05161010051604080517f8b73c3c69bb8fe3d512ecc4cf759cc79239f7b179b0ffacaa9a75d522b39400f60208201529081019290925260608201524660808201523060a082015260009060c00160405160208183030381529060405280519060200120905090565b60805250503060c052506104929050565b600580546001600160a01b038381166001600160a01b0319831681179093556040519116919082907f8be0079c531659141344cd1fd0a4f28419497f9722a3daafe3b4186f6b6457e090600090a35050565b600060208351101561023e5761023783610255565b905061024f565b816102498482610362565b5060ff90505b92915050565b600080829050601f81511115610280578260405163305a27a960e01b81526004016101059190610420565b805161028b8261046e565b179392505050565b6000602082840312156102a557600080fd5b81516001600160a01b03811681146102bc57600080fd5b9392505050565b634e487b7160e01b600052604160045260246000fd5b600181811c908216806102ed57607f821691505b60208210810361030d57634e487b7160e01b600052602260045260246000fd5b50919050565b601f82111561035d57806000526020600020601f840160051c8101602085101561033a5750805b601f840160051c820191505b8181101561035a5760008155600101610346565b50505b505050565b81516001600160401b0381111561037b5761037b6102c3565b61038f8161038984546102d9565b84610313565b6020601f8211600181146103c357600083156103ab5750848201515b600019600385901b1c1916600184901b17845561035a565b600084815260208120601f198516915b828110156103f357878501518255602094850194600190920191016103d3565b50848210156104115786840151600019600387901b60f8161c191681555b50505050600190811b01905550565b602081526000825180602084015260005b8181101561044e5760208186018101516040868401015201610431565b506000604082850101526040601f19601f83011684010191505092915050565b8051602080830151919081101561030d5760001960209190910360031b1b16919050565b60805160a05160c05160e051610100516101205161014051611ecd6104ec600039600061128c0152600061125f015260006111b50152600061118d015260006110e8015260006111120152600061113c0152611ecd6000f3fe60806040526004361061019c5760003560e01c80637eb4cde7116100ec578063a9059cbb1161008a578063dd62ed3e11610064578063dd62ed3e14610464578063f2fde38b146104aa578063f89fbe6a146104ca578063fbfa77cf146104fa57600080fd5b8063a9059cbb14610411578063b9ed3e7d14610431578063d505accf1461044457600080fd5b806384b0196e116100c657806384b0196e1461038c5780638da5cb5b146103b457806395d89b41146103e6578063a11d08c7146103fb57600080fd5b80637eb4cde7146103365780637ecebe00146103565780638474fe4a1461037657600080fd5b8063313ce567116101595780636817031b116101335780636817031b146102b65780636ae46547146102d657806370a08231146102eb578063715018a61461032157600080fd5b8063313ce567146102705780633644e5151461028c57806351a6c00d146102a157600080fd5b806306fdde03146101a1578063095ea7b3146101cc5780630a3871eb146101fc57806318160ddd1461020f57806323b872dd1461022e57806324c938371461024e575b600080fd5b3480156101ad57600080fd5b506101b661051a565b6040516101c39190611a78565b60405180910390f35b3480156101d857600080fd5b506101ec6101e7366004611aa7565b6105ac565b60405190151581526020016101c3565b6101ec61020a366004611aa7565b6105c6565b34801561021b57600080fd5b506002545b6040519081526020016101c3565b34801561023a57600080fd5b506101ec610249366004611ad3565b61078c565b34801561025a57600080fd5b5061026e610269366004611b14565b6107b0565b005b34801561027c57600080fd5b50604051601281526020016101c3565b34801561029857600080fd5b50610220610821565b3480156102ad57600080fd5b50600b54610220565b3480156102c257600080fd5b5061026e6102d1366004611b2d565b610830565b3480156102e257600080fd5b50600c54610220565b3480156102f757600080fd5b50610220610306366004611b2d565b6001600160a01b031660009081526020819052604090205490565b34801561032d57600080fd5b5061026e6108f5565b34801561034257600080fd5b506101ec610351366004611b2d565b610909565b34801561036257600080fd5b50610220610371366004611b2d565b610975565b34801561038257600080fd5b50610220600b5481565b34801561039857600080fd5b506103a1610993565b6040516101c39796959493929190611b4a565b3480156103c057600080fd5b506005546001600160a01b03165b6040516001600160a01b0390911681526020016101c3565b3480156103f257600080fd5b506101b66109d9565b34801561040757600080fd5b50610220600c5481565b34801561041d57600080fd5b506101ec61042c366004611aa7565b6109e8565b6101ec61043f366004611b2d565b6109f6565b34801561045057600080fd5b5061026e61045f366004611be2565b610d24565b34801561047057600080fd5b5061022061047f366004611c59565b6001600160a01b03918216600090815260016020908152604080832093909416825291909152205490565b3480156104b657600080fd5b5061026e6104c5366004611b2d565b610e5e565b3480156104d657600080fd5b506101ec6104e5366004611b2d565b600a6020526000908152604090205460ff1681565b34801561050657600080fd5b506009546103ce906001600160a01b031681565b60606003805461052990611c92565b80601f016020809104026020016040519081016040528092919081815260200182805461055590611c92565b80156105a25780601f10610577576101008083540402835291602001916105a2565b820191906000526020600020905b81548152906001019060200180831161058557829003601f168201915b5050505050905090565b6000336105ba818585610e99565b60019150505b92915050565b600080821161061c5760405162461bcd60e51b815260206004820181905260248201527f416d6f756e74206d7573742062652067726561746572207468616e207a65726f60448201526064015b60405180910390fd5b61066061062833610eab565b61063185610eab565b61063a85610ec1565b60405160200161064c93929190611ccc565b604051602081830303815290604052610f54565b600954604051630357291360e41b8152336004820152602481018490526001600160a01b03909116906335729130906044016020604051808303816000875af11580156106b1573d6000803e3d6000fd5b505050506040513d601f19601f820116820180604052508101906106d59190611d64565b50652d79883d200060006106e98483611d9c565b90506107076106f782610ec1565b60405160200161064c9190611db3565b6040516001600160a01b0386169082156108fc029083906000818181858888f1935050505015801561073d573d6000803e3d6000fd5b50846001600160a01b03167f66002148a13b0a635b2dd6a9f2f5f8dd5a438fc69cb89f096b1cb6facf14b2ea8260405161077991815260200190565b60405180910390a2506001949350505050565b60003361079a858285610f97565b6107a5858585611015565b506001949350505050565b6107b8611074565b6009546001600160a01b03166108085760405162461bcd60e51b815260206004820152601560248201527415985d5b1d081859191c995cdcc81b9bdd081cd95d605a1b6044820152606401610613565b60095461081e906001600160a01b0316826110a1565b50565b600061082b6110db565b905090565b610838611074565b6001600160a01b0381166108865760405162461bcd60e51b8152602060048201526015602482015274496e76616c6964207661756c74206164647265737360581b6044820152606401610613565b6009546001600160a01b0316156108d35760405162461bcd60e51b815260206004820152601160248201527015985d5b1d08185b1c9958591e481cd95d607a1b6044820152606401610613565b600980546001600160a01b0319166001600160a01b0392909216919091179055565b6108fd611074565b6109076000611206565b565b6000610913611074565b6001600160a01b0382166000818152600a6020908152604091829020805460ff1916600190811790915591519182527f8828c88ef46029fc10c19655c4c67e16d76903c9fbd9170b8298d51194ed7508910160405180910390a2506001919050565b6001600160a01b0381166000908152600860205260408120546105c0565b6000606080600080600060606109a7611258565b6109af611285565b60408051600080825260208201909252600f60f81b9b939a50919850469750309650945092509050565b60606004805461052990611c92565b6000336105ba818585611015565b6001600160a01b0381166000908152600a602052604081205460ff16610a5e5760405162461bcd60e51b815260206004820152601d60248201527f496e76616c6964204d75736963436f6e747261637420616464726573730000006044820152606401610613565b6000600b54600c546064610a729190611d9c565b610a8090633b9aca00611d9c565b610a8a9190611e15565b905080341015610ae85760405162461bcd60e51b815260206004820152602360248201527f496e73756666696369656e74205765692073656e7420746f2062757920746f6b604482015262656e7360e81b6064820152608401610613565b6000610af48234611e28565b90506064600960009054906101000a90046001600160a01b03166001600160a01b0316631f4aad2a6040518163ffffffff1660e01b8152600401602060405180830381865afa158015610b4b573d6000803e3d6000fd5b505050506040513d601f19601f82011682018060405250810190610b6f9190611e3b565b1015610bcf5760405162461bcd60e51b815260206004820152602960248201527f4e6f7420656e6f75676820746f6b656e7320696e204f7973746572546f6b656e6044820152680818dbdb9d1c9858dd60ba1b6064820152608401610613565b8015610c6f57604051600090339083908381818185875af1925050503d8060008114610c17576040519150601f19603f3d011682016040523d82523d6000602084013e610c1c565b606091505b5050905080610c6d5760405162461bcd60e51b815260206004820152601e60248201527f4661696c656420746f2073656e642072656d61696e696e6720457468657200006044820152606401610613565b505b600954604051632093325760e11b8152336004820152606460248201526001600160a01b039091169063412664ae906044016020604051808303816000875af1158015610cc0573d6000803e3d6000fd5b505050506040513d601f19601f82011682018060405250810190610ce49190611d64565b5060405181815233907ffec51bd7a12167abbae91302df382bf09c27aab7a4fddd88f056c6ab1c9b8e209060200160405180910390a25060019392505050565b83421115610d485760405163313c898160e11b815260048101859052602401610613565b60007f6e71edae12b1b97f4d1f60370fef10105fa2faae0126114a169c64845d6126c9888888610d958c6001600160a01b0316600090815260086020526040902080546001810190915590565b6040805160208101969096526001600160a01b0394851690860152929091166060840152608083015260a082015260c0810186905260e0016040516020818303038152906040528051906020012090506000610df0826112b2565b90506000610e00828787876112df565b9050896001600160a01b0316816001600160a01b031614610e47576040516325c0072360e11b81526001600160a01b0380831660048301528b166024820152604401610613565b610e528a8a8a610e99565b50505050505050505050565b610e66611074565b6001600160a01b038116610e9057604051631e4fbdf760e01b815260006004820152602401610613565b61081e81611206565b610ea6838383600161130d565b505050565b60606105c06001600160a01b03831660146113e2565b60606000610ece83611562565b600101905060008167ffffffffffffffff811115610eee57610eee611dff565b6040519080825280601f01601f191660200182016040528015610f18576020820181803683370190505b5090508181016020015b600019016f181899199a1a9b1b9c1cb0b131b232b360811b600a86061a8153600a8504945084610f2257509392505050565b61081e81604051602401610f689190611a78565b60408051601f198184030181529190526020810180516001600160e01b031663104c13eb60e21b17905261163a565b6001600160a01b03838116600090815260016020908152604080832093861683529290522054600019811461100f578181101561100057604051637dc7a0d960e11b81526001600160a01b03841660048201526024810182905260448101839052606401610613565b61100f8484848403600061130d565b50505050565b6001600160a01b03831661103f57604051634b637e8f60e11b815260006004820152602401610613565b6001600160a01b0382166110695760405163ec442f0560e01b815260006004820152602401610613565b610ea6838383611643565b6005546001600160a01b031633146109075760405163118cdaa760e01b8152336004820152602401610613565b6001600160a01b0382166110cb5760405163ec442f0560e01b815260006004820152602401610613565b6110d760008383611643565b5050565b6000306001600160a01b037f00000000000000000000000000000000000000000000000000000000000000001614801561113457507f000000000000000000000000000000000000000000000000000000000000000046145b1561115e57507f000000000000000000000000000000000000000000000000000000000000000090565b61082b604080517f8b73c3c69bb8fe3d512ecc4cf759cc79239f7b179b0ffacaa9a75d522b39400f60208201527f0000000000000000000000000000000000000000000000000000000000000000918101919091527f000000000000000000000000000000000000000000000000000000000000000060608201524660808201523060a082015260009060c00160405160208183030381529060405280519060200120905090565b600580546001600160a01b038381166001600160a01b0319831681179093556040519116919082907f8be0079c531659141344cd1fd0a4f28419497f9722a3daafe3b4186f6b6457e090600090a35050565b606061082b7f0000000000000000000000000000000000000000000000000000000000000000600661176d565b606061082b7f0000000000000000000000000000000000000000000000000000000000000000600761176d565b60006105c06112bf6110db565b8360405161190160f01b8152600281019290925260228201526042902090565b6000806000806112f188888888611818565b92509250925061130182826118e7565b50909695505050505050565b6001600160a01b0384166113375760405163e602df0560e01b815260006004820152602401610613565b6001600160a01b03831661136157604051634a1406b160e11b815260006004820152602401610613565b6001600160a01b038085166000908152600160209081526040808320938716835292905220829055801561100f57826001600160a01b0316846001600160a01b03167f8c5be1e5ebec7d5bd14f71427d1e84f3dd0314c0f7b2291e5b200ac8c7c3b925846040516113d491815260200190565b60405180910390a350505050565b60608260006113f2846002611d9c565b6113fd906002611e15565b67ffffffffffffffff81111561141557611415611dff565b6040519080825280601f01601f19166020018201604052801561143f576020820181803683370190505b509050600360fc1b8160008151811061145a5761145a611e54565b60200101906001600160f81b031916908160001a905350600f60fb1b8160018151811061148957611489611e54565b60200101906001600160f81b031916908160001a90535060006114ad856002611d9c565b6114b8906001611e15565b90505b6001811115611530576f181899199a1a9b1b9c1cb0b131b232b360811b83600f16601081106114ec576114ec611e54565b1a60f81b82828151811061150257611502611e54565b60200101906001600160f81b031916908160001a90535060049290921c9161152981611e6a565b90506114bb565b50811561155a5760405163e22e27eb60e01b81526004810186905260248101859052604401610613565b949350505050565b60008072184f03e93ff9f4daa797ed6e38ed64bf6a1f0160401b83106115a15772184f03e93ff9f4daa797ed6e38ed64bf6a1f0160401b830492506040015b6d04ee2d6d415b85acef810000000083106115cd576d04ee2d6d415b85acef8100000000830492506020015b662386f26fc1000083106115eb57662386f26fc10000830492506010015b6305f5e1008310611603576305f5e100830492506008015b612710831061161757612710830492506004015b60648310611629576064830492506002015b600a83106105c05760010192915050565b61081e816119a0565b6001600160a01b03831661166e5780600260008282546116639190611e15565b909155506116e09050565b6001600160a01b038316600090815260208190526040902054818110156116c15760405163391434e360e21b81526001600160a01b03851660048201526024810182905260448101839052606401610613565b6001600160a01b03841660009081526020819052604090209082900390555b6001600160a01b0382166116fc5760028054829003905561171b565b6001600160a01b03821660009081526020819052604090208054820190555b816001600160a01b0316836001600160a01b03167fddf252ad1be2c89b69c2b068fc378daa952ba7f163c4a11628f55a4df523b3ef8360405161176091815260200190565b60405180910390a3505050565b606060ff831461178757611780836119c1565b90506105c0565b81805461179390611c92565b80601f01602080910402602001604051908101604052809291908181526020018280546117bf90611c92565b801561180c5780601f106117e15761010080835404028352916020019161180c565b820191906000526020600020905b8154815290600101906020018083116117ef57829003601f168201915b505050505090506105c0565b600080807f7fffffffffffffffffffffffffffffff5d576e7357a4501ddfe92f46681b20a084111561185357506000915060039050826118dd565b604080516000808252602082018084528a905260ff891692820192909252606081018790526080810186905260019060a0016020604051602081039080840390855afa1580156118a7573d6000803e3d6000fd5b5050604051601f1901519150506001600160a01b0381166118d3575060009250600191508290506118dd565b9250600091508190505b9450945094915050565b60008260038111156118fb576118fb611e81565b03611904575050565b600182600381111561191857611918611e81565b036119365760405163f645eedf60e01b815260040160405180910390fd5b600282600381111561194a5761194a611e81565b0361196b5760405163fce698f760e01b815260048101829052602401610613565b600382600381111561197f5761197f611e81565b036110d7576040516335e2f38360e21b815260048101829052602401610613565b60006a636f6e736f6c652e6c6f679050600080835160208501845afa505050565b606060006119ce83611a00565b604080516020808252818301909252919250600091906020820181803683375050509182525060208101929092525090565b600060ff8216601f8111156105c057604051632cd44ac360e21b815260040160405180910390fd5b60005b83811015611a43578181015183820152602001611a2b565b50506000910152565b60008151808452611a64816020860160208601611a28565b601f01601f19169290920160200192915050565b602081526000611a8b6020830184611a4c565b9392505050565b6001600160a01b038116811461081e57600080fd5b60008060408385031215611aba57600080fd5b8235611ac581611a92565b946020939093013593505050565b600080600060608486031215611ae857600080fd5b8335611af381611a92565b92506020840135611b0381611a92565b929592945050506040919091013590565b600060208284031215611b2657600080fd5b5035919050565b600060208284031215611b3f57600080fd5b8135611a8b81611a92565b60ff60f81b8816815260e060208201526000611b6960e0830189611a4c565b8281036040840152611b7b8189611a4c565b606084018890526001600160a01b038716608085015260a0840186905283810360c08501528451808252602080870193509091019060005b81811015611bd1578351835260209384019390920191600101611bb3565b50909b9a5050505050505050505050565b600080600080600080600060e0888a031215611bfd57600080fd5b8735611c0881611a92565b96506020880135611c1881611a92565b95506040880135945060608801359350608088013560ff81168114611c3c57600080fd5b9699959850939692959460a0840135945060c09093013592915050565b60008060408385031215611c6c57600080fd5b8235611c7781611a92565b91506020830135611c8781611a92565b809150509250929050565b600181811c90821680611ca657607f821691505b602082108103611cc657634e487b7160e01b600052602260045260246000fd5b50919050565b7f73656c6c4f7973746572546f6b656e2063616c6c65642062793a000000000000815260008451611d0481601a850160208901611a28565b663437b63232b91d60c91b601a918401918201528451611d2b816021840160208901611a28565b601a818301019150506630b6b7bab73a1d60c91b60078201528351611d5781600e840160208801611a28565b01600e0195945050505050565b600060208284031215611d7657600080fd5b81518015158114611a8b57600080fd5b634e487b7160e01b600052601160045260246000fd5b80820281158282048414176105c0576105c0611d86565b6c2a3930b739b332b93934b7339d60991b815260008251611ddb81600d850160208701611a28565b6c3bb2b4903a37903437b63232b960991b600d939091019283015250601a01919050565b634e487b7160e01b600052604160045260246000fd5b808201808211156105c0576105c0611d86565b818103818111156105c0576105c0611d86565b600060208284031215611e4d57600080fd5b5051919050565b634e487b7160e01b600052603260045260246000fd5b600081611e7957611e79611d86565b506000190190565b634e487b7160e01b600052602160045260246000fdfea264697066735822122032b8d1bf35d8b43d71f6f7f6dabe0cdff8b401b56252e697dabb2cf247d829dc64736f6c634300081c0033",
  "linkReferences": {},
  "deployedLinkReferences": {}
}