{
  "_format": "hh-sol-artifact-1",
  "contractName": "OysterToken",
  "sourceName": "contracts/OysterToken.sol",
  "abi": [
    {
      "inputs": [
        {
          "internalType": "address",
          "name": "initialOwner",
          "type": "address"
        },
        {
          "internalType": "uint256",
          "name": "_gweiPerToken",
          "type": "uint256"
        }
      ],
      "stateMutability": "nonpayable",
      "type": "constructor"
    },
    {
      "inputs": [],
      "name": "ECDSAInvalidSignature",
      "type": "error"
    },
    {
      "inputs": [
        {
          "internalType": "uint256",
          "name": "length",
          "type": "uint256"
        }
      ],
      "name": "ECDSAInvalidSignatureLength",
      "type": "error"
    },
    {
      "inputs": [
        {
          "internalType": "bytes32",
          "name": "s",
          "type": "bytes32"
        }
      ],
      "name": "ECDSAInvalidSignatureS",
      "type": "error"
    },
    {
      "inputs": [
        {
          "internalType": "address",
          "name": "spender",
          "type": "address"
        },
        {
          "internalType": "uint256",
          "name": "allowance",
          "type": "uint256"
        },
        {
          "internalType": "uint256",
          "name": "needed",
          "type": "uint256"
        }
      ],
      "name": "ERC20InsufficientAllowance",
      "type": "error"
    },
    {
      "inputs": [
        {
          "internalType": "address",
          "name": "sender",
          "type": "address"
        },
        {
          "internalType": "uint256",
          "name": "balance",
          "type": "uint256"
        },
        {
          "internalType": "uint256",
          "name": "needed",
          "type": "uint256"
        }
      ],
      "name": "ERC20InsufficientBalance",
      "type": "error"
    },
    {
      "inputs": [
        {
          "internalType": "address",
          "name": "approver",
          "type": "address"
        }
      ],
      "name": "ERC20InvalidApprover",
      "type": "error"
    },
    {
      "inputs": [
        {
          "internalType": "address",
          "name": "receiver",
          "type": "address"
        }
      ],
      "name": "ERC20InvalidReceiver",
      "type": "error"
    },
    {
      "inputs": [
        {
          "internalType": "address",
          "name": "sender",
          "type": "address"
        }
      ],
      "name": "ERC20InvalidSender",
      "type": "error"
    },
    {
      "inputs": [
        {
          "internalType": "address",
          "name": "spender",
          "type": "address"
        }
      ],
      "name": "ERC20InvalidSpender",
      "type": "error"
    },
    {
      "inputs": [
        {
          "internalType": "uint256",
          "name": "deadline",
          "type": "uint256"
        }
      ],
      "name": "ERC2612ExpiredSignature",
      "type": "error"
    },
    {
      "inputs": [
        {
          "internalType": "address",
          "name": "signer",
          "type": "address"
        },
        {
          "internalType": "address",
          "name": "owner",
          "type": "address"
        }
      ],
      "name": "ERC2612InvalidSigner",
      "type": "error"
    },
    {
      "inputs": [
        {
          "internalType": "address",
          "name": "account",
          "type": "address"
        },
        {
          "internalType": "uint256",
          "name": "currentNonce",
          "type": "uint256"
        }
      ],
      "name": "InvalidAccountNonce",
      "type": "error"
    },
    {
      "inputs": [],
      "name": "InvalidShortString",
      "type": "error"
    },
    {
      "inputs": [
        {
          "internalType": "address",
          "name": "owner",
          "type": "address"
        }
      ],
      "name": "OwnableInvalidOwner",
      "type": "error"
    },
    {
      "inputs": [
        {
          "internalType": "address",
          "name": "account",
          "type": "address"
        }
      ],
      "name": "OwnableUnauthorizedAccount",
      "type": "error"
    },
    {
      "inputs": [
        {
          "internalType": "string",
          "name": "str",
          "type": "string"
        }
      ],
      "name": "StringTooLong",
      "type": "error"
    },
    {
      "anonymous": false,
      "inputs": [
        {
          "indexed": true,
          "internalType": "address",
          "name": "owner",
          "type": "address"
        },
        {
          "indexed": true,
          "internalType": "address",
          "name": "spender",
          "type": "address"
        },
        {
          "indexed": false,
          "internalType": "uint256",
          "name": "value",
          "type": "uint256"
        }
      ],
      "name": "Approval",
      "type": "event"
    },
    {
      "anonymous": false,
      "inputs": [
        {
          "indexed": true,
          "internalType": "address",
          "name": "buyer",
          "type": "address"
        },
        {
          "indexed": false,
          "internalType": "uint256",
          "name": "amount",
          "type": "uint256"
        }
      ],
      "name": "BuyTokens",
      "type": "event"
    },
    {
      "anonymous": false,
      "inputs": [],
      "name": "EIP712DomainChanged",
      "type": "event"
    },
    {
      "anonymous": false,
      "inputs": [
        {
          "indexed": true,
          "internalType": "address",
          "name": "vault",
          "type": "address"
        },
        {
          "indexed": false,
          "internalType": "uint256",
          "name": "amount",
          "type": "uint256"
        }
      ],
      "name": "MintToVault",
      "type": "event"
    },
    {
      "anonymous": false,
      "inputs": [
        {
          "indexed": true,
          "internalType": "address",
          "name": "previousOwner",
          "type": "address"
        },
        {
          "indexed": true,
          "internalType": "address",
          "name": "newOwner",
          "type": "address"
        }
      ],
      "name": "OwnershipTransferred",
      "type": "event"
    },
    {
      "anonymous": false,
      "inputs": [
        {
          "indexed": true,
          "internalType": "address",
          "name": "vault",
          "type": "address"
        }
      ],
      "name": "SetVault",
      "type": "event"
    },
    {
      "anonymous": false,
      "inputs": [
        {
          "indexed": true,
          "internalType": "address",
          "name": "from",
          "type": "address"
        },
        {
          "indexed": true,
          "internalType": "address",
          "name": "to",
          "type": "address"
        },
        {
          "indexed": false,
          "internalType": "uint256",
          "name": "value",
          "type": "uint256"
        }
      ],
      "name": "Transfer",
      "type": "event"
    },
    {
      "anonymous": false,
      "inputs": [
        {
          "indexed": true,
          "internalType": "address",
          "name": "_address",
          "type": "address"
        },
        {
          "indexed": false,
          "internalType": "bool",
          "name": "valid",
          "type": "bool"
        }
      ],
      "name": "ValidatedMusicContract",
      "type": "event"
    },
    {
      "inputs": [],
      "name": "DOMAIN_SEPARATOR",
      "outputs": [
        {
          "internalType": "bytes32",
          "name": "",
          "type": "bytes32"
        }
      ],
      "stateMutability": "view",
      "type": "function"
    },
    {
      "inputs": [
        {
          "internalType": "address",
          "name": "owner",
          "type": "address"
        },
        {
          "internalType": "address",
          "name": "spender",
          "type": "address"
        }
      ],
      "name": "allowance",
      "outputs": [
        {
          "internalType": "uint256",
          "name": "",
          "type": "uint256"
        }
      ],
      "stateMutability": "view",
      "type": "function"
    },
    {
      "inputs": [
        {
          "internalType": "address",
          "name": "spender",
          "type": "address"
        },
        {
          "internalType": "uint256",
          "name": "value",
          "type": "uint256"
        }
      ],
      "name": "approve",
      "outputs": [
        {
          "internalType": "bool",
          "name": "",
          "type": "bool"
        }
      ],
      "stateMutability": "nonpayable",
      "type": "function"
    },
    {
      "inputs": [
        {
          "internalType": "address",
          "name": "account",
          "type": "address"
        }
      ],
      "name": "balanceOf",
      "outputs": [
        {
          "internalType": "uint256",
          "name": "",
          "type": "uint256"
        }
      ],
      "stateMutability": "view",
      "type": "function"
    },
    {
      "inputs": [
        {
          "internalType": "address",
          "name": "musicContractAddress",
          "type": "address"
        },
        {
          "internalType": "uint256",
          "name": "amount",
          "type": "uint256"
        }
      ],
      "name": "buyTokens",
      "outputs": [],
      "stateMutability": "payable",
      "type": "function"
    },
    {
      "inputs": [],
      "name": "decimals",
      "outputs": [
        {
          "internalType": "uint8",
          "name": "",
          "type": "uint8"
        }
      ],
      "stateMutability": "view",
      "type": "function"
    },
    {
      "inputs": [],
      "name": "eip712Domain",
      "outputs": [
        {
          "internalType": "bytes1",
          "name": "fields",
          "type": "bytes1"
        },
        {
          "internalType": "string",
          "name": "name",
          "type": "string"
        },
        {
          "internalType": "string",
          "name": "version",
          "type": "string"
        },
        {
          "internalType": "uint256",
          "name": "chainId",
          "type": "uint256"
        },
        {
          "internalType": "address",
          "name": "verifyingContract",
          "type": "address"
        },
        {
          "internalType": "bytes32",
          "name": "salt",
          "type": "bytes32"
        },
        {
          "internalType": "uint256[]",
          "name": "extensions",
          "type": "uint256[]"
        }
      ],
      "stateMutability": "view",
      "type": "function"
    },
    {
      "inputs": [],
      "name": "gweiPerToken",
      "outputs": [
        {
          "internalType": "uint256",
          "name": "",
          "type": "uint256"
        }
      ],
      "stateMutability": "view",
      "type": "function"
    },
    {
      "inputs": [
        {
          "internalType": "address",
          "name": "to",
          "type": "address"
        },
        {
          "internalType": "uint256",
          "name": "amount",
          "type": "uint256"
        }
      ],
      "name": "mint",
      "outputs": [],
      "stateMutability": "nonpayable",
      "type": "function"
    },
    {
      "inputs": [
        {
          "internalType": "uint256",
          "name": "amount",
          "type": "uint256"
        }
      ],
      "name": "mintToVault",
      "outputs": [],
      "stateMutability": "nonpayable",
      "type": "function"
    },
    {
      "inputs": [],
      "name": "name",
      "outputs": [
        {
          "internalType": "string",
          "name": "",
          "type": "string"
        }
      ],
      "stateMutability": "view",
      "type": "function"
    },
    {
      "inputs": [
        {
          "internalType": "address",
          "name": "owner",
          "type": "address"
        }
      ],
      "name": "nonces",
      "outputs": [
        {
          "internalType": "uint256",
          "name": "",
          "type": "uint256"
        }
      ],
      "stateMutability": "view",
      "type": "function"
    },
    {
      "inputs": [],
      "name": "owner",
      "outputs": [
        {
          "internalType": "address",
          "name": "",
          "type": "address"
        }
      ],
      "stateMutability": "view",
      "type": "function"
    },
    {
      "inputs": [
        {
          "internalType": "address",
          "name": "owner",
          "type": "address"
        },
        {
          "internalType": "address",
          "name": "spender",
          "type": "address"
        },
        {
          "internalType": "uint256",
          "name": "value",
          "type": "uint256"
        },
        {
          "internalType": "uint256",
          "name": "deadline",
          "type": "uint256"
        },
        {
          "internalType": "uint8",
          "name": "v",
          "type": "uint8"
        },
        {
          "internalType": "bytes32",
          "name": "r",
          "type": "bytes32"
        },
        {
          "internalType": "bytes32",
          "name": "s",
          "type": "bytes32"
        }
      ],
      "name": "permit",
      "outputs": [],
      "stateMutability": "nonpayable",
      "type": "function"
    },
    {
      "inputs": [],
      "name": "renounceOwnership",
      "outputs": [],
      "stateMutability": "nonpayable",
      "type": "function"
    },
    {
      "inputs": [
        {
          "internalType": "contract OysterVault",
          "name": "_vault",
          "type": "address"
        }
      ],
      "name": "setVault",
      "outputs": [],
      "stateMutability": "nonpayable",
      "type": "function"
    },
    {
      "inputs": [],
      "name": "symbol",
      "outputs": [
        {
          "internalType": "string",
          "name": "",
          "type": "string"
        }
      ],
      "stateMutability": "view",
      "type": "function"
    },
    {
      "inputs": [],
      "name": "totalSupply",
      "outputs": [
        {
          "internalType": "uint256",
          "name": "",
          "type": "uint256"
        }
      ],
      "stateMutability": "view",
      "type": "function"
    },
    {
      "inputs": [
        {
          "internalType": "address",
          "name": "to",
          "type": "address"
        },
        {
          "internalType": "uint256",
          "name": "value",
          "type": "uint256"
        }
      ],
      "name": "transfer",
      "outputs": [
        {
          "internalType": "bool",
          "name": "",
          "type": "bool"
        }
      ],
      "stateMutability": "nonpayable",
      "type": "function"
    },
    {
      "inputs": [
        {
          "internalType": "address",
          "name": "from",
          "type": "address"
        },
        {
          "internalType": "address",
          "name": "to",
          "type": "address"
        },
        {
          "internalType": "uint256",
          "name": "value",
          "type": "uint256"
        }
      ],
      "name": "transferFrom",
      "outputs": [
        {
          "internalType": "bool",
          "name": "",
          "type": "bool"
        }
      ],
      "stateMutability": "nonpayable",
      "type": "function"
    },
    {
      "inputs": [
        {
          "internalType": "address",
          "name": "newOwner",
          "type": "address"
        }
      ],
      "name": "transferOwnership",
      "outputs": [],
      "stateMutability": "nonpayable",
      "type": "function"
    },
    {
      "inputs": [
        {
          "internalType": "address",
          "name": "",
          "type": "address"
        }
      ],
      "name": "validMusicContracts",
      "outputs": [
        {
          "internalType": "bool",
          "name": "",
          "type": "bool"
        }
      ],
      "stateMutability": "view",
      "type": "function"
    },
    {
      "inputs": [
        {
          "internalType": "address",
          "name": "addressMusicContract",
          "type": "address"
        }
      ],
      "name": "validateMusicContracts",
      "outputs": [
        {
          "internalType": "bool",
          "name": "",
          "type": "bool"
        }
      ],
      "stateMutability": "nonpayable",
      "type": "function"
    },
    {
      "inputs": [],
      "name": "vault",
      "outputs": [
        {
          "internalType": "contract OysterVault",
          "name": "",
          "type": "address"
        }
      ],
      "stateMutability": "view",
      "type": "function"
    }
  ],
  "bytecode": "0x61016060405234801561001157600080fd5b50604051611c66380380611c6683398101604081905261003091610285565b6040518060400160405280600b81526020016a27bcb9ba32b92a37b5b2b760a91b81525080604051806040016040528060018152602001603160f81b815250846040518060400160405280600b81526020016a27bcb9ba32b92a37b5b2b760a91b8152506040518060400160405280600381526020016213d4d560ea1b81525081600390816100bf919061035e565b5060046100cc828261035e565b5050506001600160a01b0381166100fe57604051631e4fbdf760e01b8152600060048201526024015b60405180910390fd5b610107816101c2565b50610113826006610214565b61012052610122816007610214565b61014052815160208084019190912060e052815190820120610100524660a0526101af60e05161010051604080517f8b73c3c69bb8fe3d512ecc4cf759cc79239f7b179b0ffacaa9a75d522b39400f60208201529081019290925260608201524660808201523060a082015260009060c00160405160208183030381529060405280519060200120905090565b60805250503060c05250600b555061048e565b600580546001600160a01b038381166001600160a01b0319831681179093556040519116919082907f8be0079c531659141344cd1fd0a4f28419497f9722a3daafe3b4186f6b6457e090600090a35050565b60006020835110156102305761022983610247565b9050610241565b8161023b848261035e565b5060ff90505b92915050565b600080829050601f81511115610272578260405163305a27a960e01b81526004016100f5919061041c565b805161027d8261046a565b179392505050565b6000806040838503121561029857600080fd5b82516001600160a01b03811681146102af57600080fd5b6020939093015192949293505050565b634e487b7160e01b600052604160045260246000fd5b600181811c908216806102e957607f821691505b60208210810361030957634e487b7160e01b600052602260045260246000fd5b50919050565b601f82111561035957806000526020600020601f840160051c810160208510156103365750805b601f840160051c820191505b818110156103565760008155600101610342565b50505b505050565b81516001600160401b03811115610377576103776102bf565b61038b8161038584546102d5565b8461030f565b6020601f8211600181146103bf57600083156103a75750848201515b600019600385901b1c1916600184901b178455610356565b600084815260208120601f198516915b828110156103ef57878501518255602094850194600190920191016103cf565b508482101561040d5786840151600019600387901b60f8161c191681555b50505050600190811b01905550565b602081526000825180602084015260005b8181101561044a576020818601810151604086840101520161042d565b506000604082850101526040601f19601f83011684010191505092915050565b805160208083015191908110156103095760001960209190910360031b1b16919050565b60805160a05160c05160e05161010051610120516101405161177e6104e86000396000610f1201526000610ee501526000610e3b01526000610e1301526000610d6e01526000610d9801526000610dc2015261177e6000f3fe60806040526004361061014b5760003560e01c80637eb4cde7116100b6578063a9059cbb1161006f578063a9059cbb146103a0578063d505accf146103c0578063dd62ed3e146103e0578063f2fde38b14610426578063f89fbe6a14610446578063fbfa77cf1461047657600080fd5b80637eb4cde7146102db5780637ecebe00146102fb57806384b0196e1461031b5780638da5cb5b1461034357806395d89b4114610375578063a11d08c71461038a57600080fd5b8063313ce56711610108578063313ce5671461021f5780633644e5151461023b57806340c10f19146102505780636817031b1461027057806370a0823114610290578063715018a6146102c657600080fd5b806306fdde03146101505780630752881a1461017b578063095ea7b31461019057806318160ddd146101c057806323b872dd146101df57806324c93837146101ff575b600080fd5b34801561015c57600080fd5b50610165610496565b6040516101729190611472565b60405180910390f35b61018e6101893660046114a1565b610528565b005b34801561019c57600080fd5b506101b06101ab3660046114a1565b610784565b6040519015158152602001610172565b3480156101cc57600080fd5b506002545b604051908152602001610172565b3480156101eb57600080fd5b506101b06101fa3660046114cd565b61079e565b34801561020b57600080fd5b5061018e61021a36600461150e565b6107c2565b34801561022b57600080fd5b5060405160128152602001610172565b34801561024757600080fd5b506101d1610875565b34801561025c57600080fd5b5061018e61026b3660046114a1565b610884565b34801561027c57600080fd5b5061018e61028b366004611527565b61089a565b34801561029c57600080fd5b506101d16102ab366004611527565b6001600160a01b031660009081526020819052604090205490565b3480156102d257600080fd5b5061018e610993565b3480156102e757600080fd5b506101b06102f6366004611527565b6109a7565b34801561030757600080fd5b506101d1610316366004611527565b610a19565b34801561032757600080fd5b50610330610a37565b6040516101729796959493929190611544565b34801561034f57600080fd5b506005546001600160a01b03165b6040516001600160a01b039091168152602001610172565b34801561038157600080fd5b50610165610a7d565b34801561039657600080fd5b506101d1600b5481565b3480156103ac57600080fd5b506101b06103bb3660046114a1565b610a8c565b3480156103cc57600080fd5b5061018e6103db3660046115dc565b610a9a565b3480156103ec57600080fd5b506101d16103fb366004611653565b6001600160a01b03918216600090815260016020908152604080832093909416825291909152205490565b34801561043257600080fd5b5061018e610441366004611527565b610bd4565b34801561045257600080fd5b506101b0610461366004611527565b600a6020526000908152604090205460ff1681565b34801561048257600080fd5b5060095461035d906001600160a01b031681565b6060600380546104a59061168c565b80601f01602080910402602001604051908101604052809291908181526020018280546104d19061168c565b801561051e5780601f106104f35761010080835404028352916020019161051e565b820191906000526020600020905b81548152906001019060200180831161050157829003601f168201915b5050505050905090565b6001600160a01b0382166000908152600a602052604090205460ff166105955760405162461bcd60e51b815260206004820152601d60248201527f496e76616c6964204d75736963436f6e7472616374206164647265737300000060448201526064015b60405180910390fd5b6000600b54826105a591906116dc565b9050803410156105ef5760405162461bcd60e51b8152602060048201526015602482015274125b9cdd59999a58da595b9d0815d95a481cd95b9d605a1b604482015260640161058c565b60095460408051630fa5569560e11b8152905184926001600160a01b031691631f4aad2a9160048083019260209291908290030181865afa158015610638573d6000803e3d6000fd5b505050506040513d601f19601f8201168201806040525081019061065c91906116f3565b10156106aa5760405162461bcd60e51b815260206004820152601c60248201527f496e73756666696369656e7420746f6b656e7320696e207661756c7400000000604482015260640161058c565b6040516322ea223160e01b8152336004820152602481018390526001600160a01b038416906322ea223190604401600060405180830381600087803b1580156106f257600080fd5b505af1158015610706573d6000803e3d6000fd5b505050508034111561074a57336108fc610720833461170c565b6040518115909202916000818181858888f19350505050158015610748573d6000803e3d6000fd5b505b60405182815233907f4aff2c4e63da20aaa26764b3e97f557bf5e95b76ddba8f97a156abbecb0818469060200160405180910390a2505050565b600033610792818585610c0f565b60019150505b92915050565b6000336107ac858285610c21565b6107b7858585610c9f565b506001949350505050565b6107ca610cfe565b6009546040518281526001600160a01b03909116907fce08323565e2d8d0b35079e085b0eb3b8ab66acf2cabd4a67a985db6509766d19060200160405180910390a26009546001600160a01b031661085c5760405162461bcd60e51b815260206004820152601560248201527415985d5b1d081859191c995cdcc81b9bdd081cd95d605a1b604482015260640161058c565b600954610872906001600160a01b031682610d2b565b50565b600061087f610d61565b905090565b61088c610cfe565b6108968282610d2b565b5050565b6108a2610cfe565b6040516001600160a01b038216907fd459c7242e23d490831b5676a611c4342d899d28f342d89ae80793e56a930f3090600090a26001600160a01b0381166109245760405162461bcd60e51b8152602060048201526015602482015274496e76616c6964207661756c74206164647265737360581b604482015260640161058c565b6009546001600160a01b0316156109715760405162461bcd60e51b815260206004820152601160248201527015985d5b1d08185b1c9958591e481cd95d607a1b604482015260640161058c565b600980546001600160a01b0319166001600160a01b0392909216919091179055565b61099b610cfe565b6109a56000610e8c565b565b60006109b1610cfe565b604051600181526001600160a01b038316907f9a62342b40f29e0bb7f7221d0d9d62210855ec99729d37ee9f7d66d98b0897c29060200160405180910390a2506001600160a01b03166000908152600a60205260409020805460ff1916600190811790915590565b6001600160a01b038116600090815260086020526040812054610798565b600060608060008060006060610a4b610ede565b610a53610f0b565b60408051600080825260208201909252600f60f81b9b939a50919850469750309650945092509050565b6060600480546104a59061168c565b600033610792818585610c9f565b83421115610abe5760405163313c898160e11b81526004810185905260240161058c565b60007f6e71edae12b1b97f4d1f60370fef10105fa2faae0126114a169c64845d6126c9888888610b0b8c6001600160a01b0316600090815260086020526040902080546001810190915590565b6040805160208101969096526001600160a01b0394851690860152929091166060840152608083015260a082015260c0810186905260e0016040516020818303038152906040528051906020012090506000610b6682610f38565b90506000610b7682878787610f65565b9050896001600160a01b0316816001600160a01b031614610bbd576040516325c0072360e11b81526001600160a01b0380831660048301528b16602482015260440161058c565b610bc88a8a8a610c0f565b50505050505050505050565b610bdc610cfe565b6001600160a01b038116610c0657604051631e4fbdf760e01b81526000600482015260240161058c565b61087281610e8c565b610c1c8383836001610f93565b505050565b6001600160a01b038381166000908152600160209081526040808320938616835292905220546000198114610c995781811015610c8a57604051637dc7a0d960e11b81526001600160a01b0384166004820152602481018290526044810183905260640161058c565b610c9984848484036000610f93565b50505050565b6001600160a01b038316610cc957604051634b637e8f60e11b81526000600482015260240161058c565b6001600160a01b038216610cf35760405163ec442f0560e01b81526000600482015260240161058c565b610c1c838383611068565b6005546001600160a01b031633146109a55760405163118cdaa760e01b815233600482015260240161058c565b6001600160a01b038216610d555760405163ec442f0560e01b81526000600482015260240161058c565b61089660008383611068565b6000306001600160a01b037f000000000000000000000000000000000000000000000000000000000000000016148015610dba57507f000000000000000000000000000000000000000000000000000000000000000046145b15610de457507f000000000000000000000000000000000000000000000000000000000000000090565b61087f604080517f8b73c3c69bb8fe3d512ecc4cf759cc79239f7b179b0ffacaa9a75d522b39400f60208201527f0000000000000000000000000000000000000000000000000000000000000000918101919091527f000000000000000000000000000000000000000000000000000000000000000060608201524660808201523060a082015260009060c00160405160208183030381529060405280519060200120905090565b600580546001600160a01b038381166001600160a01b0319831681179093556040519116919082907f8be0079c531659141344cd1fd0a4f28419497f9722a3daafe3b4186f6b6457e090600090a35050565b606061087f7f00000000000000000000000000000000000000000000000000000000000000006006611192565b606061087f7f00000000000000000000000000000000000000000000000000000000000000006007611192565b6000610798610f45610d61565b8360405161190160f01b8152600281019290925260228201526042902090565b600080600080610f778888888861123d565b925092509250610f87828261130c565b50909695505050505050565b6001600160a01b038416610fbd5760405163e602df0560e01b81526000600482015260240161058c565b6001600160a01b038316610fe757604051634a1406b160e11b81526000600482015260240161058c565b6001600160a01b0380851660009081526001602090815260408083209387168352929052208290558015610c9957826001600160a01b0316846001600160a01b03167f8c5be1e5ebec7d5bd14f71427d1e84f3dd0314c0f7b2291e5b200ac8c7c3b9258460405161105a91815260200190565b60405180910390a350505050565b6001600160a01b038316611093578060026000828254611088919061171f565b909155506111059050565b6001600160a01b038316600090815260208190526040902054818110156110e65760405163391434e360e21b81526001600160a01b0385166004820152602481018290526044810183905260640161058c565b6001600160a01b03841660009081526020819052604090209082900390555b6001600160a01b03821661112157600280548290039055611140565b6001600160a01b03821660009081526020819052604090208054820190555b816001600160a01b0316836001600160a01b03167fddf252ad1be2c89b69c2b068fc378daa952ba7f163c4a11628f55a4df523b3ef8360405161118591815260200190565b60405180910390a3505050565b606060ff83146111ac576111a5836113c5565b9050610798565b8180546111b89061168c565b80601f01602080910402602001604051908101604052809291908181526020018280546111e49061168c565b80156112315780601f1061120657610100808354040283529160200191611231565b820191906000526020600020905b81548152906001019060200180831161121457829003601f168201915b50505050509050610798565b600080807f7fffffffffffffffffffffffffffffff5d576e7357a4501ddfe92f46681b20a08411156112785750600091506003905082611302565b604080516000808252602082018084528a905260ff891692820192909252606081018790526080810186905260019060a0016020604051602081039080840390855afa1580156112cc573d6000803e3d6000fd5b5050604051601f1901519150506001600160a01b0381166112f857506000925060019150829050611302565b9250600091508190505b9450945094915050565b600082600381111561132057611320611732565b03611329575050565b600182600381111561133d5761133d611732565b0361135b5760405163f645eedf60e01b815260040160405180910390fd5b600282600381111561136f5761136f611732565b036113905760405163fce698f760e01b81526004810182905260240161058c565b60038260038111156113a4576113a4611732565b03610896576040516335e2f38360e21b81526004810182905260240161058c565b606060006113d283611404565b604080516020808252818301909252919250600091906020820181803683375050509182525060208101929092525090565b600060ff8216601f81111561079857604051632cd44ac360e21b815260040160405180910390fd5b6000815180845260005b8181101561145257602081850181015186830182015201611436565b506000602082860101526020601f19601f83011685010191505092915050565b602081526000611485602083018461142c565b9392505050565b6001600160a01b038116811461087257600080fd5b600080604083850312156114b457600080fd5b82356114bf8161148c565b946020939093013593505050565b6000806000606084860312156114e257600080fd5b83356114ed8161148c565b925060208401356114fd8161148c565b929592945050506040919091013590565b60006020828403121561152057600080fd5b5035919050565b60006020828403121561153957600080fd5b81356114858161148c565b60ff60f81b8816815260e06020820152600061156360e083018961142c565b8281036040840152611575818961142c565b606084018890526001600160a01b038716608085015260a0840186905283810360c08501528451808252602080870193509091019060005b818110156115cb5783518352602093840193909201916001016115ad565b50909b9a5050505050505050505050565b600080600080600080600060e0888a0312156115f757600080fd5b87356116028161148c565b965060208801356116128161148c565b95506040880135945060608801359350608088013560ff8116811461163657600080fd5b9699959850939692959460a0840135945060c09093013592915050565b6000806040838503121561166657600080fd5b82356116718161148c565b915060208301356116818161148c565b809150509250929050565b600181811c908216806116a057607f821691505b6020821081036116c057634e487b7160e01b600052602260045260246000fd5b50919050565b634e487b7160e01b600052601160045260246000fd5b8082028115828204841417610798576107986116c6565b60006020828403121561170557600080fd5b5051919050565b81810381811115610798576107986116c6565b80820180821115610798576107986116c6565b634e487b7160e01b600052602160045260246000fdfea264697066735822122031867fc00f17fc2685c8e2d4bfe79cd67fa91d97e464bdd568df4824f65e95a264736f6c634300081c0033",
  "linkReferences": {},
  "deployedLinkReferences": {}
}