{
  "_format": "hh-sol-artifact-1",
  "contractName": "OysterToken",
  "sourceName": "contracts/OysterToken.sol",
  "abi": [
    {
      "inputs": [
        {
          "internalType": "address",
          "name": "initialOwner",
          "type": "address"
        },
        {
          "internalType": "uint256",
          "name": "_gweiPerToken",
          "type": "uint256"
        }
      ],
      "stateMutability": "nonpayable",
      "type": "constructor"
    },
    {
      "inputs": [],
      "name": "ECDSAInvalidSignature",
      "type": "error"
    },
    {
      "inputs": [
        {
          "internalType": "uint256",
          "name": "length",
          "type": "uint256"
        }
      ],
      "name": "ECDSAInvalidSignatureLength",
      "type": "error"
    },
    {
      "inputs": [
        {
          "internalType": "bytes32",
          "name": "s",
          "type": "bytes32"
        }
      ],
      "name": "ECDSAInvalidSignatureS",
      "type": "error"
    },
    {
      "inputs": [
        {
          "internalType": "address",
          "name": "spender",
          "type": "address"
        },
        {
          "internalType": "uint256",
          "name": "allowance",
          "type": "uint256"
        },
        {
          "internalType": "uint256",
          "name": "needed",
          "type": "uint256"
        }
      ],
      "name": "ERC20InsufficientAllowance",
      "type": "error"
    },
    {
      "inputs": [
        {
          "internalType": "address",
          "name": "sender",
          "type": "address"
        },
        {
          "internalType": "uint256",
          "name": "balance",
          "type": "uint256"
        },
        {
          "internalType": "uint256",
          "name": "needed",
          "type": "uint256"
        }
      ],
      "name": "ERC20InsufficientBalance",
      "type": "error"
    },
    {
      "inputs": [
        {
          "internalType": "address",
          "name": "approver",
          "type": "address"
        }
      ],
      "name": "ERC20InvalidApprover",
      "type": "error"
    },
    {
      "inputs": [
        {
          "internalType": "address",
          "name": "receiver",
          "type": "address"
        }
      ],
      "name": "ERC20InvalidReceiver",
      "type": "error"
    },
    {
      "inputs": [
        {
          "internalType": "address",
          "name": "sender",
          "type": "address"
        }
      ],
      "name": "ERC20InvalidSender",
      "type": "error"
    },
    {
      "inputs": [
        {
          "internalType": "address",
          "name": "spender",
          "type": "address"
        }
      ],
      "name": "ERC20InvalidSpender",
      "type": "error"
    },
    {
      "inputs": [
        {
          "internalType": "uint256",
          "name": "deadline",
          "type": "uint256"
        }
      ],
      "name": "ERC2612ExpiredSignature",
      "type": "error"
    },
    {
      "inputs": [
        {
          "internalType": "address",
          "name": "signer",
          "type": "address"
        },
        {
          "internalType": "address",
          "name": "owner",
          "type": "address"
        }
      ],
      "name": "ERC2612InvalidSigner",
      "type": "error"
    },
    {
      "inputs": [
        {
          "internalType": "address",
          "name": "account",
          "type": "address"
        },
        {
          "internalType": "uint256",
          "name": "currentNonce",
          "type": "uint256"
        }
      ],
      "name": "InvalidAccountNonce",
      "type": "error"
    },
    {
      "inputs": [],
      "name": "InvalidShortString",
      "type": "error"
    },
    {
      "inputs": [
        {
          "internalType": "address",
          "name": "owner",
          "type": "address"
        }
      ],
      "name": "OwnableInvalidOwner",
      "type": "error"
    },
    {
      "inputs": [
        {
          "internalType": "address",
          "name": "account",
          "type": "address"
        }
      ],
      "name": "OwnableUnauthorizedAccount",
      "type": "error"
    },
    {
      "inputs": [
        {
          "internalType": "string",
          "name": "str",
          "type": "string"
        }
      ],
      "name": "StringTooLong",
      "type": "error"
    },
    {
      "anonymous": false,
      "inputs": [
        {
          "indexed": true,
          "internalType": "address",
          "name": "owner",
          "type": "address"
        },
        {
          "indexed": true,
          "internalType": "address",
          "name": "spender",
          "type": "address"
        },
        {
          "indexed": false,
          "internalType": "uint256",
          "name": "value",
          "type": "uint256"
        }
      ],
      "name": "Approval",
      "type": "event"
    },
    {
      "anonymous": false,
      "inputs": [
        {
          "indexed": true,
          "internalType": "address",
          "name": "buyer",
          "type": "address"
        },
        {
          "indexed": false,
          "internalType": "uint256",
          "name": "amount",
          "type": "uint256"
        }
      ],
      "name": "BuyTokens",
      "type": "event"
    },
    {
      "anonymous": false,
      "inputs": [],
      "name": "EIP712DomainChanged",
      "type": "event"
    },
    {
      "anonymous": false,
      "inputs": [
        {
          "indexed": false,
          "internalType": "string",
          "name": "message",
          "type": "string"
        }
      ],
      "name": "Log",
      "type": "event"
    },
    {
      "anonymous": false,
      "inputs": [
        {
          "indexed": false,
          "internalType": "string",
          "name": "message",
          "type": "string"
        },
        {
          "indexed": false,
          "internalType": "address",
          "name": "addr",
          "type": "address"
        }
      ],
      "name": "LogAddress",
      "type": "event"
    },
    {
      "anonymous": false,
      "inputs": [
        {
          "indexed": false,
          "internalType": "string",
          "name": "message",
          "type": "string"
        },
        {
          "indexed": false,
          "internalType": "address",
          "name": "addr",
          "type": "address"
        },
        {
          "indexed": false,
          "internalType": "uint256",
          "name": "value",
          "type": "uint256"
        }
      ],
      "name": "LogAddressUint",
      "type": "event"
    },
    {
      "anonymous": false,
      "inputs": [
        {
          "indexed": false,
          "internalType": "string",
          "name": "message",
          "type": "string"
        },
        {
          "indexed": false,
          "internalType": "uint256",
          "name": "value",
          "type": "uint256"
        }
      ],
      "name": "LogUint",
      "type": "event"
    },
    {
      "anonymous": false,
      "inputs": [
        {
          "indexed": true,
          "internalType": "address",
          "name": "vault",
          "type": "address"
        },
        {
          "indexed": false,
          "internalType": "uint256",
          "name": "amount",
          "type": "uint256"
        }
      ],
      "name": "MintToVault",
      "type": "event"
    },
    {
      "anonymous": false,
      "inputs": [
        {
          "indexed": true,
          "internalType": "address",
          "name": "previousOwner",
          "type": "address"
        },
        {
          "indexed": true,
          "internalType": "address",
          "name": "newOwner",
          "type": "address"
        }
      ],
      "name": "OwnershipTransferred",
      "type": "event"
    },
    {
      "anonymous": false,
      "inputs": [
        {
          "indexed": true,
          "internalType": "address",
          "name": "vault",
          "type": "address"
        }
      ],
      "name": "SetVault",
      "type": "event"
    },
    {
      "anonymous": false,
      "inputs": [
        {
          "indexed": true,
          "internalType": "address",
          "name": "from",
          "type": "address"
        },
        {
          "indexed": true,
          "internalType": "address",
          "name": "to",
          "type": "address"
        },
        {
          "indexed": false,
          "internalType": "uint256",
          "name": "value",
          "type": "uint256"
        }
      ],
      "name": "Transfer",
      "type": "event"
    },
    {
      "anonymous": false,
      "inputs": [
        {
          "indexed": true,
          "internalType": "address",
          "name": "_address",
          "type": "address"
        },
        {
          "indexed": false,
          "internalType": "bool",
          "name": "valid",
          "type": "bool"
        }
      ],
      "name": "ValidatedMusicContract",
      "type": "event"
    },
    {
      "inputs": [],
      "name": "DOMAIN_SEPARATOR",
      "outputs": [
        {
          "internalType": "bytes32",
          "name": "",
          "type": "bytes32"
        }
      ],
      "stateMutability": "view",
      "type": "function"
    },
    {
      "inputs": [
        {
          "internalType": "address",
          "name": "owner",
          "type": "address"
        },
        {
          "internalType": "address",
          "name": "spender",
          "type": "address"
        }
      ],
      "name": "allowance",
      "outputs": [
        {
          "internalType": "uint256",
          "name": "",
          "type": "uint256"
        }
      ],
      "stateMutability": "view",
      "type": "function"
    },
    {
      "inputs": [
        {
          "internalType": "address",
          "name": "spender",
          "type": "address"
        },
        {
          "internalType": "uint256",
          "name": "value",
          "type": "uint256"
        }
      ],
      "name": "approve",
      "outputs": [
        {
          "internalType": "bool",
          "name": "",
          "type": "bool"
        }
      ],
      "stateMutability": "nonpayable",
      "type": "function"
    },
    {
      "inputs": [
        {
          "internalType": "address",
          "name": "account",
          "type": "address"
        }
      ],
      "name": "balanceOf",
      "outputs": [
        {
          "internalType": "uint256",
          "name": "",
          "type": "uint256"
        }
      ],
      "stateMutability": "view",
      "type": "function"
    },
    {
      "inputs": [
        {
          "internalType": "address",
          "name": "musicContractAddress",
          "type": "address"
        },
        {
          "internalType": "uint256",
          "name": "amount",
          "type": "uint256"
        }
      ],
      "name": "buyTokens",
      "outputs": [],
      "stateMutability": "payable",
      "type": "function"
    },
    {
      "inputs": [],
      "name": "decimals",
      "outputs": [
        {
          "internalType": "uint8",
          "name": "",
          "type": "uint8"
        }
      ],
      "stateMutability": "view",
      "type": "function"
    },
    {
      "inputs": [],
      "name": "eip712Domain",
      "outputs": [
        {
          "internalType": "bytes1",
          "name": "fields",
          "type": "bytes1"
        },
        {
          "internalType": "string",
          "name": "name",
          "type": "string"
        },
        {
          "internalType": "string",
          "name": "version",
          "type": "string"
        },
        {
          "internalType": "uint256",
          "name": "chainId",
          "type": "uint256"
        },
        {
          "internalType": "address",
          "name": "verifyingContract",
          "type": "address"
        },
        {
          "internalType": "bytes32",
          "name": "salt",
          "type": "bytes32"
        },
        {
          "internalType": "uint256[]",
          "name": "extensions",
          "type": "uint256[]"
        }
      ],
      "stateMutability": "view",
      "type": "function"
    },
    {
      "inputs": [],
      "name": "gweiPerToken",
      "outputs": [
        {
          "internalType": "uint256",
          "name": "",
          "type": "uint256"
        }
      ],
      "stateMutability": "view",
      "type": "function"
    },
    {
      "inputs": [
        {
          "internalType": "address",
          "name": "to",
          "type": "address"
        },
        {
          "internalType": "uint256",
          "name": "amount",
          "type": "uint256"
        }
      ],
      "name": "mint",
      "outputs": [],
      "stateMutability": "nonpayable",
      "type": "function"
    },
    {
      "inputs": [
        {
          "internalType": "uint256",
          "name": "amount",
          "type": "uint256"
        }
      ],
      "name": "mintToVault",
      "outputs": [],
      "stateMutability": "nonpayable",
      "type": "function"
    },
    {
      "inputs": [],
      "name": "name",
      "outputs": [
        {
          "internalType": "string",
          "name": "",
          "type": "string"
        }
      ],
      "stateMutability": "view",
      "type": "function"
    },
    {
      "inputs": [
        {
          "internalType": "address",
          "name": "owner",
          "type": "address"
        }
      ],
      "name": "nonces",
      "outputs": [
        {
          "internalType": "uint256",
          "name": "",
          "type": "uint256"
        }
      ],
      "stateMutability": "view",
      "type": "function"
    },
    {
      "inputs": [],
      "name": "owner",
      "outputs": [
        {
          "internalType": "address",
          "name": "",
          "type": "address"
        }
      ],
      "stateMutability": "view",
      "type": "function"
    },
    {
      "inputs": [
        {
          "internalType": "address",
          "name": "owner",
          "type": "address"
        },
        {
          "internalType": "address",
          "name": "spender",
          "type": "address"
        },
        {
          "internalType": "uint256",
          "name": "value",
          "type": "uint256"
        },
        {
          "internalType": "uint256",
          "name": "deadline",
          "type": "uint256"
        },
        {
          "internalType": "uint8",
          "name": "v",
          "type": "uint8"
        },
        {
          "internalType": "bytes32",
          "name": "r",
          "type": "bytes32"
        },
        {
          "internalType": "bytes32",
          "name": "s",
          "type": "bytes32"
        }
      ],
      "name": "permit",
      "outputs": [],
      "stateMutability": "nonpayable",
      "type": "function"
    },
    {
      "inputs": [],
      "name": "renounceOwnership",
      "outputs": [],
      "stateMutability": "nonpayable",
      "type": "function"
    },
    {
      "inputs": [
        {
          "internalType": "contract OysterVault",
          "name": "_vault",
          "type": "address"
        }
      ],
      "name": "setVault",
      "outputs": [],
      "stateMutability": "nonpayable",
      "type": "function"
    },
    {
      "inputs": [],
      "name": "symbol",
      "outputs": [
        {
          "internalType": "string",
          "name": "",
          "type": "string"
        }
      ],
      "stateMutability": "view",
      "type": "function"
    },
    {
      "inputs": [],
      "name": "totalSupply",
      "outputs": [
        {
          "internalType": "uint256",
          "name": "",
          "type": "uint256"
        }
      ],
      "stateMutability": "view",
      "type": "function"
    },
    {
      "inputs": [
        {
          "internalType": "address",
          "name": "to",
          "type": "address"
        },
        {
          "internalType": "uint256",
          "name": "value",
          "type": "uint256"
        }
      ],
      "name": "transfer",
      "outputs": [
        {
          "internalType": "bool",
          "name": "",
          "type": "bool"
        }
      ],
      "stateMutability": "nonpayable",
      "type": "function"
    },
    {
      "inputs": [
        {
          "internalType": "address",
          "name": "from",
          "type": "address"
        },
        {
          "internalType": "address",
          "name": "to",
          "type": "address"
        },
        {
          "internalType": "uint256",
          "name": "value",
          "type": "uint256"
        }
      ],
      "name": "transferFrom",
      "outputs": [
        {
          "internalType": "bool",
          "name": "",
          "type": "bool"
        }
      ],
      "stateMutability": "nonpayable",
      "type": "function"
    },
    {
      "inputs": [
        {
          "internalType": "address",
          "name": "newOwner",
          "type": "address"
        }
      ],
      "name": "transferOwnership",
      "outputs": [],
      "stateMutability": "nonpayable",
      "type": "function"
    },
    {
      "inputs": [
        {
          "internalType": "address",
          "name": "",
          "type": "address"
        }
      ],
      "name": "validMusicContracts",
      "outputs": [
        {
          "internalType": "bool",
          "name": "",
          "type": "bool"
        }
      ],
      "stateMutability": "view",
      "type": "function"
    },
    {
      "inputs": [
        {
          "internalType": "address",
          "name": "addressMusicContract",
          "type": "address"
        }
      ],
      "name": "validateMusicContracts",
      "outputs": [],
      "stateMutability": "nonpayable",
      "type": "function"
    },
    {
      "inputs": [],
      "name": "vault",
      "outputs": [
        {
          "internalType": "contract OysterVault",
          "name": "",
          "type": "address"
        }
      ],
      "stateMutability": "view",
      "type": "function"
    }
  ],
  "bytecode": "0x61016060405234801561001157600080fd5b5060405161245338038061245383398101604081905261003091610285565b6040518060400160405280600b81526020016a27bcb9ba32b92a37b5b2b760a91b81525080604051806040016040528060018152602001603160f81b815250846040518060400160405280600b81526020016a27bcb9ba32b92a37b5b2b760a91b8152506040518060400160405280600381526020016213d4d560ea1b81525081600390816100bf919061035e565b5060046100cc828261035e565b5050506001600160a01b0381166100fe57604051631e4fbdf760e01b8152600060048201526024015b60405180910390fd5b610107816101c2565b50610113826006610214565b61012052610122816007610214565b61014052815160208084019190912060e052815190820120610100524660a0526101af60e05161010051604080517f8b73c3c69bb8fe3d512ecc4cf759cc79239f7b179b0ffacaa9a75d522b39400f60208201529081019290925260608201524660808201523060a082015260009060c00160405160208183030381529060405280519060200120905090565b60805250503060c05250600b555061048e565b600580546001600160a01b038381166001600160a01b0319831681179093556040519116919082907f8be0079c531659141344cd1fd0a4f28419497f9722a3daafe3b4186f6b6457e090600090a35050565b60006020835110156102305761022983610247565b9050610241565b8161023b848261035e565b5060ff90505b92915050565b600080829050601f81511115610272578260405163305a27a960e01b81526004016100f5919061041c565b805161027d8261046a565b179392505050565b6000806040838503121561029857600080fd5b82516001600160a01b03811681146102af57600080fd5b6020939093015192949293505050565b634e487b7160e01b600052604160045260246000fd5b600181811c908216806102e957607f821691505b60208210810361030957634e487b7160e01b600052602260045260246000fd5b50919050565b601f82111561035957806000526020600020601f840160051c810160208510156103365750805b601f840160051c820191505b818110156103565760008155600101610342565b50505b505050565b81516001600160401b03811115610377576103776102bf565b61038b8161038584546102d5565b8461030f565b6020601f8211600181146103bf57600083156103a75750848201515b600019600385901b1c1916600184901b178455610356565b600084815260208120601f198516915b828110156103ef57878501518255602094850194600190920191016103cf565b508482101561040d5786840151600019600387901b60f8161c191681555b50505050600190811b01905550565b602081526000825180602084015260005b8181101561044a576020818601810151604086840101520161042d565b506000604082850101526040601f19601f83011684010191505092915050565b805160208083015191908110156103095760001960209190910360031b1b16919050565b60805160a05160c05160e051610100516101205161014051611f6b6104e860003960006115ec015260006115bf01526000611515015260006114ed01526000611448015260006114720152600061149c0152611f6b6000f3fe60806040526004361061014b5760003560e01c80637eb4cde7116100b6578063a9059cbb1161006f578063a9059cbb146103a0578063d505accf146103c0578063dd62ed3e146103e0578063f2fde38b14610426578063f89fbe6a14610446578063fbfa77cf1461047657600080fd5b80637eb4cde7146102db5780637ecebe00146102fb57806384b0196e1461031b5780638da5cb5b1461034357806395d89b4114610375578063a11d08c71461038a57600080fd5b8063313ce56711610108578063313ce5671461021f5780633644e5151461023b57806340c10f19146102505780636817031b1461027057806370a0823114610290578063715018a6146102c657600080fd5b806306fdde03146101505780630752881a1461017b578063095ea7b31461019057806318160ddd146101c057806323b872dd146101df57806324c93837146101ff575b600080fd5b34801561015c57600080fd5b50610165610496565b6040516101729190611b56565b60405180910390f35b61018e610189366004611b85565b610528565b005b34801561019c57600080fd5b506101b06101ab366004611b85565b610c50565b6040519015158152602001610172565b3480156101cc57600080fd5b506002545b604051908152602001610172565b3480156101eb57600080fd5b506101b06101fa366004611bb1565b610c6a565b34801561020b57600080fd5b5061018e61021a366004611bf2565b610c8e565b34801561022b57600080fd5b5060405160128152602001610172565b34801561024757600080fd5b506101d1610d41565b34801561025c57600080fd5b5061018e61026b366004611b85565b610d50565b34801561027c57600080fd5b5061018e61028b366004611c0b565b610d66565b34801561029c57600080fd5b506101d16102ab366004611c0b565b6001600160a01b031660009081526020819052604090205490565b3480156102d257600080fd5b5061018e610e5f565b3480156102e757600080fd5b5061018e6102f6366004611c0b565b610e73565b34801561030757600080fd5b506101d1610316366004611c0b565b6110f3565b34801561032757600080fd5b50610330611111565b6040516101729796959493929190611c28565b34801561034f57600080fd5b506005546001600160a01b03165b6040516001600160a01b039091168152602001610172565b34801561038157600080fd5b50610165611157565b34801561039657600080fd5b506101d1600b5481565b3480156103ac57600080fd5b506101b06103bb366004611b85565b611166565b3480156103cc57600080fd5b5061018e6103db366004611cc0565b611174565b3480156103ec57600080fd5b506101d16103fb366004611d37565b6001600160a01b03918216600090815260016020908152604080832093909416825291909152205490565b34801561043257600080fd5b5061018e610441366004611c0b565b6112ae565b34801561045257600080fd5b506101b0610461366004611c0b565b600a6020526000908152604090205460ff1681565b34801561048257600080fd5b5060095461035d906001600160a01b031681565b6060600380546104a590611d70565b80601f01602080910402602001604051908101604052809291908181526020018280546104d190611d70565b801561051e5780601f106104f35761010080835404028352916020019161051e565b820191906000526020600020905b81548152906001019060200180831161050157829003601f168201915b5050505050905090565b7fcf34ef537ac33ee1ac626ca1587a0a7e8e51561e5514f8cb36afa1c5102b3bab604051610587906020808252601d908201527f4f7973746572546f6b656e3a20627579546f6b656e732063616c6c6564000000604082015260600190565b60405180910390a16040805181815260028183015261627960f01b606082015233602082015290517f62ddffe5b5108385f7a590f100e1ee414ad9551a31f089e64e82998440785e1e9181900360800190a16040805181815260118183015270199bdc88135d5cda58d0dbdb9d1c9858dd607a1b60608201526001600160a01b038416602082015290517f62ddffe5b5108385f7a590f100e1ee414ad9551a31f089e64e82998440785e1e9181900360800190a16040805181815260068183015265185b5bdd5b9d60d21b60608201526020810183905290517f941296a39ea107bde685522318a4b6c2b544904a5dd82a512748ca2cf839bef79181900360800190a16001600160a01b0382166000908152600a602052604090205460ff166106f75760405162461bcd60e51b815260206004820152601d60248201527f496e76616c6964204d75736963436f6e7472616374206164647265737300000060448201526064015b60405180910390fd5b6000600b54826107079190611dc0565b9050803410156107515760405162461bcd60e51b8152602060048201526015602482015274125b9cdd59999a58da595b9d0815d95a481cd95b9d605a1b60448201526064016106ee565b60095460408051630fa5569560e11b8152905184926001600160a01b031691631f4aad2a9160048083019260209291908290030181865afa15801561079a573d6000803e3d6000fd5b505050506040513d601f19601f820116820180604052508101906107be9190611dd7565b101561080c5760405162461bcd60e51b815260206004820152601c60248201527f496e73756666696369656e7420746f6b656e7320696e207661756c740000000060448201526064016106ee565b6040516370a0823160e01b81526001600160a01b03841660048201527f91ea01da2b09ce2b5154c613cbd74b3cb9156dcf3dc16ba7c2db9d12d4f5437d90849030906370a0823190602401602060405180830381865afa158015610874573d6000803e3d6000fd5b505050506040513d601f19601f820116820180604052508101906108989190611dd7565b6040805160608082526035908201527f4f7973746572546f6b656e3a2042616c616e6365206f66204d75736963436f6e6080820152747472616374206265666f726520707572636861736560581b60a08201526001600160a01b03909316602084015282015260c00160405180910390a160095460408051630fa5569560e11b815290517f91ea01da2b09ce2b5154c613cbd74b3cb9156dcf3dc16ba7c2db9d12d4f5437d926001600160a01b0316918291631f4aad2a916004808201926020929091908290030181865afa158015610975573d6000803e3d6000fd5b505050506040513d601f19601f820116820180604052508101906109999190611dd7565b604080516060808252602d908201527f4f7973746572546f6b656e3a2042616c616e6365206f66205661756c7420626560808201526c666f726520707572636861736560981b60a08201526001600160a01b03909316602084015282015260c00160405180910390a1600954604051632093325760e11b81526001600160a01b038581166004830152602482018590529091169063412664ae906044016020604051808303816000875af1158015610a55573d6000803e3d6000fd5b505050506040513d601f19601f82011682018060405250810190610a799190611df0565b506040516322ea223160e01b8152336004820152602481018390526001600160a01b038416906322ea223190604401600060405180830381600087803b158015610ac257600080fd5b505af1158015610ad6573d6000803e3d6000fd5b50506040516370a0823160e01b81526001600160a01b03861660048201527f91ea01da2b09ce2b5154c613cbd74b3cb9156dcf3dc16ba7c2db9d12d4f5437d925085915030906370a0823190602401602060405180830381865afa158015610b42573d6000803e3d6000fd5b505050506040513d601f19601f82011682018060405250810190610b669190611dd7565b6040805160608082526034908201527f4f7973746572546f6b656e3a2042616c616e6365206f66204d75736963436f6e608082015273747261637420616674657220707572636861736560601b60a08201526001600160a01b03909316602084015282015260c00160405180910390a180341115610c1657336108fc610bec8334611e12565b6040518115909202916000818181858888f19350505050158015610c14573d6000803e3d6000fd5b505b60405182815233907f4aff2c4e63da20aaa26764b3e97f557bf5e95b76ddba8f97a156abbecb0818469060200160405180910390a2505050565b600033610c5e8185856112e9565b60019150505b92915050565b600033610c788582856112fb565b610c83858585611379565b506001949350505050565b610c966113d8565b6009546040518281526001600160a01b03909116907fce08323565e2d8d0b35079e085b0eb3b8ab66acf2cabd4a67a985db6509766d19060200160405180910390a26009546001600160a01b0316610d285760405162461bcd60e51b815260206004820152601560248201527415985d5b1d081859191c995cdcc81b9bdd081cd95d605a1b60448201526064016106ee565b600954610d3e906001600160a01b031682611405565b50565b6000610d4b61143b565b905090565b610d586113d8565b610d628282611405565b5050565b610d6e6113d8565b6040516001600160a01b038216907fd459c7242e23d490831b5676a611c4342d899d28f342d89ae80793e56a930f3090600090a26001600160a01b038116610df05760405162461bcd60e51b8152602060048201526015602482015274496e76616c6964207661756c74206164647265737360581b60448201526064016106ee565b6009546001600160a01b031615610e3d5760405162461bcd60e51b815260206004820152601160248201527015985d5b1d08185b1c9958591e481cd95d607a1b60448201526064016106ee565b600980546001600160a01b0319166001600160a01b0392909216919091179055565b610e676113d8565b610e716000611566565b565b610e7b6113d8565b803b80610eca5760405162461bcd60e51b815260206004820152601960248201527f41646472657373206973206e6f74206120636f6e74726163740000000000000060448201526064016106ee565b60408051600481526024810182526020810180516001600160e01b0316630628d14f60e51b17905290517fc51a29e01f065c89c861049eeec3a3f124a50cba7be636a69dceee34f3cad76a9160009182916001600160a01b03871691610f309190611e25565b600060405180830381855afa9150503d8060008114610f6b576040519150601f19603f3d011682016040523d82523d6000602084013e610f70565b606091505b509150915081610fc25760405162461bcd60e51b815260206004820152601e60248201527f43616c6c20746f20676574436f6e747261637454797065206661696c6564000060448201526064016106ee565b805160609015610fe35781806020019051810190610fe09190611e57565b90505b6040516c135d5cda58d0dbdb9d1c9858dd609a1b6020820152602d0160405160208183030381529060405280519060200120816040516020016110269190611e25565b60405160208183030381529060405280519060200120146110895760405162461bcd60e51b815260206004820152601960248201527f4e6f7420612076616c6964204d75736963436f6e74726163740000000000000060448201526064016106ee565b604051600181526001600160a01b038716907f9a62342b40f29e0bb7f7221d0d9d62210855ec99729d37ee9f7d66d98b0897c29060200160405180910390a25050506001600160a01b039092166000908152600a60205260409020805460ff191660011790555050565b6001600160a01b038116600090815260086020526040812054610c64565b6000606080600080600060606111256115b8565b61112d6115e5565b60408051600080825260208201909252600f60f81b9b939a50919850469750309650945092509050565b6060600480546104a590611d70565b600033610c5e818585611379565b834211156111985760405163313c898160e11b8152600481018590526024016106ee565b60007f6e71edae12b1b97f4d1f60370fef10105fa2faae0126114a169c64845d6126c98888886111e58c6001600160a01b0316600090815260086020526040902080546001810190915590565b6040805160208101969096526001600160a01b0394851690860152929091166060840152608083015260a082015260c0810186905260e001604051602081830303815290604052805190602001209050600061124082611612565b905060006112508287878761163f565b9050896001600160a01b0316816001600160a01b031614611297576040516325c0072360e11b81526001600160a01b0380831660048301528b1660248201526044016106ee565b6112a28a8a8a6112e9565b50505050505050505050565b6112b66113d8565b6001600160a01b0381166112e057604051631e4fbdf760e01b8152600060048201526024016106ee565b610d3e81611566565b6112f6838383600161166d565b505050565b6001600160a01b038381166000908152600160209081526040808320938616835292905220546000198114611373578181101561136457604051637dc7a0d960e11b81526001600160a01b038416600482015260248101829052604481018390526064016106ee565b6113738484848403600061166d565b50505050565b6001600160a01b0383166113a357604051634b637e8f60e11b8152600060048201526024016106ee565b6001600160a01b0382166113cd5760405163ec442f0560e01b8152600060048201526024016106ee565b6112f6838383611742565b6005546001600160a01b03163314610e715760405163118cdaa760e01b81523360048201526024016106ee565b6001600160a01b03821661142f5760405163ec442f0560e01b8152600060048201526024016106ee565b610d6260008383611742565b6000306001600160a01b037f00000000000000000000000000000000000000000000000000000000000000001614801561149457507f000000000000000000000000000000000000000000000000000000000000000046145b156114be57507f000000000000000000000000000000000000000000000000000000000000000090565b610d4b604080517f8b73c3c69bb8fe3d512ecc4cf759cc79239f7b179b0ffacaa9a75d522b39400f60208201527f0000000000000000000000000000000000000000000000000000000000000000918101919091527f000000000000000000000000000000000000000000000000000000000000000060608201524660808201523060a082015260009060c00160405160208183030381529060405280519060200120905090565b600580546001600160a01b038381166001600160a01b0319831681179093556040519116919082907f8be0079c531659141344cd1fd0a4f28419497f9722a3daafe3b4186f6b6457e090600090a35050565b6060610d4b7f0000000000000000000000000000000000000000000000000000000000000000600661186c565b6060610d4b7f0000000000000000000000000000000000000000000000000000000000000000600761186c565b6000610c6461161f61143b565b8360405161190160f01b8152600281019290925260228201526042902090565b60008060008061165188888888611917565b92509250925061166182826119e6565b50909695505050505050565b6001600160a01b0384166116975760405163e602df0560e01b8152600060048201526024016106ee565b6001600160a01b0383166116c157604051634a1406b160e11b8152600060048201526024016106ee565b6001600160a01b038085166000908152600160209081526040808320938716835292905220829055801561137357826001600160a01b0316846001600160a01b03167f8c5be1e5ebec7d5bd14f71427d1e84f3dd0314c0f7b2291e5b200ac8c7c3b9258460405161173491815260200190565b60405180910390a350505050565b6001600160a01b03831661176d5780600260008282546117629190611f0c565b909155506117df9050565b6001600160a01b038316600090815260208190526040902054818110156117c05760405163391434e360e21b81526001600160a01b038516600482015260248101829052604481018390526064016106ee565b6001600160a01b03841660009081526020819052604090209082900390555b6001600160a01b0382166117fb5760028054829003905561181a565b6001600160a01b03821660009081526020819052604090208054820190555b816001600160a01b0316836001600160a01b03167fddf252ad1be2c89b69c2b068fc378daa952ba7f163c4a11628f55a4df523b3ef8360405161185f91815260200190565b60405180910390a3505050565b606060ff83146118865761187f83611a9f565b9050610c64565b81805461189290611d70565b80601f01602080910402602001604051908101604052809291908181526020018280546118be90611d70565b801561190b5780601f106118e05761010080835404028352916020019161190b565b820191906000526020600020905b8154815290600101906020018083116118ee57829003601f168201915b50505050509050610c64565b600080807f7fffffffffffffffffffffffffffffff5d576e7357a4501ddfe92f46681b20a084111561195257506000915060039050826119dc565b604080516000808252602082018084528a905260ff891692820192909252606081018790526080810186905260019060a0016020604051602081039080840390855afa1580156119a6573d6000803e3d6000fd5b5050604051601f1901519150506001600160a01b0381166119d2575060009250600191508290506119dc565b9250600091508190505b9450945094915050565b60008260038111156119fa576119fa611f1f565b03611a03575050565b6001826003811115611a1757611a17611f1f565b03611a355760405163f645eedf60e01b815260040160405180910390fd5b6002826003811115611a4957611a49611f1f565b03611a6a5760405163fce698f760e01b8152600481018290526024016106ee565b6003826003811115611a7e57611a7e611f1f565b03610d62576040516335e2f38360e21b8152600481018290526024016106ee565b60606000611aac83611ade565b604080516020808252818301909252919250600091906020820181803683375050509182525060208101929092525090565b600060ff8216601f811115610c6457604051632cd44ac360e21b815260040160405180910390fd5b60005b83811015611b21578181015183820152602001611b09565b50506000910152565b60008151808452611b42816020860160208601611b06565b601f01601f19169290920160200192915050565b602081526000611b696020830184611b2a565b9392505050565b6001600160a01b0381168114610d3e57600080fd5b60008060408385031215611b9857600080fd5b8235611ba381611b70565b946020939093013593505050565b600080600060608486031215611bc657600080fd5b8335611bd181611b70565b92506020840135611be181611b70565b929592945050506040919091013590565b600060208284031215611c0457600080fd5b5035919050565b600060208284031215611c1d57600080fd5b8135611b6981611b70565b60ff60f81b8816815260e060208201526000611c4760e0830189611b2a565b8281036040840152611c598189611b2a565b606084018890526001600160a01b038716608085015260a0840186905283810360c08501528451808252602080870193509091019060005b81811015611caf578351835260209384019390920191600101611c91565b50909b9a5050505050505050505050565b600080600080600080600060e0888a031215611cdb57600080fd5b8735611ce681611b70565b96506020880135611cf681611b70565b95506040880135945060608801359350608088013560ff81168114611d1a57600080fd5b9699959850939692959460a0840135945060c09093013592915050565b60008060408385031215611d4a57600080fd5b8235611d5581611b70565b91506020830135611d6581611b70565b809150509250929050565b600181811c90821680611d8457607f821691505b602082108103611da457634e487b7160e01b600052602260045260246000fd5b50919050565b634e487b7160e01b600052601160045260246000fd5b8082028115828204841417610c6457610c64611daa565b600060208284031215611de957600080fd5b5051919050565b600060208284031215611e0257600080fd5b81518015158114611b6957600080fd5b81810381811115610c6457610c64611daa565b60008251611e37818460208701611b06565b9190910192915050565b634e487b7160e01b600052604160045260246000fd5b600060208284031215611e6957600080fd5b815167ffffffffffffffff811115611e8057600080fd5b8201601f81018413611e9157600080fd5b805167ffffffffffffffff811115611eab57611eab611e41565b604051601f8201601f19908116603f0116810167ffffffffffffffff81118282101715611eda57611eda611e41565b604052818152828201602001861015611ef257600080fd5b611f03826020830160208601611b06565b95945050505050565b80820180821115610c6457610c64611daa565b634e487b7160e01b600052602160045260246000fdfea2646970667358221220b8225e9f66c06f02586f5e620f592c8cf830a717f8385b7a3af84cfa6c45c01164736f6c634300081c0033",
  "linkReferences": {},
  "deployedLinkReferences": {}
}