{
  "_format": "hh-sol-artifact-1",
  "contractName": "OysterToken",
  "sourceName": "contracts/OysterToken.sol",
  "abi": [
    {
      "inputs": [
        {
          "internalType": "address",
          "name": "initialOwner",
          "type": "address"
        }
      ],
      "stateMutability": "nonpayable",
      "type": "constructor"
    },
    {
      "inputs": [
        {
          "internalType": "address",
          "name": "spender",
          "type": "address"
        },
        {
          "internalType": "uint256",
          "name": "allowance",
          "type": "uint256"
        },
        {
          "internalType": "uint256",
          "name": "needed",
          "type": "uint256"
        }
      ],
      "name": "ERC20InsufficientAllowance",
      "type": "error"
    },
    {
      "inputs": [
        {
          "internalType": "address",
          "name": "sender",
          "type": "address"
        },
        {
          "internalType": "uint256",
          "name": "balance",
          "type": "uint256"
        },
        {
          "internalType": "uint256",
          "name": "needed",
          "type": "uint256"
        }
      ],
      "name": "ERC20InsufficientBalance",
      "type": "error"
    },
    {
      "inputs": [
        {
          "internalType": "address",
          "name": "approver",
          "type": "address"
        }
      ],
      "name": "ERC20InvalidApprover",
      "type": "error"
    },
    {
      "inputs": [
        {
          "internalType": "address",
          "name": "receiver",
          "type": "address"
        }
      ],
      "name": "ERC20InvalidReceiver",
      "type": "error"
    },
    {
      "inputs": [
        {
          "internalType": "address",
          "name": "sender",
          "type": "address"
        }
      ],
      "name": "ERC20InvalidSender",
      "type": "error"
    },
    {
      "inputs": [
        {
          "internalType": "address",
          "name": "spender",
          "type": "address"
        }
      ],
      "name": "ERC20InvalidSpender",
      "type": "error"
    },
    {
      "inputs": [
        {
          "internalType": "address",
          "name": "owner",
          "type": "address"
        }
      ],
      "name": "OwnableInvalidOwner",
      "type": "error"
    },
    {
      "inputs": [
        {
          "internalType": "address",
          "name": "account",
          "type": "address"
        }
      ],
      "name": "OwnableUnauthorizedAccount",
      "type": "error"
    },
    {
      "anonymous": false,
      "inputs": [
        {
          "indexed": true,
          "internalType": "address",
          "name": "owner",
          "type": "address"
        },
        {
          "indexed": true,
          "internalType": "address",
          "name": "spender",
          "type": "address"
        },
        {
          "indexed": false,
          "internalType": "uint256",
          "name": "value",
          "type": "uint256"
        }
      ],
      "name": "Approval",
      "type": "event"
    },
    {
      "anonymous": false,
      "inputs": [
        {
          "indexed": true,
          "internalType": "address",
          "name": "buyer",
          "type": "address"
        },
        {
          "indexed": true,
          "internalType": "address",
          "name": "musicContract",
          "type": "address"
        },
        {
          "indexed": false,
          "internalType": "uint256",
          "name": "amount",
          "type": "uint256"
        }
      ],
      "name": "BuyTokens",
      "type": "event"
    },
    {
      "anonymous": false,
      "inputs": [
        {
          "indexed": false,
          "internalType": "string",
          "name": "message",
          "type": "string"
        }
      ],
      "name": "Log",
      "type": "event"
    },
    {
      "anonymous": false,
      "inputs": [
        {
          "indexed": false,
          "internalType": "string",
          "name": "message",
          "type": "string"
        },
        {
          "indexed": false,
          "internalType": "address",
          "name": "addr",
          "type": "address"
        }
      ],
      "name": "LogAddress",
      "type": "event"
    },
    {
      "anonymous": false,
      "inputs": [
        {
          "indexed": false,
          "internalType": "string",
          "name": "message",
          "type": "string"
        },
        {
          "indexed": false,
          "internalType": "uint256",
          "name": "value",
          "type": "uint256"
        }
      ],
      "name": "LogUint",
      "type": "event"
    },
    {
      "anonymous": false,
      "inputs": [
        {
          "indexed": true,
          "internalType": "address",
          "name": "musicContract",
          "type": "address"
        },
        {
          "indexed": false,
          "internalType": "bool",
          "name": "valid",
          "type": "bool"
        }
      ],
      "name": "MusicContractValidated",
      "type": "event"
    },
    {
      "anonymous": false,
      "inputs": [
        {
          "indexed": true,
          "internalType": "address",
          "name": "previousOwner",
          "type": "address"
        },
        {
          "indexed": true,
          "internalType": "address",
          "name": "newOwner",
          "type": "address"
        }
      ],
      "name": "OwnershipTransferred",
      "type": "event"
    },
    {
      "anonymous": false,
      "inputs": [
        {
          "indexed": false,
          "internalType": "address",
          "name": "initialOwner",
          "type": "address"
        },
        {
          "indexed": false,
          "internalType": "uint256",
          "name": "gweiPerToken",
          "type": "uint256"
        }
      ],
      "name": "OysterTokenDeployed",
      "type": "event"
    },
    {
      "anonymous": false,
      "inputs": [
        {
          "indexed": true,
          "internalType": "address",
          "name": "from",
          "type": "address"
        },
        {
          "indexed": true,
          "internalType": "address",
          "name": "to",
          "type": "address"
        },
        {
          "indexed": false,
          "internalType": "uint256",
          "name": "value",
          "type": "uint256"
        }
      ],
      "name": "Transfer",
      "type": "event"
    },
    {
      "anonymous": false,
      "inputs": [
        {
          "indexed": true,
          "internalType": "address",
          "name": "vault",
          "type": "address"
        }
      ],
      "name": "VaultSet",
      "type": "event"
    },
    {
      "inputs": [],
      "name": "GWEI_PER_TOKEN",
      "outputs": [
        {
          "internalType": "uint256",
          "name": "",
          "type": "uint256"
        }
      ],
      "stateMutability": "view",
      "type": "function"
    },
    {
      "inputs": [
        {
          "internalType": "address",
          "name": "owner",
          "type": "address"
        },
        {
          "internalType": "address",
          "name": "spender",
          "type": "address"
        }
      ],
      "name": "allowance",
      "outputs": [
        {
          "internalType": "uint256",
          "name": "",
          "type": "uint256"
        }
      ],
      "stateMutability": "view",
      "type": "function"
    },
    {
      "inputs": [
        {
          "internalType": "address",
          "name": "spender",
          "type": "address"
        },
        {
          "internalType": "uint256",
          "name": "amount",
          "type": "uint256"
        }
      ],
      "name": "approve",
      "outputs": [
        {
          "internalType": "bool",
          "name": "",
          "type": "bool"
        }
      ],
      "stateMutability": "nonpayable",
      "type": "function"
    },
    {
      "inputs": [
        {
          "internalType": "address",
          "name": "account",
          "type": "address"
        }
      ],
      "name": "balanceOf",
      "outputs": [
        {
          "internalType": "uint256",
          "name": "",
          "type": "uint256"
        }
      ],
      "stateMutability": "view",
      "type": "function"
    },
    {
      "inputs": [
        {
          "internalType": "address",
          "name": "_musicContract",
          "type": "address"
        },
        {
          "internalType": "uint256",
          "name": "_amount",
          "type": "uint256"
        }
      ],
      "name": "buyTokens",
      "outputs": [],
      "stateMutability": "nonpayable",
      "type": "function"
    },
    {
      "inputs": [],
      "name": "decimals",
      "outputs": [
        {
          "internalType": "uint8",
          "name": "",
          "type": "uint8"
        }
      ],
      "stateMutability": "view",
      "type": "function"
    },
    {
      "inputs": [
        {
          "internalType": "address",
          "name": "to",
          "type": "address"
        },
        {
          "internalType": "uint256",
          "name": "amount",
          "type": "uint256"
        }
      ],
      "name": "mint",
      "outputs": [],
      "stateMutability": "nonpayable",
      "type": "function"
    },
    {
      "inputs": [],
      "name": "name",
      "outputs": [
        {
          "internalType": "string",
          "name": "",
          "type": "string"
        }
      ],
      "stateMutability": "view",
      "type": "function"
    },
    {
      "inputs": [],
      "name": "owner",
      "outputs": [
        {
          "internalType": "address",
          "name": "",
          "type": "address"
        }
      ],
      "stateMutability": "view",
      "type": "function"
    },
    {
      "inputs": [],
      "name": "renounceOwnership",
      "outputs": [],
      "stateMutability": "nonpayable",
      "type": "function"
    },
    {
      "inputs": [
        {
          "internalType": "address",
          "name": "_vault",
          "type": "address"
        }
      ],
      "name": "setVault",
      "outputs": [],
      "stateMutability": "nonpayable",
      "type": "function"
    },
    {
      "inputs": [],
      "name": "symbol",
      "outputs": [
        {
          "internalType": "string",
          "name": "",
          "type": "string"
        }
      ],
      "stateMutability": "view",
      "type": "function"
    },
    {
      "inputs": [],
      "name": "totalSupply",
      "outputs": [
        {
          "internalType": "uint256",
          "name": "",
          "type": "uint256"
        }
      ],
      "stateMutability": "view",
      "type": "function"
    },
    {
      "inputs": [
        {
          "internalType": "address",
          "name": "to",
          "type": "address"
        },
        {
          "internalType": "uint256",
          "name": "value",
          "type": "uint256"
        }
      ],
      "name": "transfer",
      "outputs": [
        {
          "internalType": "bool",
          "name": "",
          "type": "bool"
        }
      ],
      "stateMutability": "nonpayable",
      "type": "function"
    },
    {
      "inputs": [
        {
          "internalType": "address",
          "name": "from",
          "type": "address"
        },
        {
          "internalType": "address",
          "name": "to",
          "type": "address"
        },
        {
          "internalType": "uint256",
          "name": "amount",
          "type": "uint256"
        }
      ],
      "name": "transferFrom",
      "outputs": [
        {
          "internalType": "bool",
          "name": "",
          "type": "bool"
        }
      ],
      "stateMutability": "nonpayable",
      "type": "function"
    },
    {
      "inputs": [
        {
          "internalType": "address",
          "name": "newOwner",
          "type": "address"
        }
      ],
      "name": "transferOwnership",
      "outputs": [],
      "stateMutability": "nonpayable",
      "type": "function"
    },
    {
      "inputs": [
        {
          "internalType": "address",
          "name": "",
          "type": "address"
        }
      ],
      "name": "validMusicContracts",
      "outputs": [
        {
          "internalType": "bool",
          "name": "",
          "type": "bool"
        }
      ],
      "stateMutability": "view",
      "type": "function"
    },
    {
      "inputs": [
        {
          "internalType": "address",
          "name": "_musicContract",
          "type": "address"
        }
      ],
      "name": "validateMusicContract",
      "outputs": [],
      "stateMutability": "nonpayable",
      "type": "function"
    },
    {
      "inputs": [],
      "name": "vault",
      "outputs": [
        {
          "internalType": "address",
          "name": "",
          "type": "address"
        }
      ],
      "stateMutability": "view",
      "type": "function"
    }
  ],
  "bytecode": "0x608060405234801561001057600080fd5b50604051611fa1380380611fa183398101604081905261002f91610166565b806040518060400160405280600b81526020016a27bcb9ba32b92a37b5b2b760a91b8152506040518060400160405280600381526020016213d4d560ea1b815250816003908161007f9190610235565b50600461008c8282610235565b5050506001600160a01b0381166100bd57604051631e4fbdf760e01b81526000600482015260240160405180910390fd5b6100c681610114565b50604080516001600160a01b0383168152652d79883d200060208201527f6ea7e7a6fce309baa0e793dada1bb4c9d097e465b769816ddefe7bf926f85bd2910160405180910390a1506102f3565b600580546001600160a01b038381166001600160a01b0319831681179093556040519116919082907f8be0079c531659141344cd1fd0a4f28419497f9722a3daafe3b4186f6b6457e090600090a35050565b60006020828403121561017857600080fd5b81516001600160a01b038116811461018f57600080fd5b9392505050565b634e487b7160e01b600052604160045260246000fd5b600181811c908216806101c057607f821691505b6020821081036101e057634e487b7160e01b600052602260045260246000fd5b50919050565b601f82111561023057806000526020600020601f840160051c8101602085101561020d5750805b601f840160051c820191505b8181101561022d5760008155600101610219565b50505b505050565b81516001600160401b0381111561024e5761024e610196565b6102628161025c84546101ac565b846101e6565b6020601f821160018114610296576000831561027e5750848201515b600019600385901b1c1916600184901b17845561022d565b600084815260208120601f198516915b828110156102c657878501518255602094850194600190920191016102a6565b50848210156102e45786840151600019600387901b60f8161c191681555b50505050600190811b01905550565b611c9f806103026000396000f3fe608060405234801561001057600080fd5b50600436106101215760003560e01c80636817031b116100ad578063a9059cbb11610071578063a9059cbb1461023e578063dd62ed3e14610251578063f2fde38b14610264578063f89fbe6a14610277578063fbfa77cf1461029a57600080fd5b80636817031b146101e357806370a08231146101f6578063715018a6146102095780638da5cb5b1461021157806395d89b411461023657600080fd5b80631870aaa8116100f45780631870aaa81461018e57806323b872dd146101a1578063313ce567146101b457806340c10f19146101c35780635e5d3413146101d657600080fd5b806306fdde03146101265780630752881a14610144578063095ea7b31461015957806318160ddd1461017c575b600080fd5b61012e6102ad565b60405161013b9190611a6e565b60405180910390f35b610157610152366004611abd565b61033f565b005b61016c610167366004611abd565b610c1d565b604051901515815260200161013b565b6002545b60405190815260200161013b565b61015761019c366004611ae7565b610e2a565b61016c6101af366004611b09565b610fe0565b6040516012815260200161013b565b6101576101d1366004611abd565b6114da565b610180652d79883d200081565b6101576101f1366004611ae7565b61157e565b610180610204366004611ae7565b6115dc565b6101576115f7565b6005546001600160a01b03165b6040516001600160a01b03909116815260200161013b565b61012e61160b565b61016c61024c366004611abd565b61161a565b61018061025f366004611b46565b611632565b610157610272366004611ae7565b61165d565b61016c610285366004611ae7565b60076020526000908152604090205460ff1681565b60065461021e906001600160a01b031681565b6060600380546102bc90611b79565b80601f01602080910402602001604051908101604052809291908181526020018280546102e890611b79565b80156103355780601f1061030a57610100808354040283529160200191610335565b820191906000526020600020905b81548152906001019060200180831161031857829003601f168201915b5050505050905090565b600080516020611c0a83398151915260405161038c906020808252601d908201527f4f7973746572546f6b656e3a20627579546f6b656e732063616c6c6564000000604082015260600190565b60405180910390a16040805181815260028183015261627960f01b60608201523360208201529051600080516020611c4a8339815191529181900360800190a16040805181815260118183015270199bdc88135d5cda58d0dbdb9d1c9858dd607a1b60608201526001600160a01b03841660208201529051600080516020611c4a8339815191529181900360800190a16040805181815260068183015265185b5bdd5b9d60d21b6060820152602081018390529051600080516020611c2a8339815191529181900360800190a1600080516020611c2a833981519152610471336115dc565b6040516104ca919060408082526029908201527f4f7973746572546f6b656e3a2062616c616e63654f66286d73672e73656e64656060820152687229206265666f726560b81b6080820152602081019190915260a00190565b60405180910390a1600080516020611c2a8339815191526104ea836115dc565b60405161054791906040808252602d908201527f4f7973746572546f6b656e3a2062616c616e63654f66285f6d75736963436f6e60608201526c747261637429206265666f726560981b6080820152602081019190915260a00190565b60405180910390a1600080516020611c2a8339815191526105683384611632565b6040516105d5919060408082526039908201527f4f7973746572546f6b656e3a20616c6c6f77616e6365286d73672e73656e646560608201527f722c205f6d75736963436f6e747261637429206265666f7265000000000000006080820152602081019190915260a00190565b60405180910390a16001600160a01b03821660009081526007602052604090205460ff166106425760405162461bcd60e51b8152602060048201526015602482015274125b9d985b1a5908135d5cda58d0dbdb9d1c9858dd605a1b60448201526064015b60405180910390fd5b600080516020611c0a83398151915260405161068d906020808252818101527f4f7973746572546f6b656e3a204265666f7265207472616e7366657246726f6d604082015260600190565b60405180910390a1604080518181526004818301526346726f6d60e01b60608201523360208201529051600080516020611c4a8339815191529181900360800190a16040805181815260028183015261546f60f01b60608201526001600160a01b03841660208201529051600080516020611c4a8339815191529181900360800190a16040805181815260068183015265105b5bdd5b9d60d21b6060820152602081018390529051600080516020611c2a8339815191529181900360800190a16006546040516370a0823160e01b81526001600160a01b039091166004820152600080516020611c2a8339815191529030906370a0823190602401602060405180830381865afa1580156107a5573d6000803e3d6000fd5b505050506040513d601f19601f820116820180604052508101906107c99190611bb3565b60405161080091906040808252600d908201526c5661756c742042616c616e636560981b6060820152602081019190915260800190565b60405180910390a1600654604051636eb1769f60e11b81526001600160a01b0390911660048201523060248201819052600080516020611c2a8339815191529163dd62ed3e90604401602060405180830381865afa158015610866573d6000803e3d6000fd5b505050506040513d601f19601f8201168201806040525081019061088a9190611bb3565b6040516108bd9190604080825260099082015268416c6c6f77616e636560b81b6060820152602081019190915260800190565b60405180910390a160006108d233848461169b565b9050600080516020611c0a83398151915260405161091f906020808252818101527f4f7973746572546f6b656e3a207472616e7366657246726f6d2063616c6c6564604082015260600190565b60405180910390a1600080516020611c2a83398151915261093f336115dc565b604051610997919060408082526028908201527f4f7973746572546f6b656e3a2062616c616e63654f66286d73672e73656e646560608201526739149030b33a32b960c11b6080820152602081019190915260a00190565b60405180910390a1600080516020611c2a8339815191526109b7846115dc565b604051610a1391906040808252602c908201527f4f7973746572546f6b656e3a2062616c616e63654f66285f6d75736963436f6e60608201526b3a3930b1ba149030b33a32b960a11b6080820152602081019190915260a00190565b60405180910390a18015610a8857600080516020611c0a833981519152604051610a7b9060208082526024908201527f4f7973746572546f6b656e3a207472616e7366657246726f6d207375636365736040820152631cd99d5b60e21b606082015260800190565b60405180910390a1610adc565b600080516020611c0a833981519152604051610ad3906020808252818101527f4f7973746572546f6b656e3a207472616e7366657246726f6d206661696c6564604082015260600190565b60405180910390a15b80610b215760405162461bcd60e51b8152602060048201526015602482015274151bdad95b881d1c985b9cd9995c8819985a5b1959605a1b6044820152606401610639565b600080516020611c0a833981519152604051610b6e906020808252601f908201527f4f7973746572546f6b656e3a204166746572207472616e7366657246726f6d00604082015260600190565b60405180910390a16040518281526001600160a01b0384169033907f9d679fde97aa57da9a89a7bb2071f163ea2f43f12f10009077b7645aacea64cc9060200160405180910390a3600080516020611c0a833981519152604051610c109060208082526024908201527f4f7973746572546f6b656e3a20427579546f6b656e73206576656e7420656d696040820152631d1d195960e21b606082015260800190565b60405180910390a1505050565b60408051818152601e818301527f4f7973746572546f6b656e3a20417070726f76696e67207370656e646572000060608201526001600160a01b03841660208201529051600091600080516020611c4a833981519152919081900360800190a160408051818152601c818301527f4f7973746572546f6b656e3a20417070726f76616c20616d6f756e74000000006060820152602081018490529051600080516020611c2a8339815191529181900360800190a1600080516020611c4a833981519152610cf26005546001600160a01b031690565b60408051818152601e818301527f4f7973746572546f6b656e3a204f776e6572206f6620617070726f76616c000060608201526001600160a01b03929092166020830152519081900360800190a1604080518181526023818301527f4f7973746572546f6b656e3a206d73672e73656e646572206f6620617070726f6060820152621d985b60ea1b60808201523360208201529051600080516020611c4a8339815191529181900360a00190a1610daa3384846116bf565b600080516020611c2a833981519152610dc33385611632565b604051610e18919060408082526025908201527f4f7973746572546f6b656e3a20416c6c6f77616e6365206166746572205f617060608201526470726f766560d81b6080820152602081019190915260a00190565b60405180910390a15060015b92915050565b610e326116d1565b6000816001600160a01b03163b11610e8c5760405162461bcd60e51b815260206004820152601d60248201527f496e76616c6964204d75736963436f6e747261637420616464726573730000006044820152606401610639565b60405130602482015260009081906001600160a01b0384169060440160408051601f198184030181529181526020820180516001600160e01b031660016207802160e41b031917905251610ee09190611bcc565b6000604051808303816000865af19150503d8060008114610f1d576040519150601f19603f3d011682016040523d82523d6000602084013e610f22565b606091505b5091509150818015610f35575060008151115b610f815760405162461bcd60e51b815260206004820152601960248201527f4e6f7420612076616c6964204d75736963436f6e7472616374000000000000006044820152606401610639565b6001600160a01b038316600081815260076020908152604091829020805460ff1916600190811790915591519182527f3f1ebd6025e7e2fb5771bb1d2c184d9ec8b7a4199885763ce389717690f3456e910160405180910390a2505050565b604080518181526023818301527f4f7973746572546f6b656e3a207472616e7366657246726f6d2063616c6c656460608201526220627960e81b60808201523360208201529051600091600080516020611c4a833981519152919081900360a00190a160408051818152601e818301527f4f7973746572546f6b656e3a207472616e7366657246726f6d2066726f6d000060608201526001600160a01b03861660208201529051600080516020611c4a8339815191529181900360800190a160408051818152601c818301527f4f7973746572546f6b656e3a207472616e7366657246726f6d20746f0000000060608201526001600160a01b03851660208201529051600080516020611c4a8339815191529181900360800190a16040805181815260208183018190527f4f7973746572546f6b656e3a207472616e7366657246726f6d20616d6f756e74606083015281018490529051600080516020611c2a8339815191529181900360800190a1600080516020611c2a833981519152611167856115dc565b6040516111ba919060408082526023908201527f4f7973746572546f6b656e3a2042616c616e6365206f662066726f6d206265666060820152626f726560e81b6080820152602081019190915260a00190565b60405180910390a1600080516020611c2a8339815191526111da846115dc565b60405161122b919060408082526021908201527f4f7973746572546f6b656e3a2042616c616e6365206f6620746f206265666f726060820152606560f81b6080820152602081019190915260a00190565b60405180910390a1600080516020611c2a83398151915261124c8533611632565b6040516112a791906040808252602b908201527f4f7973746572546f6b656e3a20416c6c6f77616e63652066726f6d2c2073706560608201526a6e646572206265666f726560a81b6080820152602081019190915260a00190565b60405180910390a160006112bc85858561169b565b9050600080516020611c0a8339815191526040516113169060208082526022908201527f4f7973746572546f6b656e3a207472616e7366657246726f6d20726573756c7460408201526101d160f51b606082015260800190565b60405180910390a1600080516020611c0a83398151915281611355576040518060400160405280600581526020016466616c736560d81b815250611373565b604051806040016040528060048152602001637472756560e01b8152505b6040516113809190611a6e565b60405180910390a1600080516020611c2a8339815191526113a0866115dc565b6040516113f2919060408082526022908201527f4f7973746572546f6b656e3a2042616c616e6365206f662066726f6d2061667460608201526132b960f11b6080820152602081019190915260a00190565b60405180910390a1600080516020611c2a833981519152611412856115dc565b6040805181815260208183018190527f4f7973746572546f6b656e3a2042616c616e6365206f6620746f2061667465726060830152810192909252519081900360800190a1600080516020611c2a8339815191526114708633611632565b6040516114ca91906040808252602a908201527f4f7973746572546f6b656e3a20416c6c6f77616e63652066726f6d2c20737065606082015269373232b91030b33a32b960b11b6080820152602081019190915260a00190565b60405180910390a1949350505050565b6114e26116d1565b60408051818152600a81830152694d696e74696e6720746f60b01b60608201526001600160a01b03841660208201529051600080516020611c4a8339815191529181900360800190a160408051818152600e818301526d135a5b9d1a5b99c8185b5bdd5b9d60921b6060820152602081018390529051600080516020611c2a8339815191529181900360800190a161157a33826116fe565b5050565b6115866116d1565b6040516001600160a01b038216907fe7ae49f883c825b05681b3e00e8be6fdea9ed2a8a45e4c6ecb9390fc44cce61590600090a2600680546001600160a01b0319166001600160a01b0392909216919091179055565b6001600160a01b031660009081526020819052604090205490565b6115ff6116d1565b6116096000611734565b565b6060600480546102bc90611b79565b600033611628818585611786565b5060019392505050565b6001600160a01b03918216600090815260016020908152604080832093909416825291909152205490565b6116656116d1565b6001600160a01b03811661168f57604051631e4fbdf760e01b815260006004820152602401610639565b61169881611734565b50565b6000336116a98582856117e5565b6116b4858585611786565b506001949350505050565b6116cc838383600161184b565b505050565b6005546001600160a01b031633146116095760405163118cdaa760e01b8152336004820152602401610639565b6001600160a01b0382166117285760405163ec442f0560e01b815260006004820152602401610639565b61157a60008383611920565b600580546001600160a01b038381166001600160a01b0319831681179093556040519116919082907f8be0079c531659141344cd1fd0a4f28419497f9722a3daafe3b4186f6b6457e090600090a35050565b6001600160a01b0383166117b057604051634b637e8f60e11b815260006004820152602401610639565b6001600160a01b0382166117da5760405163ec442f0560e01b815260006004820152602401610639565b6116cc838383611920565b60006117f18484611632565b90506000198114611845578181101561183657604051637dc7a0d960e11b81526001600160a01b03841660048201526024810182905260448101839052606401610639565b6118458484848403600061184b565b50505050565b6001600160a01b0384166118755760405163e602df0560e01b815260006004820152602401610639565b6001600160a01b03831661189f57604051634a1406b160e11b815260006004820152602401610639565b6001600160a01b038085166000908152600160209081526040808320938716835292905220829055801561184557826001600160a01b0316846001600160a01b03167f8c5be1e5ebec7d5bd14f71427d1e84f3dd0314c0f7b2291e5b200ac8c7c3b9258460405161191291815260200190565b60405180910390a350505050565b6001600160a01b03831661194b5780600260008282546119409190611be8565b909155506119bd9050565b6001600160a01b0383166000908152602081905260409020548181101561199e5760405163391434e360e21b81526001600160a01b03851660048201526024810182905260448101839052606401610639565b6001600160a01b03841660009081526020819052604090209082900390555b6001600160a01b0382166119d9576002805482900390556119f8565b6001600160a01b03821660009081526020819052604090208054820190555b816001600160a01b0316836001600160a01b03167fddf252ad1be2c89b69c2b068fc378daa952ba7f163c4a11628f55a4df523b3ef83604051611a3d91815260200190565b60405180910390a3505050565b60005b83811015611a65578181015183820152602001611a4d565b50506000910152565b6020815260008251806020840152611a8d816040850160208701611a4a565b601f01601f19169190910160400192915050565b80356001600160a01b0381168114611ab857600080fd5b919050565b60008060408385031215611ad057600080fd5b611ad983611aa1565b946020939093013593505050565b600060208284031215611af957600080fd5b611b0282611aa1565b9392505050565b600080600060608486031215611b1e57600080fd5b611b2784611aa1565b9250611b3560208501611aa1565b929592945050506040919091013590565b60008060408385031215611b5957600080fd5b611b6283611aa1565b9150611b7060208401611aa1565b90509250929050565b600181811c90821680611b8d57607f821691505b602082108103611bad57634e487b7160e01b600052602260045260246000fd5b50919050565b600060208284031215611bc557600080fd5b5051919050565b60008251611bde818460208701611a4a565b9190910192915050565b80820180821115610e2457634e487b7160e01b600052601160045260246000fdfecf34ef537ac33ee1ac626ca1587a0a7e8e51561e5514f8cb36afa1c5102b3bab941296a39ea107bde685522318a4b6c2b544904a5dd82a512748ca2cf839bef762ddffe5b5108385f7a590f100e1ee414ad9551a31f089e64e82998440785e1ea26469706673582212202764cdb7e65dfd00bfdce3a11fe92026ac63c88163b17b18c2916f489089fb2764736f6c634300081c0033",
  "linkReferences": {},
  "deployedLinkReferences": {}
}