{
  "_format": "hh-sol-artifact-1",
  "contractName": "OysterToken",
  "sourceName": "contracts/OysterToken.sol",
  "abi": [
    {
      "inputs": [
        {
          "internalType": "address",
          "name": "initialOwner",
          "type": "address"
        }
      ],
      "stateMutability": "nonpayable",
      "type": "constructor"
    },
    {
      "inputs": [],
      "name": "ECDSAInvalidSignature",
      "type": "error"
    },
    {
      "inputs": [
        {
          "internalType": "uint256",
          "name": "length",
          "type": "uint256"
        }
      ],
      "name": "ECDSAInvalidSignatureLength",
      "type": "error"
    },
    {
      "inputs": [
        {
          "internalType": "bytes32",
          "name": "s",
          "type": "bytes32"
        }
      ],
      "name": "ECDSAInvalidSignatureS",
      "type": "error"
    },
    {
      "inputs": [
        {
          "internalType": "address",
          "name": "spender",
          "type": "address"
        },
        {
          "internalType": "uint256",
          "name": "allowance",
          "type": "uint256"
        },
        {
          "internalType": "uint256",
          "name": "needed",
          "type": "uint256"
        }
      ],
      "name": "ERC20InsufficientAllowance",
      "type": "error"
    },
    {
      "inputs": [
        {
          "internalType": "address",
          "name": "sender",
          "type": "address"
        },
        {
          "internalType": "uint256",
          "name": "balance",
          "type": "uint256"
        },
        {
          "internalType": "uint256",
          "name": "needed",
          "type": "uint256"
        }
      ],
      "name": "ERC20InsufficientBalance",
      "type": "error"
    },
    {
      "inputs": [
        {
          "internalType": "address",
          "name": "approver",
          "type": "address"
        }
      ],
      "name": "ERC20InvalidApprover",
      "type": "error"
    },
    {
      "inputs": [
        {
          "internalType": "address",
          "name": "receiver",
          "type": "address"
        }
      ],
      "name": "ERC20InvalidReceiver",
      "type": "error"
    },
    {
      "inputs": [
        {
          "internalType": "address",
          "name": "sender",
          "type": "address"
        }
      ],
      "name": "ERC20InvalidSender",
      "type": "error"
    },
    {
      "inputs": [
        {
          "internalType": "address",
          "name": "spender",
          "type": "address"
        }
      ],
      "name": "ERC20InvalidSpender",
      "type": "error"
    },
    {
      "inputs": [
        {
          "internalType": "uint256",
          "name": "deadline",
          "type": "uint256"
        }
      ],
      "name": "ERC2612ExpiredSignature",
      "type": "error"
    },
    {
      "inputs": [
        {
          "internalType": "address",
          "name": "signer",
          "type": "address"
        },
        {
          "internalType": "address",
          "name": "owner",
          "type": "address"
        }
      ],
      "name": "ERC2612InvalidSigner",
      "type": "error"
    },
    {
      "inputs": [
        {
          "internalType": "address",
          "name": "account",
          "type": "address"
        },
        {
          "internalType": "uint256",
          "name": "currentNonce",
          "type": "uint256"
        }
      ],
      "name": "InvalidAccountNonce",
      "type": "error"
    },
    {
      "inputs": [],
      "name": "InvalidShortString",
      "type": "error"
    },
    {
      "inputs": [
        {
          "internalType": "address",
          "name": "owner",
          "type": "address"
        }
      ],
      "name": "OwnableInvalidOwner",
      "type": "error"
    },
    {
      "inputs": [
        {
          "internalType": "address",
          "name": "account",
          "type": "address"
        }
      ],
      "name": "OwnableUnauthorizedAccount",
      "type": "error"
    },
    {
      "inputs": [
        {
          "internalType": "string",
          "name": "str",
          "type": "string"
        }
      ],
      "name": "StringTooLong",
      "type": "error"
    },
    {
      "anonymous": false,
      "inputs": [
        {
          "indexed": true,
          "internalType": "address",
          "name": "owner",
          "type": "address"
        },
        {
          "indexed": true,
          "internalType": "address",
          "name": "spender",
          "type": "address"
        },
        {
          "indexed": false,
          "internalType": "uint256",
          "name": "value",
          "type": "uint256"
        }
      ],
      "name": "Approval",
      "type": "event"
    },
    {
      "anonymous": false,
      "inputs": [],
      "name": "EIP712DomainChanged",
      "type": "event"
    },
    {
      "anonymous": false,
      "inputs": [
        {
          "indexed": true,
          "internalType": "address",
          "name": "previousOwner",
          "type": "address"
        },
        {
          "indexed": true,
          "internalType": "address",
          "name": "newOwner",
          "type": "address"
        }
      ],
      "name": "OwnershipTransferred",
      "type": "event"
    },
    {
      "anonymous": false,
      "inputs": [
        {
          "indexed": true,
          "internalType": "address",
          "name": "from",
          "type": "address"
        },
        {
          "indexed": true,
          "internalType": "address",
          "name": "to",
          "type": "address"
        },
        {
          "indexed": false,
          "internalType": "uint256",
          "name": "value",
          "type": "uint256"
        }
      ],
      "name": "Transfer",
      "type": "event"
    },
    {
      "anonymous": false,
      "inputs": [
        {
          "indexed": true,
          "internalType": "address",
          "name": "to",
          "type": "address"
        },
        {
          "indexed": false,
          "internalType": "uint256",
          "name": "weiAmount",
          "type": "uint256"
        }
      ],
      "name": "WeiRefunded",
      "type": "event"
    },
    {
      "anonymous": false,
      "inputs": [
        {
          "indexed": true,
          "internalType": "address",
          "name": "to",
          "type": "address"
        },
        {
          "indexed": false,
          "internalType": "uint256",
          "name": "weiAmount",
          "type": "uint256"
        }
      ],
      "name": "transferViaTokenSale",
      "type": "event"
    },
    {
      "anonymous": false,
      "inputs": [
        {
          "indexed": true,
          "internalType": "address",
          "name": "_address",
          "type": "address"
        },
        {
          "indexed": false,
          "internalType": "bool",
          "name": "valid",
          "type": "bool"
        }
      ],
      "name": "validatedMusicContract",
      "type": "event"
    },
    {
      "inputs": [],
      "name": "DOMAIN_SEPARATOR",
      "outputs": [
        {
          "internalType": "bytes32",
          "name": "",
          "type": "bytes32"
        }
      ],
      "stateMutability": "view",
      "type": "function"
    },
    {
      "inputs": [
        {
          "internalType": "address",
          "name": "owner",
          "type": "address"
        },
        {
          "internalType": "address",
          "name": "spender",
          "type": "address"
        }
      ],
      "name": "allowance",
      "outputs": [
        {
          "internalType": "uint256",
          "name": "",
          "type": "uint256"
        }
      ],
      "stateMutability": "view",
      "type": "function"
    },
    {
      "inputs": [
        {
          "internalType": "address",
          "name": "spender",
          "type": "address"
        },
        {
          "internalType": "uint256",
          "name": "value",
          "type": "uint256"
        }
      ],
      "name": "approve",
      "outputs": [
        {
          "internalType": "bool",
          "name": "",
          "type": "bool"
        }
      ],
      "stateMutability": "nonpayable",
      "type": "function"
    },
    {
      "inputs": [
        {
          "internalType": "address",
          "name": "account",
          "type": "address"
        }
      ],
      "name": "balanceOf",
      "outputs": [
        {
          "internalType": "uint256",
          "name": "",
          "type": "uint256"
        }
      ],
      "stateMutability": "view",
      "type": "function"
    },
    {
      "inputs": [],
      "name": "businessRateWei",
      "outputs": [
        {
          "internalType": "uint256",
          "name": "",
          "type": "uint256"
        }
      ],
      "stateMutability": "view",
      "type": "function"
    },
    {
      "inputs": [
        {
          "internalType": "address",
          "name": "_musicContractAddress",
          "type": "address"
        }
      ],
      "name": "buy100OSTToMusicContract",
      "outputs": [
        {
          "internalType": "bool",
          "name": "",
          "type": "bool"
        }
      ],
      "stateMutability": "payable",
      "type": "function"
    },
    {
      "inputs": [],
      "name": "decimals",
      "outputs": [
        {
          "internalType": "uint8",
          "name": "",
          "type": "uint8"
        }
      ],
      "stateMutability": "view",
      "type": "function"
    },
    {
      "inputs": [],
      "name": "eip712Domain",
      "outputs": [
        {
          "internalType": "bytes1",
          "name": "fields",
          "type": "bytes1"
        },
        {
          "internalType": "string",
          "name": "name",
          "type": "string"
        },
        {
          "internalType": "string",
          "name": "version",
          "type": "string"
        },
        {
          "internalType": "uint256",
          "name": "chainId",
          "type": "uint256"
        },
        {
          "internalType": "address",
          "name": "verifyingContract",
          "type": "address"
        },
        {
          "internalType": "bytes32",
          "name": "salt",
          "type": "bytes32"
        },
        {
          "internalType": "uint256[]",
          "name": "extensions",
          "type": "uint256[]"
        }
      ],
      "stateMutability": "view",
      "type": "function"
    },
    {
      "inputs": [],
      "name": "getBusinessRateWei",
      "outputs": [
        {
          "internalType": "uint256",
          "name": "",
          "type": "uint256"
        }
      ],
      "stateMutability": "view",
      "type": "function"
    },
    {
      "inputs": [],
      "name": "getGweiPerToken",
      "outputs": [
        {
          "internalType": "uint256",
          "name": "",
          "type": "uint256"
        }
      ],
      "stateMutability": "view",
      "type": "function"
    },
    {
      "inputs": [],
      "name": "gweiPerToken",
      "outputs": [
        {
          "internalType": "uint256",
          "name": "",
          "type": "uint256"
        }
      ],
      "stateMutability": "view",
      "type": "function"
    },
    {
      "inputs": [
        {
          "internalType": "uint256",
          "name": "amount",
          "type": "uint256"
        }
      ],
      "name": "mintToVault",
      "outputs": [],
      "stateMutability": "nonpayable",
      "type": "function"
    },
    {
      "inputs": [],
      "name": "name",
      "outputs": [
        {
          "internalType": "string",
          "name": "",
          "type": "string"
        }
      ],
      "stateMutability": "view",
      "type": "function"
    },
    {
      "inputs": [
        {
          "internalType": "address",
          "name": "owner",
          "type": "address"
        }
      ],
      "name": "nonces",
      "outputs": [
        {
          "internalType": "uint256",
          "name": "",
          "type": "uint256"
        }
      ],
      "stateMutability": "view",
      "type": "function"
    },
    {
      "inputs": [],
      "name": "owner",
      "outputs": [
        {
          "internalType": "address",
          "name": "",
          "type": "address"
        }
      ],
      "stateMutability": "view",
      "type": "function"
    },
    {
      "inputs": [
        {
          "internalType": "address",
          "name": "owner",
          "type": "address"
        },
        {
          "internalType": "address",
          "name": "spender",
          "type": "address"
        },
        {
          "internalType": "uint256",
          "name": "value",
          "type": "uint256"
        },
        {
          "internalType": "uint256",
          "name": "deadline",
          "type": "uint256"
        },
        {
          "internalType": "uint8",
          "name": "v",
          "type": "uint8"
        },
        {
          "internalType": "bytes32",
          "name": "r",
          "type": "bytes32"
        },
        {
          "internalType": "bytes32",
          "name": "s",
          "type": "bytes32"
        }
      ],
      "name": "permit",
      "outputs": [],
      "stateMutability": "nonpayable",
      "type": "function"
    },
    {
      "inputs": [],
      "name": "renounceOwnership",
      "outputs": [],
      "stateMutability": "nonpayable",
      "type": "function"
    },
    {
      "inputs": [
        {
          "internalType": "address",
          "name": "holder",
          "type": "address"
        },
        {
          "internalType": "uint256",
          "name": "amount",
          "type": "uint256"
        }
      ],
      "name": "sellOysterToken",
      "outputs": [
        {
          "internalType": "bool",
          "name": "",
          "type": "bool"
        }
      ],
      "stateMutability": "payable",
      "type": "function"
    },
    {
      "inputs": [
        {
          "internalType": "contract OysterVault",
          "name": "_vault",
          "type": "address"
        }
      ],
      "name": "setVault",
      "outputs": [],
      "stateMutability": "nonpayable",
      "type": "function"
    },
    {
      "inputs": [],
      "name": "symbol",
      "outputs": [
        {
          "internalType": "string",
          "name": "",
          "type": "string"
        }
      ],
      "stateMutability": "view",
      "type": "function"
    },
    {
      "inputs": [],
      "name": "totalSupply",
      "outputs": [
        {
          "internalType": "uint256",
          "name": "",
          "type": "uint256"
        }
      ],
      "stateMutability": "view",
      "type": "function"
    },
    {
      "inputs": [
        {
          "internalType": "address",
          "name": "to",
          "type": "address"
        },
        {
          "internalType": "uint256",
          "name": "value",
          "type": "uint256"
        }
      ],
      "name": "transfer",
      "outputs": [
        {
          "internalType": "bool",
          "name": "",
          "type": "bool"
        }
      ],
      "stateMutability": "nonpayable",
      "type": "function"
    },
    {
      "inputs": [
        {
          "internalType": "address",
          "name": "from",
          "type": "address"
        },
        {
          "internalType": "address",
          "name": "to",
          "type": "address"
        },
        {
          "internalType": "uint256",
          "name": "value",
          "type": "uint256"
        }
      ],
      "name": "transferFrom",
      "outputs": [
        {
          "internalType": "bool",
          "name": "",
          "type": "bool"
        }
      ],
      "stateMutability": "nonpayable",
      "type": "function"
    },
    {
      "inputs": [
        {
          "internalType": "address",
          "name": "newOwner",
          "type": "address"
        }
      ],
      "name": "transferOwnership",
      "outputs": [],
      "stateMutability": "nonpayable",
      "type": "function"
    },
    {
      "inputs": [
        {
          "internalType": "address",
          "name": "",
          "type": "address"
        }
      ],
      "name": "validMusicContracts",
      "outputs": [
        {
          "internalType": "bool",
          "name": "",
          "type": "bool"
        }
      ],
      "stateMutability": "view",
      "type": "function"
    },
    {
      "inputs": [
        {
          "internalType": "address",
          "name": "addressMusicContract",
          "type": "address"
        }
      ],
      "name": "validateMusicContracts",
      "outputs": [
        {
          "internalType": "bool",
          "name": "",
          "type": "bool"
        }
      ],
      "stateMutability": "nonpayable",
      "type": "function"
    },
    {
      "inputs": [],
      "name": "vault",
      "outputs": [
        {
          "internalType": "contract OysterVault",
          "name": "",
          "type": "address"
        }
      ],
      "stateMutability": "view",
      "type": "function"
    }
  ],
  "bytecode": "0x61016060405265b5e620f48000600b5561c350600c5534801561002157600080fd5b50604051613bdb380380613bdb833981810160405281019061004391906104b8565b6040518060400160405280600b81526020017f4f7973746572546f6b656e000000000000000000000000000000000000000000815250806040518060400160405280600181526020017f3100000000000000000000000000000000000000000000000000000000000000815250836040518060400160405280600b81526020017f4f7973746572546f6b656e0000000000000000000000000000000000000000008152506040518060400160405280600381526020017f4f53540000000000000000000000000000000000000000000000000000000000815250816003908161012c9190610735565b50806004908161013c9190610735565b505050600073ffffffffffffffffffffffffffffffffffffffff168173ffffffffffffffffffffffffffffffffffffffff16036101b15760006040517f1e4fbdf70000000000000000000000000000000000000000000000000000000081526004016101a89190610816565b60405180910390fd5b6101c08161027260201b60201c565b506101d560068361033860201b90919060201c565b61012081815250506101f160078261033860201b90919060201c565b6101408181525050818051906020012060e08181525050808051906020012061010081815250504660a0818152505061022e61038860201b60201c565b608081815250503073ffffffffffffffffffffffffffffffffffffffff1660c08173ffffffffffffffffffffffffffffffffffffffff1681525050505050506109ea565b6000600560009054906101000a900473ffffffffffffffffffffffffffffffffffffffff16905081600560006101000a81548173ffffffffffffffffffffffffffffffffffffffff021916908373ffffffffffffffffffffffffffffffffffffffff1602179055508173ffffffffffffffffffffffffffffffffffffffff168173ffffffffffffffffffffffffffffffffffffffff167f8be0079c531659141344cd1fd0a4f28419497f9722a3daafe3b4186f6b6457e060405160405180910390a35050565b600060208351101561035a57610353836103e360201b60201c565b9050610382565b8261036a8361044b60201b60201c565b60000190816103799190610735565b5060ff60001b90505b92915050565b60007f8b73c3c69bb8fe3d512ecc4cf759cc79239f7b179b0ffacaa9a75d522b39400f60e0516101005146306040516020016103c8959493929190610859565b60405160208183030381529060405280519060200120905090565b600080829050601f8151111561043057826040517f305a27a90000000000000000000000000000000000000000000000000000000081526004016104279190610931565b60405180910390fd5b80518161043c90610983565b60001c1760001b915050919050565b6000819050919050565b600080fd5b600073ffffffffffffffffffffffffffffffffffffffff82169050919050565b60006104858261045a565b9050919050565b6104958161047a565b81146104a057600080fd5b50565b6000815190506104b28161048c565b92915050565b6000602082840312156104ce576104cd610455565b5b60006104dc848285016104a3565b91505092915050565b600081519050919050565b7f4e487b7100000000000000000000000000000000000000000000000000000000600052604160045260246000fd5b7f4e487b7100000000000000000000000000000000000000000000000000000000600052602260045260246000fd5b6000600282049050600182168061056657607f821691505b6020821081036105795761057861051f565b5b50919050565b60008190508160005260206000209050919050565b60006020601f8301049050919050565b600082821b905092915050565b6000600883026105e17fffffffffffffffffffffffffffffffffffffffffffffffffffffffffffffffff826105a4565b6105eb86836105a4565b95508019841693508086168417925050509392505050565b6000819050919050565b6000819050919050565b600061063261062d61062884610603565b61060d565b610603565b9050919050565b6000819050919050565b61064c83610617565b61066061065882610639565b8484546105b1565b825550505050565b600090565b610675610668565b610680818484610643565b505050565b5b818110156106a45761069960008261066d565b600181019050610686565b5050565b601f8211156106e9576106ba8161057f565b6106c384610594565b810160208510156106d2578190505b6106e66106de85610594565b830182610685565b50505b505050565b600082821c905092915050565b600061070c600019846008026106ee565b1980831691505092915050565b600061072583836106fb565b9150826002028217905092915050565b61073e826104e5565b67ffffffffffffffff811115610757576107566104f0565b5b610761825461054e565b61076c8282856106a8565b600060209050601f83116001811461079f576000841561078d578287015190505b6107978582610719565b8655506107ff565b601f1984166107ad8661057f565b60005b828110156107d5578489015182556001820191506020850194506020810190506107b0565b868310156107f257848901516107ee601f8916826106fb565b8355505b6001600288020188555050505b505050505050565b6108108161047a565b82525050565b600060208201905061082b6000830184610807565b92915050565b6000819050919050565b61084481610831565b82525050565b61085381610603565b82525050565b600060a08201905061086e600083018861083b565b61087b602083018761083b565b610888604083018661083b565b610895606083018561084a565b6108a26080830184610807565b9695505050505050565b600082825260208201905092915050565b60005b838110156108db5780820151818401526020810190506108c0565b60008484015250505050565b6000601f19601f8301169050919050565b6000610903826104e5565b61090d81856108ac565b935061091d8185602086016108bd565b610926816108e7565b840191505092915050565b6000602082019050818103600083015261094b81846108f8565b905092915050565b600081519050919050565b6000819050602082019050919050565b600061097a8251610831565b80915050919050565b600061098e82610953565b826109988461095e565b90506109a38161096e565b925060208210156109e3576109de7fffffffffffffffffffffffffffffffffffffffffffffffffffffffffffffffff836020036008026105a4565b831692505b5050919050565b60805160a05160c05160e051610100516101205161014051613197610a44600039600061191c015260006118e101526000611e3101526000611e10015260006117160152600061176c0152600061179501526131976000f3fe60806040526004361061019c5760003560e01c80637eb4cde7116100ec578063a9059cbb1161008a578063dd62ed3e11610064578063dd62ed3e146105e0578063f2fde38b1461061d578063f89fbe6a14610646578063fbfa77cf146106835761019c565b8063a9059cbb1461054a578063b9ed3e7d14610587578063d505accf146105b75761019c565b806384b0196e116100c657806384b0196e146104985780638da5cb5b146104c957806395d89b41146104f4578063a11d08c71461051f5761019c565b80637eb4cde7146103f35780637ecebe00146104305780638474fe4a1461046d5761019c565b8063313ce567116101595780636817031b116101335780636817031b1461034b5780636ae465471461037457806370a082311461039f578063715018a6146103dc5761019c565b8063313ce567146102ca5780633644e515146102f557806351a6c00d146103205761019c565b806306fdde03146101a1578063095ea7b3146101cc5780630a3871eb1461020957806318160ddd1461023957806323b872dd1461026457806324c93837146102a1575b600080fd5b3480156101ad57600080fd5b506101b66106ae565b6040516101c3919061231e565b60405180910390f35b3480156101d857600080fd5b506101f360048036038101906101ee91906123d9565b610740565b6040516102009190612434565b60405180910390f35b610223600480360381019061021e91906123d9565b610763565b6040516102309190612434565b60405180910390f35b34801561024557600080fd5b5061024e610900565b60405161025b919061245e565b60405180910390f35b34801561027057600080fd5b5061028b60048036038101906102869190612479565b61090a565b6040516102989190612434565b60405180910390f35b3480156102ad57600080fd5b506102c860048036038101906102c391906124cc565b610939565b005b3480156102d657600080fd5b506102df610a01565b6040516102ec9190612515565b60405180910390f35b34801561030157600080fd5b5061030a610a0a565b6040516103179190612549565b60405180910390f35b34801561032c57600080fd5b50610335610a19565b604051610342919061245e565b60405180910390f35b34801561035757600080fd5b50610372600480360381019061036d91906125a2565b610a23565b005b34801561038057600080fd5b50610389610b6f565b604051610396919061245e565b60405180910390f35b3480156103ab57600080fd5b506103c660048036038101906103c191906125cf565b610b79565b6040516103d3919061245e565b60405180910390f35b3480156103e857600080fd5b506103f1610bc1565b005b3480156103ff57600080fd5b5061041a600480360381019061041591906125cf565b610bd5565b6040516104279190612434565b60405180910390f35b34801561043c57600080fd5b50610457600480360381019061045291906125cf565b610c8f565b604051610464919061245e565b60405180910390f35b34801561047957600080fd5b50610482610ca1565b60405161048f919061245e565b60405180910390f35b3480156104a457600080fd5b506104ad610ca7565b6040516104c09796959493929190612704565b60405180910390f35b3480156104d557600080fd5b506104de610d51565b6040516104eb9190612788565b60405180910390f35b34801561050057600080fd5b50610509610d7b565b604051610516919061231e565b60405180910390f35b34801561052b57600080fd5b50610534610e0d565b604051610541919061245e565b60405180910390f35b34801561055657600080fd5b50610571600480360381019061056c91906123d9565b610e13565b60405161057e9190612434565b60405180910390f35b6105a1600480360381019061059c91906125cf565b610e36565b6040516105ae9190612434565b60405180910390f35b3480156105c357600080fd5b506105de60048036038101906105d991906127fb565b6111cc565b005b3480156105ec57600080fd5b506106076004803603810190610602919061289d565b611314565b604051610614919061245e565b60405180910390f35b34801561062957600080fd5b50610644600480360381019061063f91906125cf565b61139b565b005b34801561065257600080fd5b5061066d600480360381019061066891906125cf565b611421565b60405161067a9190612434565b60405180910390f35b34801561068f57600080fd5b50610698611441565b6040516106a5919061293c565b60405180910390f35b6060600380546106bd90612986565b80601f01602080910402602001604051908101604052809291908181526020018280546106e990612986565b80156107365780601f1061070b57610100808354040283529160200191610736565b820191906000526020600020905b81548152906001019060200180831161071957829003601f168201915b5050505050905090565b60008061074b611467565b905061075881858561146f565b600191505092915050565b60008082116107a7576040517f08c379a000000000000000000000000000000000000000000000000000000000815260040161079e90612a03565b60405180910390fd5b600960009054906101000a900473ffffffffffffffffffffffffffffffffffffffff1673ffffffffffffffffffffffffffffffffffffffff16633572913033846040518363ffffffff1660e01b8152600401610804929190612a23565b6020604051808303816000875af1158015610823573d6000803e3d6000fd5b505050506040513d601f19601f820116820180604052508101906108479190612a78565b506000652d79883d20009050600083826108619190612ad4565b90508473ffffffffffffffffffffffffffffffffffffffff166108fc829081150290604051600060405180830381858888f193505050501580156108a9573d6000803e3d6000fd5b508473ffffffffffffffffffffffffffffffffffffffff167f66002148a13b0a635b2dd6a9f2f5f8dd5a438fc69cb89f096b1cb6facf14b2ea826040516108f0919061245e565b60405180910390a2505092915050565b6000600254905090565b600080610915611467565b9050610922858285611481565b61092d858585611515565b60019150509392505050565b610941611609565b600073ffffffffffffffffffffffffffffffffffffffff16600960009054906101000a900473ffffffffffffffffffffffffffffffffffffffff1673ffffffffffffffffffffffffffffffffffffffff16036109d2576040517f08c379a00000000000000000000000000000000000000000000000000000000081526004016109c990612b62565b60405180910390fd5b6109fe600960009054906101000a900473ffffffffffffffffffffffffffffffffffffffff1682611690565b50565b60006012905090565b6000610a14611712565b905090565b6000600b54905090565b610a2b611609565b600073ffffffffffffffffffffffffffffffffffffffff168173ffffffffffffffffffffffffffffffffffffffff1603610a9a576040517f08c379a0000000000000000000000000000000000000000000000000000000008152600401610a9190612bce565b60405180910390fd5b600073ffffffffffffffffffffffffffffffffffffffff16600960009054906101000a900473ffffffffffffffffffffffffffffffffffffffff1673ffffffffffffffffffffffffffffffffffffffff1614610b2b576040517f08c379a0000000000000000000000000000000000000000000000000000000008152600401610b2290612c3a565b60405180910390fd5b80600960006101000a81548173ffffffffffffffffffffffffffffffffffffffff021916908373ffffffffffffffffffffffffffffffffffffffff16021790555050565b6000600c54905090565b60008060008373ffffffffffffffffffffffffffffffffffffffff1673ffffffffffffffffffffffffffffffffffffffff168152602001908152602001600020549050919050565b610bc9611609565b610bd360006117c9565b565b6000610bdf611609565b6001600a60008473ffffffffffffffffffffffffffffffffffffffff1673ffffffffffffffffffffffffffffffffffffffff16815260200190815260200160002060006101000a81548160ff0219169083151502179055508173ffffffffffffffffffffffffffffffffffffffff167f8828c88ef46029fc10c19655c4c67e16d76903c9fbd9170b8298d51194ed75086001604051610c7e9190612434565b60405180910390a260019050919050565b6000610c9a8261188f565b9050919050565b600b5481565b600060608060008060006060610cbb6118d8565b610cc3611913565b46306000801b600067ffffffffffffffff811115610ce457610ce3612c5a565b5b604051908082528060200260200182016040528015610d125781602001602082028036833780820191505090505b507f0f00000000000000000000000000000000000000000000000000000000000000959493929190965096509650965096509650965090919293949596565b6000600560009054906101000a900473ffffffffffffffffffffffffffffffffffffffff16905090565b606060048054610d8a90612986565b80601f0160208091040260200160405190810160405280929190818152602001828054610db690612986565b8015610e035780601f10610dd857610100808354040283529160200191610e03565b820191906000526020600020905b815481529060010190602001808311610de657829003601f168201915b5050505050905090565b600c5481565b600080610e1e611467565b9050610e2b818585611515565b600191505092915050565b6000600a60008373ffffffffffffffffffffffffffffffffffffffff1673ffffffffffffffffffffffffffffffffffffffff16815260200190815260200160002060009054906101000a900460ff16610ec4576040517f08c379a0000000000000000000000000000000000000000000000000000000008152600401610ebb90612cd5565b60405180910390fd5b6000600b54633b9aca00600c546064610edd9190612ad4565b610ee79190612ad4565b610ef19190612cf5565b905080341015610f36576040517f08c379a0000000000000000000000000000000000000000000000000000000008152600401610f2d90612d9b565b60405180910390fd5b60008134610f449190612dbb565b90506064600960009054906101000a900473ffffffffffffffffffffffffffffffffffffffff1673ffffffffffffffffffffffffffffffffffffffff16631f4aad2a6040518163ffffffff1660e01b8152600401602060405180830381865afa158015610fb5573d6000803e3d6000fd5b505050506040513d601f19601f82011682018060405250810190610fd99190612e04565b101561101a576040517f08c379a000000000000000000000000000000000000000000000000000000000815260040161101190612ea3565b60405180910390fd5b60008111156110d15760003373ffffffffffffffffffffffffffffffffffffffff168260405161104990612ef4565b60006040518083038185875af1925050503d8060008114611086576040519150601f19603f3d011682016040523d82523d6000602084013e61108b565b606091505b50509050806110cf576040517f08c379a00000000000000000000000000000000000000000000000000000000081526004016110c690612f55565b60405180910390fd5b505b600960009054906101000a900473ffffffffffffffffffffffffffffffffffffffff1673ffffffffffffffffffffffffffffffffffffffff1663412664ae3360646040518363ffffffff1660e01b815260040161112f929190612fb0565b6020604051808303816000875af115801561114e573d6000803e3d6000fd5b505050506040513d601f19601f820116820180604052508101906111729190612a78565b503373ffffffffffffffffffffffffffffffffffffffff167ffec51bd7a12167abbae91302df382bf09c27aab7a4fddd88f056c6ab1c9b8e20826040516111b9919061245e565b60405180910390a2600192505050919050565b8342111561121157836040517f62791302000000000000000000000000000000000000000000000000000000008152600401611208919061245e565b60405180910390fd5b60007f6e71edae12b1b97f4d1f60370fef10105fa2faae0126114a169c64845d6126c98888886112408c61194e565b8960405160200161125696959493929190612fd9565b6040516020818303038152906040528051906020012090506000611279826119a5565b90506000611289828787876119bf565b90508973ffffffffffffffffffffffffffffffffffffffff168173ffffffffffffffffffffffffffffffffffffffff16146112fd57808a6040517f4b800e460000000000000000000000000000000000000000000000000000000081526004016112f492919061303a565b60405180910390fd5b6113088a8a8a61146f565b50505050505050505050565b6000600160008473ffffffffffffffffffffffffffffffffffffffff1673ffffffffffffffffffffffffffffffffffffffff16815260200190815260200160002060008373ffffffffffffffffffffffffffffffffffffffff1673ffffffffffffffffffffffffffffffffffffffff16815260200190815260200160002054905092915050565b6113a3611609565b600073ffffffffffffffffffffffffffffffffffffffff168173ffffffffffffffffffffffffffffffffffffffff16036114155760006040517f1e4fbdf700000000000000000000000000000000000000000000000000000000815260040161140c9190612788565b60405180910390fd5b61141e816117c9565b50565b600a6020528060005260406000206000915054906101000a900460ff1681565b600960009054906101000a900473ffffffffffffffffffffffffffffffffffffffff1681565b600033905090565b61147c83838360016119ef565b505050565b600061148d8484611314565b90507fffffffffffffffffffffffffffffffffffffffffffffffffffffffffffffffff811461150f57818110156114ff578281836040517ffb8f41b20000000000000000000000000000000000000000000000000000000081526004016114f693929190613063565b60405180910390fd5b61150e848484840360006119ef565b5b50505050565b600073ffffffffffffffffffffffffffffffffffffffff168373ffffffffffffffffffffffffffffffffffffffff16036115875760006040517f96c6fd1e00000000000000000000000000000000000000000000000000000000815260040161157e9190612788565b60405180910390fd5b600073ffffffffffffffffffffffffffffffffffffffff168273ffffffffffffffffffffffffffffffffffffffff16036115f95760006040517fec442f050000000000000000000000000000000000000000000000000000000081526004016115f09190612788565b60405180910390fd5b611604838383611bc6565b505050565b611611611467565b73ffffffffffffffffffffffffffffffffffffffff1661162f610d51565b73ffffffffffffffffffffffffffffffffffffffff161461168e57611652611467565b6040517f118cdaa70000000000000000000000000000000000000000000000000000000081526004016116859190612788565b60405180910390fd5b565b600073ffffffffffffffffffffffffffffffffffffffff168273ffffffffffffffffffffffffffffffffffffffff16036117025760006040517fec442f050000000000000000000000000000000000000000000000000000000081526004016116f99190612788565b60405180910390fd5b61170e60008383611bc6565b5050565b60007f000000000000000000000000000000000000000000000000000000000000000073ffffffffffffffffffffffffffffffffffffffff163073ffffffffffffffffffffffffffffffffffffffff1614801561178e57507f000000000000000000000000000000000000000000000000000000000000000046145b156117bb577f000000000000000000000000000000000000000000000000000000000000000090506117c6565b6117c3611deb565b90505b90565b6000600560009054906101000a900473ffffffffffffffffffffffffffffffffffffffff16905081600560006101000a81548173ffffffffffffffffffffffffffffffffffffffff021916908373ffffffffffffffffffffffffffffffffffffffff1602179055508173ffffffffffffffffffffffffffffffffffffffff168173ffffffffffffffffffffffffffffffffffffffff167f8be0079c531659141344cd1fd0a4f28419497f9722a3daafe3b4186f6b6457e060405160405180910390a35050565b6000600860008373ffffffffffffffffffffffffffffffffffffffff1673ffffffffffffffffffffffffffffffffffffffff168152602001908152602001600020549050919050565b606061190e60067f0000000000000000000000000000000000000000000000000000000000000000611e8190919063ffffffff16565b905090565b606061194960077f0000000000000000000000000000000000000000000000000000000000000000611e8190919063ffffffff16565b905090565b6000600860008373ffffffffffffffffffffffffffffffffffffffff1673ffffffffffffffffffffffffffffffffffffffff1681526020019081526020016000206000815480929190600101919050559050919050565b60006119b86119b2611712565b83611f31565b9050919050565b6000806000806119d188888888611f72565b9250925092506119e18282612066565b829350505050949350505050565b600073ffffffffffffffffffffffffffffffffffffffff168473ffffffffffffffffffffffffffffffffffffffff1603611a615760006040517fe602df05000000000000000000000000000000000000000000000000000000008152600401611a589190612788565b60405180910390fd5b600073ffffffffffffffffffffffffffffffffffffffff168373ffffffffffffffffffffffffffffffffffffffff1603611ad35760006040517f94280d62000000000000000000000000000000000000000000000000000000008152600401611aca9190612788565b60405180910390fd5b81600160008673ffffffffffffffffffffffffffffffffffffffff1673ffffffffffffffffffffffffffffffffffffffff16815260200190815260200160002060008573ffffffffffffffffffffffffffffffffffffffff1673ffffffffffffffffffffffffffffffffffffffff168152602001908152602001600020819055508015611bc0578273ffffffffffffffffffffffffffffffffffffffff168473ffffffffffffffffffffffffffffffffffffffff167f8c5be1e5ebec7d5bd14f71427d1e84f3dd0314c0f7b2291e5b200ac8c7c3b92584604051611bb7919061245e565b60405180910390a35b50505050565b600073ffffffffffffffffffffffffffffffffffffffff168373ffffffffffffffffffffffffffffffffffffffff1603611c18578060026000828254611c0c9190612cf5565b92505081905550611ceb565b60008060008573ffffffffffffffffffffffffffffffffffffffff1673ffffffffffffffffffffffffffffffffffffffff16815260200190815260200160002054905081811015611ca4578381836040517fe450d38c000000000000000000000000000000000000000000000000000000008152600401611c9b93929190613063565b60405180910390fd5b8181036000808673ffffffffffffffffffffffffffffffffffffffff1673ffffffffffffffffffffffffffffffffffffffff16815260200190815260200160002081905550505b600073ffffffffffffffffffffffffffffffffffffffff168273ffffffffffffffffffffffffffffffffffffffff1603611d345780600260008282540392505081905550611d81565b806000808473ffffffffffffffffffffffffffffffffffffffff1673ffffffffffffffffffffffffffffffffffffffff168152602001908152602001600020600082825401925050819055505b8173ffffffffffffffffffffffffffffffffffffffff168373ffffffffffffffffffffffffffffffffffffffff167fddf252ad1be2c89b69c2b068fc378daa952ba7f163c4a11628f55a4df523b3ef83604051611dde919061245e565b60405180910390a3505050565b60007f8b73c3c69bb8fe3d512ecc4cf759cc79239f7b179b0ffacaa9a75d522b39400f7f00000000000000000000000000000000000000000000000000000000000000007f00000000000000000000000000000000000000000000000000000000000000004630604051602001611e6695949392919061309a565b60405160208183030381529060405280519060200120905090565b606060ff60001b8314611e9e57611e97836121ca565b9050611f2b565b818054611eaa90612986565b80601f0160208091040260200160405190810160405280929190818152602001828054611ed690612986565b8015611f235780601f10611ef857610100808354040283529160200191611f23565b820191906000526020600020905b815481529060010190602001808311611f0657829003601f168201915b505050505090505b92915050565b60006040517f190100000000000000000000000000000000000000000000000000000000000081528360028201528260228201526042812091505092915050565b60008060007f7fffffffffffffffffffffffffffffff5d576e7357a4501ddfe92f46681b20a08460001c1115611fb257600060038592509250925061205c565b600060018888888860405160008152602001604052604051611fd794939291906130ed565b6020604051602081039080840390855afa158015611ff9573d6000803e3d6000fd5b505050602060405103519050600073ffffffffffffffffffffffffffffffffffffffff168173ffffffffffffffffffffffffffffffffffffffff160361204d57600060016000801b9350935093505061205c565b8060008060001b935093509350505b9450945094915050565b6000600381111561207a57612079613132565b5b82600381111561208d5761208c613132565b5b03156121c657600160038111156120a7576120a6613132565b5b8260038111156120ba576120b9613132565b5b036120f1576040517ff645eedf00000000000000000000000000000000000000000000000000000000815260040160405180910390fd5b6002600381111561210557612104613132565b5b82600381111561211857612117613132565b5b0361215d578060001c6040517ffce698f7000000000000000000000000000000000000000000000000000000008152600401612154919061245e565b60405180910390fd5b6003808111156121705761216f613132565b5b82600381111561218357612182613132565b5b036121c557806040517fd78bce0c0000000000000000000000000000000000000000000000000000000081526004016121bc9190612549565b60405180910390fd5b5b5050565b606060006121d78361223e565b90506000602067ffffffffffffffff8111156121f6576121f5612c5a565b5b6040519080825280601f01601f1916602001820160405280156122285781602001600182028036833780820191505090505b5090508181528360208201528092505050919050565b60008060ff8360001c169050601f811115612285576040517fb3512b0c00000000000000000000000000000000000000000000000000000000815260040160405180910390fd5b80915050919050565b600081519050919050565b600082825260208201905092915050565b60005b838110156122c85780820151818401526020810190506122ad565b60008484015250505050565b6000601f19601f8301169050919050565b60006122f08261228e565b6122fa8185612299565b935061230a8185602086016122aa565b612313816122d4565b840191505092915050565b6000602082019050818103600083015261233881846122e5565b905092915050565b600080fd5b600073ffffffffffffffffffffffffffffffffffffffff82169050919050565b600061237082612345565b9050919050565b61238081612365565b811461238b57600080fd5b50565b60008135905061239d81612377565b92915050565b6000819050919050565b6123b6816123a3565b81146123c157600080fd5b50565b6000813590506123d3816123ad565b92915050565b600080604083850312156123f0576123ef612340565b5b60006123fe8582860161238e565b925050602061240f858286016123c4565b9150509250929050565b60008115159050919050565b61242e81612419565b82525050565b60006020820190506124496000830184612425565b92915050565b612458816123a3565b82525050565b6000602082019050612473600083018461244f565b92915050565b60008060006060848603121561249257612491612340565b5b60006124a08682870161238e565b93505060206124b18682870161238e565b92505060406124c2868287016123c4565b9150509250925092565b6000602082840312156124e2576124e1612340565b5b60006124f0848285016123c4565b91505092915050565b600060ff82169050919050565b61250f816124f9565b82525050565b600060208201905061252a6000830184612506565b92915050565b6000819050919050565b61254381612530565b82525050565b600060208201905061255e600083018461253a565b92915050565b600061256f82612365565b9050919050565b61257f81612564565b811461258a57600080fd5b50565b60008135905061259c81612576565b92915050565b6000602082840312156125b8576125b7612340565b5b60006125c68482850161258d565b91505092915050565b6000602082840312156125e5576125e4612340565b5b60006125f38482850161238e565b91505092915050565b60007fff0000000000000000000000000000000000000000000000000000000000000082169050919050565b612631816125fc565b82525050565b61264081612365565b82525050565b600081519050919050565b600082825260208201905092915050565b6000819050602082019050919050565b61267b816123a3565b82525050565b600061268d8383612672565b60208301905092915050565b6000602082019050919050565b60006126b182612646565b6126bb8185612651565b93506126c683612662565b8060005b838110156126f75781516126de8882612681565b97506126e983612699565b9250506001810190506126ca565b5085935050505092915050565b600060e082019050612719600083018a612628565b818103602083015261272b81896122e5565b9050818103604083015261273f81886122e5565b905061274e606083018761244f565b61275b6080830186612637565b61276860a083018561253a565b81810360c083015261277a81846126a6565b905098975050505050505050565b600060208201905061279d6000830184612637565b92915050565b6127ac816124f9565b81146127b757600080fd5b50565b6000813590506127c9816127a3565b92915050565b6127d881612530565b81146127e357600080fd5b50565b6000813590506127f5816127cf565b92915050565b600080600080600080600060e0888a03121561281a57612819612340565b5b60006128288a828b0161238e565b97505060206128398a828b0161238e565b965050604061284a8a828b016123c4565b955050606061285b8a828b016123c4565b945050608061286c8a828b016127ba565b93505060a061287d8a828b016127e6565b92505060c061288e8a828b016127e6565b91505092959891949750929550565b600080604083850312156128b4576128b3612340565b5b60006128c28582860161238e565b92505060206128d38582860161238e565b9150509250929050565b6000819050919050565b60006129026128fd6128f884612345565b6128dd565b612345565b9050919050565b6000612914826128e7565b9050919050565b600061292682612909565b9050919050565b6129368161291b565b82525050565b6000602082019050612951600083018461292d565b92915050565b7f4e487b7100000000000000000000000000000000000000000000000000000000600052602260045260246000fd5b6000600282049050600182168061299e57607f821691505b6020821081036129b1576129b0612957565b5b50919050565b7f416d6f756e74206d7573742062652067726561746572207468616e207a65726f600082015250565b60006129ed602083612299565b91506129f8826129b7565b602082019050919050565b60006020820190508181036000830152612a1c816129e0565b9050919050565b6000604082019050612a386000830185612637565b612a45602083018461244f565b9392505050565b612a5581612419565b8114612a6057600080fd5b50565b600081519050612a7281612a4c565b92915050565b600060208284031215612a8e57612a8d612340565b5b6000612a9c84828501612a63565b91505092915050565b7f4e487b7100000000000000000000000000000000000000000000000000000000600052601160045260246000fd5b6000612adf826123a3565b9150612aea836123a3565b9250828202612af8816123a3565b91508282048414831517612b0f57612b0e612aa5565b5b5092915050565b7f5661756c742061646472657373206e6f74207365740000000000000000000000600082015250565b6000612b4c601583612299565b9150612b5782612b16565b602082019050919050565b60006020820190508181036000830152612b7b81612b3f565b9050919050565b7f496e76616c6964207661756c7420616464726573730000000000000000000000600082015250565b6000612bb8601583612299565b9150612bc382612b82565b602082019050919050565b60006020820190508181036000830152612be781612bab565b9050919050565b7f5661756c7420616c726561647920736574000000000000000000000000000000600082015250565b6000612c24601183612299565b9150612c2f82612bee565b602082019050919050565b60006020820190508181036000830152612c5381612c17565b9050919050565b7f4e487b7100000000000000000000000000000000000000000000000000000000600052604160045260246000fd5b7f496e76616c6964204d75736963436f6e74726163742061646472657373000000600082015250565b6000612cbf601d83612299565b9150612cca82612c89565b602082019050919050565b60006020820190508181036000830152612cee81612cb2565b9050919050565b6000612d00826123a3565b9150612d0b836123a3565b9250828201905080821115612d2357612d22612aa5565b5b92915050565b7f496e73756666696369656e74205765692073656e7420746f2062757920746f6b60008201527f656e730000000000000000000000000000000000000000000000000000000000602082015250565b6000612d85602383612299565b9150612d9082612d29565b604082019050919050565b60006020820190508181036000830152612db481612d78565b9050919050565b6000612dc6826123a3565b9150612dd1836123a3565b9250828203905081811115612de957612de8612aa5565b5b92915050565b600081519050612dfe816123ad565b92915050565b600060208284031215612e1a57612e19612340565b5b6000612e2884828501612def565b91505092915050565b7f4e6f7420656e6f75676820746f6b656e7320696e204f7973746572546f6b656e60008201527f20636f6e74726163740000000000000000000000000000000000000000000000602082015250565b6000612e8d602983612299565b9150612e9882612e31565b604082019050919050565b60006020820190508181036000830152612ebc81612e80565b9050919050565b600081905092915050565b50565b6000612ede600083612ec3565b9150612ee982612ece565b600082019050919050565b6000612eff82612ed1565b9150819050919050565b7f4661696c656420746f2073656e642072656d61696e696e672045746865720000600082015250565b6000612f3f601e83612299565b9150612f4a82612f09565b602082019050919050565b60006020820190508181036000830152612f6e81612f32565b9050919050565b6000819050919050565b6000612f9a612f95612f9084612f75565b6128dd565b6123a3565b9050919050565b612faa81612f7f565b82525050565b6000604082019050612fc56000830185612637565b612fd26020830184612fa1565b9392505050565b600060c082019050612fee600083018961253a565b612ffb6020830188612637565b6130086040830187612637565b613015606083018661244f565b613022608083018561244f565b61302f60a083018461244f565b979650505050505050565b600060408201905061304f6000830185612637565b61305c6020830184612637565b9392505050565b60006060820190506130786000830186612637565b613085602083018561244f565b613092604083018461244f565b949350505050565b600060a0820190506130af600083018861253a565b6130bc602083018761253a565b6130c9604083018661253a565b6130d6606083018561244f565b6130e36080830184612637565b9695505050505050565b6000608082019050613102600083018761253a565b61310f6020830186612506565b61311c604083018561253a565b613129606083018461253a565b95945050505050565b7f4e487b7100000000000000000000000000000000000000000000000000000000600052602160045260246000fdfea2646970667358221220e65bfa8c6b4530ee89bb94b526be7bcf23c530259f5f7562caf3195225378d6a64736f6c634300081c0033",
  "linkReferences": {},
  "deployedLinkReferences": {}
}