{
  "_format": "hh-sol-artifact-1",
  "contractName": "OysterToken",
  "sourceName": "contracts/OysterToken.sol",
  "abi": [
    {
      "inputs": [
        {
          "internalType": "address",
          "name": "initialOwner",
          "type": "address"
        }
      ],
      "stateMutability": "nonpayable",
      "type": "constructor"
    },
    {
      "inputs": [
        {
          "internalType": "address",
          "name": "spender",
          "type": "address"
        },
        {
          "internalType": "uint256",
          "name": "allowance",
          "type": "uint256"
        },
        {
          "internalType": "uint256",
          "name": "needed",
          "type": "uint256"
        }
      ],
      "name": "ERC20InsufficientAllowance",
      "type": "error"
    },
    {
      "inputs": [
        {
          "internalType": "address",
          "name": "sender",
          "type": "address"
        },
        {
          "internalType": "uint256",
          "name": "balance",
          "type": "uint256"
        },
        {
          "internalType": "uint256",
          "name": "needed",
          "type": "uint256"
        }
      ],
      "name": "ERC20InsufficientBalance",
      "type": "error"
    },
    {
      "inputs": [
        {
          "internalType": "address",
          "name": "approver",
          "type": "address"
        }
      ],
      "name": "ERC20InvalidApprover",
      "type": "error"
    },
    {
      "inputs": [
        {
          "internalType": "address",
          "name": "receiver",
          "type": "address"
        }
      ],
      "name": "ERC20InvalidReceiver",
      "type": "error"
    },
    {
      "inputs": [
        {
          "internalType": "address",
          "name": "sender",
          "type": "address"
        }
      ],
      "name": "ERC20InvalidSender",
      "type": "error"
    },
    {
      "inputs": [
        {
          "internalType": "address",
          "name": "spender",
          "type": "address"
        }
      ],
      "name": "ERC20InvalidSpender",
      "type": "error"
    },
    {
      "inputs": [
        {
          "internalType": "address",
          "name": "owner",
          "type": "address"
        }
      ],
      "name": "OwnableInvalidOwner",
      "type": "error"
    },
    {
      "inputs": [
        {
          "internalType": "address",
          "name": "account",
          "type": "address"
        }
      ],
      "name": "OwnableUnauthorizedAccount",
      "type": "error"
    },
    {
      "anonymous": false,
      "inputs": [
        {
          "indexed": true,
          "internalType": "address",
          "name": "owner",
          "type": "address"
        },
        {
          "indexed": true,
          "internalType": "address",
          "name": "spender",
          "type": "address"
        },
        {
          "indexed": false,
          "internalType": "uint256",
          "name": "value",
          "type": "uint256"
        }
      ],
      "name": "Approval",
      "type": "event"
    },
    {
      "anonymous": false,
      "inputs": [
        {
          "indexed": true,
          "internalType": "address",
          "name": "buyer",
          "type": "address"
        },
        {
          "indexed": true,
          "internalType": "address",
          "name": "musicContract",
          "type": "address"
        },
        {
          "indexed": false,
          "internalType": "uint256",
          "name": "amount",
          "type": "uint256"
        }
      ],
      "name": "BuyTokens",
      "type": "event"
    },
    {
      "anonymous": false,
      "inputs": [
        {
          "indexed": false,
          "internalType": "string",
          "name": "message",
          "type": "string"
        }
      ],
      "name": "Log",
      "type": "event"
    },
    {
      "anonymous": false,
      "inputs": [
        {
          "indexed": false,
          "internalType": "string",
          "name": "message",
          "type": "string"
        },
        {
          "indexed": false,
          "internalType": "address",
          "name": "addr",
          "type": "address"
        }
      ],
      "name": "LogAddress",
      "type": "event"
    },
    {
      "anonymous": false,
      "inputs": [
        {
          "indexed": false,
          "internalType": "string",
          "name": "message",
          "type": "string"
        },
        {
          "indexed": false,
          "internalType": "uint256",
          "name": "value",
          "type": "uint256"
        }
      ],
      "name": "LogUint",
      "type": "event"
    },
    {
      "anonymous": false,
      "inputs": [
        {
          "indexed": true,
          "internalType": "address",
          "name": "musicContract",
          "type": "address"
        },
        {
          "indexed": false,
          "internalType": "bool",
          "name": "valid",
          "type": "bool"
        }
      ],
      "name": "MusicContractValidated",
      "type": "event"
    },
    {
      "anonymous": false,
      "inputs": [
        {
          "indexed": true,
          "internalType": "address",
          "name": "previousOwner",
          "type": "address"
        },
        {
          "indexed": true,
          "internalType": "address",
          "name": "newOwner",
          "type": "address"
        }
      ],
      "name": "OwnershipTransferred",
      "type": "event"
    },
    {
      "anonymous": false,
      "inputs": [
        {
          "indexed": false,
          "internalType": "address",
          "name": "initialOwner",
          "type": "address"
        },
        {
          "indexed": false,
          "internalType": "uint256",
          "name": "gweiPerToken",
          "type": "uint256"
        }
      ],
      "name": "OysterTokenDeployed",
      "type": "event"
    },
    {
      "anonymous": false,
      "inputs": [
        {
          "indexed": true,
          "internalType": "address",
          "name": "from",
          "type": "address"
        },
        {
          "indexed": true,
          "internalType": "address",
          "name": "to",
          "type": "address"
        },
        {
          "indexed": false,
          "internalType": "uint256",
          "name": "value",
          "type": "uint256"
        }
      ],
      "name": "Transfer",
      "type": "event"
    },
    {
      "anonymous": false,
      "inputs": [
        {
          "indexed": true,
          "internalType": "address",
          "name": "vault",
          "type": "address"
        }
      ],
      "name": "VaultSet",
      "type": "event"
    },
    {
      "inputs": [],
      "name": "GWEI_PER_TOKEN",
      "outputs": [
        {
          "internalType": "uint256",
          "name": "",
          "type": "uint256"
        }
      ],
      "stateMutability": "view",
      "type": "function"
    },
    {
      "inputs": [
        {
          "internalType": "address",
          "name": "owner",
          "type": "address"
        },
        {
          "internalType": "address",
          "name": "spender",
          "type": "address"
        }
      ],
      "name": "allowance",
      "outputs": [
        {
          "internalType": "uint256",
          "name": "",
          "type": "uint256"
        }
      ],
      "stateMutability": "view",
      "type": "function"
    },
    {
      "inputs": [
        {
          "internalType": "address",
          "name": "spender",
          "type": "address"
        },
        {
          "internalType": "uint256",
          "name": "amount",
          "type": "uint256"
        }
      ],
      "name": "approve",
      "outputs": [
        {
          "internalType": "bool",
          "name": "",
          "type": "bool"
        }
      ],
      "stateMutability": "nonpayable",
      "type": "function"
    },
    {
      "inputs": [
        {
          "internalType": "address",
          "name": "account",
          "type": "address"
        }
      ],
      "name": "balanceOf",
      "outputs": [
        {
          "internalType": "uint256",
          "name": "",
          "type": "uint256"
        }
      ],
      "stateMutability": "view",
      "type": "function"
    },
    {
      "inputs": [
        {
          "internalType": "address",
          "name": "_musicContract",
          "type": "address"
        },
        {
          "internalType": "uint256",
          "name": "_amount",
          "type": "uint256"
        }
      ],
      "name": "buyTokens",
      "outputs": [],
      "stateMutability": "nonpayable",
      "type": "function"
    },
    {
      "inputs": [],
      "name": "decimals",
      "outputs": [
        {
          "internalType": "uint8",
          "name": "",
          "type": "uint8"
        }
      ],
      "stateMutability": "view",
      "type": "function"
    },
    {
      "inputs": [
        {
          "internalType": "address",
          "name": "to",
          "type": "address"
        },
        {
          "internalType": "uint256",
          "name": "amount",
          "type": "uint256"
        }
      ],
      "name": "mint",
      "outputs": [],
      "stateMutability": "nonpayable",
      "type": "function"
    },
    {
      "inputs": [],
      "name": "name",
      "outputs": [
        {
          "internalType": "string",
          "name": "",
          "type": "string"
        }
      ],
      "stateMutability": "view",
      "type": "function"
    },
    {
      "inputs": [],
      "name": "owner",
      "outputs": [
        {
          "internalType": "address",
          "name": "",
          "type": "address"
        }
      ],
      "stateMutability": "view",
      "type": "function"
    },
    {
      "inputs": [],
      "name": "renounceOwnership",
      "outputs": [],
      "stateMutability": "nonpayable",
      "type": "function"
    },
    {
      "inputs": [
        {
          "internalType": "address",
          "name": "_vault",
          "type": "address"
        }
      ],
      "name": "setVault",
      "outputs": [],
      "stateMutability": "nonpayable",
      "type": "function"
    },
    {
      "inputs": [],
      "name": "symbol",
      "outputs": [
        {
          "internalType": "string",
          "name": "",
          "type": "string"
        }
      ],
      "stateMutability": "view",
      "type": "function"
    },
    {
      "inputs": [],
      "name": "totalSupply",
      "outputs": [
        {
          "internalType": "uint256",
          "name": "",
          "type": "uint256"
        }
      ],
      "stateMutability": "view",
      "type": "function"
    },
    {
      "inputs": [
        {
          "internalType": "address",
          "name": "to",
          "type": "address"
        },
        {
          "internalType": "uint256",
          "name": "value",
          "type": "uint256"
        }
      ],
      "name": "transfer",
      "outputs": [
        {
          "internalType": "bool",
          "name": "",
          "type": "bool"
        }
      ],
      "stateMutability": "nonpayable",
      "type": "function"
    },
    {
      "inputs": [
        {
          "internalType": "address",
          "name": "from",
          "type": "address"
        },
        {
          "internalType": "address",
          "name": "to",
          "type": "address"
        },
        {
          "internalType": "uint256",
          "name": "amount",
          "type": "uint256"
        }
      ],
      "name": "transferFrom",
      "outputs": [
        {
          "internalType": "bool",
          "name": "",
          "type": "bool"
        }
      ],
      "stateMutability": "nonpayable",
      "type": "function"
    },
    {
      "inputs": [
        {
          "internalType": "address",
          "name": "newOwner",
          "type": "address"
        }
      ],
      "name": "transferOwnership",
      "outputs": [],
      "stateMutability": "nonpayable",
      "type": "function"
    },
    {
      "inputs": [
        {
          "internalType": "address",
          "name": "",
          "type": "address"
        }
      ],
      "name": "validMusicContracts",
      "outputs": [
        {
          "internalType": "bool",
          "name": "",
          "type": "bool"
        }
      ],
      "stateMutability": "view",
      "type": "function"
    },
    {
      "inputs": [
        {
          "internalType": "address",
          "name": "_musicContract",
          "type": "address"
        }
      ],
      "name": "validateMusicContract",
      "outputs": [],
      "stateMutability": "nonpayable",
      "type": "function"
    },
    {
      "inputs": [],
      "name": "vault",
      "outputs": [
        {
          "internalType": "address",
          "name": "",
          "type": "address"
        }
      ],
      "stateMutability": "view",
      "type": "function"
    }
  ],
  "bytecode": "0x608060405234801561001057600080fd5b50604051611d2c380380611d2c83398101604081905261002f91610166565b806040518060400160405280600b81526020016a27bcb9ba32b92a37b5b2b760a91b8152506040518060400160405280600381526020016213d4d560ea1b815250816003908161007f9190610235565b50600461008c8282610235565b5050506001600160a01b0381166100bd57604051631e4fbdf760e01b81526000600482015260240160405180910390fd5b6100c681610114565b50604080516001600160a01b0383168152652d79883d200060208201527f6ea7e7a6fce309baa0e793dada1bb4c9d097e465b769816ddefe7bf926f85bd2910160405180910390a1506102f3565b600580546001600160a01b038381166001600160a01b0319831681179093556040519116919082907f8be0079c531659141344cd1fd0a4f28419497f9722a3daafe3b4186f6b6457e090600090a35050565b60006020828403121561017857600080fd5b81516001600160a01b038116811461018f57600080fd5b9392505050565b634e487b7160e01b600052604160045260246000fd5b600181811c908216806101c057607f821691505b6020821081036101e057634e487b7160e01b600052602260045260246000fd5b50919050565b601f82111561023057806000526020600020601f840160051c8101602085101561020d5750805b601f840160051c820191505b8181101561022d5760008155600101610219565b50505b505050565b81516001600160401b0381111561024e5761024e610196565b6102628161025c84546101ac565b846101e6565b6020601f821160018114610296576000831561027e5750848201515b600019600385901b1c1916600184901b17845561022d565b600084815260208120601f198516915b828110156102c657878501518255602094850194600190920191016102a6565b50848210156102e45786840151600019600387901b60f8161c191681555b50505050600190811b01905550565b611a2a806103026000396000f3fe608060405234801561001057600080fd5b50600436106101215760003560e01c80636817031b116100ad578063a9059cbb11610071578063a9059cbb14610254578063dd62ed3e14610267578063f2fde38b146102a0578063f89fbe6a146102b3578063fbfa77cf146102d657600080fd5b80636817031b146101e357806370a08231146101f6578063715018a61461021f5780638da5cb5b1461022757806395d89b411461024c57600080fd5b80631870aaa8116100f45780631870aaa81461018e57806323b872dd146101a1578063313ce567146101b457806340c10f19146101c35780635e5d3413146101d657600080fd5b806306fdde03146101265780630752881a14610144578063095ea7b31461015957806318160ddd1461017c575b600080fd5b61012e6102e9565b60405161013b919061172e565b60405180910390f35b61015761015236600461177d565b61037b565b005b61016c61016736600461177d565b610c1f565b604051901515815260200161013b565b6002545b60405190815260200161013b565b61015761019c3660046117a7565b610dc7565b61016c6101af3660046117c9565b610f7d565b6040516012815260200161013b565b6101576101d136600461177d565b6111cd565b610180652d79883d200081565b6101576101f13660046117a7565b611271565b6101806102043660046117a7565b6001600160a01b031660009081526020819052604090205490565b6101576112cf565b6005546001600160a01b03165b6040516001600160a01b03909116815260200161013b565b61012e6112e3565b61016c61026236600461177d565b6112f2565b610180610275366004611806565b6001600160a01b03918216600090815260016020908152604080832093909416825291909152205490565b6101576102ae3660046117a7565b61130a565b61016c6102c13660046117a7565b60076020526000908152604090205460ff1681565b600654610234906001600160a01b031681565b6060600380546102f890611839565b80601f016020809104026020016040519081016040528092919081815260200182805461032490611839565b80156103715780601f1061034657610100808354040283529160200191610371565b820191906000526020600020905b81548152906001019060200180831161035457829003601f168201915b5050505050905090565b6000805160206119958339815191526040516103c8906020808252601d908201527f4f7973746572546f6b656e3a20627579546f6b656e732063616c6c6564000000604082015260600190565b60405180910390a16040805181815260028183015261627960f01b606082015233602082015290516000805160206119d58339815191529181900360800190a16040805181815260118183015270199bdc88135d5cda58d0dbdb9d1c9858dd607a1b60608201526001600160a01b038416602082015290516000805160206119d58339815191529181900360800190a16040805181815260068183015265185b5bdd5b9d60d21b60608201526020810183905290516000805160206119b58339815191529181900360800190a16001600160a01b03821660009081526007602052604090205460ff166104fa5760405162461bcd60e51b8152602060048201526015602482015274125b9d985b1a5908135d5cda58d0dbdb9d1c9858dd605a1b60448201526064015b60405180910390fd5b600080516020611995833981519152604051610545906020808252818101527f4f7973746572546f6b656e3a204265666f7265207472616e7366657246726f6d604082015260600190565b60405180910390a1600654604080518181526005818301526415985d5b1d60da1b60608201526001600160a01b039092166020830152516000805160206119d58339815191529181900360800190a160408051818152600d818301526c135d5cda58d0dbdb9d1c9858dd609a1b60608201526001600160a01b038416602082015290516000805160206119d58339815191529181900360800190a16040805181815260068183015265105b5bdd5b9d60d21b60608201526020810183905290516000805160206119b58339815191529181900360800190a16006546040516370a0823160e01b81526001600160a01b0390911660048201526000805160206119b58339815191529030906370a0823190602401602060405180830381865afa158015610675573d6000803e3d6000fd5b505050506040513d601f19601f820116820180604052508101906106999190611873565b6040516106d091906040808252600d908201526c5661756c742042616c616e636560981b6060820152602081019190915260800190565b60405180910390a1600654604051636eb1769f60e11b81526001600160a01b03909116600482015230602482018190526000805160206119b58339815191529163dd62ed3e90604401602060405180830381865afa158015610736573d6000803e3d6000fd5b505050506040513d601f19601f8201168201806040525081019061075a9190611873565b60405161078d9190604080825260099082015268416c6c6f77616e636560b81b6060820152602081019190915260800190565b60405180910390a16006546040516370a0823160e01b81526001600160a01b039091166004820152819030906370a0823190602401602060405180830381865afa1580156107df573d6000803e3d6000fd5b505050506040513d601f19601f820116820180604052508101906108039190611873565b10156108515760405162461bcd60e51b815260206004820152601a60248201527f496e73756666696369656e74207661756c742062616c616e636500000000000060448201526064016104f1565b6006546040516001600160a01b0391821660248201529083166044820152606481018290526000908190309060840160408051601f198184030181529181526020820180516001600160e01b03166323b872dd60e01b179052516108b5919061188c565b6000604051808303816000865af19150503d80600081146108f2576040519150601f19603f3d011682016040523d82523d6000602084013e6108f7565b606091505b509150915081156109d45760008051602061199583398151915260405161095c9060208082526024908201527f4f7973746572546f6b656e3a207472616e7366657246726f6d207375636365736040820152631cd99d5b60e21b606082015260800190565b60405180910390a18051156109cf576000805160206119958339815191526040516109c69060208082526025908201527f4f7973746572546f6b656e3a207472616e7366657246726f6d2072657475726e604082015264206461746160d81b606082015260800190565b60405180910390a15b610add565b600080516020611995833981519152604051610a1f906020808252818101527f4f7973746572546f6b656e3a207472616e7366657246726f6d206661696c6564604082015260600190565b60405180910390a1805115610add57600080516020611995833981519152604051610a8c9060208082526028908201527f4f7973746572546f6b656e3a207472616e7366657246726f6d20726576657274604082015267103932b0b9b7b71d60c11b606082015260800190565b60405180910390a1602081511115610add57600081806020019051810190610ab491906118be565b905060008051602061199583398151915281604051610ad3919061172e565b60405180910390a1505b81610b225760405162461bcd60e51b8152602060048201526015602482015274151bdad95b881d1c985b9cd9995c8819985a5b1959605a1b60448201526064016104f1565b600080516020611995833981519152604051610b6f906020808252601f908201527f4f7973746572546f6b656e3a204166746572207472616e7366657246726f6d00604082015260600190565b60405180910390a16040518381526001600160a01b0385169033907f9d679fde97aa57da9a89a7bb2071f163ea2f43f12f10009077b7645aacea64cc9060200160405180910390a3600080516020611995833981519152604051610c119060208082526024908201527f4f7973746572546f6b656e3a20427579546f6b656e73206576656e7420656d696040820152631d1d195960e21b606082015260800190565b60405180910390a150505050565b60408051818152601e818301527f4f7973746572546f6b656e3a20417070726f76696e67207370656e646572000060608201526001600160a01b038416602082015290516000916000805160206119d5833981519152919081900360800190a160408051818152601c818301527f4f7973746572546f6b656e3a20417070726f76616c20616d6f756e740000000060608201526020810184905290516000805160206119b58339815191529181900360800190a16000805160206119d5833981519152610cf46005546001600160a01b031690565b60408051818152601e818301527f4f7973746572546f6b656e3a204f776e6572206f6620617070726f76616c000060608201526001600160a01b03929092166020830152519081900360800190a1604080518181526023818301527f4f7973746572546f6b656e3a206d73672e73656e646572206f6620617070726f6060820152621d985b60ea1b608082015233602082015290516000805160206119d58339815191529181900360a00190a1610dbd610db66005546001600160a01b031690565b8484611348565b5060015b92915050565b610dcf61135a565b6000816001600160a01b03163b11610e295760405162461bcd60e51b815260206004820152601d60248201527f496e76616c6964204d75736963436f6e7472616374206164647265737300000060448201526064016104f1565b60405130602482015260009081906001600160a01b0384169060440160408051601f198184030181529181526020820180516001600160e01b031660016207802160e41b031917905251610e7d919061188c565b6000604051808303816000865af19150503d8060008114610eba576040519150601f19603f3d011682016040523d82523d6000602084013e610ebf565b606091505b5091509150818015610ed2575060008151115b610f1e5760405162461bcd60e51b815260206004820152601960248201527f4e6f7420612076616c6964204d75736963436f6e74726163740000000000000060448201526064016104f1565b6001600160a01b038316600081815260076020908152604091829020805460ff1916600190811790915591519182527f3f1ebd6025e7e2fb5771bb1d2c184d9ec8b7a4199885763ce389717690f3456e910160405180910390a2505050565b604080518181526023818301527f4f7973746572546f6b656e3a207472616e7366657246726f6d2063616c6c656460608201526220627960e81b608082015233602082015290516000916000805160206119d5833981519152919081900360a00190a160408051818152601e818301527f4f7973746572546f6b656e3a207472616e7366657246726f6d2066726f6d000060608201526001600160a01b038616602082015290516000805160206119d58339815191529181900360800190a160408051818152601c818301527f4f7973746572546f6b656e3a207472616e7366657246726f6d20746f0000000060608201526001600160a01b038516602082015290516000805160206119d58339815191529181900360800190a16040805181815260208183018190527f4f7973746572546f6b656e3a207472616e7366657246726f6d20616d6f756e746060830152810184905290516000805160206119b58339815191529181900360800190a160006110f9858585611387565b90506000805160206119958339815191526040516111539060208082526022908201527f4f7973746572546f6b656e3a207472616e7366657246726f6d20726573756c7460408201526101d160f51b606082015260800190565b60405180910390a160008051602061199583398151915281611192576040518060400160405280600581526020016466616c736560d81b8152506111b0565b604051806040016040528060048152602001637472756560e01b8152505b6040516111bd919061172e565b60405180910390a1949350505050565b6111d561135a565b60408051818152600a81830152694d696e74696e6720746f60b01b60608201526001600160a01b038416602082015290516000805160206119d58339815191529181900360800190a160408051818152600e818301526d135a5b9d1a5b99c8185b5bdd5b9d60921b60608201526020810183905290516000805160206119b58339815191529181900360800190a161126d33826113ab565b5050565b61127961135a565b6040516001600160a01b038216907fe7ae49f883c825b05681b3e00e8be6fdea9ed2a8a45e4c6ecb9390fc44cce61590600090a2600680546001600160a01b0319166001600160a01b0392909216919091179055565b6112d761135a565b6112e160006113e1565b565b6060600480546102f890611839565b600033611300818585611433565b5060019392505050565b61131261135a565b6001600160a01b03811661133c57604051631e4fbdf760e01b8152600060048201526024016104f1565b611345816113e1565b50565b6113558383836001611492565b505050565b6005546001600160a01b031633146112e15760405163118cdaa760e01b81523360048201526024016104f1565b600033611395858285611568565b6113a0858585611433565b506001949350505050565b6001600160a01b0382166113d55760405163ec442f0560e01b8152600060048201526024016104f1565b61126d600083836115e0565b600580546001600160a01b038381166001600160a01b0319831681179093556040519116919082907f8be0079c531659141344cd1fd0a4f28419497f9722a3daafe3b4186f6b6457e090600090a35050565b6001600160a01b03831661145d57604051634b637e8f60e11b8152600060048201526024016104f1565b6001600160a01b0382166114875760405163ec442f0560e01b8152600060048201526024016104f1565b6113558383836115e0565b6001600160a01b0384166114bc5760405163e602df0560e01b8152600060048201526024016104f1565b6001600160a01b0383166114e657604051634a1406b160e11b8152600060048201526024016104f1565b6001600160a01b038085166000908152600160209081526040808320938716835292905220829055801561156257826001600160a01b0316846001600160a01b03167f8c5be1e5ebec7d5bd14f71427d1e84f3dd0314c0f7b2291e5b200ac8c7c3b9258460405161155991815260200190565b60405180910390a35b50505050565b6001600160a01b03838116600090815260016020908152604080832093861683529290522054600019811461156257818110156115d157604051637dc7a0d960e11b81526001600160a01b038416600482015260248101829052604481018390526064016104f1565b61156284848484036000611492565b6001600160a01b03831661160b5780600260008282546116009190611973565b9091555061167d9050565b6001600160a01b0383166000908152602081905260409020548181101561165e5760405163391434e360e21b81526001600160a01b038516600482015260248101829052604481018390526064016104f1565b6001600160a01b03841660009081526020819052604090209082900390555b6001600160a01b038216611699576002805482900390556116b8565b6001600160a01b03821660009081526020819052604090208054820190555b816001600160a01b0316836001600160a01b03167fddf252ad1be2c89b69c2b068fc378daa952ba7f163c4a11628f55a4df523b3ef836040516116fd91815260200190565b60405180910390a3505050565b60005b8381101561172557818101518382015260200161170d565b50506000910152565b602081526000825180602084015261174d81604085016020870161170a565b601f01601f19169190910160400192915050565b80356001600160a01b038116811461177857600080fd5b919050565b6000806040838503121561179057600080fd5b61179983611761565b946020939093013593505050565b6000602082840312156117b957600080fd5b6117c282611761565b9392505050565b6000806000606084860312156117de57600080fd5b6117e784611761565b92506117f560208501611761565b929592945050506040919091013590565b6000806040838503121561181957600080fd5b61182283611761565b915061183060208401611761565b90509250929050565b600181811c9082168061184d57607f821691505b60208210810361186d57634e487b7160e01b600052602260045260246000fd5b50919050565b60006020828403121561188557600080fd5b5051919050565b6000825161189e81846020870161170a565b9190910192915050565b634e487b7160e01b600052604160045260246000fd5b6000602082840312156118d057600080fd5b815167ffffffffffffffff8111156118e757600080fd5b8201601f810184136118f857600080fd5b805167ffffffffffffffff811115611912576119126118a8565b604051601f8201601f19908116603f0116810167ffffffffffffffff81118282101715611941576119416118a8565b60405281815282820160200186101561195957600080fd5b61196a82602083016020860161170a565b95945050505050565b80820180821115610dc157634e487b7160e01b600052601160045260246000fdfecf34ef537ac33ee1ac626ca1587a0a7e8e51561e5514f8cb36afa1c5102b3bab941296a39ea107bde685522318a4b6c2b544904a5dd82a512748ca2cf839bef762ddffe5b5108385f7a590f100e1ee414ad9551a31f089e64e82998440785e1ea26469706673582212200657c4bd1774c399788c5346fb323e02097ca084d5bbee696081bbcf2d21019f64736f6c634300081c0033",
  "linkReferences": {},
  "deployedLinkReferences": {}
}