{
  "_format": "hh-sol-artifact-1",
  "contractName": "OysterVault",
  "sourceName": "contracts/OysterToken.sol",
  "abi": [
    {
      "inputs": [
        {
          "internalType": "contract IERC20",
          "name": "_oysterToken",
          "type": "address"
        },
        {
          "internalType": "address",
          "name": "initialOwner",
          "type": "address"
        }
      ],
      "stateMutability": "nonpayable",
      "type": "constructor"
    },
    {
      "inputs": [
        {
          "internalType": "address",
          "name": "owner",
          "type": "address"
        }
      ],
      "name": "OwnableInvalidOwner",
      "type": "error"
    },
    {
      "inputs": [
        {
          "internalType": "address",
          "name": "account",
          "type": "address"
        }
      ],
      "name": "OwnableUnauthorizedAccount",
      "type": "error"
    },
    {
      "anonymous": false,
      "inputs": [
        {
          "indexed": true,
          "internalType": "address",
          "name": "previousOwner",
          "type": "address"
        },
        {
          "indexed": true,
          "internalType": "address",
          "name": "newOwner",
          "type": "address"
        }
      ],
      "name": "OwnershipTransferred",
      "type": "event"
    },
    {
      "anonymous": false,
      "inputs": [
        {
          "indexed": true,
          "internalType": "address",
          "name": "to",
          "type": "address"
        },
        {
          "indexed": false,
          "internalType": "uint256",
          "name": "amount",
          "type": "uint256"
        }
      ],
      "name": "TokensDistributed",
      "type": "event"
    },
    {
      "anonymous": false,
      "inputs": [
        {
          "indexed": true,
          "internalType": "address",
          "name": "from",
          "type": "address"
        },
        {
          "indexed": false,
          "internalType": "uint256",
          "name": "amount",
          "type": "uint256"
        }
      ],
      "name": "TokensRecieved",
      "type": "event"
    },
    {
      "inputs": [],
      "name": "owner",
      "outputs": [
        {
          "internalType": "address",
          "name": "",
          "type": "address"
        }
      ],
      "stateMutability": "view",
      "type": "function"
    },
    {
      "inputs": [],
      "name": "oysterToken",
      "outputs": [
        {
          "internalType": "contract IERC20",
          "name": "",
          "type": "address"
        }
      ],
      "stateMutability": "view",
      "type": "function"
    },
    {
      "inputs": [
        {
          "internalType": "address",
          "name": "musicContract",
          "type": "address"
        },
        {
          "internalType": "uint256",
          "name": "amount",
          "type": "uint256"
        }
      ],
      "name": "receiveTokens",
      "outputs": [
        {
          "internalType": "bool",
          "name": "",
          "type": "bool"
        }
      ],
      "stateMutability": "nonpayable",
      "type": "function"
    },
    {
      "inputs": [],
      "name": "renounceOwnership",
      "outputs": [],
      "stateMutability": "nonpayable",
      "type": "function"
    },
    {
      "inputs": [
        {
          "internalType": "address",
          "name": "musicContract",
          "type": "address"
        },
        {
          "internalType": "uint256",
          "name": "amount",
          "type": "uint256"
        }
      ],
      "name": "sendToken",
      "outputs": [
        {
          "internalType": "bool",
          "name": "",
          "type": "bool"
        }
      ],
      "stateMutability": "nonpayable",
      "type": "function"
    },
    {
      "inputs": [
        {
          "internalType": "address",
          "name": "newOwner",
          "type": "address"
        }
      ],
      "name": "transferOwnership",
      "outputs": [],
      "stateMutability": "nonpayable",
      "type": "function"
    },
    {
      "inputs": [],
      "name": "viewTokensVault",
      "outputs": [
        {
          "internalType": "uint256",
          "name": "",
          "type": "uint256"
        }
      ],
      "stateMutability": "view",
      "type": "function"
    }
  ],
  "bytecode": "0x608060405234801561001057600080fd5b5060405161086e38038061086e83398101604081905261002f916100f6565b806001600160a01b03811661005e57604051631e4fbdf760e01b81526000600482015260240160405180910390fd5b6100678161008e565b5050600180546001600160a01b0319166001600160a01b0392909216919091179055610130565b600080546001600160a01b038381166001600160a01b0319831681178455604051919092169283917f8be0079c531659141344cd1fd0a4f28419497f9722a3daafe3b4186f6b6457e09190a35050565b6001600160a01b03811681146100f357600080fd5b50565b6000806040838503121561010957600080fd5b8251610114816100de565b6020840151909250610125816100de565b809150509250929050565b61072f8061013f6000396000f3fe608060405234801561001057600080fd5b506004361061007d5760003560e01c8063715018a61161005b578063715018a6146100d35780638da5cb5b146100dd578063f2fde38b14610102578063fd994c161461011557600080fd5b80631f4aad2a14610082578063357291301461009d578063412664ae146100c0575b600080fd5b61008a610128565b6040519081526020015b60405180910390f35b6100b06100ab366004610615565b61019a565b6040519015158152602001610094565b6100b06100ce366004610615565b6102e2565b6100db61052a565b005b6000546001600160a01b03165b6040516001600160a01b039091168152602001610094565b6100db61011036600461063f565b61053e565b6001546100ea906001600160a01b031681565b6001546040516370a0823160e01b81523060048201526000916001600160a01b0316906370a0823190602401602060405180830381865afa158015610171573d6000803e3d6000fd5b505050506040513d601f19601f820116820180604052508101906101959190610661565b905090565b6001546000906001600160a01b031633146101d05760405162461bcd60e51b81526004016101c79061067a565b60405180910390fd5b6001546040516323b872dd60e01b81526001600160a01b0385811660048301523060248301526044820185905260009216906323b872dd906064016020604051808303816000875af115801561022a573d6000803e3d6000fd5b505050506040513d601f19601f8201168201806040525081019061024e91906106d7565b9050806102955760405162461bcd60e51b8152602060048201526015602482015274151bdad95b881d1c985b9cd9995c8819985a5b1959605a1b60448201526064016101c7565b836001600160a01b03167f656c83d0d1a4a41c0e34ea8b02d211385e09a2cf0c0922435884dc1a64cd9ce0846040516102d091815260200190565b60405180910390a25060019392505050565b6001546000906001600160a01b0316331461030f5760405162461bcd60e51b81526004016101c79061067a565b6000821161035f5760405162461bcd60e51b815260206004820181905260248201527f416d6f756e74206d7573742062652067726561746572207468616e207a65726f60448201526064016101c7565b6001546040516370a0823160e01b815230600482015283916001600160a01b0316906370a0823190602401602060405180830381865afa1580156103a7573d6000803e3d6000fd5b505050506040513d601f19601f820116820180604052508101906103cb9190610661565b10156104235760405162461bcd60e51b815260206004820152602160248201527f5661756c7420646f6573206e6f74206861766520656e6f75676820746f6b656e6044820152607360f81b60648201526084016101c7565b60015460405163a9059cbb60e01b81526001600160a01b038581166004830152602482018590529091169063a9059cbb906044016020604051808303816000875af1158015610476573d6000803e3d6000fd5b505050506040513d601f19601f8201168201806040525081019061049a91906106d7565b6104de5760405162461bcd60e51b8152602060048201526015602482015274151bdad95b881d1c985b9cd9995c8819985a5b1959605a1b60448201526064016101c7565b826001600160a01b03167f16b0da2ffcb90c6723317bd637d9aad7f04711f42bbe0ac0918ebe10f1f9001c8360405161051991815260200190565b60405180910390a250600192915050565b61053261057c565b61053c60006105a9565b565b61054661057c565b6001600160a01b03811661057057604051631e4fbdf760e01b8152600060048201526024016101c7565b610579816105a9565b50565b6000546001600160a01b0316331461053c5760405163118cdaa760e01b81523360048201526024016101c7565b600080546001600160a01b038381166001600160a01b0319831681178455604051919092169283917f8be0079c531659141344cd1fd0a4f28419497f9722a3daafe3b4186f6b6457e09190a35050565b80356001600160a01b038116811461061057600080fd5b919050565b6000806040838503121561062857600080fd5b610631836105f9565b946020939093013593505050565b60006020828403121561065157600080fd5b61065a826105f9565b9392505050565b60006020828403121561067357600080fd5b5051919050565b6020808252603b908201527f546869732066756e6374696f6e2063616e206f6e6c792062652063616c6c656460408201527f20627920746865206f7973746572546f6b656e20616464726573730000000000606082015260800190565b6000602082840312156106e957600080fd5b8151801515811461065a57600080fdfea26469706673582212204b9fc0ca09a9e2a39db80f0c8798fb8d9567480c31008179d371ce24ac764f0264736f6c634300081c0033",
  "linkReferences": {},
  "deployedLinkReferences": {}
}