{
  "_format": "hh-sol-artifact-1",
  "contractName": "OysterVault",
  "sourceName": "contracts/OysterToken.sol",
  "abi": [
    {
      "inputs": [
        {
          "internalType": "contract IERC20",
          "name": "_oysterToken",
          "type": "address"
        },
        {
          "internalType": "address",
          "name": "initialOwner",
          "type": "address"
        }
      ],
      "stateMutability": "nonpayable",
      "type": "constructor"
    },
    {
      "inputs": [
        {
          "internalType": "address",
          "name": "owner",
          "type": "address"
        }
      ],
      "name": "OwnableInvalidOwner",
      "type": "error"
    },
    {
      "inputs": [
        {
          "internalType": "address",
          "name": "account",
          "type": "address"
        }
      ],
      "name": "OwnableUnauthorizedAccount",
      "type": "error"
    },
    {
      "anonymous": false,
      "inputs": [
        {
          "indexed": true,
          "internalType": "address",
          "name": "previousOwner",
          "type": "address"
        },
        {
          "indexed": true,
          "internalType": "address",
          "name": "newOwner",
          "type": "address"
        }
      ],
      "name": "OwnershipTransferred",
      "type": "event"
    },
    {
      "anonymous": false,
      "inputs": [
        {
          "indexed": true,
          "internalType": "address",
          "name": "to",
          "type": "address"
        },
        {
          "indexed": false,
          "internalType": "uint256",
          "name": "amount",
          "type": "uint256"
        }
      ],
      "name": "TokensDistributed",
      "type": "event"
    },
    {
      "anonymous": false,
      "inputs": [
        {
          "indexed": true,
          "internalType": "address",
          "name": "from",
          "type": "address"
        },
        {
          "indexed": false,
          "internalType": "uint256",
          "name": "amount",
          "type": "uint256"
        }
      ],
      "name": "TokensRecieved",
      "type": "event"
    },
    {
      "anonymous": false,
      "inputs": [
        {
          "indexed": true,
          "internalType": "address",
          "name": "to",
          "type": "address"
        },
        {
          "indexed": false,
          "internalType": "uint256",
          "name": "weiAmount",
          "type": "uint256"
        }
      ],
      "name": "WeiRefunded",
      "type": "event"
    },
    {
      "inputs": [],
      "name": "owner",
      "outputs": [
        {
          "internalType": "address",
          "name": "",
          "type": "address"
        }
      ],
      "stateMutability": "view",
      "type": "function"
    },
    {
      "inputs": [],
      "name": "oysterToken",
      "outputs": [
        {
          "internalType": "contract IERC20",
          "name": "",
          "type": "address"
        }
      ],
      "stateMutability": "view",
      "type": "function"
    },
    {
      "inputs": [
        {
          "internalType": "address",
          "name": "musicContract",
          "type": "address"
        },
        {
          "internalType": "uint256",
          "name": "amount",
          "type": "uint256"
        }
      ],
      "name": "receiveTokens",
      "outputs": [
        {
          "internalType": "bool",
          "name": "",
          "type": "bool"
        }
      ],
      "stateMutability": "nonpayable",
      "type": "function"
    },
    {
      "inputs": [],
      "name": "renounceOwnership",
      "outputs": [],
      "stateMutability": "nonpayable",
      "type": "function"
    },
    {
      "inputs": [
        {
          "internalType": "address",
          "name": "musicContract",
          "type": "address"
        },
        {
          "internalType": "uint256",
          "name": "amount",
          "type": "uint256"
        }
      ],
      "name": "sendToken",
      "outputs": [
        {
          "internalType": "bool",
          "name": "",
          "type": "bool"
        }
      ],
      "stateMutability": "nonpayable",
      "type": "function"
    },
    {
      "inputs": [
        {
          "internalType": "address",
          "name": "newOwner",
          "type": "address"
        }
      ],
      "name": "transferOwnership",
      "outputs": [],
      "stateMutability": "nonpayable",
      "type": "function"
    },
    {
      "inputs": [],
      "name": "viewTokensVault",
      "outputs": [
        {
          "internalType": "uint256",
          "name": "",
          "type": "uint256"
        }
      ],
      "stateMutability": "view",
      "type": "function"
    }
  ],
  "bytecode": "0x608060405234801561001057600080fd5b5060405161111f38038061111f83398181016040528101906100329190610262565b80600073ffffffffffffffffffffffffffffffffffffffff168173ffffffffffffffffffffffffffffffffffffffff16036100a55760006040517f1e4fbdf700000000000000000000000000000000000000000000000000000000815260040161009c91906102b1565b60405180910390fd5b6100b4816100fd60201b60201c565b5081600160006101000a81548173ffffffffffffffffffffffffffffffffffffffff021916908373ffffffffffffffffffffffffffffffffffffffff16021790555050506102cc565b60008060009054906101000a900473ffffffffffffffffffffffffffffffffffffffff169050816000806101000a81548173ffffffffffffffffffffffffffffffffffffffff021916908373ffffffffffffffffffffffffffffffffffffffff1602179055508173ffffffffffffffffffffffffffffffffffffffff168173ffffffffffffffffffffffffffffffffffffffff167f8be0079c531659141344cd1fd0a4f28419497f9722a3daafe3b4186f6b6457e060405160405180910390a35050565b600080fd5b600073ffffffffffffffffffffffffffffffffffffffff82169050919050565b60006101f1826101c6565b9050919050565b6000610203826101e6565b9050919050565b610213816101f8565b811461021e57600080fd5b50565b6000815190506102308161020a565b92915050565b61023f816101e6565b811461024a57600080fd5b50565b60008151905061025c81610236565b92915050565b60008060408385031215610279576102786101c1565b5b600061028785828601610221565b92505060206102988582860161024d565b9150509250929050565b6102ab816101e6565b82525050565b60006020820190506102c660008301846102a2565b92915050565b610e44806102db6000396000f3fe608060405234801561001057600080fd5b506004361061007d5760003560e01c8063715018a61161005b578063715018a6146101005780638da5cb5b1461010a578063f2fde38b14610128578063fd994c16146101445761007d565b80631f4aad2a1461008257806335729130146100a0578063412664ae146100d0575b600080fd5b61008a610162565b6040516100979190610915565b60405180910390f35b6100ba60048036038101906100b591906109bf565b610205565b6040516100c79190610a1a565b60405180910390f35b6100ea60048036038101906100e591906109bf565b6103d6565b6040516100f79190610a1a565b60405180910390f35b6101086106c0565b005b6101126106d4565b60405161011f9190610a44565b60405180910390f35b610142600480360381019061013d9190610a5f565b6106fd565b005b61014c610783565b6040516101599190610aeb565b60405180910390f35b6000600160009054906101000a900473ffffffffffffffffffffffffffffffffffffffff1673ffffffffffffffffffffffffffffffffffffffff166370a08231306040518263ffffffff1660e01b81526004016101bf9190610a44565b602060405180830381865afa1580156101dc573d6000803e3d6000fd5b505050506040513d601f19601f820116820180604052508101906102009190610b1b565b905090565b6000600160009054906101000a900473ffffffffffffffffffffffffffffffffffffffff1673ffffffffffffffffffffffffffffffffffffffff163373ffffffffffffffffffffffffffffffffffffffff1614610297576040517f08c379a000000000000000000000000000000000000000000000000000000000815260040161028e90610bcb565b60405180910390fd5b6000600160009054906101000a900473ffffffffffffffffffffffffffffffffffffffff1673ffffffffffffffffffffffffffffffffffffffff166323b872dd8530866040518463ffffffff1660e01b81526004016102f893929190610beb565b6020604051808303816000875af1158015610317573d6000803e3d6000fd5b505050506040513d601f19601f8201168201806040525081019061033b9190610c4e565b90508061037d576040517f08c379a000000000000000000000000000000000000000000000000000000000815260040161037490610cc7565b60405180910390fd5b8373ffffffffffffffffffffffffffffffffffffffff167f656c83d0d1a4a41c0e34ea8b02d211385e09a2cf0c0922435884dc1a64cd9ce0846040516103c39190610915565b60405180910390a2600191505092915050565b6000600160009054906101000a900473ffffffffffffffffffffffffffffffffffffffff1673ffffffffffffffffffffffffffffffffffffffff163373ffffffffffffffffffffffffffffffffffffffff1614610468576040517f08c379a000000000000000000000000000000000000000000000000000000000815260040161045f90610bcb565b60405180910390fd5b600082116104ab576040517f08c379a00000000000000000000000000000000000000000000000000000000081526004016104a290610d33565b60405180910390fd5b81600160009054906101000a900473ffffffffffffffffffffffffffffffffffffffff1673ffffffffffffffffffffffffffffffffffffffff166370a08231306040518263ffffffff1660e01b81526004016105079190610a44565b602060405180830381865afa158015610524573d6000803e3d6000fd5b505050506040513d601f19601f820116820180604052508101906105489190610b1b565b1015610589576040517f08c379a000000000000000000000000000000000000000000000000000000000815260040161058090610dc5565b60405180910390fd5b600160009054906101000a900473ffffffffffffffffffffffffffffffffffffffff1673ffffffffffffffffffffffffffffffffffffffff1663a9059cbb84846040518363ffffffff1660e01b81526004016105e6929190610de5565b6020604051808303816000875af1158015610605573d6000803e3d6000fd5b505050506040513d601f19601f820116820180604052508101906106299190610c4e565b610668576040517f08c379a000000000000000000000000000000000000000000000000000000000815260040161065f90610cc7565b60405180910390fd5b8273ffffffffffffffffffffffffffffffffffffffff167f16b0da2ffcb90c6723317bd637d9aad7f04711f42bbe0ac0918ebe10f1f9001c836040516106ae9190610915565b60405180910390a26001905092915050565b6106c86107a9565b6106d26000610830565b565b60008060009054906101000a900473ffffffffffffffffffffffffffffffffffffffff16905090565b6107056107a9565b600073ffffffffffffffffffffffffffffffffffffffff168173ffffffffffffffffffffffffffffffffffffffff16036107775760006040517f1e4fbdf700000000000000000000000000000000000000000000000000000000815260040161076e9190610a44565b60405180910390fd5b61078081610830565b50565b600160009054906101000a900473ffffffffffffffffffffffffffffffffffffffff1681565b6107b16108f4565b73ffffffffffffffffffffffffffffffffffffffff166107cf6106d4565b73ffffffffffffffffffffffffffffffffffffffff161461082e576107f26108f4565b6040517f118cdaa70000000000000000000000000000000000000000000000000000000081526004016108259190610a44565b60405180910390fd5b565b60008060009054906101000a900473ffffffffffffffffffffffffffffffffffffffff169050816000806101000a81548173ffffffffffffffffffffffffffffffffffffffff021916908373ffffffffffffffffffffffffffffffffffffffff1602179055508173ffffffffffffffffffffffffffffffffffffffff168173ffffffffffffffffffffffffffffffffffffffff167f8be0079c531659141344cd1fd0a4f28419497f9722a3daafe3b4186f6b6457e060405160405180910390a35050565b600033905090565b6000819050919050565b61090f816108fc565b82525050565b600060208201905061092a6000830184610906565b92915050565b600080fd5b600073ffffffffffffffffffffffffffffffffffffffff82169050919050565b600061096082610935565b9050919050565b61097081610955565b811461097b57600080fd5b50565b60008135905061098d81610967565b92915050565b61099c816108fc565b81146109a757600080fd5b50565b6000813590506109b981610993565b92915050565b600080604083850312156109d6576109d5610930565b5b60006109e48582860161097e565b92505060206109f5858286016109aa565b9150509250929050565b60008115159050919050565b610a14816109ff565b82525050565b6000602082019050610a2f6000830184610a0b565b92915050565b610a3e81610955565b82525050565b6000602082019050610a596000830184610a35565b92915050565b600060208284031215610a7557610a74610930565b5b6000610a838482850161097e565b91505092915050565b6000819050919050565b6000610ab1610aac610aa784610935565b610a8c565b610935565b9050919050565b6000610ac382610a96565b9050919050565b6000610ad582610ab8565b9050919050565b610ae581610aca565b82525050565b6000602082019050610b006000830184610adc565b92915050565b600081519050610b1581610993565b92915050565b600060208284031215610b3157610b30610930565b5b6000610b3f84828501610b06565b91505092915050565b600082825260208201905092915050565b7f546869732066756e6374696f6e2063616e206f6e6c792062652063616c6c656460008201527f20627920746865206f7973746572546f6b656e20616464726573730000000000602082015250565b6000610bb5603b83610b48565b9150610bc082610b59565b604082019050919050565b60006020820190508181036000830152610be481610ba8565b9050919050565b6000606082019050610c006000830186610a35565b610c0d6020830185610a35565b610c1a6040830184610906565b949350505050565b610c2b816109ff565b8114610c3657600080fd5b50565b600081519050610c4881610c22565b92915050565b600060208284031215610c6457610c63610930565b5b6000610c7284828501610c39565b91505092915050565b7f546f6b656e207472616e73666572206661696c65640000000000000000000000600082015250565b6000610cb1601583610b48565b9150610cbc82610c7b565b602082019050919050565b60006020820190508181036000830152610ce081610ca4565b9050919050565b7f416d6f756e74206d7573742062652067726561746572207468616e207a65726f600082015250565b6000610d1d602083610b48565b9150610d2882610ce7565b602082019050919050565b60006020820190508181036000830152610d4c81610d10565b9050919050565b7f5661756c7420646f6573206e6f74206861766520656e6f75676820746f6b656e60008201527f7300000000000000000000000000000000000000000000000000000000000000602082015250565b6000610daf602183610b48565b9150610dba82610d53565b604082019050919050565b60006020820190508181036000830152610dde81610da2565b9050919050565b6000604082019050610dfa6000830185610a35565b610e076020830184610906565b939250505056fea26469706673582212205e288ca4b6a520481078a52da2e92f5e8e5b2fe8e66481ba29f3f163d2646aad64736f6c634300081c0033",
  "linkReferences": {},
  "deployedLinkReferences": {}
}