{
  "_format": "hh-sol-artifact-1",
  "contractName": "OysterToken",
  "sourceName": "contracts/OysterToken.sol",
  "abi": [
    {
      "inputs": [
        {
          "internalType": "address",
          "name": "initialOwner",
          "type": "address"
        }
      ],
      "stateMutability": "nonpayable",
      "type": "constructor"
    },
    {
      "inputs": [],
      "name": "ECDSAInvalidSignature",
      "type": "error"
    },
    {
      "inputs": [
        {
          "internalType": "uint256",
          "name": "length",
          "type": "uint256"
        }
      ],
      "name": "ECDSAInvalidSignatureLength",
      "type": "error"
    },
    {
      "inputs": [
        {
          "internalType": "bytes32",
          "name": "s",
          "type": "bytes32"
        }
      ],
      "name": "ECDSAInvalidSignatureS",
      "type": "error"
    },
    {
      "inputs": [
        {
          "internalType": "address",
          "name": "spender",
          "type": "address"
        },
        {
          "internalType": "uint256",
          "name": "allowance",
          "type": "uint256"
        },
        {
          "internalType": "uint256",
          "name": "needed",
          "type": "uint256"
        }
      ],
      "name": "ERC20InsufficientAllowance",
      "type": "error"
    },
    {
      "inputs": [
        {
          "internalType": "address",
          "name": "sender",
          "type": "address"
        },
        {
          "internalType": "uint256",
          "name": "balance",
          "type": "uint256"
        },
        {
          "internalType": "uint256",
          "name": "needed",
          "type": "uint256"
        }
      ],
      "name": "ERC20InsufficientBalance",
      "type": "error"
    },
    {
      "inputs": [
        {
          "internalType": "address",
          "name": "approver",
          "type": "address"
        }
      ],
      "name": "ERC20InvalidApprover",
      "type": "error"
    },
    {
      "inputs": [
        {
          "internalType": "address",
          "name": "receiver",
          "type": "address"
        }
      ],
      "name": "ERC20InvalidReceiver",
      "type": "error"
    },
    {
      "inputs": [
        {
          "internalType": "address",
          "name": "sender",
          "type": "address"
        }
      ],
      "name": "ERC20InvalidSender",
      "type": "error"
    },
    {
      "inputs": [
        {
          "internalType": "address",
          "name": "spender",
          "type": "address"
        }
      ],
      "name": "ERC20InvalidSpender",
      "type": "error"
    },
    {
      "inputs": [
        {
          "internalType": "uint256",
          "name": "deadline",
          "type": "uint256"
        }
      ],
      "name": "ERC2612ExpiredSignature",
      "type": "error"
    },
    {
      "inputs": [
        {
          "internalType": "address",
          "name": "signer",
          "type": "address"
        },
        {
          "internalType": "address",
          "name": "owner",
          "type": "address"
        }
      ],
      "name": "ERC2612InvalidSigner",
      "type": "error"
    },
    {
      "inputs": [
        {
          "internalType": "address",
          "name": "account",
          "type": "address"
        },
        {
          "internalType": "uint256",
          "name": "currentNonce",
          "type": "uint256"
        }
      ],
      "name": "InvalidAccountNonce",
      "type": "error"
    },
    {
      "inputs": [],
      "name": "InvalidShortString",
      "type": "error"
    },
    {
      "inputs": [
        {
          "internalType": "address",
          "name": "owner",
          "type": "address"
        }
      ],
      "name": "OwnableInvalidOwner",
      "type": "error"
    },
    {
      "inputs": [
        {
          "internalType": "address",
          "name": "account",
          "type": "address"
        }
      ],
      "name": "OwnableUnauthorizedAccount",
      "type": "error"
    },
    {
      "inputs": [
        {
          "internalType": "string",
          "name": "str",
          "type": "string"
        }
      ],
      "name": "StringTooLong",
      "type": "error"
    },
    {
      "anonymous": false,
      "inputs": [
        {
          "indexed": true,
          "internalType": "address",
          "name": "owner",
          "type": "address"
        },
        {
          "indexed": true,
          "internalType": "address",
          "name": "spender",
          "type": "address"
        },
        {
          "indexed": false,
          "internalType": "uint256",
          "name": "value",
          "type": "uint256"
        }
      ],
      "name": "Approval",
      "type": "event"
    },
    {
      "anonymous": false,
      "inputs": [
        {
          "indexed": false,
          "internalType": "address",
          "name": "caller",
          "type": "address"
        },
        {
          "indexed": false,
          "internalType": "uint256",
          "name": "value",
          "type": "uint256"
        }
      ],
      "name": "Buy100OSTToMusicContractCalled",
      "type": "event"
    },
    {
      "anonymous": false,
      "inputs": [
        {
          "indexed": false,
          "internalType": "address",
          "name": "caller",
          "type": "address"
        },
        {
          "indexed": false,
          "internalType": "uint256",
          "name": "value",
          "type": "uint256"
        },
        {
          "indexed": false,
          "internalType": "string",
          "name": "reason",
          "type": "string"
        }
      ],
      "name": "Buy100OSTToMusicContractFailed",
      "type": "event"
    },
    {
      "anonymous": false,
      "inputs": [],
      "name": "EIP712DomainChanged",
      "type": "event"
    },
    {
      "anonymous": false,
      "inputs": [
        {
          "indexed": true,
          "internalType": "address",
          "name": "previousOwner",
          "type": "address"
        },
        {
          "indexed": true,
          "internalType": "address",
          "name": "newOwner",
          "type": "address"
        }
      ],
      "name": "OwnershipTransferred",
      "type": "event"
    },
    {
      "anonymous": false,
      "inputs": [
        {
          "indexed": true,
          "internalType": "address",
          "name": "from",
          "type": "address"
        },
        {
          "indexed": true,
          "internalType": "address",
          "name": "to",
          "type": "address"
        },
        {
          "indexed": false,
          "internalType": "uint256",
          "name": "value",
          "type": "uint256"
        }
      ],
      "name": "Transfer",
      "type": "event"
    },
    {
      "anonymous": false,
      "inputs": [
        {
          "indexed": true,
          "internalType": "address",
          "name": "_address",
          "type": "address"
        },
        {
          "indexed": false,
          "internalType": "bool",
          "name": "valid",
          "type": "bool"
        }
      ],
      "name": "ValidatedMusicContract",
      "type": "event"
    },
    {
      "anonymous": false,
      "inputs": [
        {
          "indexed": true,
          "internalType": "address",
          "name": "to",
          "type": "address"
        },
        {
          "indexed": false,
          "internalType": "uint256",
          "name": "gweiAmount",
          "type": "uint256"
        }
      ],
      "name": "WeiRefunded",
      "type": "event"
    },
    {
      "inputs": [],
      "name": "DOMAIN_SEPARATOR",
      "outputs": [
        {
          "internalType": "bytes32",
          "name": "",
          "type": "bytes32"
        }
      ],
      "stateMutability": "view",
      "type": "function"
    },
    {
      "inputs": [
        {
          "internalType": "address",
          "name": "owner",
          "type": "address"
        },
        {
          "internalType": "address",
          "name": "spender",
          "type": "address"
        }
      ],
      "name": "allowance",
      "outputs": [
        {
          "internalType": "uint256",
          "name": "",
          "type": "uint256"
        }
      ],
      "stateMutability": "view",
      "type": "function"
    },
    {
      "inputs": [
        {
          "internalType": "address",
          "name": "spender",
          "type": "address"
        },
        {
          "internalType": "uint256",
          "name": "value",
          "type": "uint256"
        }
      ],
      "name": "approve",
      "outputs": [
        {
          "internalType": "bool",
          "name": "",
          "type": "bool"
        }
      ],
      "stateMutability": "nonpayable",
      "type": "function"
    },
    {
      "inputs": [
        {
          "internalType": "address",
          "name": "account",
          "type": "address"
        }
      ],
      "name": "balanceOf",
      "outputs": [
        {
          "internalType": "uint256",
          "name": "",
          "type": "uint256"
        }
      ],
      "stateMutability": "view",
      "type": "function"
    },
    {
      "inputs": [],
      "name": "buy100OSTToMusicContract",
      "outputs": [
        {
          "internalType": "bool",
          "name": "",
          "type": "bool"
        }
      ],
      "stateMutability": "payable",
      "type": "function"
    },
    {
      "inputs": [],
      "name": "decimals",
      "outputs": [
        {
          "internalType": "uint8",
          "name": "",
          "type": "uint8"
        }
      ],
      "stateMutability": "view",
      "type": "function"
    },
    {
      "inputs": [],
      "name": "eip712Domain",
      "outputs": [
        {
          "internalType": "bytes1",
          "name": "fields",
          "type": "bytes1"
        },
        {
          "internalType": "string",
          "name": "name",
          "type": "string"
        },
        {
          "internalType": "string",
          "name": "version",
          "type": "string"
        },
        {
          "internalType": "uint256",
          "name": "chainId",
          "type": "uint256"
        },
        {
          "internalType": "address",
          "name": "verifyingContract",
          "type": "address"
        },
        {
          "internalType": "bytes32",
          "name": "salt",
          "type": "bytes32"
        },
        {
          "internalType": "uint256[]",
          "name": "extensions",
          "type": "uint256[]"
        }
      ],
      "stateMutability": "view",
      "type": "function"
    },
    {
      "inputs": [
        {
          "internalType": "uint256",
          "name": "amount",
          "type": "uint256"
        }
      ],
      "name": "mintToVault",
      "outputs": [],
      "stateMutability": "nonpayable",
      "type": "function"
    },
    {
      "inputs": [],
      "name": "name",
      "outputs": [
        {
          "internalType": "string",
          "name": "",
          "type": "string"
        }
      ],
      "stateMutability": "view",
      "type": "function"
    },
    {
      "inputs": [
        {
          "internalType": "address",
          "name": "owner",
          "type": "address"
        }
      ],
      "name": "nonces",
      "outputs": [
        {
          "internalType": "uint256",
          "name": "",
          "type": "uint256"
        }
      ],
      "stateMutability": "view",
      "type": "function"
    },
    {
      "inputs": [],
      "name": "owner",
      "outputs": [
        {
          "internalType": "address",
          "name": "",
          "type": "address"
        }
      ],
      "stateMutability": "view",
      "type": "function"
    },
    {
      "inputs": [
        {
          "internalType": "address",
          "name": "owner",
          "type": "address"
        },
        {
          "internalType": "address",
          "name": "spender",
          "type": "address"
        },
        {
          "internalType": "uint256",
          "name": "value",
          "type": "uint256"
        },
        {
          "internalType": "uint256",
          "name": "deadline",
          "type": "uint256"
        },
        {
          "internalType": "uint8",
          "name": "v",
          "type": "uint8"
        },
        {
          "internalType": "bytes32",
          "name": "r",
          "type": "bytes32"
        },
        {
          "internalType": "bytes32",
          "name": "s",
          "type": "bytes32"
        }
      ],
      "name": "permit",
      "outputs": [],
      "stateMutability": "nonpayable",
      "type": "function"
    },
    {
      "inputs": [],
      "name": "renounceOwnership",
      "outputs": [],
      "stateMutability": "nonpayable",
      "type": "function"
    },
    {
      "inputs": [
        {
          "internalType": "contract OysterVault",
          "name": "_vault",
          "type": "address"
        }
      ],
      "name": "setVault",
      "outputs": [],
      "stateMutability": "nonpayable",
      "type": "function"
    },
    {
      "inputs": [],
      "name": "symbol",
      "outputs": [
        {
          "internalType": "string",
          "name": "",
          "type": "string"
        }
      ],
      "stateMutability": "view",
      "type": "function"
    },
    {
      "inputs": [],
      "name": "totalSupply",
      "outputs": [
        {
          "internalType": "uint256",
          "name": "",
          "type": "uint256"
        }
      ],
      "stateMutability": "view",
      "type": "function"
    },
    {
      "inputs": [
        {
          "internalType": "address",
          "name": "to",
          "type": "address"
        },
        {
          "internalType": "uint256",
          "name": "value",
          "type": "uint256"
        }
      ],
      "name": "transfer",
      "outputs": [
        {
          "internalType": "bool",
          "name": "",
          "type": "bool"
        }
      ],
      "stateMutability": "nonpayable",
      "type": "function"
    },
    {
      "inputs": [
        {
          "internalType": "address",
          "name": "from",
          "type": "address"
        },
        {
          "internalType": "address",
          "name": "to",
          "type": "address"
        },
        {
          "internalType": "uint256",
          "name": "value",
          "type": "uint256"
        }
      ],
      "name": "transferFrom",
      "outputs": [
        {
          "internalType": "bool",
          "name": "",
          "type": "bool"
        }
      ],
      "stateMutability": "nonpayable",
      "type": "function"
    },
    {
      "inputs": [
        {
          "internalType": "address",
          "name": "newOwner",
          "type": "address"
        }
      ],
      "name": "transferOwnership",
      "outputs": [],
      "stateMutability": "nonpayable",
      "type": "function"
    },
    {
      "inputs": [
        {
          "internalType": "address",
          "name": "",
          "type": "address"
        }
      ],
      "name": "validMusicContracts",
      "outputs": [
        {
          "internalType": "bool",
          "name": "",
          "type": "bool"
        }
      ],
      "stateMutability": "view",
      "type": "function"
    },
    {
      "inputs": [
        {
          "internalType": "address",
          "name": "addressMusicContract",
          "type": "address"
        }
      ],
      "name": "validateMusicContracts",
      "outputs": [
        {
          "internalType": "bool",
          "name": "",
          "type": "bool"
        }
      ],
      "stateMutability": "nonpayable",
      "type": "function"
    },
    {
      "inputs": [],
      "name": "vault",
      "outputs": [
        {
          "internalType": "contract OysterVault",
          "name": "",
          "type": "address"
        }
      ],
      "stateMutability": "view",
      "type": "function"
    }
  ],
  "bytecode": "0x61016060405234801561001157600080fd5b50604051613768380380613768833981810160405281019061003391906104a8565b6040518060400160405280600b81526020017f4f7973746572546f6b656e000000000000000000000000000000000000000000815250806040518060400160405280600181526020017f3100000000000000000000000000000000000000000000000000000000000000815250836040518060400160405280600b81526020017f4f7973746572546f6b656e0000000000000000000000000000000000000000008152506040518060400160405280600381526020017f4f53540000000000000000000000000000000000000000000000000000000000815250816003908161011c9190610725565b50806004908161012c9190610725565b505050600073ffffffffffffffffffffffffffffffffffffffff168173ffffffffffffffffffffffffffffffffffffffff16036101a15760006040517f1e4fbdf70000000000000000000000000000000000000000000000000000000081526004016101989190610806565b60405180910390fd5b6101b08161026260201b60201c565b506101c560068361032860201b90919060201c565b61012081815250506101e160078261032860201b90919060201c565b6101408181525050818051906020012060e08181525050808051906020012061010081815250504660a0818152505061021e61037860201b60201c565b608081815250503073ffffffffffffffffffffffffffffffffffffffff1660c08173ffffffffffffffffffffffffffffffffffffffff1681525050505050506109da565b6000600560009054906101000a900473ffffffffffffffffffffffffffffffffffffffff16905081600560006101000a81548173ffffffffffffffffffffffffffffffffffffffff021916908373ffffffffffffffffffffffffffffffffffffffff1602179055508173ffffffffffffffffffffffffffffffffffffffff168173ffffffffffffffffffffffffffffffffffffffff167f8be0079c531659141344cd1fd0a4f28419497f9722a3daafe3b4186f6b6457e060405160405180910390a35050565b600060208351101561034a57610343836103d360201b60201c565b9050610372565b8261035a8361043b60201b60201c565b60000190816103699190610725565b5060ff60001b90505b92915050565b60007f8b73c3c69bb8fe3d512ecc4cf759cc79239f7b179b0ffacaa9a75d522b39400f60e0516101005146306040516020016103b8959493929190610849565b60405160208183030381529060405280519060200120905090565b600080829050601f8151111561042057826040517f305a27a90000000000000000000000000000000000000000000000000000000081526004016104179190610921565b60405180910390fd5b80518161042c90610973565b60001c1760001b915050919050565b6000819050919050565b600080fd5b600073ffffffffffffffffffffffffffffffffffffffff82169050919050565b60006104758261044a565b9050919050565b6104858161046a565b811461049057600080fd5b50565b6000815190506104a28161047c565b92915050565b6000602082840312156104be576104bd610445565b5b60006104cc84828501610493565b91505092915050565b600081519050919050565b7f4e487b7100000000000000000000000000000000000000000000000000000000600052604160045260246000fd5b7f4e487b7100000000000000000000000000000000000000000000000000000000600052602260045260246000fd5b6000600282049050600182168061055657607f821691505b6020821081036105695761056861050f565b5b50919050565b60008190508160005260206000209050919050565b60006020601f8301049050919050565b600082821b905092915050565b6000600883026105d17fffffffffffffffffffffffffffffffffffffffffffffffffffffffffffffffff82610594565b6105db8683610594565b95508019841693508086168417925050509392505050565b6000819050919050565b6000819050919050565b600061062261061d610618846105f3565b6105fd565b6105f3565b9050919050565b6000819050919050565b61063c83610607565b61065061064882610629565b8484546105a1565b825550505050565b600090565b610665610658565b610670818484610633565b505050565b5b818110156106945761068960008261065d565b600181019050610676565b5050565b601f8211156106d9576106aa8161056f565b6106b384610584565b810160208510156106c2578190505b6106d66106ce85610584565b830182610675565b50505b505050565b600082821c905092915050565b60006106fc600019846008026106de565b1980831691505092915050565b600061071583836106eb565b9150826002028217905092915050565b61072e826104d5565b67ffffffffffffffff811115610747576107466104e0565b5b610751825461053e565b61075c828285610698565b600060209050601f83116001811461078f576000841561077d578287015190505b6107878582610709565b8655506107ef565b601f19841661079d8661056f565b60005b828110156107c5578489015182556001820191506020850194506020810190506107a0565b868310156107e257848901516107de601f8916826106eb565b8355505b6001600288020188555050505b505050505050565b6108008161046a565b82525050565b600060208201905061081b60008301846107f7565b92915050565b6000819050919050565b61083481610821565b82525050565b610843816105f3565b82525050565b600060a08201905061085e600083018861082b565b61086b602083018761082b565b610878604083018661082b565b610885606083018561083a565b61089260808301846107f7565b9695505050505050565b600082825260208201905092915050565b60005b838110156108cb5780820151818401526020810190506108b0565b60008484015250505050565b6000601f19601f8301169050919050565b60006108f3826104d5565b6108fd818561089c565b935061090d8185602086016108ad565b610916816108d7565b840191505092915050565b6000602082019050818103600083015261093b81846108e8565b905092915050565b600081519050919050565b6000819050602082019050919050565b600061096a8251610821565b80915050919050565b600061097e82610943565b826109888461094e565b90506109938161095e565b925060208210156109d3576109ce7fffffffffffffffffffffffffffffffffffffffffffffffffffffffffffffffff83602003600802610594565b831692505b5050919050565b60805160a05160c05160e051610100516101205161014051612d34610a3460003960006115f5015260006115ba01526000611b0a01526000611ae9015260006113ef015260006114450152600061146e0152612d346000f3fe6080604052600436106101355760003560e01c80637ecebe00116100ab578063a9059cbb1161006f578063a9059cbb14610425578063d505accf14610462578063dd62ed3e1461048b578063f2fde38b146104c8578063f89fbe6a146104f1578063fbfa77cf1461052e57610135565b80637ecebe001461034357806384b0196e146103805780638da5cb5b146103b1578063917b1bf5146103dc57806395d89b41146103fa57610135565b8063313ce567116100fd578063313ce567146102335780633644e5151461025e5780636817031b1461028957806370a08231146102b2578063715018a6146102ef5780637eb4cde71461030657610135565b806306fdde031461013a578063095ea7b31461016557806318160ddd146101a257806323b872dd146101cd57806324c938371461020a575b600080fd5b34801561014657600080fd5b5061014f610559565b60405161015c9190611ff7565b60405180910390f35b34801561017157600080fd5b5061018c600480360381019061018791906120b2565b6105eb565b604051610199919061210d565b60405180910390f35b3480156101ae57600080fd5b506101b761060e565b6040516101c49190612137565b60405180910390f35b3480156101d957600080fd5b506101f460048036038101906101ef9190612152565b610618565b604051610201919061210d565b60405180910390f35b34801561021657600080fd5b50610231600480360381019061022c91906121a5565b610647565b005b34801561023f57600080fd5b5061024861070f565b60405161025591906121ee565b60405180910390f35b34801561026a57600080fd5b50610273610718565b6040516102809190612222565b60405180910390f35b34801561029557600080fd5b506102b060048036038101906102ab919061227b565b610727565b005b3480156102be57600080fd5b506102d960048036038101906102d491906122a8565b610873565b6040516102e69190612137565b60405180910390f35b3480156102fb57600080fd5b506103046108bb565b005b34801561031257600080fd5b5061032d600480360381019061032891906122a8565b6108cf565b60405161033a919061210d565b60405180910390f35b34801561034f57600080fd5b5061036a600480360381019061036591906122a8565b610989565b6040516103779190612137565b60405180910390f35b34801561038c57600080fd5b5061039561099b565b6040516103a897969594939291906123dd565b60405180910390f35b3480156103bd57600080fd5b506103c6610a45565b6040516103d39190612461565b60405180910390f35b6103e4610a6f565b6040516103f1919061210d565b60405180910390f35b34801561040657600080fd5b5061040f610df0565b60405161041c9190611ff7565b60405180910390f35b34801561043157600080fd5b5061044c600480360381019061044791906120b2565b610e82565b604051610459919061210d565b60405180910390f35b34801561046e57600080fd5b50610489600480360381019061048491906124d4565b610ea5565b005b34801561049757600080fd5b506104b260048036038101906104ad9190612576565b610fed565b6040516104bf9190612137565b60405180910390f35b3480156104d457600080fd5b506104ef60048036038101906104ea91906122a8565b611074565b005b3480156104fd57600080fd5b50610518600480360381019061051391906122a8565b6110fa565b604051610525919061210d565b60405180910390f35b34801561053a57600080fd5b5061054361111a565b6040516105509190612615565b60405180910390f35b6060600380546105689061265f565b80601f01602080910402602001604051908101604052809291908181526020018280546105949061265f565b80156105e15780601f106105b6576101008083540402835291602001916105e1565b820191906000526020600020905b8154815290600101906020018083116105c457829003601f168201915b5050505050905090565b6000806105f6611140565b9050610603818585611148565b600191505092915050565b6000600254905090565b600080610623611140565b905061063085828561115a565b61063b8585856111ee565b60019150509392505050565b61064f6112e2565b600073ffffffffffffffffffffffffffffffffffffffff16600960009054906101000a900473ffffffffffffffffffffffffffffffffffffffff1673ffffffffffffffffffffffffffffffffffffffff16036106e0576040517f08c379a00000000000000000000000000000000000000000000000000000000081526004016106d7906126dc565b60405180910390fd5b61070c600960009054906101000a900473ffffffffffffffffffffffffffffffffffffffff1682611369565b50565b60006012905090565b60006107226113eb565b905090565b61072f6112e2565b600073ffffffffffffffffffffffffffffffffffffffff16600960009054906101000a900473ffffffffffffffffffffffffffffffffffffffff1673ffffffffffffffffffffffffffffffffffffffff16146107c0576040517f08c379a00000000000000000000000000000000000000000000000000000000081526004016107b790612748565b60405180910390fd5b600073ffffffffffffffffffffffffffffffffffffffff168173ffffffffffffffffffffffffffffffffffffffff160361082f576040517f08c379a0000000000000000000000000000000000000000000000000000000008152600401610826906127b4565b60405180910390fd5b80600960006101000a81548173ffffffffffffffffffffffffffffffffffffffff021916908373ffffffffffffffffffffffffffffffffffffffff16021790555050565b60008060008373ffffffffffffffffffffffffffffffffffffffff1673ffffffffffffffffffffffffffffffffffffffff168152602001908152602001600020549050919050565b6108c36112e2565b6108cd60006114a2565b565b60006108d96112e2565b6001600a60008473ffffffffffffffffffffffffffffffffffffffff1673ffffffffffffffffffffffffffffffffffffffff16815260200190815260200160002060006101000a81548160ff0219169083151502179055508173ffffffffffffffffffffffffffffffffffffffff167f9a62342b40f29e0bb7f7221d0d9d62210855ec99729d37ee9f7d66d98b0897c26001604051610978919061210d565b60405180910390a260019050919050565b600061099482611568565b9050919050565b6000606080600080600060606109af6115b1565b6109b76115ec565b46306000801b600067ffffffffffffffff8111156109d8576109d76127d4565b5b604051908082528060200260200182016040528015610a065781602001602082028036833780820191505090505b507f0f00000000000000000000000000000000000000000000000000000000000000959493929190965096509650965096509650965090919293949596565b6000600560009054906101000a900473ffffffffffffffffffffffffffffffffffffffff16905090565b6000600a60003373ffffffffffffffffffffffffffffffffffffffff1673ffffffffffffffffffffffffffffffffffffffff16815260200190815260200160002060009054906101000a900460ff16610afd576040517f08c379a0000000000000000000000000000000000000000000000000000000008152600401610af49061289b565b60405180910390fd5b7f9f3b8caca3d85ed44ec398188c9076e615b694aab7fb3ff92f2a5f646a15332e3334604051610b2e9291906128bb565b60405180910390a1624f5880341015610b7c576040517f08c379a0000000000000000000000000000000000000000000000000000000008152600401610b7390612956565b60405180910390fd5b6000606490506000624c4b40905060008134610b9891906129a5565b905082600960009054906101000a900473ffffffffffffffffffffffffffffffffffffffff1673ffffffffffffffffffffffffffffffffffffffff16631f4aad2a6040518163ffffffff1660e01b8152600401602060405180830381865afa158015610c08573d6000803e3d6000fd5b505050506040513d601f19601f82011682018060405250810190610c2c91906129ee565b1015610ca6577f083c1485603a2dae95ad66c053c553e6925fea6a7d655fa2d933577a7f6cf0133334604051610c63929190612a8d565b60405180910390a16040517f08c379a0000000000000000000000000000000000000000000000000000000008152600401610c9d90612ac9565b60405180910390fd5b600960009054906101000a900473ffffffffffffffffffffffffffffffffffffffff1673ffffffffffffffffffffffffffffffffffffffff1663412664ae33856040518363ffffffff1660e01b8152600401610d039291906128bb565b6020604051808303816000875af1158015610d22573d6000803e3d6000fd5b505050506040513d601f19601f82011682018060405250810190610d469190612b15565b506000811115610d98573373ffffffffffffffffffffffffffffffffffffffff166108fc829081150290604051600060405180830381858888f19350505050158015610d96573d6000803e3d6000fd5b505b3373ffffffffffffffffffffffffffffffffffffffff167ffec51bd7a12167abbae91302df382bf09c27aab7a4fddd88f056c6ab1c9b8e2082604051610dde9190612137565b60405180910390a26001935050505090565b606060048054610dff9061265f565b80601f0160208091040260200160405190810160405280929190818152602001828054610e2b9061265f565b8015610e785780601f10610e4d57610100808354040283529160200191610e78565b820191906000526020600020905b815481529060010190602001808311610e5b57829003601f168201915b5050505050905090565b600080610e8d611140565b9050610e9a8185856111ee565b600191505092915050565b83421115610eea57836040517f62791302000000000000000000000000000000000000000000000000000000008152600401610ee19190612137565b60405180910390fd5b60007f6e71edae12b1b97f4d1f60370fef10105fa2faae0126114a169c64845d6126c9888888610f198c611627565b89604051602001610f2f96959493929190612b42565b6040516020818303038152906040528051906020012090506000610f528261167e565b90506000610f6282878787611698565b90508973ffffffffffffffffffffffffffffffffffffffff168173ffffffffffffffffffffffffffffffffffffffff1614610fd657808a6040517f4b800e46000000000000000000000000000000000000000000000000000000008152600401610fcd929190612ba3565b60405180910390fd5b610fe18a8a8a611148565b50505050505050505050565b6000600160008473ffffffffffffffffffffffffffffffffffffffff1673ffffffffffffffffffffffffffffffffffffffff16815260200190815260200160002060008373ffffffffffffffffffffffffffffffffffffffff1673ffffffffffffffffffffffffffffffffffffffff16815260200190815260200160002054905092915050565b61107c6112e2565b600073ffffffffffffffffffffffffffffffffffffffff168173ffffffffffffffffffffffffffffffffffffffff16036110ee5760006040517f1e4fbdf70000000000000000000000000000000000000000000000000000000081526004016110e59190612461565b60405180910390fd5b6110f7816114a2565b50565b600a6020528060005260406000206000915054906101000a900460ff1681565b600960009054906101000a900473ffffffffffffffffffffffffffffffffffffffff1681565b600033905090565b61115583838360016116c8565b505050565b60006111668484610fed565b90507fffffffffffffffffffffffffffffffffffffffffffffffffffffffffffffffff81146111e857818110156111d8578281836040517ffb8f41b20000000000000000000000000000000000000000000000000000000081526004016111cf93929190612bcc565b60405180910390fd5b6111e7848484840360006116c8565b5b50505050565b600073ffffffffffffffffffffffffffffffffffffffff168373ffffffffffffffffffffffffffffffffffffffff16036112605760006040517f96c6fd1e0000000000000000000000000000000000000000000000000000000081526004016112579190612461565b60405180910390fd5b600073ffffffffffffffffffffffffffffffffffffffff168273ffffffffffffffffffffffffffffffffffffffff16036112d25760006040517fec442f050000000000000000000000000000000000000000000000000000000081526004016112c99190612461565b60405180910390fd5b6112dd83838361189f565b505050565b6112ea611140565b73ffffffffffffffffffffffffffffffffffffffff16611308610a45565b73ffffffffffffffffffffffffffffffffffffffff16146113675761132b611140565b6040517f118cdaa700000000000000000000000000000000000000000000000000000000815260040161135e9190612461565b60405180910390fd5b565b600073ffffffffffffffffffffffffffffffffffffffff168273ffffffffffffffffffffffffffffffffffffffff16036113db5760006040517fec442f050000000000000000000000000000000000000000000000000000000081526004016113d29190612461565b60405180910390fd5b6113e76000838361189f565b5050565b60007f000000000000000000000000000000000000000000000000000000000000000073ffffffffffffffffffffffffffffffffffffffff163073ffffffffffffffffffffffffffffffffffffffff1614801561146757507f000000000000000000000000000000000000000000000000000000000000000046145b15611494577f0000000000000000000000000000000000000000000000000000000000000000905061149f565b61149c611ac4565b90505b90565b6000600560009054906101000a900473ffffffffffffffffffffffffffffffffffffffff16905081600560006101000a81548173ffffffffffffffffffffffffffffffffffffffff021916908373ffffffffffffffffffffffffffffffffffffffff1602179055508173ffffffffffffffffffffffffffffffffffffffff168173ffffffffffffffffffffffffffffffffffffffff167f8be0079c531659141344cd1fd0a4f28419497f9722a3daafe3b4186f6b6457e060405160405180910390a35050565b6000600860008373ffffffffffffffffffffffffffffffffffffffff1673ffffffffffffffffffffffffffffffffffffffff168152602001908152602001600020549050919050565b60606115e760067f0000000000000000000000000000000000000000000000000000000000000000611b5a90919063ffffffff16565b905090565b606061162260077f0000000000000000000000000000000000000000000000000000000000000000611b5a90919063ffffffff16565b905090565b6000600860008373ffffffffffffffffffffffffffffffffffffffff1673ffffffffffffffffffffffffffffffffffffffff1681526020019081526020016000206000815480929190600101919050559050919050565b600061169161168b6113eb565b83611c0a565b9050919050565b6000806000806116aa88888888611c4b565b9250925092506116ba8282611d3f565b829350505050949350505050565b600073ffffffffffffffffffffffffffffffffffffffff168473ffffffffffffffffffffffffffffffffffffffff160361173a5760006040517fe602df050000000000000000000000000000000000000000000000000000000081526004016117319190612461565b60405180910390fd5b600073ffffffffffffffffffffffffffffffffffffffff168373ffffffffffffffffffffffffffffffffffffffff16036117ac5760006040517f94280d620000000000000000000000000000000000000000000000000000000081526004016117a39190612461565b60405180910390fd5b81600160008673ffffffffffffffffffffffffffffffffffffffff1673ffffffffffffffffffffffffffffffffffffffff16815260200190815260200160002060008573ffffffffffffffffffffffffffffffffffffffff1673ffffffffffffffffffffffffffffffffffffffff168152602001908152602001600020819055508015611899578273ffffffffffffffffffffffffffffffffffffffff168473ffffffffffffffffffffffffffffffffffffffff167f8c5be1e5ebec7d5bd14f71427d1e84f3dd0314c0f7b2291e5b200ac8c7c3b925846040516118909190612137565b60405180910390a35b50505050565b600073ffffffffffffffffffffffffffffffffffffffff168373ffffffffffffffffffffffffffffffffffffffff16036118f15780600260008282546118e59190612c03565b925050819055506119c4565b60008060008573ffffffffffffffffffffffffffffffffffffffff1673ffffffffffffffffffffffffffffffffffffffff1681526020019081526020016000205490508181101561197d578381836040517fe450d38c00000000000000000000000000000000000000000000000000000000815260040161197493929190612bcc565b60405180910390fd5b8181036000808673ffffffffffffffffffffffffffffffffffffffff1673ffffffffffffffffffffffffffffffffffffffff16815260200190815260200160002081905550505b600073ffffffffffffffffffffffffffffffffffffffff168273ffffffffffffffffffffffffffffffffffffffff1603611a0d5780600260008282540392505081905550611a5a565b806000808473ffffffffffffffffffffffffffffffffffffffff1673ffffffffffffffffffffffffffffffffffffffff168152602001908152602001600020600082825401925050819055505b8173ffffffffffffffffffffffffffffffffffffffff168373ffffffffffffffffffffffffffffffffffffffff167fddf252ad1be2c89b69c2b068fc378daa952ba7f163c4a11628f55a4df523b3ef83604051611ab79190612137565b60405180910390a3505050565b60007f8b73c3c69bb8fe3d512ecc4cf759cc79239f7b179b0ffacaa9a75d522b39400f7f00000000000000000000000000000000000000000000000000000000000000007f00000000000000000000000000000000000000000000000000000000000000004630604051602001611b3f959493929190612c37565b60405160208183030381529060405280519060200120905090565b606060ff60001b8314611b7757611b7083611ea3565b9050611c04565b818054611b839061265f565b80601f0160208091040260200160405190810160405280929190818152602001828054611baf9061265f565b8015611bfc5780601f10611bd157610100808354040283529160200191611bfc565b820191906000526020600020905b815481529060010190602001808311611bdf57829003601f168201915b505050505090505b92915050565b60006040517f190100000000000000000000000000000000000000000000000000000000000081528360028201528260228201526042812091505092915050565b60008060007f7fffffffffffffffffffffffffffffff5d576e7357a4501ddfe92f46681b20a08460001c1115611c8b576000600385925092509250611d35565b600060018888888860405160008152602001604052604051611cb09493929190612c8a565b6020604051602081039080840390855afa158015611cd2573d6000803e3d6000fd5b505050602060405103519050600073ffffffffffffffffffffffffffffffffffffffff168173ffffffffffffffffffffffffffffffffffffffff1603611d2657600060016000801b93509350935050611d35565b8060008060001b935093509350505b9450945094915050565b60006003811115611d5357611d52612ccf565b5b826003811115611d6657611d65612ccf565b5b0315611e9f5760016003811115611d8057611d7f612ccf565b5b826003811115611d9357611d92612ccf565b5b03611dca576040517ff645eedf00000000000000000000000000000000000000000000000000000000815260040160405180910390fd5b60026003811115611dde57611ddd612ccf565b5b826003811115611df157611df0612ccf565b5b03611e36578060001c6040517ffce698f7000000000000000000000000000000000000000000000000000000008152600401611e2d9190612137565b60405180910390fd5b600380811115611e4957611e48612ccf565b5b826003811115611e5c57611e5b612ccf565b5b03611e9e57806040517fd78bce0c000000000000000000000000000000000000000000000000000000008152600401611e959190612222565b60405180910390fd5b5b5050565b60606000611eb083611f17565b90506000602067ffffffffffffffff811115611ecf57611ece6127d4565b5b6040519080825280601f01601f191660200182016040528015611f015781602001600182028036833780820191505090505b5090508181528360208201528092505050919050565b60008060ff8360001c169050601f811115611f5e576040517fb3512b0c00000000000000000000000000000000000000000000000000000000815260040160405180910390fd5b80915050919050565b600081519050919050565b600082825260208201905092915050565b60005b83811015611fa1578082015181840152602081019050611f86565b60008484015250505050565b6000601f19601f8301169050919050565b6000611fc982611f67565b611fd38185611f72565b9350611fe3818560208601611f83565b611fec81611fad565b840191505092915050565b600060208201905081810360008301526120118184611fbe565b905092915050565b600080fd5b600073ffffffffffffffffffffffffffffffffffffffff82169050919050565b60006120498261201e565b9050919050565b6120598161203e565b811461206457600080fd5b50565b60008135905061207681612050565b92915050565b6000819050919050565b61208f8161207c565b811461209a57600080fd5b50565b6000813590506120ac81612086565b92915050565b600080604083850312156120c9576120c8612019565b5b60006120d785828601612067565b92505060206120e88582860161209d565b9150509250929050565b60008115159050919050565b612107816120f2565b82525050565b600060208201905061212260008301846120fe565b92915050565b6121318161207c565b82525050565b600060208201905061214c6000830184612128565b92915050565b60008060006060848603121561216b5761216a612019565b5b600061217986828701612067565b935050602061218a86828701612067565b925050604061219b8682870161209d565b9150509250925092565b6000602082840312156121bb576121ba612019565b5b60006121c98482850161209d565b91505092915050565b600060ff82169050919050565b6121e8816121d2565b82525050565b600060208201905061220360008301846121df565b92915050565b6000819050919050565b61221c81612209565b82525050565b60006020820190506122376000830184612213565b92915050565b60006122488261203e565b9050919050565b6122588161223d565b811461226357600080fd5b50565b6000813590506122758161224f565b92915050565b60006020828403121561229157612290612019565b5b600061229f84828501612266565b91505092915050565b6000602082840312156122be576122bd612019565b5b60006122cc84828501612067565b91505092915050565b60007fff0000000000000000000000000000000000000000000000000000000000000082169050919050565b61230a816122d5565b82525050565b6123198161203e565b82525050565b600081519050919050565b600082825260208201905092915050565b6000819050602082019050919050565b6123548161207c565b82525050565b6000612366838361234b565b60208301905092915050565b6000602082019050919050565b600061238a8261231f565b612394818561232a565b935061239f8361233b565b8060005b838110156123d05781516123b7888261235a565b97506123c283612372565b9250506001810190506123a3565b5085935050505092915050565b600060e0820190506123f2600083018a612301565b81810360208301526124048189611fbe565b905081810360408301526124188188611fbe565b90506124276060830187612128565b6124346080830186612310565b61244160a0830185612213565b81810360c0830152612453818461237f565b905098975050505050505050565b60006020820190506124766000830184612310565b92915050565b612485816121d2565b811461249057600080fd5b50565b6000813590506124a28161247c565b92915050565b6124b181612209565b81146124bc57600080fd5b50565b6000813590506124ce816124a8565b92915050565b600080600080600080600060e0888a0312156124f3576124f2612019565b5b60006125018a828b01612067565b97505060206125128a828b01612067565b96505060406125238a828b0161209d565b95505060606125348a828b0161209d565b94505060806125458a828b01612493565b93505060a06125568a828b016124bf565b92505060c06125678a828b016124bf565b91505092959891949750929550565b6000806040838503121561258d5761258c612019565b5b600061259b85828601612067565b92505060206125ac85828601612067565b9150509250929050565b6000819050919050565b60006125db6125d66125d18461201e565b6125b6565b61201e565b9050919050565b60006125ed826125c0565b9050919050565b60006125ff826125e2565b9050919050565b61260f816125f4565b82525050565b600060208201905061262a6000830184612606565b92915050565b7f4e487b7100000000000000000000000000000000000000000000000000000000600052602260045260246000fd5b6000600282049050600182168061267757607f821691505b60208210810361268a57612689612630565b5b50919050565b7f5661756c742061646472657373206e6f74207365740000000000000000000000600082015250565b60006126c6601583611f72565b91506126d182612690565b602082019050919050565b600060208201905081810360008301526126f5816126b9565b9050919050565b7f5661756c7420616c726561647920736574000000000000000000000000000000600082015250565b6000612732601183611f72565b915061273d826126fc565b602082019050919050565b6000602082019050818103600083015261276181612725565b9050919050565b7f496e76616c6964207661756c7420616464726573730000000000000000000000600082015250565b600061279e601583611f72565b91506127a982612768565b602082019050919050565b600060208201905081810360008301526127cd81612791565b9050919050565b7f4e487b7100000000000000000000000000000000000000000000000000000000600052604160045260246000fd5b7f546869732066756e6374696f6e2063616e206f6e6c792062652063616c6c656460008201527f20627920612076616c6964204d75736963436f6e74726163742061646472657360208201527f7300000000000000000000000000000000000000000000000000000000000000604082015250565b6000612885604183611f72565b915061289082612803565b606082019050919050565b600060208201905081810360008301526128b481612878565b9050919050565b60006040820190506128d06000830185612310565b6128dd6020830184612128565b9392505050565b7f496e73756666696369656e74205765692073656e7420746f2062757920746f6b60008201527f656e730000000000000000000000000000000000000000000000000000000000602082015250565b6000612940602383611f72565b915061294b826128e4565b604082019050919050565b6000602082019050818103600083015261296f81612933565b9050919050565b7f4e487b7100000000000000000000000000000000000000000000000000000000600052601160045260246000fd5b60006129b08261207c565b91506129bb8361207c565b92508282039050818111156129d3576129d2612976565b5b92915050565b6000815190506129e881612086565b92915050565b600060208284031215612a0457612a03612019565b5b6000612a12848285016129d9565b91505092915050565b7f4e6f7420656e6f75676820746f6b656e7320696e204f7973746572546f6b656e60008201527f20636f6e74726163740000000000000000000000000000000000000000000000602082015250565b6000612a77602983611f72565b9150612a8282612a1b565b604082019050919050565b6000606082019050612aa26000830185612310565b612aaf6020830184612128565b8181036040830152612ac081612a6a565b90509392505050565b60006020820190508181036000830152612ae281612a6a565b9050919050565b612af2816120f2565b8114612afd57600080fd5b50565b600081519050612b0f81612ae9565b92915050565b600060208284031215612b2b57612b2a612019565b5b6000612b3984828501612b00565b91505092915050565b600060c082019050612b576000830189612213565b612b646020830188612310565b612b716040830187612310565b612b7e6060830186612128565b612b8b6080830185612128565b612b9860a0830184612128565b979650505050505050565b6000604082019050612bb86000830185612310565b612bc56020830184612310565b9392505050565b6000606082019050612be16000830186612310565b612bee6020830185612128565b612bfb6040830184612128565b949350505050565b6000612c0e8261207c565b9150612c198361207c565b9250828201905080821115612c3157612c30612976565b5b92915050565b600060a082019050612c4c6000830188612213565b612c596020830187612213565b612c666040830186612213565b612c736060830185612128565b612c806080830184612310565b9695505050505050565b6000608082019050612c9f6000830187612213565b612cac60208301866121df565b612cb96040830185612213565b612cc66060830184612213565b95945050505050565b7f4e487b7100000000000000000000000000000000000000000000000000000000600052602160045260246000fdfea264697066735822122063c61f648268dd724e8f94caa26a80165b08648af8f02d8ea48d5154d527637264736f6c634300081c0033",
  "linkReferences": {},
  "deployedLinkReferences": {}
}