{
  "_format": "hh-sol-artifact-1",
  "contractName": "OysterToken",
  "sourceName": "contracts/OysterToken.sol",
  "abi": [
    {
      "inputs": [
        {
          "internalType": "address",
          "name": "initialOwner",
          "type": "address"
        }
      ],
      "stateMutability": "nonpayable",
      "type": "constructor"
    },
    {
      "inputs": [],
      "name": "ECDSAInvalidSignature",
      "type": "error"
    },
    {
      "inputs": [
        {
          "internalType": "uint256",
          "name": "length",
          "type": "uint256"
        }
      ],
      "name": "ECDSAInvalidSignatureLength",
      "type": "error"
    },
    {
      "inputs": [
        {
          "internalType": "bytes32",
          "name": "s",
          "type": "bytes32"
        }
      ],
      "name": "ECDSAInvalidSignatureS",
      "type": "error"
    },
    {
      "inputs": [
        {
          "internalType": "address",
          "name": "spender",
          "type": "address"
        },
        {
          "internalType": "uint256",
          "name": "allowance",
          "type": "uint256"
        },
        {
          "internalType": "uint256",
          "name": "needed",
          "type": "uint256"
        }
      ],
      "name": "ERC20InsufficientAllowance",
      "type": "error"
    },
    {
      "inputs": [
        {
          "internalType": "address",
          "name": "sender",
          "type": "address"
        },
        {
          "internalType": "uint256",
          "name": "balance",
          "type": "uint256"
        },
        {
          "internalType": "uint256",
          "name": "needed",
          "type": "uint256"
        }
      ],
      "name": "ERC20InsufficientBalance",
      "type": "error"
    },
    {
      "inputs": [
        {
          "internalType": "address",
          "name": "approver",
          "type": "address"
        }
      ],
      "name": "ERC20InvalidApprover",
      "type": "error"
    },
    {
      "inputs": [
        {
          "internalType": "address",
          "name": "receiver",
          "type": "address"
        }
      ],
      "name": "ERC20InvalidReceiver",
      "type": "error"
    },
    {
      "inputs": [
        {
          "internalType": "address",
          "name": "sender",
          "type": "address"
        }
      ],
      "name": "ERC20InvalidSender",
      "type": "error"
    },
    {
      "inputs": [
        {
          "internalType": "address",
          "name": "spender",
          "type": "address"
        }
      ],
      "name": "ERC20InvalidSpender",
      "type": "error"
    },
    {
      "inputs": [
        {
          "internalType": "uint256",
          "name": "deadline",
          "type": "uint256"
        }
      ],
      "name": "ERC2612ExpiredSignature",
      "type": "error"
    },
    {
      "inputs": [
        {
          "internalType": "address",
          "name": "signer",
          "type": "address"
        },
        {
          "internalType": "address",
          "name": "owner",
          "type": "address"
        }
      ],
      "name": "ERC2612InvalidSigner",
      "type": "error"
    },
    {
      "inputs": [
        {
          "internalType": "address",
          "name": "account",
          "type": "address"
        },
        {
          "internalType": "uint256",
          "name": "currentNonce",
          "type": "uint256"
        }
      ],
      "name": "InvalidAccountNonce",
      "type": "error"
    },
    {
      "inputs": [],
      "name": "InvalidShortString",
      "type": "error"
    },
    {
      "inputs": [
        {
          "internalType": "address",
          "name": "owner",
          "type": "address"
        }
      ],
      "name": "OwnableInvalidOwner",
      "type": "error"
    },
    {
      "inputs": [
        {
          "internalType": "address",
          "name": "account",
          "type": "address"
        }
      ],
      "name": "OwnableUnauthorizedAccount",
      "type": "error"
    },
    {
      "inputs": [
        {
          "internalType": "string",
          "name": "str",
          "type": "string"
        }
      ],
      "name": "StringTooLong",
      "type": "error"
    },
    {
      "anonymous": false,
      "inputs": [
        {
          "indexed": true,
          "internalType": "address",
          "name": "owner",
          "type": "address"
        },
        {
          "indexed": true,
          "internalType": "address",
          "name": "spender",
          "type": "address"
        },
        {
          "indexed": false,
          "internalType": "uint256",
          "name": "value",
          "type": "uint256"
        }
      ],
      "name": "Approval",
      "type": "event"
    },
    {
      "anonymous": false,
      "inputs": [],
      "name": "EIP712DomainChanged",
      "type": "event"
    },
    {
      "anonymous": false,
      "inputs": [
        {
          "indexed": true,
          "internalType": "address",
          "name": "previousOwner",
          "type": "address"
        },
        {
          "indexed": true,
          "internalType": "address",
          "name": "newOwner",
          "type": "address"
        }
      ],
      "name": "OwnershipTransferred",
      "type": "event"
    },
    {
      "anonymous": false,
      "inputs": [
        {
          "indexed": true,
          "internalType": "address",
          "name": "from",
          "type": "address"
        },
        {
          "indexed": true,
          "internalType": "address",
          "name": "to",
          "type": "address"
        },
        {
          "indexed": false,
          "internalType": "uint256",
          "name": "value",
          "type": "uint256"
        }
      ],
      "name": "Transfer",
      "type": "event"
    },
    {
      "anonymous": false,
      "inputs": [
        {
          "indexed": true,
          "internalType": "address",
          "name": "to",
          "type": "address"
        },
        {
          "indexed": false,
          "internalType": "uint256",
          "name": "weiAmount",
          "type": "uint256"
        }
      ],
      "name": "WeiRefunded",
      "type": "event"
    },
    {
      "anonymous": false,
      "inputs": [
        {
          "indexed": true,
          "internalType": "address",
          "name": "to",
          "type": "address"
        },
        {
          "indexed": false,
          "internalType": "uint256",
          "name": "weiAmount",
          "type": "uint256"
        }
      ],
      "name": "transferViaTokenSale",
      "type": "event"
    },
    {
      "anonymous": false,
      "inputs": [
        {
          "indexed": true,
          "internalType": "address",
          "name": "_address",
          "type": "address"
        },
        {
          "indexed": false,
          "internalType": "bool",
          "name": "valid",
          "type": "bool"
        }
      ],
      "name": "validatedMusicContract",
      "type": "event"
    },
    {
      "inputs": [],
      "name": "DOMAIN_SEPARATOR",
      "outputs": [
        {
          "internalType": "bytes32",
          "name": "",
          "type": "bytes32"
        }
      ],
      "stateMutability": "view",
      "type": "function"
    },
    {
      "inputs": [
        {
          "internalType": "address",
          "name": "owner",
          "type": "address"
        },
        {
          "internalType": "address",
          "name": "spender",
          "type": "address"
        }
      ],
      "name": "allowance",
      "outputs": [
        {
          "internalType": "uint256",
          "name": "",
          "type": "uint256"
        }
      ],
      "stateMutability": "view",
      "type": "function"
    },
    {
      "inputs": [
        {
          "internalType": "address",
          "name": "spender",
          "type": "address"
        },
        {
          "internalType": "uint256",
          "name": "value",
          "type": "uint256"
        }
      ],
      "name": "approve",
      "outputs": [
        {
          "internalType": "bool",
          "name": "",
          "type": "bool"
        }
      ],
      "stateMutability": "nonpayable",
      "type": "function"
    },
    {
      "inputs": [
        {
          "internalType": "address",
          "name": "account",
          "type": "address"
        }
      ],
      "name": "balanceOf",
      "outputs": [
        {
          "internalType": "uint256",
          "name": "",
          "type": "uint256"
        }
      ],
      "stateMutability": "view",
      "type": "function"
    },
    {
      "inputs": [],
      "name": "buy100OSTToMusicContract",
      "outputs": [
        {
          "internalType": "bool",
          "name": "",
          "type": "bool"
        }
      ],
      "stateMutability": "payable",
      "type": "function"
    },
    {
      "inputs": [],
      "name": "decimals",
      "outputs": [
        {
          "internalType": "uint8",
          "name": "",
          "type": "uint8"
        }
      ],
      "stateMutability": "view",
      "type": "function"
    },
    {
      "inputs": [],
      "name": "eip712Domain",
      "outputs": [
        {
          "internalType": "bytes1",
          "name": "fields",
          "type": "bytes1"
        },
        {
          "internalType": "string",
          "name": "name",
          "type": "string"
        },
        {
          "internalType": "string",
          "name": "version",
          "type": "string"
        },
        {
          "internalType": "uint256",
          "name": "chainId",
          "type": "uint256"
        },
        {
          "internalType": "address",
          "name": "verifyingContract",
          "type": "address"
        },
        {
          "internalType": "bytes32",
          "name": "salt",
          "type": "bytes32"
        },
        {
          "internalType": "uint256[]",
          "name": "extensions",
          "type": "uint256[]"
        }
      ],
      "stateMutability": "view",
      "type": "function"
    },
    {
      "inputs": [
        {
          "internalType": "uint256",
          "name": "amount",
          "type": "uint256"
        }
      ],
      "name": "mintToVault",
      "outputs": [],
      "stateMutability": "nonpayable",
      "type": "function"
    },
    {
      "inputs": [],
      "name": "name",
      "outputs": [
        {
          "internalType": "string",
          "name": "",
          "type": "string"
        }
      ],
      "stateMutability": "view",
      "type": "function"
    },
    {
      "inputs": [
        {
          "internalType": "address",
          "name": "owner",
          "type": "address"
        }
      ],
      "name": "nonces",
      "outputs": [
        {
          "internalType": "uint256",
          "name": "",
          "type": "uint256"
        }
      ],
      "stateMutability": "view",
      "type": "function"
    },
    {
      "inputs": [],
      "name": "owner",
      "outputs": [
        {
          "internalType": "address",
          "name": "",
          "type": "address"
        }
      ],
      "stateMutability": "view",
      "type": "function"
    },
    {
      "inputs": [
        {
          "internalType": "address",
          "name": "owner",
          "type": "address"
        },
        {
          "internalType": "address",
          "name": "spender",
          "type": "address"
        },
        {
          "internalType": "uint256",
          "name": "value",
          "type": "uint256"
        },
        {
          "internalType": "uint256",
          "name": "deadline",
          "type": "uint256"
        },
        {
          "internalType": "uint8",
          "name": "v",
          "type": "uint8"
        },
        {
          "internalType": "bytes32",
          "name": "r",
          "type": "bytes32"
        },
        {
          "internalType": "bytes32",
          "name": "s",
          "type": "bytes32"
        }
      ],
      "name": "permit",
      "outputs": [],
      "stateMutability": "nonpayable",
      "type": "function"
    },
    {
      "inputs": [],
      "name": "renounceOwnership",
      "outputs": [],
      "stateMutability": "nonpayable",
      "type": "function"
    },
    {
      "inputs": [
        {
          "internalType": "address",
          "name": "holder",
          "type": "address"
        },
        {
          "internalType": "uint256",
          "name": "amount",
          "type": "uint256"
        }
      ],
      "name": "sellOysterToken",
      "outputs": [
        {
          "internalType": "bool",
          "name": "",
          "type": "bool"
        }
      ],
      "stateMutability": "payable",
      "type": "function"
    },
    {
      "inputs": [
        {
          "internalType": "contract OysterVault",
          "name": "_vault",
          "type": "address"
        }
      ],
      "name": "setVault",
      "outputs": [],
      "stateMutability": "nonpayable",
      "type": "function"
    },
    {
      "inputs": [],
      "name": "symbol",
      "outputs": [
        {
          "internalType": "string",
          "name": "",
          "type": "string"
        }
      ],
      "stateMutability": "view",
      "type": "function"
    },
    {
      "inputs": [],
      "name": "totalSupply",
      "outputs": [
        {
          "internalType": "uint256",
          "name": "",
          "type": "uint256"
        }
      ],
      "stateMutability": "view",
      "type": "function"
    },
    {
      "inputs": [
        {
          "internalType": "address",
          "name": "to",
          "type": "address"
        },
        {
          "internalType": "uint256",
          "name": "value",
          "type": "uint256"
        }
      ],
      "name": "transfer",
      "outputs": [
        {
          "internalType": "bool",
          "name": "",
          "type": "bool"
        }
      ],
      "stateMutability": "nonpayable",
      "type": "function"
    },
    {
      "inputs": [
        {
          "internalType": "address",
          "name": "from",
          "type": "address"
        },
        {
          "internalType": "address",
          "name": "to",
          "type": "address"
        },
        {
          "internalType": "uint256",
          "name": "value",
          "type": "uint256"
        }
      ],
      "name": "transferFrom",
      "outputs": [
        {
          "internalType": "bool",
          "name": "",
          "type": "bool"
        }
      ],
      "stateMutability": "nonpayable",
      "type": "function"
    },
    {
      "inputs": [
        {
          "internalType": "address",
          "name": "newOwner",
          "type": "address"
        }
      ],
      "name": "transferOwnership",
      "outputs": [],
      "stateMutability": "nonpayable",
      "type": "function"
    },
    {
      "inputs": [
        {
          "internalType": "address",
          "name": "",
          "type": "address"
        }
      ],
      "name": "validMusicContracts",
      "outputs": [
        {
          "internalType": "bool",
          "name": "",
          "type": "bool"
        }
      ],
      "stateMutability": "view",
      "type": "function"
    },
    {
      "inputs": [
        {
          "internalType": "address",
          "name": "addressMusicContract",
          "type": "address"
        }
      ],
      "name": "validateMusicContracts",
      "outputs": [
        {
          "internalType": "bool",
          "name": "",
          "type": "bool"
        }
      ],
      "stateMutability": "nonpayable",
      "type": "function"
    },
    {
      "inputs": [],
      "name": "vault",
      "outputs": [
        {
          "internalType": "contract OysterVault",
          "name": "",
          "type": "address"
        }
      ],
      "stateMutability": "view",
      "type": "function"
    }
  ],
  "bytecode": "0x61016060405234801561001157600080fd5b50604051611e56380380611e5683398101604081905261003091610283565b6040518060400160405280600b81526020016a27bcb9ba32b92a37b5b2b760a91b81525080604051806040016040528060018152602001603160f81b815250836040518060400160405280600b81526020016a27bcb9ba32b92a37b5b2b760a91b8152506040518060400160405280600381526020016213d4d560ea1b81525081600390816100bf9190610352565b5060046100cc8282610352565b5050506001600160a01b0381166100fe57604051631e4fbdf760e01b8152600060048201526024015b60405180910390fd5b610107816101c0565b50610113826006610212565b61012052610122816007610212565b61014052815160208084019190912060e052815190820120610100524660a0526101af60e05161010051604080517f8b73c3c69bb8fe3d512ecc4cf759cc79239f7b179b0ffacaa9a75d522b39400f60208201529081019290925260608201524660808201523060a082015260009060c00160405160208183030381529060405280519060200120905090565b60805250503060c052506104829050565b600580546001600160a01b038381166001600160a01b0319831681179093556040519116919082907f8be0079c531659141344cd1fd0a4f28419497f9722a3daafe3b4186f6b6457e090600090a35050565b600060208351101561022e5761022783610245565b905061023f565b816102398482610352565b5060ff90505b92915050565b600080829050601f81511115610270578260405163305a27a960e01b81526004016100f59190610410565b805161027b8261045e565b179392505050565b60006020828403121561029557600080fd5b81516001600160a01b03811681146102ac57600080fd5b9392505050565b634e487b7160e01b600052604160045260246000fd5b600181811c908216806102dd57607f821691505b6020821081036102fd57634e487b7160e01b600052602260045260246000fd5b50919050565b601f82111561034d57806000526020600020601f840160051c8101602085101561032a5750805b601f840160051c820191505b8181101561034a5760008155600101610336565b50505b505050565b81516001600160401b0381111561036b5761036b6102b3565b61037f8161037984546102c9565b84610303565b6020601f8211600181146103b3576000831561039b5750848201515b600019600385901b1c1916600184901b17845561034a565b600084815260208120601f198516915b828110156103e357878501518255602094850194600190920191016103c3565b50848210156104015786840151600019600387901b60f8161c191681555b50505050600190811b01905550565b602081526000825180602084015260005b8181101561043e5760208186018101516040868401015201610421565b506000604082850101526040601f19601f83011684010191505092915050565b805160208083015191908110156102fd5760001960209190910360031b1b16919050565b60805160a05160c05160e05161010051610120516101405161197a6104dc60003960006110830152600061105601526000610fac01526000610f8401526000610edf01526000610f0901526000610f33015261197a6000f3fe6080604052600436106101405760003560e01c80637eb4cde7116100b6578063a9059cbb1161006f578063a9059cbb14610367578063d505accf14610387578063dd62ed3e146103a7578063f2fde38b146103ed578063f89fbe6a1461040d578063fbfa77cf1461043d57600080fd5b80637eb4cde7146102b05780637ecebe00146102d057806384b0196e146102f05780638da5cb5b14610318578063917b1bf51461034a57806395d89b411461035257600080fd5b806324c938371161010857806324c93837146101f2578063313ce567146102145780633644e515146102305780636817031b1461024557806370a0823114610265578063715018a61461029b57600080fd5b806306fdde0314610145578063095ea7b3146101705780630a3871eb146101a057806318160ddd146101b357806323b872dd146101d2575b600080fd5b34801561015157600080fd5b5061015a61045d565b60405161016791906115e3565b60405180910390f35b34801561017c57600080fd5b5061019061018b366004611612565b6104ef565b6040519015158152602001610167565b6101906101ae366004611612565b610509565b3480156101bf57600080fd5b506002545b604051908152602001610167565b3480156101de57600080fd5b506101906101ed36600461163e565b6106a2565b3480156101fe57600080fd5b5061021261020d36600461167f565b6106c6565b005b34801561022057600080fd5b5060405160128152602001610167565b34801561023c57600080fd5b506101c4610737565b34801561025157600080fd5b50610212610260366004611698565b610746565b34801561027157600080fd5b506101c4610280366004611698565b6001600160a01b031660009081526020819052604090205490565b3480156102a757600080fd5b5061021261080b565b3480156102bc57600080fd5b506101906102cb366004611698565b61081f565b3480156102dc57600080fd5b506101c46102eb366004611698565b61088b565b3480156102fc57600080fd5b506103056108a9565b60405161016797969594939291906116b5565b34801561032457600080fd5b506005546001600160a01b03165b6040516001600160a01b039091168152602001610167565b6101906108ef565b34801561035e57600080fd5b5061015a610bea565b34801561037357600080fd5b50610190610382366004611612565b610bf9565b34801561039357600080fd5b506102126103a236600461174d565b610c07565b3480156103b357600080fd5b506101c46103c23660046117c4565b6001600160a01b03918216600090815260016020908152604080832093909416825291909152205490565b3480156103f957600080fd5b50610212610408366004611698565b610d41565b34801561041957600080fd5b50610190610428366004611698565b600a6020526000908152604090205460ff1681565b34801561044957600080fd5b50600954610332906001600160a01b031681565b60606003805461046c906117fd565b80601f0160208091040260200160405190810160405280929190818152602001828054610498906117fd565b80156104e55780601f106104ba576101008083540402835291602001916104e5565b820191906000526020600020905b8154815290600101906020018083116104c857829003601f168201915b5050505050905090565b6000336104fd818585610d7c565b60019150505b92915050565b336000908152600a602052604081205460ff166105415760405162461bcd60e51b815260040161053890611837565b60405180910390fd5b600082116105915760405162461bcd60e51b815260206004820181905260248201527f416d6f756e74206d7573742062652067726561746572207468616e207a65726f6044820152606401610538565b600954604051630357291360e41b8152336004820152602481018490526001600160a01b03909116906335729130906044016020604051808303816000875af11580156105e2573d6000803e3d6000fd5b505050506040513d601f19601f8201168201806040525081019061060691906118a0565b50652d79883d2000600061061a84836118d8565b6040519091506001600160a01b0386169082156108fc029083906000818181858888f19350505050158015610653573d6000803e3d6000fd5b50846001600160a01b03167f66002148a13b0a635b2dd6a9f2f5f8dd5a438fc69cb89f096b1cb6facf14b2ea8260405161068f91815260200190565b60405180910390a2506001949350505050565b6000336106b0858285610d8e565b6106bb858585610e0c565b506001949350505050565b6106ce610e6b565b6009546001600160a01b031661071e5760405162461bcd60e51b815260206004820152601560248201527415985d5b1d081859191c995cdcc81b9bdd081cd95d605a1b6044820152606401610538565b600954610734906001600160a01b031682610e98565b50565b6000610741610ed2565b905090565b61074e610e6b565b6001600160a01b03811661079c5760405162461bcd60e51b8152602060048201526015602482015274496e76616c6964207661756c74206164647265737360581b6044820152606401610538565b6009546001600160a01b0316156107e95760405162461bcd60e51b815260206004820152601160248201527015985d5b1d08185b1c9958591e481cd95d607a1b6044820152606401610538565b600980546001600160a01b0319166001600160a01b0392909216919091179055565b610813610e6b565b61081d6000610ffd565b565b6000610829610e6b565b6001600160a01b0382166000818152600a6020908152604091829020805460ff1916600190811790915591519182527f8828c88ef46029fc10c19655c4c67e16d76903c9fbd9170b8298d51194ed7508910160405180910390a2506001919050565b6001600160a01b038116600090815260086020526040812054610503565b6000606080600080600060606108bd61104f565b6108c561107c565b60408051600080825260208201909252600f60f81b9b939a50919850469750309650945092509050565b336000908152600a602052604081205460ff1661091e5760405162461bcd60e51b815260040161053890611837565b65b5e620f48000606461c35060008361093783856118d8565b61094590633b9aca006118d8565b61094f91906118ef565b9050803410156109ad5760405162461bcd60e51b815260206004820152602360248201527f496e73756666696369656e74205765692073656e7420746f2062757920746f6b604482015262656e7360e81b6064820152608401610538565b60006109b98234611902565b905083600960009054906101000a90046001600160a01b03166001600160a01b0316631f4aad2a6040518163ffffffff1660e01b8152600401602060405180830381865afa158015610a0f573d6000803e3d6000fd5b505050506040513d601f19601f82011682018060405250810190610a339190611915565b1015610a935760405162461bcd60e51b815260206004820152602960248201527f4e6f7420656e6f75676820746f6b656e7320696e204f7973746572546f6b656e6044820152680818dbdb9d1c9858dd60ba1b6064820152608401610538565b8015610b3357604051600090339083908381818185875af1925050503d8060008114610adb576040519150601f19603f3d011682016040523d82523d6000602084013e610ae0565b606091505b5050905080610b315760405162461bcd60e51b815260206004820152601e60248201527f4661696c656420746f2073656e642072656d61696e696e6720457468657200006044820152606401610538565b505b600954604051632093325760e11b8152336004820152602481018690526001600160a01b039091169063412664ae906044016020604051808303816000875af1158015610b84573d6000803e3d6000fd5b505050506040513d601f19601f82011682018060405250810190610ba891906118a0565b5060405181815233907ffec51bd7a12167abbae91302df382bf09c27aab7a4fddd88f056c6ab1c9b8e209060200160405180910390a260019550505050505090565b60606004805461046c906117fd565b6000336104fd818585610e0c565b83421115610c2b5760405163313c898160e11b815260048101859052602401610538565b60007f6e71edae12b1b97f4d1f60370fef10105fa2faae0126114a169c64845d6126c9888888610c788c6001600160a01b0316600090815260086020526040902080546001810190915590565b6040805160208101969096526001600160a01b0394851690860152929091166060840152608083015260a082015260c0810186905260e0016040516020818303038152906040528051906020012090506000610cd3826110a9565b90506000610ce3828787876110d6565b9050896001600160a01b0316816001600160a01b031614610d2a576040516325c0072360e11b81526001600160a01b0380831660048301528b166024820152604401610538565b610d358a8a8a610d7c565b50505050505050505050565b610d49610e6b565b6001600160a01b038116610d7357604051631e4fbdf760e01b815260006004820152602401610538565b61073481610ffd565b610d898383836001611104565b505050565b6001600160a01b038381166000908152600160209081526040808320938616835292905220546000198114610e065781811015610df757604051637dc7a0d960e11b81526001600160a01b03841660048201526024810182905260448101839052606401610538565b610e0684848484036000611104565b50505050565b6001600160a01b038316610e3657604051634b637e8f60e11b815260006004820152602401610538565b6001600160a01b038216610e605760405163ec442f0560e01b815260006004820152602401610538565b610d898383836111d9565b6005546001600160a01b0316331461081d5760405163118cdaa760e01b8152336004820152602401610538565b6001600160a01b038216610ec25760405163ec442f0560e01b815260006004820152602401610538565b610ece600083836111d9565b5050565b6000306001600160a01b037f000000000000000000000000000000000000000000000000000000000000000016148015610f2b57507f000000000000000000000000000000000000000000000000000000000000000046145b15610f5557507f000000000000000000000000000000000000000000000000000000000000000090565b610741604080517f8b73c3c69bb8fe3d512ecc4cf759cc79239f7b179b0ffacaa9a75d522b39400f60208201527f0000000000000000000000000000000000000000000000000000000000000000918101919091527f000000000000000000000000000000000000000000000000000000000000000060608201524660808201523060a082015260009060c00160405160208183030381529060405280519060200120905090565b600580546001600160a01b038381166001600160a01b0319831681179093556040519116919082907f8be0079c531659141344cd1fd0a4f28419497f9722a3daafe3b4186f6b6457e090600090a35050565b60606107417f00000000000000000000000000000000000000000000000000000000000000006006611303565b60606107417f00000000000000000000000000000000000000000000000000000000000000006007611303565b60006105036110b6610ed2565b8360405161190160f01b8152600281019290925260228201526042902090565b6000806000806110e8888888886113ae565b9250925092506110f8828261147d565b50909695505050505050565b6001600160a01b03841661112e5760405163e602df0560e01b815260006004820152602401610538565b6001600160a01b03831661115857604051634a1406b160e11b815260006004820152602401610538565b6001600160a01b0380851660009081526001602090815260408083209387168352929052208290558015610e0657826001600160a01b0316846001600160a01b03167f8c5be1e5ebec7d5bd14f71427d1e84f3dd0314c0f7b2291e5b200ac8c7c3b925846040516111cb91815260200190565b60405180910390a350505050565b6001600160a01b0383166112045780600260008282546111f991906118ef565b909155506112769050565b6001600160a01b038316600090815260208190526040902054818110156112575760405163391434e360e21b81526001600160a01b03851660048201526024810182905260448101839052606401610538565b6001600160a01b03841660009081526020819052604090209082900390555b6001600160a01b038216611292576002805482900390556112b1565b6001600160a01b03821660009081526020819052604090208054820190555b816001600160a01b0316836001600160a01b03167fddf252ad1be2c89b69c2b068fc378daa952ba7f163c4a11628f55a4df523b3ef836040516112f691815260200190565b60405180910390a3505050565b606060ff831461131d5761131683611536565b9050610503565b818054611329906117fd565b80601f0160208091040260200160405190810160405280929190818152602001828054611355906117fd565b80156113a25780601f10611377576101008083540402835291602001916113a2565b820191906000526020600020905b81548152906001019060200180831161138557829003601f168201915b50505050509050610503565b600080807f7fffffffffffffffffffffffffffffff5d576e7357a4501ddfe92f46681b20a08411156113e95750600091506003905082611473565b604080516000808252602082018084528a905260ff891692820192909252606081018790526080810186905260019060a0016020604051602081039080840390855afa15801561143d573d6000803e3d6000fd5b5050604051601f1901519150506001600160a01b03811661146957506000925060019150829050611473565b9250600091508190505b9450945094915050565b60008260038111156114915761149161192e565b0361149a575050565b60018260038111156114ae576114ae61192e565b036114cc5760405163f645eedf60e01b815260040160405180910390fd5b60028260038111156114e0576114e061192e565b036115015760405163fce698f760e01b815260048101829052602401610538565b60038260038111156115155761151561192e565b03610ece576040516335e2f38360e21b815260048101829052602401610538565b6060600061154383611575565b604080516020808252818301909252919250600091906020820181803683375050509182525060208101929092525090565b600060ff8216601f81111561050357604051632cd44ac360e21b815260040160405180910390fd5b6000815180845260005b818110156115c3576020818501810151868301820152016115a7565b506000602082860101526020601f19601f83011685010191505092915050565b6020815260006115f6602083018461159d565b9392505050565b6001600160a01b038116811461073457600080fd5b6000806040838503121561162557600080fd5b8235611630816115fd565b946020939093013593505050565b60008060006060848603121561165357600080fd5b833561165e816115fd565b9250602084013561166e816115fd565b929592945050506040919091013590565b60006020828403121561169157600080fd5b5035919050565b6000602082840312156116aa57600080fd5b81356115f6816115fd565b60ff60f81b8816815260e0602082015260006116d460e083018961159d565b82810360408401526116e6818961159d565b606084018890526001600160a01b038716608085015260a0840186905283810360c08501528451808252602080870193509091019060005b8181101561173c57835183526020938401939092019160010161171e565b50909b9a5050505050505050505050565b600080600080600080600060e0888a03121561176857600080fd5b8735611773816115fd565b96506020880135611783816115fd565b95506040880135945060608801359350608088013560ff811681146117a757600080fd5b9699959850939692959460a0840135945060c09093013592915050565b600080604083850312156117d757600080fd5b82356117e2816115fd565b915060208301356117f2816115fd565b809150509250929050565b600181811c9082168061181157607f821691505b60208210810361183157634e487b7160e01b600052602260045260246000fd5b50919050565b60208082526043908201527f546869732066756e6374696f6e2063616e206f6e6c792062652063616c6c656460408201527f206279207468652076616c6964204d75736963436f6e7472616374206164647260608201526265737360e81b608082015260a00190565b6000602082840312156118b257600080fd5b815180151581146115f657600080fd5b634e487b7160e01b600052601160045260246000fd5b8082028115828204841417610503576105036118c2565b80820180821115610503576105036118c2565b81810381811115610503576105036118c2565b60006020828403121561192757600080fd5b5051919050565b634e487b7160e01b600052602160045260246000fdfea26469706673582212204273eb70ca90d417d728c746df35bc0f896edbd1bb626c03a378738cd29f681e64736f6c634300081c0033",
  "linkReferences": {},
  "deployedLinkReferences": {}
}